:100000006DC1000088C1000086C100000C945B0F28
:1000100082C100000C944C0F7EC100007CC1000026
:100020007AC1000078C1000076C1000074C10000F0
:1000300072C1000070C100000C940E0F6CC1000072
:100040006AC1000068C1000066C1000064C1000010
:1000500062C1000060C100005EC100005CC1000020
:100060005AC1000058C1000056C1000054C1000030
:100070003230323131323038303231320001050421
:1000800014101115FF3FFF3F7430CC1FC62C6C3984
:10009000212B9332E3351F372C377A364935C0335D
:1000A000F7316A340832013361308C304630B12F79
:1000B000E02EE22DC32C8B2B962B292AD4295029F4
:1000C000BD270E274826712537253E243F23C5220C
:1000D000BA2126211820751FC91EBF1D101D5D1CC9
:1000E000611BB01A001A161934188F17BB16EF15BA
:1000F0002B1546146D13C312DB1122115310730F0D
:10010000A10EDD0D0C0D490C7C0BA90AD1090809C3
:100110003D086F07A106D30506052E046703960266
:10012000CB01FF00FF00FF00FF00FF00FF00FF000A
:10013000FF00FF00FF00FF00FF00FF00FF00FF00C7
:10014000FF00FF00FF00FF00FF00FF00FF00FF00B7
:10015000FF00FF00FF00FF00FF00FF00FF00FF00A7
:10016000FF00FF00FF00FF00FF00FF00FF00FF0097
:10017000FF00FF00FF00FF00FF00FF00FF00FF0087
:10018000FF00FF00FF00FF00FF00FF00FF00FF0077
:10019000FF00FF00FF00FF00FF00FF00FF00FF0067
:1001A000FF00FF00FF00FF00FF00FF00FF00FF0057
:1001B0000000010001000100020003000300040030
:1001C000050006000700080009000A000B000D00EA
:1001D0000E001000110013001500170019001B007D
:1001E0001D001F002200240027002A002C002F00E1
:1001F0003200350039003C003F00430046004A0011
:100200004D005100550058005C006000630067001D
:100210006B006E007100750078007B007E0080002E
:100220008200850086008800890089008900890095
:1002300088008700850082007E007A0075006F00CC
:100240006800600057004C00410034002600160092
:10025000170019001A001B001C001D001E002000C2
:100260002100220024002500270028002A002B005E
:100270002D002F00310033003500370039003B00DE
:100280003D003F0042004400460049004C004E0043
:100290005100540057005A005D0060006300670081
:1002A0006A006E007100750079007D008100850094
:1002B00089008E00920097009B00A000A500AA0074
:1002C000AF00B500BA00C000C500CB00D100D70018
:1002D000DE00E400EA00F100F800FF0011241FBE78
:1002E000CFEFD4E0DEBFCDBF11E0A0E0B1E0E2EAA5
:1002F000F4E202C005900D92AE34B107D9F721E0C7
:10030000AEE4B1E001C01D92AB3FB207E1F70E943D
:100310006A0F0C944F1274CEF89498ED9FBD83BF72
:1003200078940895482F9B01E8ECF1E080E090E09C
:100330005081552331F00196339680319105C1F7F4
:100340000AC063E070E00E94F111FC01E853FE4F27
:1003500040833283218308950F931F93CF93DF93BC
:10036000D091C801DD2351F10091C9011091CA015A
:10037000C091A501C150C7FD0DC0EC2FEE0FFF0BC2
:10038000EA55FE4F0190F081E02DB8018D2F0995BF
:100390008111F0CFE8ECF1E0838180838481958145
:1003A00092838183339681E0E53FF807A9F71092A5
:1003B000F5011092F7011092F601D2CFDF91CF91A3
:1003C0001F910F910895BC018091FA01ABCF10925B
:1003D000FA011092F9011092F80181E080937D01F9
:1003E00008950F931F93CF93C82F08EA17E0CC23EB
:1003F00049F082E091DFC8010197F1F780E08CDFDE
:10040000C150F5CFCF911F910F9108958BB182FB11
:10041000882780F991E0892780939E010895E091D3
:100420000601F09107013196FB70F460F09307012B
:10043000E093060180919A018B5A80939A01E4918E
:1004400080919A018E0F08950F931F93CF93DF939E
:1004500000D01F92CDB7DEB720912101309122014B
:100460004091230129833A834B83FE01319640E07A
:1004700050E090E061E070E0B1919A01220F331FEB
:100480008C0102C0159507952A95E2F79801237013
:1004900061F02130D1F4A0B39B0101C0220FBA95C5
:1004A000EAF7322F30953A2318C0A0B39B0101C060
:1004B000220FBA95EAF720953A2F322330BB32B398
:1004C000322332BB31B323230EC0A0B39B0101C042
:1004D000220FBA95EAF73A2F322B30BB32B3322BC8
:1004E00032BB31B3232B21BB4F5F5F4F43305105EC
:1004F00019F60F900F900F90DF91CF911F910F91F0
:100500000895CF93DF9300D000D000D0CDB7DEB7F1
:10051000909178012091B6013091B70121523A4073
:1005200009F492E0843019F46093790121C06623C4
:10053000F9F0823019F427E9261B622F26E0E4E265
:10054000F1E0DE01119601900D922A95E1F7E82F76
:10055000F0E03197EE0FFF1F21E030E02C0F3D1F40
:10056000E20FF31F0190F081E02DE90FF11D608390
:1005700026960FB6F894DEBF0FBECDBFDF91CF91A8
:100580000895813011F460931D010895BF92CF92B8
:10059000DF92EF92FF920F931F93CF93DF93EC01C3
:1005A00040917801E0911B01EE2311F082E001C03F
:1005B000842F90E0DC01AB5EBE4F2C91209319019B
:1005C000DC01AE5EBE4F8C9180931801F0E0E15FDC
:1005D000FE4F3181622F70E0442349F0313039F40D
:1005E0009B01280F311DC9019595879538C0C61705
:1005F000D707A4F1682F70E06C177D0784F14111D3
:1006000002C08C2F2CC0821B032F10E00150110957
:10061000E82EF12CC701B8010E94221260937601E6
:100620006695E62FF0E0822FC12CD12CB12CB316A9
:10063000B1F0C601B8010E940E12822F860FCE0CB7
:10064000DF1CAE01481B510957FF03C0519541956E
:100650005109E417F5071CF4B394E9CF822FDF9119
:10066000CF911F910F91FF90EF90DF90CF90BF90AF
:10067000089581E00895611160931F010895662334
:1006800089F0813061F48091B9019091B801891BA2
:10069000681B6093B80182E08093200103C0635E11
:1006A00060931E0180911E01873418F086E48093C8
:1006B0001E0108956093710108950F931F93CF93C6
:1006C000DF938091780180937E0180911501809362
:1006D0007F01809112018093800180910F018093AE
:1006E0008101809116018093820180911301809392
:1006F0008301809110018093840180911701809380
:10070000850180911401809386018091110180936D
:10071000870180911B0180938801809179018093EA
:1007200089018091770180938A0180911A018093D9
:100730008B0180917B0180938C0180917A01809361
:100740008D0180911D0180938E0180910B0180931A
:100750008F01809109018093900180910A0180931B
:100760009101809108018093920180910C01809306
:10077000930180911E01809394018091B801809330
:10078000950180911F018093960180910E018093C5
:10079000970180910D018093980180917101809360
:1007A000990182E01EDEF8940EE711E0C1E8D0E086
:1007B000F80161918F01CE010E943D122196CD3941
:1007C000D105B1F765EA80E890E00E943D12789487
:1007D000DF91CF911F910F910895882321F08130EF
:1007E00031F4829805C0829892988A980895829AE6
:1007F000929A8A9A0895CF93C82F80919C01811173
:1008000009C0CC2339F080911D01C81718F4F3DF1B
:1008100082E0E7DDC0939C01C0939B0180919D0124
:1008200081110BC011DE91E0C11101C090E081E0A7
:10083000C33308F480E0890FD0DFC11106C01092E5
:100840006D0010926C0068982CC0689A8FEF8C0F26
:1008500090E0880F991FFC01E055FE4F25913491DF
:1008600030936D0020936C00FC01EC57FF4F2591F5
:10087000349180915901A90140545109882339F0DC
:1008800060916E0070916F0046175707B8F3309370
:10089000690020936800811104C010926F001092CB
:1008A0006E00C093590180919C01843010F482E065
:1008B00005C08C3010F481E001C080E0CF912CCDD8
:1008C00080937C0198CFCF93C0919C0182E38C0FE1
:1008D000873908F080E08FDF83E083DD8C2FCF91B4
:1008E0008ACFCF93C0919C0180E085DF83E079DDE2
:1008F0008C2FCF9180CF0F931F93CF93E82F8091B0
:10090000BB019FEF980F9C3120F480E09DDD80E0DB
:100910007BC0CE2FC295CF70EF7090919D01911149
:1009200003C0C33008F0C2E0E73008F441C0E7304C
:10093000A9F40091530110E00F5F1F4F70DD65E0D7
:100940000E9402129801290F311DC90166E070E072
:100950000E94221280935301FC0135C0E830B1F4AB
:1009600080919D01882311F08FE001C083E068230E
:1009700051F48091530190E0019666E070E00E948E
:10098000221280935301E091530112C090919D0176
:10099000992381F08D31D8F090E0E92FF0E0E35C0D
:1009A000FE4F2081821710F09E5FF7CF3197E081D4
:1009B000F0E009C0862F869563E00E940212E92FBD
:1009C000F0E0EE0FFF1FE358FF4FE49101C0E0E0BD
:1009D000C33071F48091520190E0019663E170E0C0
:1009E0000E940E1280935201DC01A65DBE4FCC9195
:1009F000CC2329F0C13029F0EE0FC2E002C0C0E0E4
:100A0000E0E08E2F21DD8C2FCF911F910F91E5CE4D
:100A1000813019F410927B010895823019F46093AB
:100A20007A010895833019F4609377010895843032
:100A300011F460931A010895CF93C0911B01C11165
:100A40004AC0883039F410927501109273011092E7
:100A5000720142C0813B59F480917501815083300D
:100A6000D0F583E0809375018093740134C0853B99
:100A7000B1F4CB016EE370E00E940E12892B61F598
:100A8000809175018A3F40F58B5F8093750180935B
:100A90007401109273011092720115DF1DC0813034
:100AA000D1F48091720190917301019688382EE003
:100AB000920728F490937301809372010DC01092F5
:100AC00073011092720180917501882329F0815081
:100AD0008093750101C0C1E08C2FCF910895FF92E2
:100AE0000F931F93CF93DF938C01EB01F42E809132
:100AF000B6019091B701892B31F0E091B601F091E8
:100B0000B70189E009951093B7010093B601012B55
:100B100039F0E091B601F091B701BE018F2D099532
:100B200081E080937D01DF91CF911F910F91FF9024
:100B30000895CF93DF93E091A501EE2359F0E150A2
:100B4000E093A501F0E0EE0FFF1FEA55FE4FC081D4
:100B5000D18102C0C0E0D0E0E091A501EE2341F0D8
:100B6000F0E0EE0FFF1FEC55FE4F8081918102C037
:100B700080E090E04AE060E070E0B1DFCE01DF911C
:100B8000CF910895883029F410926E01109254018B
:100B900015C08130F9F490915401911107C0603271
:100BA000710568F18093540112DC29C0913081F401
:100BB0006B3B710528F082E08093540180E01EC0F9
:100BC00061157105E1F06270862F880F8E5E16C088
:100BD000B0DF15C0813811F0813E89F491E0909327
:100BE0005401813E21F480916E01865F03C08091A3
:100BF0006E018F5F80936E01EADB8BE4FCDD80E0A9
:100C000008959C019091A501983088F4E92FF0E0B7
:100C1000EE0FFF1FEA55FE4F318320839F5F9093B5
:100C2000A50148E0C9015BDF8091A50108958FEF20
:100C300008950F931F93CF93DF93EC018B0179DF1E
:100C4000B801CE01DF91CF911F910F91DACF813C96
:100C500029F460E070E082EC96E006C0823C39F452
:100C600060E070E088E896E0E4DF80E0089581E0ED
:100C70000895843011F58091B6019091B7012DE06F
:100C80008034920729F469E170E084ED97E013C0A5
:100C9000845D974061F490919C01923040F0892FDF
:100CA000869596959695890F0BDE80E0089560E015
:100CB00070E082EC96E0BDDFF8CF81E00895813CE2
:100CC00029F460E070E082EC96E006C0823C31F4EA
:100CD00060E070E087E296E0ACDF16C0813B49F44B
:100CE000CB016EE370E00E940E12892B69F4EBDDFC
:100CF0000BC0813E59F4CB016EE370E00E940E12EE
:100D00006F5F60930C01D9DC80E0089581E0089565
:100D1000CF93C0911B01C11117C0813C29F460E041
:100D200070E082EC96E006C0823C31F460E070E056
:100D300088EA96E07EDF09C0873B31F460E070E02E
:100D40008DE29AE05EDF01C0C1E08C2FCF91089563
:100D5000813C29F460E070E082EC96E006C0823CC1
:100D600031F460E070E08FE596E063DF07C0873B19
:100D700039F460E070E081E39AE043DF80E00895B9
:100D800081E008950F931F93CF938B01883079F4FE
:100D900080E031DD60E080910E01ADDD10927501E3
:100DA000012B19F481E080939D01C0E0F8C08130EF
:100DB00049F469317105C8F380939D0180910E015A
:100DC0009ADDF3CF833009F520917B01222361F076
:100DD00080917A0190E062EC71E00E94F1110817B5
:100DE000190710F020931C01602F80910E0183DD04
:100DF000809171018823C9F290E062EC71E00E9459
:100E0000F1118017910788F64DC0813B99F481E07C
:100E100090E0BCDBF0DC809177018111C6CF80913E
:100E20007801811104C00831110508F4BECF61E0DA
:100E300070E028C0813ED9F3813821F480911C01F3
:100E400090E013C0813C21F460919C0170E01AC0D5
:100E5000823B79F480911A0190911B01911180914C
:100E60007901811104C086E990E090DB05C086E934
:100E700003C0823E19F480E0BEDC97CF823C31F49F
:100E800066E970E084ED97E0D4DE8FCF833999F383
:100E9000833C29F460E070E088E896E0F5CF843C7C
:100EA00031F411DD60E070E089E39AE0EDCF8D3B35
:100EB00041F4F89488ED8FBD88E880BF7894A895B8
:100EC000FFCF8F3C29F460E070E089E393E0DCCF52
:100ED000C0911B018A3B71F4672B61F4CC2329F08C
:100EE000F2DC10921B01E9DB60CF60E070E081E290
:100EF0009AE052C0C11152C08A3C29F4E4DC81E07E
:100F000080931B013FC0833B29F460E070E080E4E4
:100F10009DE007C0853C39F4D6DC60E070E086ECEB
:100F20009EE087DE3CC0873C91F490910E01892FB2
:100F300082958F708F5F83708295807F9F70892BE1
:100F400080930E0160E0D7DCB8DBBDDC28C0873BB6
:100F5000B9F4C8018F739927892B69F490910E0118
:100F6000892F8F708F5F292F207F6BE00E940212E4
:100F7000922B90930E01602F80910E01BCDC0FC06C
:100F8000873E11F49ADB0BC0893B41F4012B31F40D
:100F900060E070E089E29AE034DE01C0C1E08C2FAD
:100FA000CF911F910F910895AF92BF92CF92DF9290
:100FB000EF92FF920F931F93CF93DF93182FEB01C4
:100FC000D0901901E0901801B0907801BB2019F081
:100FD000C090760102C0CC24C39480911A01009184
:100FE0001B01011180917901882349F0813021F0A2
:100FF00080911C018E1518F0A6E9FA2E01C0FE2C76
:10100000A0907501BE01812F17DD609175016623E7
:1010100039F0A1100CC080919C018093580107C049
:10102000AA2029F060E070E082EC96E038C0812FC1
:101030008D7F8830D1F4109270011A3019F4C0916C
:101040001C01D0E08D2D90E08C179D0730F4F12C21
:10105000CE15DF0510F4C0931C01CE0197DA30DC09
:1010600081E08093050100E099C1113CD9F2123C66
:1010700071F480919C018F1510F48F2D02C0809126
:101080001C011EDC80919C0180935801ECCF143C24
:1010900041F480E0B0DB60E070E089E39AE0C9DD14
:1010A000E2CF8FE4810F823008F056C0BB2041F0C0
:1010B000CE0168E170E00E940E12892B31F0D3CF8F
:1010C00060910F0170E0CE01F6CF20919C01209736
:1010D00061F4123B11F48FEF05C02E15E0F7D21624
:1010E00008F181E0809305011DC0E0910F01F0E05F
:1010F000CF0166E371E00E94F1118C179D0710F497
:101100002E1548F7CF016CE672E00E94F1118C17A2
:101110009D0740F4D21630F0D6DB60E070E089E342
:101120009AE087DDD0919C01809105016C2D70E0E3
:10113000082E000C990B0E94F1118D0F911D26DADB
:10114000C82F80931C01D81729F0863911F0E812B6
:1011500001C0C7DB8C2F95CF8FE1810F823020F447
:101160008091050181957DCF113009F090C0A9973C
:1011700011F4109305016623A1F08091580170E0ED
:101180006150710990E00E94F1116091740170E06A
:101190000E942212611101C061E060939B01609383
:1011A0007C01C0919B0180919C012C2F30E0281B79
:1011B000310960915601709157016F5F7F4F7093B5
:1011C0005701609356012115310509F44CCF37FFC3
:1011D00005C08D3830F040E450E005C040E052E0FA
:1011E00002C040E051E05695479537FF02C02F5F9F
:1011F0003F4F3595279521153105A9F74617570714
:1012000008F031CFC81710F4815005C08C1710F4C6
:101210008F5F01C08C2FEFEFE80FF0E0EE0FFF1FA4
:101220009F0120553E4FF9014591549160916C000A
:1012300070916D006417750738F440916C005091FF
:101240006D004F5F5F4F0DC060916C0070916D003D
:101250004617570750F440916C0050916D00415073
:10126000510950936D0040936C0040916C00509177
:101270006D00F901259134914217530719F4BBDA37
:10128000C0939B011092570110925601ECCE15307D
:10129000A9F480919C01813508F4E5CE90E08C1B87
:1012A0009D0B282F803591052CF08739910518F07A
:1012B00026E901C020E520939B01D5CE1630B1F47C
:1012C00090919C0180917C01981708F0CCCEC90FB9
:1012D000D11D90E08C179D0734F0C035D10524F462
:1012E000C0E5D0E001C0EC018C2F0EC0173079F4BE
:1012F00090919B0180919C01891710F48F5F04C02D
:10130000981708F0B0CE815080939B01ACCE0111AC
:1013100044C0133C99F481E0B11080E080937801DF
:10132000CCD9DFDA80919C0190E030D980931C0108
:10133000C7DA80919C018093580130C0133B29F497
:10134000CD2B09F090CE8F2D04C0133E21F4809157
:101350001C01B6DA23C0153C41F480E04CDA60E0B1
:1013600070E086EC9EE065DC19C0173B29F460E074
:1013700070E08DE19AE00FC01A3C39F480919C0135
:1013800080937B019AD99FDA09C01A3B31F460E05F
:1013900070E085E29AE035DC01C001E0802FDF914A
:1013A000CF911F910F91FF90EF90DF90CF90BF9062
:1013B000AF900895883061F41092550180E01BDAF7
:1013C00080919E01811137C081E08093550123C037
:1013D000982F907F903BB9F420915501421780F0EF
:1013E000CB016DE570E00E940E12029739F42F5F79
:1013F000209355014217F8F088E303C082E101C051
:1014000080E0F9D918C0903E61F48091550188239D
:1014100089F0481778F060E070E082EC95E0F1DB4D
:101420000AC08A3041F460916E0180915501F90142
:10143000099543D97EDB80E0089521E832E043E05E
:10144000B9CF21E832E044E0B5CF28E035E044E010
:10145000B1CF21EC32E041E0ADCF2BE333E041E00E
:10146000A9CF2FE333E042E0A5CF2AE533E041E006
:10147000A1CF0F931F93CF93DF93D82F8B01873B7F
:1014800019F480E0B8D954C080798039B1F4209142
:101490001501909116018D2F8F70823041F480914B
:1014A0007B01811108C0822F291728F403C0822FE5
:1014B000921708F4892F9FD90BC0803811F480E06F
:1014C0009AD9D83029F460E080910D0114DA30C047
:1014D000D13039F40931110508F466C0D0939D016B
:1014E00002C0D33029F4602F80910D0104DA5CC072
:1014F000D43C71F4C0917B01CC2319F06C2F70E0C7
:1015000013C060911C0170E084ED97E092DB4FC046
:10151000D43B31F4D8D91092FA0161E070E004C0F4
:10152000D53C31F466E970E084ED97E082DB3CC0A5
:10153000C0911B01C1113AC0DA3B31F460E070E0A8
:1015400085E39AE05EDB33C0D73C91F490910D01C6
:10155000892F82958F708F5F83708295807F9F70B7
:10156000892B80930D0160E0C6D9A7D8ACD91FC0E4
:10157000D73BB1F4C8018F739927892B61F49091FF
:101580000D01892F8F708F5F292F207F6BE03AD755
:10159000922B90930D01602F80910D01ACD907C063
:1015A000D73E21F48AD803C0C0E001C0C1E08C2F2F
:1015B000DF91CF911F910F91089586E884B9109221
:1015C000C5011092C60183B1886483B90895F5DF1F
:1015D000E1E6F0E0808182608083139A87EE83B930
:1015E00008951092C70120B191B130919A012295CE
:1015F000269526952370892F90E0880F991F880FD4
:10160000991F820F911D830F80939A018091BC01D5
:10161000882309F406C11092BC018091C501909104
:101620009D01992319F01F981092C50181113DC0A9
:1016300080912001882349F08091C1019091C201DD
:101640009093BE018093BD0104C08091BD01909133
:10165000BE014096807E9695879561EC72E0DED65D
:1016600080911F018750680F6093BB0180916D01CD
:10167000882311F0815008C06D3140F460E070E0C3
:1016800084E00E94920185E080936D0180919D012C
:101690008111BEC08EE884B981E08093C5011092AB
:1016A000C60183B1886483B9B3C0813009F0B0C08A
:1016B00080912001811143C08091BF019091C001B0
:1016C000409645E0969587954A95E1F76091B80177
:1016D000AC0156954795062E000C770B9B012E50BA
:1016E0003140240F351F3093BA012093B901209166
:1016F0005C01E22FF0E0EE0FFF1FE35AFE4F408146
:101700005181DC01A41BB50BAD01918380832F5F58
:10171000277020935C019D01220F331F220F331F7E
:10172000820F931F20911E0130E0261B370B225F92
:101730003E4F220F331F821B930B23E01CC080916E
:10174000C3019091C4019093C0018093BF01409662
:1017500035E0969587953A95E1F7EDE5F1E08193CF
:101760009193B1E0ED36FB07D1F7A6CF009709F0D2
:101770000196215029F018161906C4F70197F9CFE0
:1017800018161906E4F457FD39C020915B011216B2
:101790000CF1880F991FBC016350710977FF02C0DB
:1017A0006F5F7F4F759567951616170614F061E009
:1017B00070E088E1861B80935B0185E026C08C3F4A
:1017C0002FEF9207DCF457FF19C020915B0127FF30
:1017D00005C02450281B20935B0119C024EE281B50
:1017E00020935B012091BB012F3188F06CEF7FEFDC
:1017F000681B790B7595679586E007C08091BB01E2
:101800008E3128F060E070E087E00E949201D5DE22
:1018100080912001882329F08091200181508093BC
:10182000200108950F931F93CF931092A0018091F0
:10183000F8019091F9019C012F5F3F4F8827907824
:10184000822B932B9093F9018093F801C0919E0114
:101850000E940602C81731F110929D0180939E01EB
:101860009091FA01882359F0892F80699F709F30E9
:1018700009F08F5F8093FA0180E090E00DC0892F1E
:101880008F7E95FD02C0806801C0806C8093FA0154
:101890008091F8019091F9010E94E3011092F90101
:1018A0001092F8010091F8011091F90180919D01C9
:1018B000882379F0B80183E00E9492010E94AC0174
:1018C0000F731127012B09F046C010925A017FDED9
:1018D00032C0C091FA018C2F807F803B19F460E008
:1018E00070E001C0B80181E00E949201C4FF13C002
:1018F000C5FF02C0C8010CC008311105E0F010920C
:10190000F9011092F801C062C093FA0180E090E002
:101910000E94E30110C0CC2371F0C5FD0AC0023162
:10192000110548F0C064C093FA0180E090E00E9485
:10193000E3010E94E70180915A01811106C083B141
:10194000886483B981E08093BC0180915A018F5FE4
:101950008F7180935A01CF911F910F9108958091BB
:10196000C70181113EDE8091A00181115BCF0895F6
:10197000EF92FF920F931F93CF93DF93EC0108E058
:1019800017E082ECE82EFF24F3942097D9F08091A1
:101990007D01811119C080919C01843028F482E07E
:1019A0000E948C01C70104C080E00E948C01C80124
:1019B0000197F1F780E00E948C01D1DF0E94AC0119
:1019C0002197E3CF81E001C080E0DF91CF911F91AB
:1019D0000F91FF90EF900895CF93C82F882391F037
:1019E00082E30E94FB0386EA90E0C2DF80E00E946F
:1019F000FB038AEF90E0BCDFC15091F78AE992E0E7
:101A0000CF91B6CF82E30E94FB0388E090E0B0DF85
:101A100080E00E94FB038AEF90E0AADFEFCFCF9334
:101A2000DF9364E6EFD4282F892F6AE0EBD4EC0132
:101A3000222341F0822FD0DF8C2FCEDF8D2FDF913C
:101A4000CF91CACFC111F8CFF9CFCF93DF93D82F61
:101A5000C3E080911C010E94FB038DE790E088DFCA
:101A6000DD2319F08AEF90E083DF80E00E94FB0322
:101A70008DE790E07DDFC15061F7DF91CF91089550
:101A8000DF92EF92FF920F931F93CF93DF93D82FA4
:101A90008B01C0910B0181E080937001C33009F08C
:101AA000DEC0F09075018D2F0E941C05FF2051F0C3
:101AB00080917501811106C060E070E082EC96E0D3
:101AC000B8D8CDC0D83021F481E080930301C9C0DB
:101AD000D23C19F410927501D3C0D13BC1F490915E
:101AE0000201012B49F4973610F08FEF03C09230BA
:101AF00018F481E08093030180910301890F11F4B0
:101B000081E039C1883608F436C187E634C1D13E58
:101B100031F480910301819580930301E8C0D23BA9
:101B200061F481E08093030180910201823008F426
:101B3000E6C0815080930201E2C0D13009F0F0C0CC
:101B40000932110511F4D0930301D09051018D2D6C
:101B5000880FD7FC809590E069E070E042D4292F8F
:101B6000E09050018E2D880FE7FC8095D091010107
:101B70006D2F70E090E035D4290FF0904F018F2D3C
:101B8000880FF7FC8095C09100016C2F70E090E009
:101B900028D4920F6091020170E0690F711D80914D
:101BA0007501813091F4809172019091730125E06B
:101BB000969587952A95E1F724E730E0A901481B1F
:101BC000590BCA010ED4B90129D4862F0E94FB03F8
:101BD00000FD06C00E940F028170D80ED092510104
:101BE00080914E01E80EE09250010E940F0265E2E2
:101BF00009D4F90EF0924F010E940F028F7331F455
:101C00000E940F026DE0FED390934E01DD2339F068
:101C10000E940F028F7319F4D150D09301010E94DA
:101C20000F02811108C00E940F026EE0EBD3909367
:101C3000010110925001C33038F00E940F028F71E1
:101C400019F4C150C09300010E940F028F7709F070
:101C50007DC00E940F0287708093000177C0D8304A
:101C600021F481E08093040188C0D13C39F460E024
:101C700070E082EC96E00E9419067FC0D23C49F4E5
:101C80008C2F90E0019665E070E0DCD380930B012F
:101C90004CC0D13B51F5C23090F400FD6EC0EC2F2A
:101CA000F0E0E75FFE4F808190910401891B88304E
:101CB00020F08F3F99F58EEF31C088E02FC0C430FF
:101CC00009F05BC09091080180910401890F823076
:101CD00010F482E003C0893708F088E78093080198
:101CE000809108010E94FB0348C0D13E31F48091ED
:101CF000040181958093040118C0D23BA1F481E0D6
:101D000080930401C23070F500FD37C0EC2FF0E085
:101D1000E75FFE4F80818F3F81F18F5F80832DC011
:101D2000D13C09F4A4CFD23E19F40E945D0325C032
:101D3000D53C41F460E070E086EC9EE00E9419061C
:101D400080E0D0CFD13011F081E018C00932110508
:101D500019F481E08093040180919A01080F0093A7
:101D60009A010BC0C43049F480910801833008F413
:101D7000B7CF8150B3CF8093020180E0DF91CF9144
:101D80001F910F91FF90EF90DF9008950F931F9395
:101D9000CF93DF93D82F8B01883031F4809170017D
:101DA000813011F488E06CDE8D2F8079803961F408
:101DB00081E080936F01C0917001C1110CC08091CE
:101DC0001C010E94FB0324C0803839F410926F017B
:101DD00080E00E94FB03C0E01BC0D130C1F4C09181
:101DE0006F01CC2351F0809170018130A1F7B801CF
:101DF000DF91CF911F910F9143CE0733114058F3DC
:101E0000D0939D0160E080E00E947B0401C0C1E0AE
:101E10008C2FDF91CF911F910F9108951F920F92F8
:101E20000FB60F9211242F933F938F939F93AF93ED
:101E3000BF93EF93FF938091C6018823E9F0E0916F
:101E4000C50120B131B1F0E0EE0FFF1FDF01AF534C
:101E5000BE4F2D933C93E354FE4F808191818217B6
:101E6000930708F401962817390708F4019791831E
:101E7000808381E08093C70181E08093C601FF9158
:101E8000EF91BF91AF919F918F913F912F910F90C3
:101E90000FBE0F901F9018951F920F920FB60F92C2
:101EA00011248F9381E08093A0018F910F900FBE3A
:101EB0000F901F9018951F920F920FB60F9211243A
:101EC0008F9381E080939F018F910F900FBE0F90B1
:101ED0001F901895F89485B7877F85BF88ED90E0AF
:101EE0000FB6F894A8958FBD90B7977F90BF0FBE9F
:101EF00089E08CB98CE780BB82EA8093720081E133
:101F0000809371008FEF90E0909369008093680058
:101F100084E08EB988BD8CB780618CBFA89580E4C1
:101F200080BF55DB789481E00E94F10160E070E0B1
:101F300089E396E00E94010610927D010E946304ED
:101F40000E94060281110BC082E00E94F101F89408
:101F500080E890E08AD2853A89F17894ADC0C0E0FB
:101F60008C2F0E94FB0383E190E002DD8C2F86958D
:101F70000E94FB0383E190E0FBDC0E9406028823C1
:101F800099F0CF5FC03461F765E181E00E943F03C3
:101F90000E945D03C6E98C2F0E94FB0384E090E061
:101FA000E7DCC150C1F7D0CFCC2371F28C2F0E9457
:101FB000FB038DE090E0DCDCC150F6CF0EE711E0D2
:101FC000C1E8D0E0CE0151D2F80181938F01219672
:101FD000CD39D105B9F7789480917E01809378014D
:101FE00080917F018093150180918001809312017F
:101FF0008091810180930F0180918201809316016D
:10200000809183018093130180918401809310015A
:10201000809185018093170180918601809314013E
:1020200080918701809311018091880180931B0129
:10203000809189018093790180918A018093770151
:1020400080918B0180931A0180918C0180937B0198
:1020500080918D0180937A0180918E0180931D0182
:1020600080918F0180930B018091900180930901F1
:102070008091910180930A018091920180930801DF
:102080008091930180930C018091940180931E01B3
:10209000809195018093B8018091960180931F01F2
:1020A0008091970180930E018091980180930D019A
:1020B000809199018093710180917B0181118093BE
:1020C0001C0161E070E082EC96E00E94010643E4AE
:1020D000442E52E0552E60E4862E9924939477E0A6
:1020E000772ECC24C394D12CF5E06F2EA2ECAA2E2F
:1020F000A6E0BA2E0E94AC018091A3019091A401A8
:10210000009751F06091A1017091A2010E941906FF
:102110001092A4011092A30180919D01882309F4DB
:1021200040C080E00E94FB03A89540BE1F980E941B
:1021300006028111FCCF0E94E7018CB780618CBF41
:102140001092C7011092A00110929F0180919D01F1
:102150008823F9F086B78F79806486BF86B780615F
:1021600086BF889586B78F7E86BF80919F0181113B
:1021700010929D018091C701882329F0909220013F
:102180009092BC012EDA8091A0018823F9F24ADBFB
:10219000DDCF509220018CB78F7E8CBF18DAA895C6
:1021A00080BEDDDB10927D018091B6019091B70178
:1021B000F3E089339F0779F4C0E7D0E0FE01849112
:1021C00080530ADC8CE291E0D3DB2196F0E0CC373F
:1021D000DF07A1F7C0C02DE08034920779F03EE020
:1021E000863C930709F0ACC080917001813009F002
:1021F000EDC080916F01882309F4E8C0C0910B0104
:10220000C230E1F020F0C43009F47DC073CFEC2F70
:10221000F0E0E75FFE4FD08186E90E94FB03C11129
:1022200003C082E090E003C08D2F869590E0A0DB94
:1022300080E00E94FB038D2F90E0C6C00E940F0239
:102240008F73E82EF12C0E940F02672DDBD0E60180
:1022500002C0CC0FDD1F9A95E2F70E940F02662D97
:10226000D1D0F60102C0EE0FFF1F9A95E2F7CE0F14
:10227000DF1F0E940F0290E0BE01E4D0C80FD91FFB
:10228000C739D10514F0C6E9D0E08C2F0E94FB03BA
:10229000C7016EDB8E0133E0159507953A95E1F79E
:1022A000011101C001E010E0C70162DBC01BD10BCE
:1022B000D7FF02C0C0E0D0E08C2F0E94FB030E9439
:1022C0000F02837039F4C70153DBCE0195958795D2
:1022D0000E94FB03C230D1053CF70E940F026DE063
:1022E00091D0E60102C0CC0FDD1F9A95E2F70E9463
:1022F0000F0290E0BE0192D0C80FD91F80E00E946B
:10230000FB03CE0161C0C0910801CC0FC73908F0B2
:10231000C6E9D4E08C2F0E94FB0385E090E028DB27
:10232000809108010E94FB0381E490E021DBD15001
:1023300089F780ED92E01CDB80E00E94FB03DACE9F
:10234000F6E088389F0781F48091BB0168DB8091BB
:102350001B01882381F0B092A401A092A3011092E6
:10236000A2011092A101C6CE26E0883A920731F46C
:102370008091B90154DB88EE93E026C036E08F35BA
:102380009307B9F480919E018111B4CE80911C0114
:102390000E94FB0384E690E0EBDA80E00E94FB03FE
:1023A00080910C0190E068EE73E01BD08456910997
:1023B0000BC08752964051F480E047DB81E045DB5B
:1023C00080E043DB81E792E0D3DA94CE86B78F7961
:1023D00086BF86B7806186BF889586B78F7E86BFA9
:1023E00089CE0024552704C0080E591F880F991F55
:1023F000009729F076956795B8F37105B9F7802DA8
:10240000952F0895991B79E004C0991F961708F03D
:10241000961B881F7A95C9F780950895AA1BBB1B48
:1024200051E107C0AA1FBB1FA617B70710F0A61BD4
:10243000B70B881F991F5A95A9F780959095BC01F5
:10244000CD01089597FB072E16F4009406D077FD72
:1024500008D0E4DF07FC05D03EF4909581959F4FAE
:102460000895709561957F4F0895E199FECF1FBA49
:102470008EBBE09A99278DB30895262FE199FECF60
:102480001FBA8EBBE09A81500DB2021639F01CBA09
:102490002DBB0FB6F894E29AE19A0FBE0895F89416
:0224A000FFCF6C
:1024A200080E18010101000496294303023718019E
:1024B20007058282820B0B0B820B010132192D0759
:1024C20002050403150112010F01020100000000C0
:1024D20000000001000000000000000001000021D7
:0E24E2000123022503270429052C06FF06000E
:00000001FF
