:1000000022C100003DC100000C94100F39C1000056
:1000100037C100000C94010F33C1000031C1000052
:100020002FC100002DC100002BC1000029C100001C
:1000300027C1000025C100000C94C30E21C100009F
:100040001FC100001DC100001BC1000019C100003C
:1000500017C1000015C1000013C1000011C100004C
:100060000FC100000DC100000BC1000009C100005C
:10007000323032313132303830313334000105041E
:100080001410111500000000000000000000000026
:100090000000000000000000000000000000000060
:1000A0000000000000000000000000000000000050
:1000B0000000000000000000000000000000000040
:1000C0000000000000000000000000000000000030
:1000D0000000000000000000000000000000000020
:1000E000000203040607080A0B0C0D0F1112141569
:1000F00017191B1D1F212326272A2C2F313436398F
:100100003C3F4245494C4F53565A5E62666A6E7395
:10011000777C81868B90959BA0A600000000000054
:1001200000000000000000000000000000000000CF
:1001300000000000000000000000000000000000BF
:1001400000000000000000000000000000000000AF
:1001500000000000000000000C1015191E23292EBD
:10016000343A40474D545C636B737C858E97A1ACE9
:10017000B6C1CDD9E5F2FFFFFFFFFFFFFFFFFFFF95
:10018000FFFFFFFFFFFFFFFFFFFFFFFFFFFFFFFF7F
:10019000FFFFFFFFFFFFFFFFFFFFFFFFFFFFFFFF6F
:1001A000FFFFFFFFFFFFFFFFFFFFFFFFFFFFFFFF5F
:1001B000010102020303040505060708090A0B0CE6
:1001C0000D111213141516181A1C1E212326292C82
:1001D0002F3236393D41454A4F54595E646A717732
:1001E0007E868E969EA7B0BAC4CFDAE6F2FFFFFFF6
:1001F000FFFFFFFFFFFFFFFFFFFFFFFFFFFFFFFF0F
:10020000FFFFFFFFFFFFFFFFFFFFFFFFFFFFFFFFFE
:10021000FFFFFFFFFFFFFFFFFFFFFFFFFFFFFFFFEE
:10022000FFFFFFFFFFFFFFFFFFFFFFFFFFFFFFFFDE
:10023000FFFFFFFFFFFFFFFFFFFFFFFFFFFFFFFFCE
:10024000FFFFFFFFFFFF11241FBECFEFD4E0DEBF93
:10025000CDBF11E0A0E0B1E0EAE0F4E202C0059019
:100260000D92AC34B107D9F721E0ACE4B1E001C0A4
:100270001D92A73FB207E1F70E941F0F0C940312D3
:10028000BFCEF89498ED9FBD83BF78940895482F12
:100290009B01E4ECF1E080E090E05081552331F0E7
:1002A0000196339680319105C1F70AC063E070E092
:1002B0000E94A511FC01EC53FE4F40833283218341
:1002C00008950F931F93CF93DF93D091C401DD2343
:1002D00051F10091C5011091C601C091A101C15019
:1002E000C7FD0DC0EC2FEE0FFF0BEE55FE4F01903A
:1002F000F081E02DB8018D2F09958111F0CFE4EC4C
:10030000F1E0838180838481958192838183339618
:1003100081E0E13FF807A9F71092F1011092F30193
:100320001092F201D2CFDF91CF911F910F910895DA
:10033000BC018091F601ABCF1092F6011092F5014D
:100340001092F40181E080937A0108950F931F9336
:10035000CF93C82F08EA17E0CC2349F082E091DF61
:10036000C8010197F1F780E08CDFC150F5CFCF9144
:100370001F910F9108958FB182FB882780F991E03A
:10038000892780939A010895E0910601F091070171
:100390003196FB70F460F0930701E09306018091C1
:1003A00096018B5A80939601E491809196018E0F6D
:1003B00008950F931F93CF93DF9300D01F92CDB773
:1003C000DEB7209120013091210140912201298343
:1003D0003A834B83FE01319640E050E090E061E0CB
:1003E00070E0B1919A01220F331F8C0102C0159564
:1003F00007952A95E2F79801237061F02130D1F436
:10040000A0B39B0101C0220FBA95EAF7322F3095B5
:100410003A2318C0A0B39B0101C0220FBA95EAF796
:1004200020953A2F322330BB32B3322332BB31B363
:1004300023230EC0A0B39B0101C0220FBA95EAF797
:100440003A2F322B30BB32B3322B32BB31B3232B9A
:1004500021BB4F5F5F4F4330510519F60F900F904E
:100460000F90DF91CF911F910F910895CF93C82FD7
:10047000809398018093970180919901811101C027
:1004800098DFC1110AC010926D0010926C0018BA6A
:1004900010926B0010926A001AC0C1508C2F90E02D
:1004A000FC01E055FE4FE491F0E0F0936D00E09325
:1004B0006C00FC01E65EFE4FE491E8BBFC01EC57EA
:1004C000FF4FE491F0E0F0936B00E0936A008091BD
:1004D0009801883010F482E005C0823110F481E088
:1004E00001C080E0CF91CDCECF93DF9300D000D07C
:1004F00000D0CDB7DEB7909175012091B201309157
:10050000B301275D394009F492E0843019F4609317
:10051000760121C06623F9F0823019F427E9261B01
:10052000622F26E0E3E2F1E0DE01119601900D92E8
:100530002A95E1F7E82FF0E03197EE0FFF1F21E059
:1005400030E02C0F3D1FE20FF31F0190F081E02DF2
:10055000E90FF11D608326960FB6F894DEBF0FBE3B
:10056000CDBFDF91CF910895BF92CF92DF92EF92EE
:10057000FF920F931F93CF93DF93EC01409175018E
:10058000E0911B01EE2311F082E001C0842F90E086
:10059000DC01AB5EBE4F2C9120931901DC01AE5EF5
:1005A000BE4F8C9180931801F0E0E15FFE4F3181E6
:1005B000622F70E0442349F0313039F49B01280F59
:1005C000311DC9019595879538C0C617D707A4F185
:1005D000682F70E06C177D0784F1411102C08C2FE9
:1005E0002CC0821B032F10E001501109E82EF12CC2
:1005F000C701B8010E94D611609373016695E62F7A
:10060000F0E0822FC12CD12CB12CB316B1F0C60171
:10061000B8010E94C211822F860FCE0CDF1CAE01E2
:10062000481B510957FF03C0519541955109E417E3
:10063000F5071CF4B394E9CF822FDF91CF911F917E
:100640000F91FF90EF90DF90CF90BF90089580932F
:1006500079010CCF0F931F93CF93E82F8091B701AF
:100660009FEF980F9C3110F480E077C0CE2FC29599
:10067000CF70EF7090919901911103C0C33008F0D1
:10068000C2E0E73008F441C0E730A9F4009151011D
:1006900010E00F5F1F4F78DE65E00E94B6119801F1
:1006A000290F311DC90166E070E00E94D6118093C8
:1006B0005101FC0135C0E830B1F4809199018823E3
:1006C00011F08FE001C083E0682351F48091510163
:1006D00090E0019666E070E00E94D611809351018F
:1006E000E091510112C090919901992381F08D31CF
:1006F000D8F090E0E92FF0E0E45CFE4F2081821713
:1007000010F09E5FF7CF3197E081F0E009C0862FAF
:10071000869563E00E94B611E92FF0E0EE0FFF1F0F
:10072000E358FF4FE49101C0E0E0C33071F48091E1
:10073000500190E0019663E170E00E94C211809345
:100740005001DC01A75DBE4FCC91CC2321F0C1301C
:1007500019F0EE0F01C0E0E08E2FCF911F910F91A5
:1007600028CECF93C091980189E18C0F873908F08A
:1007700080E07CDE82E0EADD8C2FCF9177CECF93D4
:10078000C091980180E072DE83E0E0DD8C2FCF9194
:100790006DCE81E00895611160931E010895662376
:1007A00089F0813061F48091B5019091B401891B89
:1007B000681B6093B40182E080931F0103C0635EF5
:1007C00060931D0180911D01873418F086E48093A9
:1007D0001D01089560936E0108950F931F93CF93A9
:1007E000DF938091750180937B0180911501809347
:1007F0007C018091120180937D0180910F01809393
:100800007E018091160180937F0180911301809376
:100810008001809110018093810180911701809364
:100820008201809114018093830180911101809352
:10083000840180911B0180938501809176018093D2
:100840008601809174018093870180911A018093C1
:10085000880180917801809389018091770180934C
:100860008A0180910B0180938B0180910901809313
:100870008C0180910A0180938D0180910801809301
:100880008E0180910C0180938F0180911D018093D6
:1008900090018091B4018093910180911E01809319
:1008A000920180910E018093930180910D018093BC
:1008B000940180916E0180939501F8940BE711E00B
:1008C000C1E8D0E0F80161918F01CE010E94F111E1
:1008D0002196CC39D105B1F765EA80E890E00E9415
:1008E000F1117894DF91CF911F910F91089581308C
:1008F00019F4109278010895823019F46093770109
:100900000895833019F4609374010895843011F4CC
:1009100060931A010895CF93C0911B01C1114AC081
:10092000883039F4109272011092700110926F01A8
:1009300042C0813B59F48091720181508330D0F5DF
:1009400083E0809372018093710134C0853BB1F4E0
:10095000CB016EE370E00E94C211892B61F580919A
:1009600072018A3F40F58B5F809372018093710121
:100970001092700110926F01F4DE1DC08130D1F42D
:1009800080916F0190917001019688382EE0920756
:1009900028F49093700180936F010DC01092700144
:1009A00010926F0180917201882329F08150809309
:1009B000720101C0C1E08C2FCF910895FF920F9377
:1009C0001F93CF93DF938C01EB01F42E8091B20142
:1009D0009091B301892B31F0E091B201F091B30114
:1009E00089E009951093B3010093B201012B39F00E
:1009F000E091B201F091B301BE018F2D099581E024
:100A000080937A01DF91CF911F910F91FF9008950C
:100A1000CF93DF93E091A101EE2359F0E150E093F1
:100A2000A101F0E0EE0FFF1FEE55FE4FC081D18116
:100A300002C0C0E0D0E0E091A101EE2341F0F0E07F
:100A4000EE0FFF1FE056FE4F8081918102C080E0D3
:100A500090E04AE060E070E0B1DFCE01DF91CF913D
:100A60000895883029F410926B011092520115C03C
:100A70008130F9F490915201911107C060327105F3
:100A800068F18093520158DC29C0913081F46B3BAE
:100A9000710528F082E08093520180E01EC061154C
:100AA0007105E1F06270862F880F8E5E16C0B0DF90
:100AB00015C0813811F0813E89F491E09093520184
:100AC000813E21F480916B01865F03C080916B01B0
:100AD0008F5F80936B0130DC8BE4C8DC80E008958D
:100AE0009C019091A101983088F4E92FF0E0EE0F7D
:100AF000FF1FEE55FE4F318320839F5F9093A1012E
:100B000048E0C9015BDF8091A10108958FEF08954E
:100B10000F931F93CF93DF93EC018B0179DFB80123
:100B2000CE01DF91CF911F910F91DACF813C29F453
:100B300060E070E081E396E006C0823C39F460E05A
:100B400070E087EF95E0E4DF80E0089581E00895AC
:100B5000843011F58091B2019091B3012CE0843F73
:100B6000920729F469E170E080E397E013C08053B5
:100B7000974061F490919801923040F0892F8695CA
:100B800096959695890F63DD80E0089560E070E0AA
:100B900081E396E0BDDFF8CF81E00895813C29F440
:100BA00060E070E081E396E006C0823C31F460E0F2
:100BB00070E086E995E0ACDF16C0813B49F4CB01DB
:100BC0006EE370E00E94C211892B69F4CADD0BC08C
:100BD000813E59F4CB016EE370E00E94C2116F5F59
:100BE00060930C01FADD80E0089581E00895CF93D1
:100BF000C0911B01C11117C0813C29F460E070E075
:100C000081E396E006C0823C31F460E070E087E169
:100C100096E07EDF09C0873B31F460E070E08FED45
:100C200099E05EDF01C0C1E08C2FCF910895813C37
:100C300029F460E070E081E396E006C0823C31F484
:100C400060E070E08EEC95E063DF07C0873B39F42D
:100C500060E070E083EE99E043DF80E0089581E09A
:100C600008950F931F93CF938B01883079F480E020
:100C7000FDDB60E080910E01EDDC10927201012B32
:100C800019F481E080939901C0E0E5C0813049F416
:100C900069317105C8F38093990180910E01DADC06
:100CA000F3CF833009F520917801222361F0809100
:100CB000770190E062EC71E00E94A5110817190716
:100CC00010F020931C01602F80910E01C3DC8091F5
:100CD0006E018823C9F290E062EC71E00E94A511D8
:100CE0008017910788F64DC0813B99F481E090E030
:100CF0003BDCBCDB809174018111C6CF8091750112
:100D0000811104C00831110508F4BECF61E070E024
:100D100028C0813ED9F3813821F480911C0190E0F4
:100D200013C0813C21F46091980170E01AC0823BAD
:100D300079F480911A0190911B01911180917601B3
:100D4000811104C086E990E00FDC05C086E903C08C
:100D5000823E19F480E08ADB97CF823C31F466E969
:100D600070E080E397E0D4DE8FCF833999F3833C42
:100D700029F460E070E087EF95E0F5CF843C31F432
:100D8000F0DC60E070E08BEE99E0EDCF8F3C29F471
:100D900060E070E089EC93E0E6CFC0911B018A3BF4
:100DA00079F4672B69F4CC2329F0DBDC10921B016A
:100DB00014DD6ACF60E070E087ED99E091DE4BC012
:100DC000C11148C08A3C29F4CCDC81E080931B012E
:100DD0003FC0833B29F460E070E084EF9CE007C0F3
:100DE000853C39F4BEDC60E070E08BE79EE090DE8D
:100DF00032C0873C91F490910E01892F82958F70BB
:100E00008F5F83708295807F9F70892B80930E0106
:100E100060E020DCE2DCA5DC1EC0873BB9F4C80141
:100E20008F739927892B69F490910E01892F8F7008
:100E30008F5F292F207F6BE00E94B611922B909339
:100E40000E01602F80910E0105DC05C0873E11F474
:100E5000C4DC01C0C1E08C2FCF911F910F91089588
:100E6000AF92BF92CF92DF92EF92FF920F931F93B8
:100E7000CF93DF93182FEB01D0901901F090180158
:100E8000B0907501BB2019F0C090730102C0CC2452
:100E9000C39480911A0100911B0101118091760188
:100EA000882349F0813021F080911C018F1518F0C2
:100EB000A6E9EA2E01C0EF2CA0907201BE01812F9D
:100EC0002ADD60917201662339F0A1100CC0809177
:100ED00098018093560107C0AA2029F060E070E0D5
:100EE00081E396E039C0812F8D7F8830D9F410924C
:100EF0006D011A3019F4C0911C01D0E08D2D90E0E5
:100F00008C179D0738F48F2D90E0C817D90710F47F
:100F1000C0931C01CE0128DB9ADB81E080930501A0
:100F200000E0F2C1113CD1F2123C71F480919801C1
:100F30008E1510F48E2D02C080911C0188DB8091EB
:100F4000980180935601ECCF143C41F480E08EDA96
:100F500060E070E08BEE99E0DBDDE2CF8FE4810FA3
:100F6000823008F054C0BB2041F0CE0168E170E04F
:100F70000E94C211892B31F0D3CF60910F0170E034
:100F8000CE01F6CF20919801209761F4123B11F425
:100F90008FEF05C02F15E0F7D21608F181E080939E
:100FA00005011DC0E0910F01F0E0CF0166E371E0A3
:100FB0000E94A5118C179D0710F42F1548F7CF013B
:100FC0006CE672E00E94A5118C179D0740F4D216C2
:100FD00030F0C7DB60E070E08BEE99E099DDD091F6
:100FE0009801809105016C2D70E0082E000C990B82
:100FF0000E94A5118D0F911DB7DAC82F80931C0197
:10100000D81719F0F81201C0BADB8C2F97CF8FE1F7
:10101000810F823020F48091050181957FCF1130BE
:1010200009F0EAC0A99711F4109305016623A1F015
:101030008091560170E06150710990E00E94A51105
:101040006091710170E00E94D611611101C061E0F0
:101050006093970160937901809197019091980135
:10106000282F30E0291B31096091540170915501FE
:101070006F5F7F4F709355016093540121153105C7
:1010800009F44ECF37FF05C0933830F040E450E00C
:1010900005C040E052E002C040E051E0569547955F
:1010A00037FF02C02F5F3F4F35952795211531053A
:1010B000A9F74617570708F033CF891710F48FEFB9
:1010C00003C0981710F481E0890F2FEF280FA22F8B
:1010D000B0E0AD0140555E4FFA016491291758F414
:1010E000E0916C00F0916D00EF2B29F46F3F19F443
:1010F0006FEF70E01CC0E0916C00F0916D0070E04B
:10110000E617F70738F460916C0070916D006F5F1F
:101110007F4F0DC0E0916C00F0916D006E177F075E
:1011200050F460916C0070916D0061507109709382
:101130006D0060936C00BD01665E7E4FFB013491D3
:10114000291738F498B3911104C03F3F11F438BB0C
:101150000CC098B3931718F498B39F5F05C098B369
:10116000391718F498B3915098BB9D012C573F4FF5
:10117000F9019491A0916A00B0916B00E92FF0E021
:10118000AE17BF0730F4E0916A00F0916B00319622
:101190000CC0A0916A00B0916B00EA17FB0748F4FD
:1011A000E0916A00F0916B003197F0936B00E0934F
:1011B0006A00A0916C00B0916D00FA01449150E07A
:1011C000A417B507A1F498B3FB01649196130FC05F
:1011D00040916A0050916B00F901249130E0421770
:1011E000530729F4C091970141D9C09397011092F8
:1011F00055011092540194CE1530A9F480919801B4
:101200008F3308F48DCE90E08C1B9D0B282F8E33EE
:1012100091052CF08739910518F026E901C02EE3DD
:10122000209397017DCE1630B9F49091980180916A
:101230007901981708F074CEC90FD11D90E08C1772
:101240009D0734F0CE33D10524F4CEE3D0E001C0C5
:10125000EC01C093970164CE173079F49091970117
:1012600080919801891710F48F5F04C0981708F0D7
:1012700057CE81508093970153CE011144C0133C47
:1012800099F481E0B11080E080937501A6DA77DAF5
:101290008091980190E068D980931C01D8D9809101
:1012A00098018093560130C0133B29F4CD2B09F0EF
:1012B00037CE8E2D04C0133E21F480911C01C7D976
:1012C00023C0153C41F480E0D1D860E070E08BE7AA
:1012D0009EE01EDC19C0173B29F460E070E083ED4E
:1012E00099E00FC01A3C39F48091980180937801FD
:1012F00074DA37DA09C01A3B31F460E070E08BED44
:1013000099E0EEDB01C001E0802FDF91CF911F91CA
:101310000F91FF90EF90DF90CF90BF90AF90089526
:10132000883061F41092530180E0A0D880919A0136
:10133000811137C081E08093530123C0982F907FA3
:10134000903BB9F420915301421780F0CB016DE539
:1013500070E00E94C211029739F42F5F209353016D
:101360004217F8F088E303C082E101C080E07ED834
:1013700018C0903E61F480915301882389F048178A
:1013800078F060E070E081E395E0AADB0AC08A3083
:1013900041F460916B0180915301F90109951DDAC7
:1013A00037DB80E0089524E732E043E0B9CF24E75B
:1013B00032E044E0B5CF27E734E044E0B1CF2BEC96
:1013C00033E041E0ADCF2FEC33E042E0A9CF2AEE8D
:1013D00033E041E0A5CF0F931F93CF93DF93D82F36
:1013E0008B01873B19F480E041D854C08079803963
:1013F000B1F420911501909116018D2F8F708230DC
:1014000041F480917801811108C0822F291728F4B6
:1014100003C0822F921708F4892F28D80BC0803878
:1014200011F480E023D8D83029F460E080910D01D8
:1014300011D930C0D13039F40931110508F466C032
:10144000D093990102C0D33029F4602F80910D010F
:1014500001D95CC0D43C71F4C0917801CC2319F05F
:101460006C2F70E013C060911C0170E080E397E086
:101470004FDB4FC0D43B31F474D91092F60161E0D8
:1014800070E004C0D53C31F466E970E080E397E099
:101490003FDB3CC0C0911B01C1113AC0DA3B31F4C3
:1014A00060E070E087EE99E01BDB33C0D73C91F43D
:1014B00090910D01892F82958F708F5F8370829537
:1014C000807F9F70892B80930D0160E0C3D885D900
:1014D00048D91FC0D73BB1F4C8018F739927892B16
:1014E00061F490910D01892F8F708F5F292F207FDC
:1014F0006BE03CD7922B90930D01602F80910D01F2
:10150000A9D807C0D73E21F468D903C0C0E001C004
:10151000C1E08C2FDF91CF911F910F9108958DE045
:1015200084B91092C1011092C20183B1886483B959
:101530000895F5DF139A87EE83B908951092C301D9
:1015400020B191B130919601229526952695237070
:10155000892F90E0880F991F880F991F820F911D86
:10156000830F809396018091B801882309F40DC1FF
:101570001092B8018091C10190919901992319F0BD
:101580001F981092C101811144C080911F018823CE
:1015900049F06091BD017091BE017093BA016093F2
:1015A000B90104C06091B9017091BA01605F7F4FC9
:1015B000E6E076956795EA95E1F780E098E5E2D672
:1015C00080911E0190E00397680F791F76956795CB
:1015D0006093B70180916A01882311F0815008C09F
:1015E0006D3140F460E070E084E00E94470185E0E6
:1015F00080936A01809199018111BEC08EE884B9FF
:1016000081E08093C1011092C20183B1886483B9E3
:10161000B3C0813009F0B0C080911F01811143C077
:101620008091BB019091BC01409645E096958795CD
:101630004A95E1F76091B401AC0156954795062EA5
:10164000000C770B9B012E503140240F351F309337
:10165000B6012093B50120915901E22FF0E0EE0F81
:10166000FF1FE65AFE4F40815181DC01A41BB50BE0
:10167000AD01918380832F5F2770209359019D01D5
:10168000220F331F220F331F820F931F20911D0142
:1016900030E0261B370B225F3E4F220F331F821B89
:1016A000930B23E01CC08091BF019091C0019093E7
:1016B000BC018093BB01409635E0969587953A959D
:1016C000E1F7EAE5F1E081939193B1E0EA36FB07B7
:1016D000D1F7A6CF009709F00196215029F01816EE
:1016E0001906C4F70197F9CF18161906E4F457FD47
:1016F00039C02091580112160CF1880F991FBC01B6
:101700006350710977FF02C06F5F7F4F75956795D2
:101710001616170614F061E070E088E1861B8093CE
:10172000580185E026C08C3F2FEF9207DCF457FF6D
:1017300019C02091580127FF05C02450281B209371
:10174000580119C024EE281B209358012091B7019D
:101750002F3188F06CEF7FEF681B790B75956795DB
:1017600086E007C08091B7018E3128F060E070E01C
:1017700087E00E944701D3DE80911F01882329F072
:1017800080911F01815080931F0108950F931F9333
:10179000CF9310929C018091F4019091F5019C01EE
:1017A0002F5F3F4F88279078822B932B9093F501E2
:1017B0008093F401C0919A010E94BB01C81731F1D6
:1017C0001092990180939A019091F601882359F023
:1017D000892F80699F709F3009F08F5F8093F60199
:1017E00080E090E00DC0892F8F7E95FD02C080685B
:1017F00001C0806C8093F6018091F4019091F50115
:101800000E9498011092F5011092F4010091F401E8
:101810001091F50180919901882379F0B80183E056
:101820000E9447010E9461010F731127012B09F0EB
:1018300046C0109257017DDE32C0C091F6018C2F58
:10184000807F803B19F460E070E001C0B80181E066
:101850000E944701C4FF13C0C5FF02C0C8010CC0ED
:1018600008311105E0F01092F5011092F401C06208
:10187000C093F60180E090E00E94980110C0CC2354
:1018800071F0C5FD0AC00231110548F0C064C09373
:10189000F60180E090E00E9498010E949C018091F6
:1018A0005701811106C083B1886483B981E08093B8
:1018B000B801809157018F5F8F7180935701CF914D
:1018C0001F910F9108958091C301811137DE80919E
:1018D0009C0181115BCF0895EF92FF920F931F93AC
:1018E000CF93DF93EC0108E017E082ECE82EFF24B1
:1018F000F3942097D9F080917A01811119C08091D9
:101900009801883028F482E00E944101C70104C098
:1019100080E00E944101C8010197F1F780E00E9438
:101920004101D1DF0E9461012197E3CF81E001C035
:1019300080E0DF91CF911F910F91FF90EF9008957C
:10194000CF93C82F882391F089E10E94360286EA5E
:1019500090E0C2DF80E00E9436028AEF90E0BCDFB8
:10196000C15091F78AE992E0CF91B6CF89E10E9408
:10197000360288E090E0B0DF80E00E9436028AEF15
:1019800090E0AADFEFCFCF93DF9364E6EFD4282F68
:10199000892F6AE0EBD4EC01222341F0822FD0DFC3
:1019A0008C2FCEDF8D2FDF91CF91CACFC111F8CF11
:1019B000F9CFCF93DF93D82FC3E080911C010E9411
:1019C00036028DE790E088DFDD2319F08AEF90E0A2
:1019D00083DF80E00E9436028DE790E07DDFC1501A
:1019E00061F7DF91CF910895DF92EF92FF920F930D
:1019F0001F93CF93DF93D82F8B01C0910B0181E010
:101A000080936D01C33009F0DFC0F09072018D2F1B
:101A10000E948B04FF2051F080917201811106C059
:101A200060E070E081E396E073D8CEC0D83021F456
:101A300081E080930301CAC0D23C19F41092720174
:101A4000D4C0D13BC1F490910201012B49F49E36E0
:101A500010F08FEF03C0923018F481E080930301FF
:101A600080910301890F11F481E03AC18F3608F4A7
:101A700037C18EE635C1D13E31F4809103018195A5
:101A800080930301E9C0D23B61F481E080930301BC
:101A900080910201823008F4E7C0815080930201F6
:101AA000E3C0D13009F0F1C00932110511F4D0932F
:101AB0000301D0904F018D2D880FD7FC809590E0C9
:101AC00067E070E042D4292FE0904E018E2D880F00
:101AD000E7FC8095D09101016D2F70E090E035D446
:101AE000290FF0904D018F2D880FF7FC8095C09144
:101AF00000016C2F70E090E028D4920F60910201F9
:101B000070E0690F711D80917201813091F48091B4
:101B10006F019091700125E0969587952A95E1F7E0
:101B200024E730E0A901481B590BCA010ED4B901C2
:101B300029D4862F0E94360200FD06C00E94C401EF
:101B40008170D80ED0924F0180914C01E80EE09246
:101B50004E010E94C40165E209D4F90EF0924D01D4
:101B60000E94C4018F7331F40E94C4016DE0FED362
:101B700090934C01DD2339F00E94C4018F7319F456
:101B8000D150D09301010E94C401811108C00E946C
:101B9000C4016BE0EBD39093010110924E01C3306E
:101BA00038F00E94C4018F7119F4C150C093000134
:101BB0000E94C4018F7709F07EC00E94C40166E0D4
:101BC000D5D39093000177C0D83021F481E0809381
:101BD000040188C0D13C39F460E070E081E396E014
:101BE0000E9488057FC0D23C49F48C2F90E001967A
:101BF00065E070E0DBD380930B014CC0D13B51F525
:101C0000C23090F400FD6EC0EC2FF0E0E75FFE4FB5
:101C1000808190910401891B883020F08F3F99F5D5
:101C20008EEF31C088E02FC0C43009F05BC09091C6
:101C3000080180910401890F823010F482E003C012
:101C4000893708F088E780930801809108010E9495
:101C5000360248C0D13E31F48091040181958093D1
:101C6000040118C0D23BA1F481E080930401C2308A
:101C700070F500FD37C0EC2FF0E0E75FFE4F80818C
:101C80008F3F81F18F5F80832DC0D13C09F4A4CFB9
:101C9000D23E19F40E94ED0325C0D53C41F460E02A
:101CA00070E08BE79EE00E94880580E0D0CFD130C5
:101CB00011F081E018C00932110519F481E0809318
:101CC000040180919601080F009396010BC0C43067
:101CD00049F480910801833008F4B7CF8150B3CF25
:101CE0008093020180E0DF91CF911F910F91FF90CF
:101CF000EF90DF9008950F931F93CF93DF93D82F2A
:101D00008B01883031F480916D01813011F488E0CD
:101D10006BDE8D2F8079803961F481E080936C01D6
:101D2000C0916D01C1110CC080911C010E9436024E
:101D300024C0803839F410926C0180E00E94360291
:101D4000C0E01BC0D130C1F4C0916C01CC2351F074
:101D500080916D018130A1F7B801DF91CF911F9182
:101D60000F9142CE0733114058F3D093990160E0B0
:101D700080E00E942A0301C0C1E08C2FDF91CF9147
:101D80001F910F9108951F920F920FB60F92112479
:101D90002F933F938F939F93AF93BF93EF93FF93B3
:101DA0008091C2018823E9F0E091C10120B131B1F5
:101DB000F0E0EE0FFF1FDF01A354BE4F2D933C93C5
:101DC000E754FE4F808191818217930708F40196B2
:101DD0002817390708F401979183808381E0809365
:101DE000C30181E08093C201FF91EF91BF91AF9158
:101DF0009F918F913F912F910F900FBE0F901F9049
:101E000018951F920F920FB60F9211248F9381E0B5
:101E100080939C018F910F900FBE0F901F9018958B
:101E20001F920F920FB60F9211248F9381E080932F
:101E30009B018F910F900FBE0F901F901895F894F3
:101E400085B7877F85BF88ED90E00FB6F894A89599
:101E50008FBD90B7977F90BF0FBE88E780BB88E0AB
:101E60008CB981E088B991EA9093720080937100F7
:101E700091E89BBB8ABB84E082BB87BD8CB788603E
:101E80008CBFA89580E480BF54DB789481E00E94E9
:101E9000A60160E070E088EA95E00E94700510926B
:101EA0007A010E94B1030E94BB01811108C0F8941D
:101EB00080E890E08ED2853A89F17894A9C0C0E09C
:101EC0008C2F0E94360283E190E006DD8C2F8695F0
:101ED0000E94360283E190E0FFDC0E94BB01882370
:101EE00099F0CF5FC03461F765E181E00E94CF03D4
:101EF0000E94ED03C6E98C2F0E94360284E090E038
:101F0000EBDCC150C1F7D3CFCC2389F28C2F0E94D8
:101F100036028DE090E0E0DCC150F6CF0BE711E037
:101F2000C1E8D0E0CE0155D2F80181938F0121960E
:101F3000CC39D105B9F7789480917B0180937501F4
:101F400080917C018093150180917D018093120125
:101F500080917E0180930F0180917F018093160113
:101F60008091800180931301809181018093100101
:101F700080918201809317018091830180931401E5
:101F800080918401809311018091850180931B01D0
:101F900080918601809376018091870180937401FE
:101FA0008091880180931A01809189018093780142
:101FB00080918A018093770180918B0180930B013E
:101FC00080918C018093090180918D0180930A0199
:101FD00080918E018093080180918F0180930C0184
:101FE0008091900180931D01809191018093B401B3
:101FF0008091920180931E018091930180930E0144
:102000008091940180930D018091950180936E01E0
:1020100080917801811180931C0161E070E081E37F
:1020200096E00E94700543E4342E52E0452E60E4B1
:10203000562E7724739477E0672ECC24C394D12C4A
:10204000FCEF8F2EF3E09F2EA1E3AA2EA6E0BA2E7E
:102050000E94610180919F019091A001009751F031
:1020600060919D0170919E010E9488051092A001CF
:1020700010929F0180919901882309F440C080E06B
:102080000E943602A89530BE1F980E94BB018111A4
:10209000FCCF0E949C018CB788608CBF1092C3015A
:1020A00010929C0110929B01809199018823F9F074
:1020B00086B78F79806486BF86B7806186BF889532
:1020C00086B78F7E86BF80919B0181111092990106
:1020D0008091C301882329F070921F017092B8018A
:1020E0002DDA80919C018823F9F250DBDDCF4092FC
:1020F0001F018CB7877F8CBF1CDAA89550BEE3DB2D
:1021000010927A018091B2019091B301F3E0893C81
:102110009F0779F4C0E7D0E0FE018491805310DC82
:102120008CE291E0D9DB2196F0E0CC37DF07A1F714
:10213000C6C02CE0843F920779F03EE08B379307CE
:1021400009F0B2C080916D01813009F0F3C0809137
:102150006C01882309F4EEC0C0910B01C23011F16B
:1021600020F0C43009F483C073CFEC2FF0E0E75FB8
:10217000FE4FD08186E90E943602C11109C0DA32D1
:1021800020F4C4010197F1F707C081E090E003C09B
:102190008D2F869590E0A0DB80E00E9436028D2F87
:1021A00090E0C6C00E94C4018F73E82EF12C0E94FB
:1021B000C401662DDBD0E60102C0CC0FDD1F9A956D
:1021C000E2F70E94C40165E0D1D0F60102C0EE0F33
:1021D000FF1F9A95E2F7CE0FDF1F0E94C40190E027
:1021E000BE01E4D0C80FD91FC739D10514F0C6E924
:1021F000D0E08C2F0E943602C7016EDB8E0133E0E7
:10220000159507953A95E1F7011101C001E010E03D
:10221000C70162DBC01BD10BD7FF02C0C0E0D0E01A
:102220008C2F0E9436020E94C401837039F4C701CA
:1022300053DBCE01959587950E943602C230D105B9
:102240003CF70E94C4016DE091D0E60102C0CC0FC2
:10225000DD1F9A95E2F70E94C40190E0BE0192D082
:10226000C80FD91F80E00E943602CE0161C0C09124
:102270000801CC0FC73908F0C6E9D4E08C2F0E94C2
:10228000360285E090E028DB809108010E9436024A
:1022900081E490E021DBD15089F780ED92E01CDBF6
:1022A00080E00E943602D4CEF5E0873F9F0781F49C
:1022B0008091B70168DB80911B01882381F0B09287
:1022C000A001A0929F0110929E0110929D01C0CE8C
:1022D00026E08731920731F48091B50154DB88EE16
:1022E00093E026C035E08E3C9307B9F480919A01C3
:1022F0008111AECE80911C010E94360284E690E0EE
:10230000EBDA80E00E94360280910C0190E068EEEA
:1023100073E01BD0845691090BC08659954051F447
:1023200080E047DB81E045DB80E043DB81E792E052
:10233000D3DA8ECE86B78F7986BF86B7806186BFA7
:10234000889586B78F7E86BF83CE0024552704C02C
:10235000080E591F880F991F009729F076956795E9
:10236000B8F37105B9F7802D952F0895991B79E081
:1023700004C0991F961708F0961B881F7A95C9F715
:1023800080950895AA1BBB1B51E107C0AA1FBB1F64
:10239000A617B70710F0A61BB70B881F991F5A95F1
:1023A000A9F780959095BC01CD01089597FB072E64
:1023B00016F4009406D077FD08D0E4DF07FC05D0C2
:1023C0003EF4909581959F4F0895709561957F4F4C
:1023D0000895E199FECF1FBA8EBBE09A99278DB37D
:1023E0000895262FE199FECF1FBA8EBBE09A815047
:1023F0000DB2021639F01CBA2DBB0FB6F894E29A52
:0A240000E19A0FBE0895F894FFCF93
:10240A00060B1801010100043E2943030237180193
:10241A000705828276011414820101013E2D07020A
:10242A00050403150112010F01020100000000005A
:10243A00000001000000000000000001000021016E
:0C244A0023022503270429052C06FF06A9
:00000001FF
