:10000000ABC0C5C079CCC3C0C2C0C1C0C0C0BFC036
:1000100026CCBDC0BCC0BBC060CCB9C0B8C03230FB
:1000200032313132303830363231000100010002D5
:10003000000200030003000400050005000600069E
:100040000007000800080009000A000A000B000C65
:10005000000C000D000E000F001000110011001226
:100060000013001400150016001700180019001ADC
:10007000001B001C001D001F002000210022002387
:100080000025002600270028002A002B002D002E26
:10009000002F003100320034003600370039003ABA
:1000A000003C003E003F0041004300450046004840
:1000B000004A004C004E00500052005400560058B8
:1000C000005A005C005F0061006300650068006A20
:1000D000006C006F0071007300760079007B007E79
:1000E0000080008300860088008B008E00910094C1
:1000F00000960099009C009F00A200A600A900ACF9
:1001000000AF00B200B500B900BC00BF00C300C61C
:1001100000CA00CD00D100D500D800DC00E000E32B
:1001200000E700EB00EF00F300F700FB00FF000822
:100130000112011C01260131013C01470153015FFD
:10014000016B01780185019301A101AF01BE01CDD1
:1001500001DD01ED01FE010011241FBECFE5D2E05B
:10016000DEBFCDBF10E0A0E6B0E0E2E3FFE102C0F9
:1001700005900D92A839B107D9F721E0A8E9B0E0C0
:1001800001C01D92AE32B207E1F7C5DBD0CE38CF49
:10019000482F9B01E9EFF0E080E090E0508155238B
:1001A00031F00196339680319105C1F709C063E0C3
:1001B00070E024DEFC01E750FF4F4083328321834F
:1001C00008950F931F93CF93DF93D091F900DD2310
:1001D00051F10091FA001091FB00C091D900C1507B
:1001E000C7FD0DC0EC2FEE0FFF0BE652FF4F019045
:1001F000F081E02DB8018D2F09958111F0CFE9EF45
:10020000F0E083818083848195819283818333961A
:1002100081E0E632F807A9F7109226011092280132
:1002200010922701D2CFDF91CF911F910F910895A6
:10023000BC0180912B01ACCF10922B0110922A01AE
:100240001092290181E08093B300089590E822E0A4
:1002500048EA57E030E0815070F00FB6F89496BD50
:1002600026BD0FBEFA013197F1F70FB6F89496BD8F
:1002700036BD0FBEF0CF089586B383FB882780F983
:1002800091E089278093D2000895E0916700F09172
:1002900068003196FB70F460F0936800E0936700AB
:1002A0008091CF008B5A8093CF00E4918091CF0052
:1002B0008E0F0895CF93DF9300D000D000D0CDB73C
:1002C000DEB790917B002091EA003091EB0026543C
:1002D000384009F492E0843019F46093B00021C0F2
:1002E0006623F9F0823019F427E9261B622F26E0F5
:1002F000E1E8F0E0DE01119601900D922A95E1F718
:10030000E82FF0E03197EE0FFF1F21E030E02C0FD7
:100310003D1FE20FF31F0190F081E02DE90FF11D69
:10032000608326960FB6F894DEBF0FBECDBFDF9177
:10033000CF910895BF92CF92DF92EF92FF920F93E9
:100340001F93CF93DF93EC0140917B00E0917C0001
:10035000EE2311F082E001C0842F90E0DC01AB5865
:10036000BF4F2C9120937900DC01AE58BF4F8C9188
:1003700080937800F0E0E159FF4F3181622F70E007
:10038000442349F0313039F49B01280F311DC90154
:100390009595879536C0C617D70794F1682F70E0FA
:1003A0006C177D0774F1411102C08C2F2AC0821B8B
:1003B000032F10E001501109E82EF12CC701B801FC
:1003C00067DD6093AE006695E62FF0E0822FC12CCA
:1003D000D12CB12CB316A9F0C601B80145DD822F8E
:1003E000860FCE0CDF1CAE01481B510957FF03C01E
:1003F000519541955109E417F5071CF4B394EACFE0
:10040000822FDF91CF911F910F91FF90EF90DF909E
:10041000CF90BF90089581E00895611160937F00AF
:1004200008956093A90008950F931F93CF93DF93CE
:1004300080917B008093B400809175008093B5001B
:10044000809172008093B60080916F008093B70016
:10045000809176008093B800809173008093B900FA
:10046000809170008093BA00809177008093BB00E8
:10047000809174008093BC00809171008093BD00D6
:1004800080917C008093BE008091B0008093BF007B
:100490008091AF008093C00080917A008093C1006A
:1004A0008091B2008093C2008091B1008093C3001C
:1004B0008091A5008093C40080917E008093C50048
:1004C0008091A6008093C60080916C008093C70045
:1004D00080916A008093C80080916B008093C9006E
:1004E000809169008093CA0080916D008093CB0059
:1004F00080917F008093CC0080916E008093CD002E
:100500008091A9008093CE00F89404EB10E0C1E044
:10051000D1E0F80161918F01CE01F7DC2196CC3159
:10052000F1E0DF07B1F765EA80E091E0EEDC789476
:10053000DF91CF911F910F9108951092F80024B18F
:1005400095B13091CF002295269526952370892F5D
:1005500090E0880F991F880F991F820F911D830FBC
:100560008093CF008091ED00882309F444C010925D
:10057000ED008091D100882319F037981092F60091
:1005800080918000882349F06091F2007091F3001F
:100590007093EF006093EE0004C06091EE007091E4
:1005A000EF00605F7F4F86E0769567958A95E1F76B
:1005B00080E098E559DC80917F00680F711D769589
:1005C00067956093EC008091A300882311F081501F
:1005D00007C06D3138F460E070E084E0D9DD8AE076
:1005E0008093A30080918000882329F0809180006F
:1005F0008150809380000895882321F0813029F470
:10060000BC9804C0BC98C4980895BC9AC49A089534
:10061000813019F41092B2000895823019F4609379
:10062000B1000895833019F46093AF0008958430C9
:1006300011F460937A000895813061F4611101C072
:1006400080E08093A600611102C08FE701C081E0C5
:1006500080937E0008959091EC009D3110F480E02D
:1006600006C08F70E82FF0E0E957FF4F8081C4CFBC
:10067000FF920F931F93CF93DF938C01EB01F42E26
:100680008091EA009091EB00892B31F0E091EA0033
:10069000F091EB0089E009951093EB000093EA00DC
:1006A000012B39F0E091EA00F091EB00BE018F2DB3
:1006B000099581E08093B300DF91CF911F910F9155
:1006C000FF900895CF93DF93E091D900EE2359F086
:1006D000E150E093D900F0E0EE0FFF1FE652FF4F2C
:1006E000C081D18102C0C0E0D0E0E091D900EE230A
:1006F00041F0F0E0EE0FFF1FE852FF4F8081918143
:1007000002C080E090E04AE060E070E0B1DFCE013E
:10071000DF91CF9108959C019091D900983088F491
:10072000E92FF0E0EE0FFF1FE652FF4F31832083E9
:100730009F5F9093D90048E0C9019ADF8091D9006A
:1007400008958FEF08950F931F93CF93DF93EC01DC
:100750008B01B8DFB801CE01DF91CF911F910F91CE
:10076000DACF813C29F460E070E082ED95E006C0CC
:10077000823C39F460E070E083EC93E0E4DF80E0F9
:10078000089581E00895CF93C0917C00C11117C0F6
:10079000813C29F460E070E082ED95E006C0823C87
:1007A00031F460E070E08BE795E0CDDF09C0873B76
:1007B00031F460E070E082E598E0ADDF01C0C1E0B7
:1007C0008C2FCF9108958CE287B91092F600109289
:1007D000F70086B1886486B90895CF92DF92EF92D0
:1007E000FF920F931F93CF93C82F8093D0008091D7
:1007F000D10081110AC091E0C11101C090E081E0F7
:10080000C73408F480E0890FF7DEC11107C01092E9
:100810002D0110922C0119BC18BC0DC0C150EC2F39
:10082000F0E0EE0FFF1FE55DFF4F859194919093EF
:100830002D0180932C0100912C0110912D0120910C
:10084000D000215080917E0081110AC0822F90E05B
:100850006FEF70E0D3DA66E970E006DBC62F16C0F2
:100860008F3F59F4822F90E06FEF70E0C7DA66E9AE
:1008700070E0FADAC62FC09509C090E064E670E037
:10088000BDDA63E670E004DBCFEFC60F6801E12C50
:10089000F12C2F3010F12AE030E040E050E0C701A9
:1008A000B601BDDA9B01AC0166E0569547953795D8
:1008B00027956A95D1F78C2F880FC7FD8095682FF3
:1008C00070E080E090E0ABDA2FEF30E040E050E005
:1008D000F2DAC20ED31EE41EF51E0F3F1105E1F041
:1008E000D8F0C8016AE070E089DA865F9940BC01FF
:1008F00026E0769567952A95E1F78C2F880FC7FD3E
:10090000809590E07BDA6FEF70E0AEDA660F771FCC
:10091000C61AD70AE108F1088FEFC81681E0D80699
:10092000E104F10430F08EEFC82EDD24D394E12CE5
:10093000F12C6C2F70E080E090E0A70196016FDA57
:1009400061587F4F8F4F9F4F2FEF30E040E050E0D6
:10095000B2DAC9012F3F310539F030F096012F5F2F
:1009600031098FEF90E00DC0F601E21BF30B9F0100
:10097000EF3FF10531F028F0C6018F5F91092FEFAD
:1009800030E029BD88BD8091D000853010F492E020
:1009900005C08E3010F491E001C090E080E80FB601
:1009A000F89486BD96BD0FBECF911F910F91FF9019
:1009B000EF90DF90CF900895883029F41092A40032
:1009C00010929F0015C08130F9F490919F00911111
:1009D00007C06032710568F180939F002DDC29C04B
:1009E000913081F46B3B710528F082E080939F0089
:1009F00080E01EC061157105E1F06270862F880FDE
:100A00008E5E16C05FDE15C0813811F0813E89F41C
:100A100091E090939F00813E21F48091A400865F35
:100A200003C08091A4008F5F8093A40005DC8BE459
:100A3000D4DE80E00895CF93C091D00089E18C0F7F
:100A4000873908F080E0C9DE82E000DC8C2FCF918E
:100A5000C4CECF93C0917C00C11149C0883039F415
:100A60001092AD001092AB001092AA0041C0813BE1
:100A700059F48091AD0081508330C8F583E08093B4
:100A8000AD008093AC0033C0853BA9F4CB016EE38D
:100A900070E0EAD9892B61F58091AD008A3F40F57D
:100AA0008B5F8093AD008093AC001092AB001092EE
:100AB000AA00C1DF1DC08130D1F48091AA009091BD
:100AC000AB00019688382EE0920728F49093AB0093
:100AD0008093AA000DC01092AB001092AA008091E2
:100AE000AD00882329F081508093AD0001C0C1E0A2
:100AF0008C2FCF910895813C29F460E070E082ED65
:100B000095E006C0823C31F460E070E081EB93E058
:100B10001ADE14C0813B41F4CB016EE370E0A4D92E
:100B2000892B61F488DF0AC0813E51F4CB016EE36A
:100B300070E09AD96F5F60936D0076DC80E0089575
:100B400081E00895CF93C091D00080E046DE83E03D
:100B50007DDB8C2FCF9141CE843011F58091EA005E
:100B60009091EB002AE08437920729F469E170E064
:100B70008DEB96E013C08D5B964061F49091D000B0
:100B8000923040F0892F869596959695890F25DEAF
:100B900080E0089560E070E082ED95E0D4DDF8CF6C
:100BA00081E008950F931F93CF938B01883079F4E0
:100BB00080E013DE80916E0083701EDD1092AD0028
:100BC000012B19F481E08093D100C0E0D1C08130C5
:100BD00051F469317105C8F38093D10080916E00A2
:100BE00083700ADDF2CF833031F52091B2002223E9
:100BF00079F08091B10090E062EC71E0FFD80817C5
:100C0000190730F020937D008091A50080937E002D
:100C100080916E008370833011F4802F1CDD8091F1
:100C2000A900882391F290E062EC71E0E7D8801788
:100C3000910758F64DC0813B99F481E090E07ADB52
:100C4000CCDD8091AF008111C0CF80917B008111FC
:100C500004C00831110508F4B8CF61E070E028C085
:100C6000813ED9F3813821F480917D0090E013C05A
:100C7000813C21F46091D00070E01AC0823B79F48D
:100C800080917A0090917C0091118091B000811147
:100C900004C086E990E04EDB05C086E903C0823ED1
:100CA00019F480E09ADD91CF823C29F466E970E086
:100CB0008DEB96E008C08339A1F3833C31F460E00A
:100CC00070E083EC93E03FDD80CF843C31F4B3DE11
:100CD00060E070E08AE598E0F6CF8F3C29F460E0B0
:100CE00070E08BE092E0EFCFC0917C008A3B71F422
:100CF000672B61F4CC2329F09EDE10927C0094DBFC
:100D000064CF60E070E086E498E02FC0C1112FC08E
:100D10008A3C29F490DE81E080937C001CC0833BF8
:100D200029F460E070E084E79AE007C0853C39F47C
:100D300082DE60E070E08BEE9BE005DD19C0873C51
:100D400061F490916E0081E0890F83709C7F982BF5
:100D500090936E0051DC68DB0BC0893B41F4012BA2
:100D600031F460E070E08EE498E0D5DC01C0C1E0D1
:100D70008C2FCF911F910F910895AF92BF92CF9278
:100D8000DF92EF92FF920F931F93CF93DF93C82FC1
:100D90008B01E0907900F0907800B0907B00BB2050
:100DA00019F0C090AE0002C0CC24C39480917A00A8
:100DB000D0917C00D1118091B000882349F081301E
:100DC00021F080917D008F1518F086E9D82E01C0A2
:100DD000DF2CA090AD00B8018C2F3BDE6091AD0000
:100DE000662339F0A1100CC08091D0008093A1003F
:100DF00007C0AA2029F060E070E082ED95E039C0DC
:100E00008C2F8D7F8830D9F41092A800CA3019F445
:100E100000917D0010E08E2D90E08017910738F44E
:100E20008F2D90E00817190710F400937D00C8017A
:100E300081DAD3DC81E080936600D0E0D5C0C13C8C
:100E4000D1F2C23C71F48091D0008D1510F48D2D3B
:100E500002C080917D00C1DC8091D0008093A10010
:100E6000ECCFC43C41F480E0B8DC60E070E08AE59F
:100E700098E069DCE2CF8FE48C0F823008F053C039
:100E8000BB2039F0C80168E170E0EED7892B31F062
:100E9000D4CF60916F0070E0C801F7CF2091D000EF
:100EA0000115110561F4C23B11F48FEF05C02F1538
:100EB000E0F7E216F8F081E0809366001BC0E09155
:100EC0006F00F0E0CF0166E371E098D780179107DB
:100ED00010F42F1550F7CF016CE672E08FD7801712
:100EE000910740F4E21630F0A6DD60E070E08AE59C
:100EF00098E029DCD091D000809166006C2D70E0E4
:100F0000082E000C990B7AD78D0F911D13DAC82F7C
:100F100080937D00D81729F0823811F0F81201C0B3
:100F200011DE8C2F98CF8FE18C0F823020F48091CE
:100F30006600819580CFC130C9F40932110511F4E2
:100F4000C0936600662309F478CF8091A10070E019
:100F50006150710990E052D76091AC0070E098D771
:100F6000862F611101C081E038DC67CFD1113BC011
:100F7000C33C99F481E0B11080E080937B0054DAA7
:100F8000E1DD8091D00090E0D5D980937D0025DC13
:100F90008091D0008093A10027C0C53C41F480E03F
:100FA0001CDC60E070E08BEE9BE0CDDB1DC0C73B3E
:100FB00029F460E070E082E498E013C0CA3C59F480
:100FC0008091D0008093B20080917E008093A50034
:100FD0002BDA31DD09C0CA3B31F460E070E08AE40D
:100FE00098E099DB01C0D1E08D2FDF91CF911F9167
:100FF0000F91FF90EF90DF90CF90BF90AF9008954A
:10100000883061F41092A00080E0E7DB8091D2008C
:10101000811136C081E08093A00022C0982F907F7C
:10102000903BB1F42091A000421778F0CB016DE520
:1010300070E01AD7029739F42F5F2093A00042176F
:10104000F8F088E303C082E101C080E0C6DB18C08D
:10105000903E61F48091A000882389F0481778F0D1
:1010600060E070E08CED94E056DB0AC08A3041F419
:101070006091A4008091A000F9010995D5D922DBE7
:1010800080E008952AE531E043E0BACF2AE531E077
:1010900044E0B6CF28E033E044E0B2CF2CE133E0C7
:1010A00041E0AECF2DE032E041E0AACF21E132E0D5
:1010B00041E0A6CF0F931F93CF93DF93D82F8B01DF
:1010C00080798039B1F420917500909176008D2F50
:1010D0008F70823041F48091B200811108C0822F5C
:1010E000291728F403C0822F921708F4892F75DB83
:1010F0001BC0803819F480E070DB08C0D83031F4B0
:1011000080916E008695869577DA39C0D13061F48A
:101110000931110508F452C0D093D10080916E00BE
:101120008695869569DA4AC0D33049F480916E007D
:101130008C708C3009F042C0802F8DDA3FC0D43CD7
:1011400071F4C091B200CC2319F06C2F70E00EC086
:1011500060917D0070E08DEB96E0F5DA32C0D43B13
:1011600049F469DC10922B0161E070E08DEB96E0B0
:10117000EADA24C0D53C19F466E970E0F7CFC091F3
:101180007C00C1111DC0DA3B31F460E070E086E5FF
:1011900098E0C1DA16C0D73C99F490916E00892F7F
:1011A000869586958F5F8370282F220F220F93706C
:1011B000920F90936E0020DA37D903C0C0E001C0CF
:1011C000C1E08C2FDF91CF911F910F910895CF93A4
:1011D000833B09F055C08091A600882381F0672BDE
:1011E00009F065C080917E008E3F19F081E0809308
:1011F0007E0080917E00809580937E003DC0672BAD
:1012000029F481E080939E0010929D0080919E00C1
:10121000882309F44DC09091650080917E001916D5
:1012200024F48E3F48F48F5F05C0992329F0823063
:1012300018F0815080937E00C0919D0090917E00B7
:10124000C03449F481E480939D0081E08927809334
:101250007E0078DC0DC080919C00891309C0C1110B
:1012600002C070DC02C0CF3F19F0CF5FC0939D0079
:1012700080917E0080939C008091D000AEDA15C0F2
:10128000833EA9F410929E00809165008195809321
:10129000650080917E00823010F481E003C08E3FB3
:1012A00018F08FEF80936500BFD880E001C081E027
:1012B000CF9108950F931F93CF931092D4008091F4
:1012C000290190912A019C012F5F3F4F8827907838
:1012D000822B932B90932A0180932901C091D200F5
:1012E000CBD7C81729F11092D1008093D2009091EA
:1012F0002B01882359F0892F80699F709F3009F056
:101300008F5F80932B0180E090E00DC0892F8F7E4E
:1013100095FD02C0806801C0806C80932B01809194
:10132000290190912A0184D710922A011092290153
:101330000091290110912A018091D100882379F030
:10134000B80183E025D73DD70F731127012B09F092
:1013500044C01092A20037DA87EE86B92EC0C09141
:101360002B018C2F807F803B19F460E070E001C07E
:10137000B80181E00DD7C4FF12C0C5FF02C0C8018B
:101380000CC008311105C8F010922A0110922901F1
:10139000C062C0932B0180E090E04AD70EC0CC23FE
:1013A00061F0C5FD09C00231110538F0C064C09379
:1013B0002B0180E090E03CD73FD78091A2008111C3
:1013C00006C086B1886486B981E08093ED00809183
:1013D000A2008F5F8F718093A200CF911F910F9118
:1013E00008958091F8008111A8D88091D4008111CE
:1013F00061CF0895CF92DF92EF92FF920F931F93E8
:10140000CF93DF93EC0110E800E088E0E82E87E05E
:10141000F82E92ECC92EDD24D394209709F1809107
:10142000B30081111FC08091D000853040F482E06C
:101430000FB6F89416BD86BD0FBEC60106C00FB626
:10144000F89416BD06BD0FBEC7010197F1F70FB6A0
:10145000F89416BD06BD0FBEC4DFB3D62197DDCF0D
:1014600081E001C080E0DF91CF911F910F91FF904B
:10147000EF90DF90CF900895CF93C82F882381F00D
:1014800089E1ABD986EA90E0B5DF80E0A6D98AEFA2
:1014900090E0B0DFC150A1F78AE992E0CF91AACFE6
:1014A00089E19BD988E090E0A5DF80E096D98AEFBA
:1014B00090E0A0DFF1CFCF93DF93D82FC3E08091EE
:1014C0007D008BD98DE790E095DFDD2319F08AEF61
:1014D00090E090DF80E081D98DE790E08BDFC15014
:1014E00071F7DF91CF910895DF92EF92FF920F9302
:1014F0001F93CF93DF93D82F8B01C0916C0081E0B5
:101500008093A800C33009F0D3C0F090AD008D2FB8
:10151000A0DAFF2051F08091AD00811106C060E09B
:1015200070E082ED95E00FD9C3C0D83021F481E09E
:1015300080936300BFC0D23C19F41092AD00C8C0C4
:10154000D13BC1F490916200012B49F49F3510F01A
:101550008FEF03C0923018F481E080936300809194
:101560006300890F11F481E02BC1803608F428C193
:101570008FE526C1D13E31F480916300819580933F
:101580006300DCC0D23B61F481E080936300809112
:101590006200823008F4DAC0815080936200D6C0C5
:1015A000D13009F0E4C00932110511F4D093630081
:1015B000D0909B008D2D880FD7FC809590E06CE03B
:1015C00070E01CD4292FE0909A008E2D880FE7FC44
:1015D0008095D09161006D2F70E090E00FD4290FBD
:1015E000F09099008F2D880FF7FC8095C0916000D6
:1015F0006C2F70E090E002D4920F6091620070E076
:10160000690F711D8091AD00813091F48091AA0025
:101610009091AB0025E0969587952A95E1F724E710
:1016200030E0A901481B590BCA01E8D3B9011CD409
:10163000862FD3D800FD05C028D68170D80ED09251
:101640009B0080919800E80EE0929A001ED665E219
:10165000FFD3F90EF092990018D68F7329F415D69E
:101660006DE0F6D390939800DD2331F00ED68F73A2
:1016700019F4D150D093610008D6811107C005D666
:1016800062E1E6D39093610010929A00C33030F08B
:10169000FCD58F7119F4C150C0936000F6D58F77D7
:1016A00009F079C0F2D56AE0D3D39093600073C09B
:1016B000D83021F481E08093640084C0D13C31F4BF
:1016C00060E070E082ED95E03ED87CC0D23C49F409
:1016D0008C2F90E0019665E070E0DAD380936C0087
:1016E0004BC0D13B49F5C23090F400FD6BC0EC2FEC
:1016F000F0E0E659FF4F808190916400891B8830AB
:1017000020F08F3F91F58EEF30C088E02EC0C430BE
:1017100009F058C09091690080916400890F82306F
:1017200010F482E003C0893708F088E780936900ED
:101730008091690052D846C0D13E31F48091640056
:1017400081958093640018C0D23BA1F481E080931E
:101750006400C23060F500FD35C0EC2FF0E0E659C2
:10176000FF4F80818F3F71F18F5F80832BC0D13C11
:1017700009F4A6CFD23E11F457D624C0D53C39F493
:1017800060E070E08BEE9BE0DED780E0D3CFD1301D
:1017900011F081E018C00932110519F481E080933D
:1017A00064008091CF00080F0093CF000BC0C430BD
:1017B00049F480916900833008F4BACF8150B6CFE4
:1017C0008093620080E0DF91CF911F910F91FF9095
:1017D000EF90DF9008950F931F93CF93DF93D82F4F
:1017E0008B01883031F48091A800813011F488E0B9
:1017F0007BDE8D2F8079803959F481E08093A700BA
:10180000C091A800C1110AC080917D00E6D721C017
:10181000803831F41092A70080E0DFD7C0E019C013
:10182000D130B1F4C091A700CC2351F08091A80031
:101830008130A1F7B801DF91CF911F910F9154CE64
:101840000733114058F3D093D10080E0D5D601C0C2
:10185000C1E08C2FDF91CF911F910F9108951F92BE
:101860000F920FB60F9211242F933F938F939F9354
:10187000AF93BF93EF93FF938091F7008823E9F034
:10188000E091F60024B135B1F0E0EE0FFF1FDF016B
:10189000AE50BF4F2D933C93E251FF4F8081918119
:1018A0008217930708F401962817390708F401975F
:1018B0009183808381E08093F80081E08093F7003A
:1018C000FF91EF91BF91AF919F918F913F912F9198
:1018D0000F900FBE0F901F9018951F920F920FB68A
:1018E0000F9211248F9381E08093D4008F910F90F9
:1018F0000FBE0F901F9018951F920F920FB60F9268
:1019000011248F9381E08093D3008F910F900FBEAD
:101910000F901F901895F89484B7877F84BF0FB6F7
:10192000F894A89581B5886181BD11BC0FBEB89AA5
:1019300081E083BF81EA8ABDB99A88E088BB85BB14
:101940008BB780628BBFA89581B5886181BD80E42B
:1019500081BD39D787EE86B9789481E077D460E08D
:1019600070E08CEA95E0D7D61092B30064D884D4A6
:10197000811108C0F89480E091E0BFD2853A39F136
:101980007894A0C0C0E08C2F28D783E190E032DDAE
:101990008C2F869522D783E190E02CDD6DD48823AF
:1019A00069F0CF5FC03479F73FD5C6E98C2F15D7E2
:1019B00084E090E01FDDC150C9F7DCCFCC23D1F229
:1019C0008C2F0BD78DE090E015DDC150F7CF04EBE5
:1019D00010E0C1E0D1E0CE0190D2F80181938F01F7
:1019E0002196CC31F1E0DF07B1F778948091B40013
:1019F00080937B008091B500809375008091B60044
:101A0000809372008091B70080936F008091B8003E
:101A1000809376008091B900809373008091BA0022
:101A2000809370008091BB00809377008091BC0010
:101A3000809374008091BD00809371008091BE00FE
:101A400080937C008091BF008093B0008091C000A3
:101A50008093AF008091C10080937A008091C20092
:101A60008093B2008091C3008093B1008091C40044
:101A70008093A5008091C50080937E008091C60070
:101A80008093A6008091C70080936C008091C8006D
:101A900080936A008091C90080936B008091CA0096
:101AA000809369008091CB0080936D008091CC0081
:101AB00080937F008091CD0080936E008091CE0056
:101AC0008093A9008091B200811180937D0060E035
:101AD00070E087EE98E01FD661E070E082ED95E05F
:101AE0001AD643E4342E52E0452E67EE562E70E4AB
:101AF000672E77247394CC24C394D12CFCEF8F2EC3
:101B0000F3E09F2EA2EDAA2EA5E0BA2E5AD3809123
:101B1000D7009091D800009749F06091D50070915E
:101B2000D60011D61092D8001092D7008091D10023
:101B3000882309F444C080E050D6A89581B5886117
:101B400081BD31BC379898D38111FDCF75D38BB748
:101B500080628BBF1092F8001092D4001092D300D4
:101B60008091D1008823F9F085B7877E806185BF99
:101B700085B7806285BF889585B78F7D85BF809149
:101B8000D30081111092D1008091F800882329F0B0
:101B9000709280007092ED00D0D48091D4008823A0
:101BA000F9F288DBDDCF409280008BB78F7D8BBF51
:101BB0000AD656B8A89581B5886181BD61BC11DC93
:101BC0001092B3008091EA009091EB0022E08B30FC
:101BD000920779F4CEE1D0E0FE01849180534CDC91
:101BE0008CE291E007DC2196F0E0CA32DF07A1F732
:101BF000C5C02AE08437920779F03BE08B3E93071B
:101C000009F0A2C08091A800813009F0E9C080915C
:101C1000A700882309F4E4C0C0916C00C23001F130
:101C200020F0C43009F476C071CFEC2FF0E0E65913
:101C3000FF4FD08186E9D1D5C11109C0DA3220F435
:101C4000C4010197F1F707C081E090E003C08D2F38
:101C5000869590E0CFDB80E0C0D58D2F90E0BEC0B0
:101C600014D38F73E82EF12C10D367E0F1D0E60186
:101C700002C0CC0FDD1F9A95E2F707D365E0E8D0EC
:101C8000F60102C0EE0FFF1F9A95E2F7CE0FDF1F9D
:101C9000FCD290E0BE01FCD0C80FD91FC739D105D6
:101CA00014F0C6E9D0E08C2F98D5C701A3DB8E01D4
:101CB00033E0159507953A95E1F7011101C001E070
:101CC00010E0C70197DBC01BD10BD7FF02C0C0E0FB
:101CD000D0E08C2F82D5D9D2837031F4C7018ADB52
:101CE000CE019595879579D5C230D10554F7CDD2DF
:101CF0006DE0AED0E60102C0CC0FDD1F9A95E2F791
:101D0000C4D290E0BE01B0D0C80FD91F80E065D525
:101D1000CE0164C0C0916900CC0FC73908F0C6E994
:101D2000D4E08C2F5AD585E090E064DB8091690087
:101D300054D581E490E05EDBD15099F780ED92E0DC
:101D400059DB80E04AD5E2CEF3E0833C9F0711F5F2
:101D50008091EC0064E67CD0282F892F6AE078D04F
:101D6000EC01222309F447C0822F86DB8C2F84DB11
:101D70008D2F82DB80917C00882349F0B092D800BF
:101D8000A092D7001092D6001092D500BFCE88EE58
:101D900093E024C025E08B379207A9F48091D2000C
:101DA0008111B4CE80917D0018D584E690E022DBCD
:101DB00080E013D580916D0090E068EE73E01ED056
:101DC000845691090BC0815B934051F480E073DB32
:101DD00081E071DB80E06FDB81E792E00BDB96CE88
:101DE00085B7877E85BF85B7806285BF889585B7B3
:101DF0008F7D85BF8BCEC111B9CFBACF00245527B7
:101E000004C0080E591F880F991F009729F0769576
:101E10006795B8F37105B9F7802D952F0895EE27D2
:101E2000FF27AA27BB2708C0A20FB31FE41FF51F77
:101E3000220F331F441F551F9695879577956795F9
:101E400098F37040A9F7009799F7BD01CF01089565
:101E5000991B79E004C0991F961708F0961B881FFC
:101E60007A95C9F780950895AA1BBB1B51E107C05D
:101E7000AA1FBB1FA617B70710F0A61BB70B881F1A
:101E8000991F5A95A9F780959095BC01CD010895A9
:101E900097FB072E16F4009406D077FD08D0E4DFF8
:101EA00007FC05D03EF4909581959F4F089570955D
:101EB00061957F4F0895A1E21A2EAA1BBB1BFD015D
:101EC0000DC0AA1FBB1FEE1FFF1FA217B307E40719
:101ED000F50720F0A21BB30BE40BF50B661F771F71
:101EE000881F991F1A9469F7609570958095909551
:101EF0009B01AC01BD01CF010895E199FECF9FBBCD
:101F00008EBBE09A99278DB30895262FE199FECFD5
:101F10009FBB8EBBE09A01970DB2021639F01CBA36
:101F20002DBB0FB6F894E29AE19A0FBE0895F8948B
:021F3000FFCFE1
:101F32000A121801010101000482294303020E0161
:101F42000505828282010A0A820102010146800796
:101F520002750072006F0000010201000000000023
:081F6200000100000000000076
:00000001FF
