:100000006DC1000088C100000C94251084C100005F
:1000100082C100000C9416107EC100007CC100005B
:100020007AC1000078C1000076C1000074C10000F0
:1000300072C1000070C100000C94D80F6CC10000A8
:100040006AC1000068C1000066C1000064C1000010
:1000500062C1000060C100005EC100005CC1000020
:100060005AC1000058C1000056C1000054C1000030
:10007000323032313132303830323632000105041C
:100080001410111500000000010001000200020020
:10009000030003000400040005000500060007003B
:1000A000080009000A000B000C000D000F001000F2
:1000B0001100120014001500170018001A001B0090
:1000C0001D001F00210023002500270029002B0010
:1000D0002D0030003200350037003A003D003F006F
:1000E0004200450048004B004F00520055005900A7
:1000F0005C006000640068006C00700074007800B0
:100100007D00810086008A008F00940099009E0087
:10011000A300A900AE00B400B900BF00C500CB0029
:10012000D100D700DE00E400EB00F200F800FF0091
:1001300007010E0115011D0124012C0134013C01B0
:1001400044014D0155015E01670170017901820191
:100150008B0195019E01A801B201BC01C601D1012C
:10016000DB01E601F101FC01070213021E022A0273
:10017000360242024E025B026702740281028E0264
:100180009B02A802B602C402D202E002EE02FD0205
:100190000B031A0329033903480358036803780340
:1001A00088039803A903BA03CB03DC03ED03FF0321
:1001B0000000000001000100020002000300030033
:1001C00004000400050005000600070008000900FF
:1001D0000A000B000C000D000F00100011001200AF
:1001E00014001500170018001A001B001D001F0046
:1001F000210023002500270029002B002D003000BE
:100200003200350037003A003D003F004200450013
:1002100048004B004F005200550059005C00600040
:10022000640068006C007000740078007D0081003C
:1002300086008A008F00940099009E00A300A90008
:10024000AE00B400B900BF00C500CB00D100D7009C
:10025000DE00E400EB00F200F800FF0007010E01F1
:1002600015011D0124012C0134013C0144014D0103
:1002700055015E0167017001790182018B019501D1
:100280009E01A801B201BC01C601D101DB01E6015A
:10029000F101FC01070213021E022A023602420289
:1002A0004E025B026702740281028E029B02A80268
:1002B000B602C402D202E002EE02FD020B031A03F0
:1002C0002903390348035803680378038803980314
:1002D000A903BA03CB03DC03ED03FF0311241FBE04
:1002E000CFEFD4E0DEBFCDBF11E0A0E0B1E0E6E7A4
:1002F000F6E202C005900D92AE34B107D9F722E0C4
:10030000AEE4B1E001C01D92A130B207E1F70E9456
:1003100034100C94391374CEF89498ED9FBD83BFBC
:1003200078940895482F9B01EEECF1E080E090E096
:100330005081552331F00196339680319105C1F7F4
:100340000AC063E070E00E94DB12FC01E253FE4F42
:1003500040833283218308950F931F93CF93DF93BC
:10036000D091CE01DD2351F10091CF011091D00148
:10037000C091AB01C150C7FD0DC0EC2FEE0FFF0BBC
:10038000E455FE4F0190F081E02DB8018D2F0995C5
:100390008111F0CFEEECF1E083818083848195813F
:1003A00092838183339681E0EB3FF807A9F710929F
:1003B000FB011092FD011092FC01D2CFDF91CF9191
:1003C0001F910F910895BC0180910002ABCF109254
:1003D00000021092FF011092FE0181E080938001E3
:1003E00008950F931F93CF93C82F08EA17E0CC23EB
:1003F00049F082E091DFC8010197F1F780E08CDFDE
:10040000C150F5CFCF911F910F910895E091070151
:10041000F09108013196FB70F460F0930801E093CD
:10042000070180919F018B5A80939F01E4918091F5
:100430009F018E0F08950F931F93CF93DF9300D0EA
:100440001F92CDB7DEB72091220130912301409158
:10045000240129833A834B83FE01319640E050E02A
:1004600090E061E070E0B1919A01220F331F8C019E
:1004700002C0159507952A95E2F79801237061F05F
:100480002130D1F4A0B39B0101C0220FBA95EAF745
:10049000322F30953A2318C0A0B39B0101C0220F20
:1004A000BA95EAF720953A2F322330BB32B3322384
:1004B00032BB31B323230EC0A0B39B0101C0220F76
:1004C000BA95EAF73A2F322B30BB32B3322B32BB1C
:1004D00031B3232B21BB4F5F5F4F4330510519F6DA
:1004E0000F900F900F90DF91CF911F910F91089572
:1004F000CF93DF9300D000D000D0CDB7DEB790917E
:100500007B012091BC013091BD012D57384009F489
:1005100092E0843019F460937C0121C06623F9F0E5
:10052000823019F427E9261B622F26E0E5E2F1E08C
:10053000DE01119601900D922A95E1F7E82FF0E087
:100540003197EE0FFF1F21E030E02C0F3D1FE20F2F
:10055000F31F0190F081E02DE90FF11D60832696D5
:100560000FB6F894DEBF0FBECDBFDF91CF910895D7
:10057000BF92CF92DF92EF92FF920F931F93CF9390
:10058000DF93EC0140917B01E0911D01EE2311F01E
:1005900082E001C0842F90E0DC01A95EBE4F2C9167
:1005A00020931B01DC01AC5EBE4F8C9180931A013D
:1005B000F0E0EF5EFE4F3181622F70E0442349F09E
:1005C000313039F49B01280F311DC901959587956C
:1005D00038C0C617D707A4F1682F70E06C177D07E5
:1005E00084F1411102C08C2F2CC0821B032F10E01C
:1005F00001501109E82EF12CC701B8010E940C131B
:10060000609379016695E62FF0E0822FC12CD12C02
:10061000B12CB316B1F0C601B8010E94F812822FB6
:10062000860FCE0CDF1CAE01481B510957FF03C0DB
:10063000519541955109E417F5071CF4B394E9CF9E
:10064000822FDF91CF911F910F91FF90EF90DF905C
:10065000CF90BF90089581E00895611160932001CB
:100660000895662389F0813061F48091BF019091F3
:10067000BE01891B681B6093BE0182E0809321014B
:1006800003C0635E60931F0180911F01873418F0DF
:1006900086E480931F0108956093740108950F9379
:1006A0001F93CF93DF9380917B0180938101809191
:1006B00017018093820180911401809383018091BE
:1006C00011018093840180911801809385018091AC
:1006D000150180938601809112018093870180919A
:1006E000190180938801809116018093890180917E
:1006F000130180938A0180911D0180938B01809169
:100700007C0180938C0180917A0180938D0180918E
:100710001C0180938E0180917E0180938F018091D6
:100720007D0180939001809171018093910180916E
:10073000A1018093920180910D018093930180919A
:100740000C018093940180910A018093950180911E
:100750000B0180939601809109018093970180910C
:100760000E018093980180911F01809399018091DF
:10077000BE0180939A018091200180939B0180911A
:10078000100180939C0180910F0180939D018091C5
:10079000740180939E0182E024DEF89401E811E068
:1007A000C1E8D0E0F80161918F01CE010E942713CA
:1007B0002196CF39D105B1F765EA80E890E00E9433
:1007C00027137894DF91CF911F910F91089588237B
:1007D00021F0813031F4829805C0829892988A98ED
:1007E0000895829A929A8A9A0895CF93C82F8093F7
:1007F000A2018093A0018091A30181110BC01BDE97
:1008000091E0C11101C090E081E0C33308F480E0C1
:10081000890FDDDFC1110CC010926D0010926C00C9
:1008200018BA10926B0010926A008898899829C0B3
:10083000C1508091A101EC2FF0E0811111C0889A84
:100840008998EE0FFF1FE055FE4F8591949190938C
:100850006D0080936C0010926B0010926A0011C0C2
:100860008898899A10926D0010926C0018BAEE0F59
:10087000FF1FEC57FF4F8591949190936B008093ED
:100880006A008091A201823010F482E005C08A30B3
:1008900010F481E001C080E0CF913ECDCF93C091B4
:1008A000A20189E18C0F873908F080E09EDF83E0A8
:1008B00098DD8C2FCF9199CFCF93C091A20180E08A
:1008C00094DF83E08EDD8C2FCF918FCF0F931F931A
:1008D000CF93DF93E82F8091C1019FEF980F9C3158
:1008E00020F480E0A8DD80E090C0CE2FC295CF70CC
:1008F000DE2FDF709091A301911103C0C33008F087
:10090000C2E0D730A8F40091560110E00F5F1F4FEE
:100910007DDD65E00E94EC129801290F311DC901AF
:1009200066E070E00E940C1380935601ED2F41C0E9
:10093000D730A9F40091560110E00F5F1F4F66DD1C
:1009400065E00E94EC129801290F311DC90166E093
:1009500070E00E940C1380935601FC0135C0D83022
:10096000B1F48091A301882311F08FE001C083E0EE
:10097000682351F48091560190E0019666E070E0A2
:100980000E940C1380935601E091560112C0909181
:10099000A301992381F08D31D8F090E0E92FF0E0A8
:1009A000E25CFE4F2081821710F09E5FF7CF3197F7
:1009B000E081F0E009C0862F869563E00E94EC128A
:1009C000E92FF0E0EE0FFF1FE358FF4FE49101C065
:1009D000E0E0C33071F48091550190E0019663E14D
:1009E00070E00E94F81280935501DC01A55DBE4FB6
:1009F000CC91CC2329F0C13029F0EE0FC2E002C027
:100A0000C0E0E0E08E2F17DD8C2FDF91CF911F919A
:100A10000F91DDCE813019F410927E01089582305D
:100A200019F460937D010895833019F460937A017D
:100A30000895843011F460931C010895813061F4AD
:100A4000611101C080E080930D01611102C08FE748
:100A500001C081E08093A1010895CF93C0911D0151
:100A6000C1114AC0883039F4109278011092760191
:100A70001092750142C0813B59F4809178018150F8
:100A80008330D0F583E0809378018093770134C080
:100A9000853BB1F4CB016EE370E00E94F812892B24
:100AA00061F5809178018A3F40F58B5F80937801F2
:100AB000809377011092760110927501EFDE1DC0D0
:100AC0008130D1F48091750190917601019688383A
:100AD0002EE0920728F490937601809375010DC063
:100AE000109276011092750180917801882329F087
:100AF00081508093780101C0C1E08C2FCF9108957F
:100B0000CF93833B09F055C080910D01882381F07C
:100B1000672B09F065C08091A1018E3F19F081E03B
:100B20008093A1018091A10180958093A1013DC096
:100B3000672B29F481E08093540110925301809136
:100B40005401882309F44DC0909105018091A101C1
:100B5000191624F48E3F48F48F5F05C0992329F0BD
:100B6000823018F081508093A101C091530190917F
:100B7000A101C03449F481E48093530181E08927C5
:100B80008093A10199DE0DC080915201891309C0A3
:100B9000C11102C091DE02C0CF3F19F0CF5FC093F8
:100BA00053018091A101809352018091A2011DDE29
:100BB00015C0833EA9F410925401809105018195DE
:100BC000809305018091A101823010F481E003C07F
:100BD0008E3F18F08FEF8093050161DD80E001C04A
:100BE00081E0CF910895FF920F931F93CF93DF93EE
:100BF0008C01EB01F42E8091BC019091BD01892BF9
:100C000031F0E091BC01F091BD0189E009951093AC
:100C1000BD010093BC01012B39F0E091BC01F091C2
:100C2000BD01BE018F2D099581E080938001DF9188
:100C3000CF911F910F91FF900895CF93DF93E09193
:100C4000AB01EE2359F0E150E093AB01F0E0EE0F81
:100C5000FF1FE455FE4FC081D18102C0C0E0D0E04B
:100C6000E091AB01EE2341F0F0E0EE0FFF1FE655FF
:100C7000FE4F8081918102C080E090E04AE060E018
:100C800070E0B1DFCE01DF91CF910895883029F473
:100C9000109270011092570115C08130F9F49091B3
:100CA0005701911107C06032710568F180935701B7
:100CB0008EDB29C0913081F46B3B710528F082E016
:100CC0008093570180E01EC061157105E1F06270EC
:100CD000862F880F8E5E16C0B0DF15C0813811F0E8
:100CE000813E89F491E090935701813E21F48091F7
:100CF0007001865F03C0809170018F5F80937001E7
:100D000066DB8BE472DD80E008959C019091AB017D
:100D1000983088F4E92FF0E0EE0FFF1FE455FE4F06
:100D2000318320839F5F9093AB0148E0C9015BDF73
:100D30008091AB0108958FEF08950F931F93CF9388
:100D4000DF93EC018B0179DFB801CE01DF91CF9108
:100D50001F910F91DACF813C29F460E070E080E2CE
:100D600097E006C0823C39F460E070E086EE96E0E1
:100D7000E4DF80E0089581E00895813C29F460E09B
:100D800070E080E297E006C0823C31F460E070E001
:100D90008BEA96E0D2DF16C0813B49F4CB016EE3CB
:100DA00070E00E94F812892B69F478DD0BC0813E57
:100DB00059F4CB016EE370E00E94F8126F5F60930C
:100DC0000E016DDC80E0089581E00895CF93C0911D
:100DD0001D01C11117C0813C29F460E070E080E280
:100DE00097E006C0823C31F460E070E086E097E076
:100DF000A4DF09C0873B31F460E070E089E898E047
:100E000084DF01C0C1E08C2FCF910895813C29F48B
:100E100060E070E080E297E006C0823C31F460E080
:100E200070E08DEB96E089DF07C0873B39F460E026
:100E300070E08DE898E069DF80E0089581E0089532
:100E40000F931F93CF938B01883079F480E0CDDC32
:100E500060E0809110013ADD10927801012B19F4C5
:100E600081E08093A301C0E0FCC0813049F4693186
:100E70007105C8F38093A3018091100127DDF3CFA2
:100E8000833029F520917E01222381F080917D011C
:100E900090E062EC71E00E94DB120817190730F055
:100EA00020931E01809171018093A101602F809198
:100EB00010010CDD809174018823A9F290E062ECAE
:100EC00071E00E94DB128017910768F64DC0813BEC
:100ED00099F481E090E04CDB88DC80917A0181110B
:100EE000C2CF80917B01811104C00831110508F443
:100EF000BACF61E070E028C0813ED9F3813821F497
:100F000080911E0190E013C0813C21F46091A20108
:100F100070E01AC0823B79F480911C0190911D0110
:100F2000911180917C01811104C086E990E020DB61
:100F300005C086E903C0823E19F480E056DC93CFF9
:100F4000823C31F466E970E080E99DE0F6DE8BCF0B
:100F5000833999F3833C29F460E070E086EE96E0F3
:100F6000F5CF843C31F49ADC60E070E085E998E0EC
:100F7000EDCF8D3B41F4F89488ED8FBD88E880BFBC
:100F80007894A895FFCF8F3C29F460E070E08BE265
:100F900093E0DCCFC0911D018A3B71F4672B61F4B3
:100FA000CC2329F07BDC10921D0179DB5CCF60E063
:100FB00070E08DE798E052C0C11152C08A3C29F41C
:100FC0006DDC81E080931D013FC0833B29F460E02C
:100FD00070E085EC9BE007C0853C39F45FDC60E0A5
:100FE00070E088E49DE0A9DE3CC0873C91F49091DC
:100FF0001001892F82958F708F5F83708295807F1B
:101000009F70892B8093100160E060DC48DB46DC38
:1010100028C0873BB9F4C8018F739927892B69F4DD
:1010200090911001892F8F708F5F292F207F6BE0A7
:101030000E94EC12922B90931001602F809110016E
:1010400045DC0FC0873E11F42ADB0BC0893B41F41D
:10105000012B31F460E070E085E898E056DE01C0D5
:10106000C1E08C2FCF911F910F910895883061F4CA
:101070001092580180E0B9DB8091A401811137C042
:1010800081E08093580123C0982F907F903BB9F462
:1010900020915801421780F0CB016DE570E00E946D
:1010A000F812029739F42F5F209358014217F8F095
:1010B00088E303C082E101C080E097DB18C0903E66
:1010C00061F480915801882389F0481778F060E036
:1010D00070E086E496E019DE0AC08A3041F460913F
:1010E000700180915801F9010995D9DAA6DD80E0F7
:1010F000089528E732E043E0B9CF28E732E044E042
:10110000B5CF2AE035E044E0B1CF2EE135E041E053
:10111000ADCF2DE233E041E0A9CF21E333E042E05F
:10112000A5CF2CE433E041E0A1CF0F931F93CF93E1
:10113000DF93D82F8B01873B19F480E056DB54C036
:1011400080798039B1F420911701909118018D2F89
:101150008F70823041F480917E01811108C0822F0E
:10116000291728F403C0822F921708F4892F3DDB3A
:101170000BC0803811F480E038DBD83029F460E00F
:1011800080910F01A3DB30C0D13039F40931110552
:1011900008F467C0D093A30102C0D33029F4602FB4
:1011A00080910F0193DB5DC0D43C71F4C0917E014E
:1011B000CC2319F06C2F70E013C060911E0170E019
:1011C00080E99DE0BADD50C0D43B31F467DB10927A
:1011D000000261E070E004C0D53C31F466E970E0E3
:1011E00080E99DE0AADD3DC0C0911D01C1113BC059
:1011F000DA3B31F460E070E081E998E086DD34C0EC
:10120000D73C91F490910F01892F82958F708F5F59
:1012100083708295807F9F70892B80930F0160E09F
:1012200055DB3DDA3BDB20C0D73BB9F4C8018F73F7
:101230009927892B69F490910F01892F8F708F5F07
:10124000292F207F6BE00E94EC12922B90930F01CC
:10125000602F80910F013ADB07C0D73E21F41FDADF
:1012600003C0C0E001C0C1E08C2FDF91CF911F917E
:101270000F91089586E884B91092CB011092CC01A9
:1012800083B1886483B90895F5DFE1E6F0E08081F9
:1012900082608083139A87EE83B908951092CD01FE
:1012A00020B191B130919F0122952695269523700A
:1012B000892F90E0880F991F880F991F820F911D29
:1012C000830F80939F018091C201882309F407C195
:1012D0001092C2018091CB019091A301992319F042
:1012E0001F981092CB0181113EC08091210188236B
:1012F00049F08091C7019091C8019093C4018093F7
:10130000C30104C08091C3019091C4014096807EC6
:101310009695879561EC72E00E94F8128091200109
:101320008750680F6093C10180916F01882311F08D
:10133000815008C06D3140F460E070E084E00E94AC
:10134000920185E080936F018091A3018111BEC05D
:101350008EE884B981E08093CB011092CC0183B1F7
:10136000886483B9B3C0813009F0B0C08091210195
:10137000811143C08091C5019091C601409645E01E
:10138000969587954A95E1F76091BE01AC01569517
:101390004795062E000C770B9B012E503140240FF1
:1013A000351F3093C0012093BF0120915E01E22FD1
:1013B000F0E0EE0FFF1FE15AFE4F40815181DC014A
:1013C000A41BB50BAD01918380832F5F2770209301
:1013D0005E019D01220F331F220F331F820F931FC7
:1013E00020911F0130E0261B370B225F3E4F220F5A
:1013F000331F821B930B23E01CC08091C901909185
:10140000CA019093C6018093C501409635E0969538
:1014100087953A95E1F7EFE5F1E081939193B1E09B
:10142000EF36FB07D1F7A6CF009709F001962150C0
:1014300029F018161906C4F70197F9CF18161906DE
:10144000E4F457FD39C020915D0112160CF1880FAC
:10145000991FBC016350710977FF02C06F5F7F4F16
:10146000759567951616170614F061E070E088E12F
:10147000861B80935D0185E026C08C3F2FEF92078D
:10148000DCF457FF19C020915D0127FF05C02450EF
:10149000281B20935D0119C024EE281B20935D01B9
:1014A0002091C1012F3188F06CEF7FEF681B790B21
:1014B0007595679586E007C08091C1018E3128F04F
:1014C00060E070E087E00E949201D4DE809121010B
:1014D000882329F080912101815080932101089572
:1014E000843021F58091BC019091BD012BE0853CB9
:1014F000920729F469E170E080E99DE015C0805908
:101500009D4071F49091A201923050F0892F869500
:1015100096959695890F80937F0167D980E008950D
:1015200060E070E080E297E008DCF8CF81E00895A9
:101530000F931F93CF931092A6018091FE0190917B
:10154000FF019C012F5F3F4F88279078822B932BC0
:101550009093FF018093FE019091A4012FB1822FFF
:101560008095881F8827881F8093A401981729F1E8
:101570001092A3018093A40190910002892F27FD6E
:101580000AC080699F709F3009F08F5F80930002CE
:1015900080E090E00CC08F7E95FD02C0806801C0A5
:1015A000806C809300028091FE019091FF010E9467
:1015B000E3011092FF011092FE010091FE011091D3
:1015C000FF018091A301882379F0B80183E00E9494
:1015D00092010E94AC010F731127012B09F046C044
:1015E00010925C0151DE32C0C09100028C2F807FCE
:1015F000803B19F460E070E001C0B80181E00E9416
:101600009201C4FF13C0C5FF02C0C8010CC008315D
:101610001105E0F01092FF011092FE01C062C0932C
:10162000000280E090E00E94E30110C0CC2371F042
:10163000C5FD0AC00231110548F0C064C093000224
:1016400080E090E00E94E3010E94E70180915C014C
:10165000811106C083B1886483B981E08093C2019F
:1016600080915C018F5F8F7180935C01CF911F919E
:101670000F9108958091CD01811110DE8091A60116
:10168000811156CF0895EF92FF920F931F93CF933E
:10169000DF93EC0108E017E082ECE82EFF24F394DE
:1016A0002097D9F080918001811119C08091A20109
:1016B000823028F482E00E948C01C70104C080E0DF
:1016C0000E948C01C8010197F1F780E00E948C0113
:1016D000D1DF0E94AC012197E3CF81E001C080E01F
:1016E000DF91CF911F910F91FF90EF900895CF93CD
:1016F000C82F882381F089E178D886EA90E0C3DF9B
:1017000080E073D88AEF90E0BEDFC150A1F78AE98C
:1017100092E0CF91B8CF89E168D888E090E0B3DF5C
:1017200080E063D88AEF90E0AEDFF1CFCF93DF9314
:1017300064E652D7282F892F6AE04ED7EC01222386
:1017400041F0822FD4DF8C2FD2DF8D2FDF91CF910C
:10175000CECFC111F8CFF9CFCF93DF93D82FC3E00D
:1017600080911E0142D88DE790E08DDFDD2319F0D6
:101770008AEF90E088DF80E038D88DE790E083DF63
:10178000C15071F7DF91CF910895DF92EF92FF92F0
:101790000F931F93CF93DF93D82F8B01C0910C0130
:1017A00081E080937301C33009F0DDC0F0907801CF
:1017B0008D2F53D9FF2051F080917801811106C0FF
:1017C00060E070E080E297E0B8DACDC0D83021F474
:1017D00081E080930301C9C0D23C19F410927801D2
:1017E000D2C0D13BC1F490910201012B49F497364C
:1017F00010F08FEF03C0923018F481E08093030162
:1018000080910301890F11F481E037C1883608F413
:1018100034C187E632C1D13E31F480910301819514
:1018200080930301E7C0D23B61F481E08093030120
:1018300080910201823008F4E5C08150809302015A
:10184000E1C0D13009F0EFC00932110511F4D09395
:101850000301D09051018D2D880FD7FC809590E029
:1018600069E070E0A8D6292FE09050018E2D880FF6
:10187000E7FC8095D09101016D2F70E090E09BD640
:10188000290FF0904F018F2D880FF7FC8095C091A4
:1018900000016C2F70E090E08ED6920F60910201F3
:1018A00070E0690F711D80917801813091F4809111
:1018B00075019091760125E0969587952A95E1F737
:1018C00024E730E0A901481B590BCA0174D6B901BD
:1018D0008FD6862F0E94F50300FD06C00E940602E7
:1018E0008170D80ED092510180914E01E80EE092A5
:1018F00050010E94060265E26FD6F90EF0924F0188
:101900000E9406028F7331F40E9406026DE064D6D5
:1019100090934E01DD2339F00E9406028F7319F473
:10192000D150D09301010E940602811108C00E948B
:1019300006026EE051D69093010110925001C3301F
:1019400038F00E9406028F7119F4C150C093000153
:101950000E9406028F7709F07BC00E940602877002
:101960008093000175C0D83021F481E08093040198
:1019700086C0D13C31F460E070E080E297E0DDD9D0
:101980007EC0D23C49F48C2F90E0019665E070E077
:1019900043D680930C014CC0D13B51F5C23090F43A
:1019A00000FD6DC0EC2FF0E0E65FFE4F808190916E
:1019B0000401891B883020F08F3F99F58EEF31C0EC
:1019C00088E02FC0C43009F05AC09091090180917D
:1019D0000401890F823010F482E003C0893708F0D7
:1019E00088E780930901809109010E94F50347C0AF
:1019F000D13E31F48091040181958093040118C097
:101A0000D23BA1F481E080930401C23068F500FD6F
:101A100036C0EC2FF0E0E65FFE4F80818F3F79F11A
:101A20008F5F80832CC0D13C09F4A5CFD23E19F43E
:101A30000E944F0324C0D53C39F460E070E088E494
:101A40009DE07BD980E0D1CFD13011F081E018C08A
:101A50000932110519F481E08093040180919F01FE
:101A6000080F00939F010BC0C43049F48091090115
:101A7000833008F4B8CF8150B4CF8093020180E066
:101A8000DF91CF911F910F91FF90EF90DF9008951C
:101A90000F931F93CF93DF93D82F8B01883031F4AE
:101AA00080917301813011F488E06FDE8D2F807991
:101AB000803961F481E080937201C0917301C1119A
:101AC0000CC080911E010E94F50324C0803839F4B7
:101AD0001092720180E00E94F503C0E01BC0D1307B
:101AE000C1F4C0917201CC2351F080917301813017
:101AF000A1F7B801DF91CF911F910F9146CE073327
:101B0000114058F3D093A30160E080E00E94660486
:101B100001C0C1E08C2FDF91CF911F910F910895EB
:101B2000AF92BF92CF92DF92EF92FF920F931F93EB
:101B3000CF93DF93182FEB01D0901B01F0901A0187
:101B4000B0907B01BB2019F0C090790102C0CC2479
:101B5000C39480911C0100911D01011180917C01B1
:101B6000882349F0813021F080911E018F1518F0F3
:101B7000A6E9EA2E01C0EF2CA0907801BE01812FCA
:101B80000E942D0560917801662339F0A1100CC0E8
:101B90008091A20180935B0107C0AA2029F060E038
:101BA00070E080E297E043C0812F8D7F8830F9F4A8
:101BB000109273011A3019F4C0911E01D0E08D2DDE
:101BC00090E08C179D0738F48F2D90E0C817D90747
:101BD00010F4C0931E01CE010E94B80280937F01D1
:101BE0000E94F50381E08093060100E0D5C1113C1D
:101BF000B1F2123C99F48091A2018E1520F4E0928A
:101C00007F018E2D04C080911E0180937F010E9470
:101C1000F5038091A20180935B01E7CF143C49F466
:101C200080E00E94F50360E070E085E998E085D8E7
:101C3000DCCF8FE4810F823008F057C0BB2039F031
:101C4000CE0168E170E0D4D4892B31F0CECF609121
:101C5000110170E0CE01F7CF2091A201209761F42D
:101C6000123B11F48FEF05C02F15E0F7D21600F1EB
:101C700081E0809306011CC0E0911101F0E0CF01EA
:101C800066E371E098D48C179D0710F42F1550F778
:101C9000CF016CE672E08FD48C179D0748F4D21602
:101CA00038F00E944E0460E070E085E998E045D885
:101CB000D091A201809106016C2D70E0082E000CDD
:101CC000990B79D48D0F911D0E94B802C82F809373
:101CD0001E01D81731F0863911F0F81202C00E94A7
:101CE0005C04C0937F018C2F92CF8FE1810F8230F3
:101CF00020F480910601819576CF113009F0C3C0A0
:101D0000A99711F410930601662391F080915B016D
:101D100070E06150710990E04ED46091770170E0FD
:101D20007BD4611101C061E06093A00160937F01E9
:101D30003091A0012091A201832F90E0821B910994
:101D40006091590170915A016F5F7F4F70935A01F2
:101D500060935901009709F448CF97FF05C02039D7
:101D600030F040E450E005C040E052E002C040E006
:101D700051E05695479597FD019695958795009763
:101D8000C1F74617570708F030CF321710F43FEF6E
:101D900003C0231710F431E0320F6FEF630F80910F
:101DA000A101E62FF0E0EE0FFF1F811136C0CF0139
:101DB00080559E4FFC0145915491621750F46091FB
:101DC0006C0070916D00672B21F44F3F23E05207A8
:101DD000D9F060916C0070916D006417750738F44C
:101DE00040916C0050916D004F5F5F4F0DC060914E
:101DF0006C0070916D004617570750F440916C00CD
:101E000050916D004150510950936D0040936C000A
:101E100040916C0050916D0029C0CF018C579F4FAD
:101E2000FC014591549160916A0070916B006417B8
:101E3000750738F440916A0050916B004F5F5F4F17
:101E40000DC060916A0070916B004617570750F4FF
:101E500040916A0050916B004150510950936B00C2
:101E600040936A0040916A0050916B00FC0185919B
:101E700094914817590711F43093A20110925A0116
:101E800010925901B2CE1530A9F48091A20183338A
:101E900008F4ABCE90E08C1B9D0B282F823391056C
:101EA0002CF08739910518F026E901C022E3209330
:101EB000A0019BCE1630B1F49091A20180917F01D8
:101EC000981708F092CEC90FD11D90E08C179D078E
:101ED00034F0C233D10524F4C2E3D0E001C0EC01F8
:101EE0008C2F0EC0173079F49091A0018091A2013F
:101EF000891710F48F5F04C0981708F076CE8150D0
:101F00008093A00172CE011146C0133CC9F481E058
:101F1000B11080E080937B010E944F030E945C041B
:101F20008091A20190E00E94B80280931E018093EC
:101F30007F010E94F5038091A20180935B012CC078
:101F4000153C51F480E00E94F50360E070E088E405
:101F50009DE00E949D0620C0173B29F460E070E0E0
:101F600089E798E015C01A3C69F48091A20180933A
:101F70007E018091A101809371010E944F030E9414
:101F80004E040AC01A3B39F460E070E081E898E042
:101F90000E94850601C001E0802FDF91CF911F9143
:101FA0000F91FF90EF90DF90CF90BF90AF9008958A
:101FB0001F920F920FB60F9211242F933F938F937E
:101FC0009F93AF93BF93EF93FF938091CC018823AE
:101FD000E9F0E091CB0120B131B1F0E0EE0FFF1F4D
:101FE000DF01A953BE4F2D933C93ED53FE4F8081EB
:101FF00091818217930708F401962817390708F48E
:1020000001979183808381E08093CD0181E080936B
:10201000CC01FF91EF91BF91AF919F918F913F9133
:102020002F910F900FBE0F901F9018951F920F9237
:102030000FB60F9211248F9381E08093A6018F91A8
:102040000F900FBE0F901F9018951F920F920FB612
:102050000F9211248F9381E08093A5018F910F90AF
:102060000FBE0F901F901895F89485B7877F85BF96
:1020700088ED90E00FB6F894A8958FBD90B7977F44
:1020800090BF0FBE81E088B998E09CB99FE790BBF4
:1020900093EA909372008093710091E89BBB8ABB96
:1020A00080E882BB87BD8CB788608CBFA89580E430
:1020B00080BFEAD8789481E00E94F10160E070E08E
:1020C00080E79AE00E948506109280010E944E04EB
:1020D0009FB1892F8095881F8827881F8093A4012E
:1020E00097FF0BC082E00E94F101F89480E890E035
:1020F000A6D2853AB9F17894BBC0C0E08C2F0E947B
:10210000F50383E190E0BFDA8C2F86950E94F503FA
:1021100083E190E0B8DA9FB1892F8095881F8827E6
:10212000881F8093A40197FD13C0CF5FC03431F79F
:1021300065E181E00E9431030E944F03C6E98C2FC4
:102140000E94F50384E090E09EDAC150C1F7CACF47
:10215000CC2341F28C2F0E94F5038DE090E093DABE
:10216000C150F6CF01E811E0C1E8D0E0CE0167D25E
:10217000F80181938F012196CF39D105B9F7789471
:102180008091810180937B0180918201809317016E
:1021900080918301809314018091840180931101C7
:1021A00080918501809318018091860180931501AB
:1021B0008091870180931201809188018093190199
:1021C000809189018093160180918A018093130187
:1021D00080918B0180931D0180918C0180937C0103
:1021E00080918D0180937A0180918E0180931C01F2
:1021F00080918F0180937E018091900180937D0179
:102200008091910180937101809192018093A1014D
:102210008091930180930D018091940180930C0132
:102220008091950180930A018091960180930B0122
:1022300080919701809309018091980180930E010C
:102240008091990180931F0180919A018093BE0132
:1022500080919B018093200180919C0180931001CB
:1022600080919D0180930F0180919E018093740164
:1022700080917E01811180931E0160E070E080E812
:1022800095E00E94850661E070E080E297E00E94A0
:10229000850643E4442E52E0552E60E4862E9924B0
:1022A000939477E0772ECC24C394D12CF5E06F2E55
:1022B000A0E2AA2EA7E0BA2E0E94AC018091A9014B
:1022C0009091AA01009751F06091A7017091A80127
:1022D0000E949D061092AA011092A9018091A3016B
:1022E000882309F448C080E00E94F503A89540BE09
:1022F0001F989FB1892F8095881F8827881F8093FA
:10230000A40197FFF6CF0E94E7018CB788608CBFCD
:102310001092CD011092A6011092A5018091A30107
:10232000882301F186B78F79806486BF86B7806184
:1023300086BF889586B78F7E86BF8091A501811163
:102340001092A3018091CD01882331F09092210158
:102350009092C2010E944E098091A6018823F1F259
:10236000E7D8DCCF509221018CB7877F8CBF0E94C9
:102370004409A89580BE7ED9109280018091BC014D
:102380009091BD01F3E08B329F0779F4C0E7D0E074
:10239000FE0184918053ABD98CE291E074D92196EF
:1023A000F0E0CC37DF07A1F7C0C02BE0853C9207F7
:1023B00079F03DE08834930709F0ACC08091730157
:1023C000813009F0EDC080917201882309F4E8C0E2
:1023D000C0910C01C230E1F020F0C43009F47DC09E
:1023E0006BCFEC2FF0E0E65FFE4FD08186E90E94D4
:1023F000F503C11103C082E090E003C08D2F8695E4
:1024000090E041D980E00E94F5038D2F90E0C6C096
:102410000E9406028F73E82EF12C0E940602672D9F
:10242000DBD0E60102C0CC0FDD1F9A95E2F70E94D7
:102430000602662DD1D0F60102C0EE0FFF1F9A955D
:10244000E2F7CE0FDF1F0E94060290E0BE01E4D04B
:10245000C80FD91FC739D10514F0C6E9D0E08C2FB9
:102460000E94F503C7010FD98E0133E0159507953A
:102470003A95E1F7011101C001E010E0C70103D96D
:10248000C01BD10BD7FF02C0C0E0D0E08C2F0E9450
:10249000F5030E940602837039F4C701F4D8CE0117
:1024A000959587950E94F503C230D1053CF70E94AF
:1024B00006026DE091D0E60102C0CC0FDD1F9A95B7
:1024C000E2F70E94060290E0BE0192D0C80FD91F29
:1024D00080E00E94F503CE0161C0C0910901CC0FDC
:1024E000C73908F0C6E9D4E08C2F0E94F50385E0D7
:1024F00090E0C9D8809109010E94F50381E490E041
:10250000C2D8D15089F780ED92E0BDD880E00E941A
:10251000F503D2CEF6E0863E9F0781F48091C1019B
:1025200005D980911D01882381F0B092AA01A09263
:10253000A9011092A8011092A701BECE27E0863013
:10254000920731F48091BF01F1D888EE93E026C064
:1025500036E08D3B9307B9F48091A4018111ACCE94
:1025600080911E010E94F50384E690E08CD880E003
:102570000E94F50380910E0190E068EE73E01BD09D
:10258000845691090BC08B5A964051F480E0E4D8F0
:1025900081E0E2D880E0E0D881E792E074D88CCE88
:1025A00086B78F7986BF86B7806186BF889586B7E4
:1025B0008F7E86BF81CE0024552704C0080E591F88
:1025C000880F991F009729F076956795B8F37105E4
:1025D000B9F7802D952F0895991B79E004C0991FB4
:1025E000961708F0961B881F7A95C9F7809508956D
:1025F000AA1BBB1B51E107C0AA1FBB1FA617B70729
:1026000010F0A61BB70B881F991F5A95A9F7809544
:102610009095BC01CD01089597FB072E16F4009408
:1026200006D077FD08D0E4DF07FC05D03EF4909596
:1026300081959F4F0895709561957F4F0895E19919
:10264000FECF1FBA8EBBE09A99278DB30895262F2F
:10265000E199FECF1FBA8EBBE09A81500DB20216EF
:1026600039F01CBA2DBB0FB6F894E29AE19A0FBE6E
:062670000895F894FFCF6D
:10267600080E1801010101000496294303010237DF
:1026860018010705828282030A0A82030101322D9C
:1026960007020504031701140111010201000000DD
:1026A6000000000001000000000000000001000022
:0E26B600210123022503270429052C06FF0617
:00000001FF
