:100000006DC1000088C1000086C100000C94460F3D
:1000100082C100000C94370F7EC100007CC100003B
:100020007AC1000078C1000076C1000074C10000F0
:1000300072C1000070C100000C94F90E6CC1000088
:100040006AC1000068C1000066C1000064C1000010
:1000500062C1000060C100005EC100005CC1000020
:100060005AC1000058C1000056C1000054C1000030
:10007000323032313132303830323532000105041D
:100080001410111500000000000000000000000026
:100090000000000000000000000000000000000060
:1000A0000000000000000000000000000000000050
:1000B0000000000000000000000000000000000040
:1000C0000000000000000000000000000000000030
:1000D0000000000000000000000000000000000020
:1000E0000000000000000000000000000000000010
:1000F0000000000000000000000000000000000000
:1001000000000000000000000000000000000000EF
:1001100000000000000000000000000000000000DF
:1001200000000000000000000000000000000000CF
:1001300000000000000000000000000000000000BF
:1001400000000000000000000000000000000000AF
:10015000000000000000000000000000000000009F
:10016000000000000000000000000000000000008F
:1001700000000000160033004F006D008A00A80048
:10018000C600E50004012401440165018601A701C0
:10019000C901EC010F02320256027A029F02C40228
:1001A000EA02100336035D038503AD03D603FF03A4
:1001B0000000000001000100020002000300030033
:1001C00004000400050006000700080009000A00FA
:1001D0000B000D000E000F0011001300140016009C
:1001E00018001A001C001E00210023002600280011
:1001F0002B002E003100340037003B003E0042004F
:1002000046004A004E00520056005B006000640049
:1002100069006F00740079007F0085008B009100F9
:1002200097009E00A500AC00B300BA00C100C90051
:10023000D100D900E100EA00F300FB0005010E0146
:10024000180121012B01360140014B0156016101CA
:100250006C017801840190019C01A901B601C301E0
:10026000D001DE01EC01FA01090218022702360270
:10027000460255026602760287029802A902BB0274
:10028000CD02DF02F202040318032B033F035303E2
:1002900067037C039103A703BC03D203E903FF03B5
:1002A000FF03FF03FF03FF03FF03FF03FF03FF033E
:1002B000FF03FF03FF03FF03FF03FF03FF03FF032E
:1002C000FF03FF03FF03FF03FF03FF03FF03FF031E
:1002D000FF03FF03FF03FF03FF03000011241FBE02
:1002E000CFEFD4E0DEBFCDBF11E0A0E0B1E0E6E8A3
:1002F000F4E202C005900D92AC34B107D9F721E0C9
:10030000ACE4B1E001C01D92A83FB207E1F70E9442
:10031000550F0C94411274CEF89498ED9FBD83BF95
:1003200078940895482F9B01E5ECF1E080E090E09F
:100330005081552331F00196339680319105C1F7F4
:100340000AC063E070E00E94E311FC01EB53FE4F32
:1003500040833283218308950F931F93CF93DF93BC
:10036000D091C501DD2351F10091C6011091C70163
:10037000C091A201C150C7FD0DC0EC2FEE0FFF0BC5
:10038000ED55FE4F0190F081E02DB8018D2F0995BC
:100390008111F0CFE5ECF1E0838180838481958148
:1003A00092838183339681E0E23FF807A9F71092A8
:1003B000F2011092F4011092F301D2CFDF91CF91AC
:1003C0001F910F910895BC018091F701ABCF10925E
:1003D000F7011092F6011092F50181E080937B0104
:1003E00008950F931F93CF93C82F08EA17E0CC23EB
:1003F00049F082E091DFC8010197F1F780E08CDFDE
:10040000C150F5CFCF911F910F9108958BB182FB11
:10041000882780F991E0892780939B010895E091D6
:100420000601F09107013196FB70F460F09307012B
:10043000E0930601809197018B5A80939701E49194
:10044000809197018E0F0895809399018093980170
:1004500081110AC010926D0010926C0010926B0016
:1004600010926A00689817C0689A815090E0880FCF
:10047000991FFC01E055FE4F2591349130936D009A
:1004800020936C00FC01EC57FF4F85919491909361
:100490006B0080936A0080919901823010F482E0B1
:1004A00005C08A3010F481E001C080E035CF0F93A1
:1004B0001F93CF93DF9300D01F92CDB7DEB720916B
:1004C0002001309121014091220129833A834B83FD
:1004D000FE01319640E050E090E061E070E0B191C3
:1004E0009A01220F331F8C0102C0159507952A959A
:1004F000E2F79801237061F02130D1F4A0B39B01A1
:1005000001C0220FBA95EAF7322F30953A2318C06E
:10051000A0B39B0101C0220FBA95EAF720953A2FAC
:10052000322330BB32B3322332BB31B323230EC06C
:10053000A0B39B0101C0220FBA95EAF73A2F322BE4
:1005400030BB32B3322B32BB31B3232B21BB4F5FD5
:100550005F4F4330510519F60F900F900F90DF91C8
:10056000CF911F910F910895CF93DF9300D000D0CA
:1005700000D0CDB7DEB7909176012091B3013091D4
:10058000B40127503A4009F492E0843019F46093A2
:10059000770121C06623F9F0823019F427E9261B80
:1005A000622F26E0E3E2F1E0DE01119601900D9268
:1005B0002A95E1F7E82FF0E03197EE0FFF1F21E0D9
:1005C00030E02C0F3D1FE20FF31F0190F081E02D72
:1005D000E90FF11D608326960FB6F894DEBF0FBEBB
:1005E000CDBFDF91CF910895BF92CF92DF92EF926E
:1005F000FF920F931F93CF93DF93EC01409176010D
:10060000E0911B01EE2311F082E001C0842F90E005
:10061000DC01AB5EBE4F2C9120931901DC01AE5E74
:10062000BE4F8C9180931801F0E0E15FFE4F318165
:10063000622F70E0442349F0313039F49B01280FD8
:10064000311DC9019595879538C0C617D707A4F104
:10065000682F70E06C177D0784F1411102C08C2F68
:100660002CC0821B032F10E001501109E82EF12C41
:10067000C701B8010E941412609374016695E62FB9
:10068000F0E0822FC12CD12CB12CB316B1F0C601F1
:10069000B8010E940012822F860FCE0CDF1CAE0123
:1006A000481B510957FF03C0519541955109E41763
:1006B000F5071CF4B394E9CF822FDF91CF911F91FE
:1006C0000F91FF90EF90DF90CF90BF9008958093AF
:1006D0007A01BACE9091B80180E09D3180F0E82F88
:1006E000F0E0E45CFE4F2081921710F08E5FF7CFB0
:1006F0003197E081F0E0E358FF4F84910895089529
:100700000F931F93CF93E82F8091B80181508C31C4
:1007100010F480E066C0CE2FC295CF70EF7080914C
:100720009A01811103C0C33008F0C2E0E73078F1CC
:10073000862FE730A9F40091510110E00F5F1F4FA1
:100740006EDE65E00E94F4119801290F311DC90188
:1007500066E070E00E94141280935101FC0126C0F3
:1007600090919A01E830A9F4992311F06FE001C04B
:1007700063E0862351F48091510190E0019666E098
:1007800070E00E94141280935101E0915101F0E059
:100790000DC0992319F09EDFE82F0BC0869563E00A
:1007A0000E94F411E92FF0E0EE0FFF1FE358FF4F16
:1007B000E491C33071F48091500190E0019663E1BF
:1007C00070E00E94001280935001DC01A75DBE4FD3
:1007D000CC91CC2321F0C13019F0EE0F01C0E0E044
:1007E0008E2FCF911F910F9162CECF93C09199011F
:1007F00089E18C0F873908F080E026DE82E0F1DDA8
:100800008C2FCF9121CECF93C091990180E01CDE37
:1008100083E0E7DD8C2FCF9117CE81E00895611141
:1008200060931E010895662389F0813061F4809100
:10083000B6019091B501891B681B6093B50182E0F8
:1008400080931F0103C0635E60931D0180911D01B1
:10085000873418F086E480931D01089560936E013B
:1008600008950F931F93CF93DF9380917601809328
:100870007C018091150180937D018091120180930C
:100880007E0180910F0180937F01809116018093FA
:1008900080018091130180938101809110018093E8
:1008A00082018091170180938301809114018093CC
:1008B0008401809111018093850180911B018093B7
:1008C00086018091770180938701809175018093E3
:1008D000880180911A018093890180917901809328
:1008E0008A018091780180938B0180910B01809324
:1008F0008C018091090180938D0180910A01809380
:100900008E018091080180938F0180910C0180936A
:10091000900180911D01809391018091B501809398
:10092000920180911E018093930180910E0180932A
:10093000940180910D018093950180916E018093C7
:10094000960182E04EDDF8940CE711E0C1E8D0E0BA
:10095000F80161918F01CE010E942F122196CC39AE
:10096000D105B1F765EA80E890E00E942F127894F3
:10097000DF91CF911F910F910895813019F410925A
:1009800079010895823019F46093780108958330D5
:1009900019F4609375010895843011F460931A017D
:1009A0000895CF93C0911B01C1114AC0883039F41A
:1009B000109272011092700110926F0142C0813B3F
:1009C00059F48091720181508330D0F583E0809397
:1009D00072018093710134C0853BB1F4CB016EE3A9
:1009E00070E00E940012892B61F5809172018A3FAC
:1009F00040F58B5F809372018093710110927001BA
:100A000010926F01F2DE1DC08130D1F480916F0130
:100A100090917001019688382EE0920728F4909307
:100A2000700180936F010DC01092700110926F01E0
:100A300080917201882329F081508093720101C056
:100A4000C1E08C2FCF910895FF920F931F93CF9306
:100A5000DF938C01EB01F42E8091B3019091B401EE
:100A6000892B31F0E091B301F091B40189E009954F
:100A70001093B4010093B301012B39F0E091B3015D
:100A8000F091B401BE018F2D099581E080937B0127
:100A9000DF91CF911F910F91FF900895CF93DF9336
:100AA000E091A201EE2359F0E150E093A201F0E0C1
:100AB000EE0FFF1FED55FE4FC081D18102C0C0E097
:100AC000D0E0E091A201EE2341F0F0E0EE0FFF1F35
:100AD000EF55FE4F8081918102C080E090E04AE0B6
:100AE00060E070E0B1DFCE01DF91CF9108958830F2
:100AF00029F410926B011092520115C08130F9F463
:100B000090915201911107C06032710568F1809394
:100B100052015DDC29C0913081F46B3B710528F0F6
:100B200082E08093520180E01EC061157105E1F002
:100B30006270862F880F8E5E16C0B0DF15C08138B8
:100B400011F0813E89F491E090935201813E21F4AD
:100B500080916B01865F03C080916B018F5F8093F2
:100B60006B0135DC8BE470DC80E008959C01909192
:100B7000A201983088F4E92FF0E0EE0FFF1FED5549
:100B8000FE4F318320839F5F9093A20148E0C9010B
:100B90005BDF8091A20108958FEF08950F931F935B
:100BA000CF93DF93EC018B0179DFB801CE01DF91A8
:100BB000CF911F910F91DACF813C29F460E070E072
:100BC00087E796E006C0823C39F460E070E08DE390
:100BD00096E0E4DF80E0089581E00895843011F527
:100BE0008091B3019091B4012DE08A32920729F4EB
:100BF00069E170E08BE797E013C08B57974061F491
:100C000090919901923040F0892F8695969596950E
:100C1000890F5DDD80E0089560E070E087E796E091
:100C2000BDDFF8CF81E00895813C29F460E070E0F9
:100C300087E796E006C0823C31F460E070E08CED1E
:100C400095E0ACDF16C0813B49F4CB016EE370E068
:100C50000E940012892B69F4C8DD0BC0813E59F453
:100C6000CB016EE370E00E9400126F5F60930C0195
:100C7000F8DD80E0089581E00895CF93C0911B01D5
:100C8000C11117C0813C29F460E070E087E796E06D
:100C900006C0823C31F460E070E08DE596E07EDFD6
:100CA00009C0873B31F460E070E08FE09AE05EDFDE
:100CB00001C0C1E08C2FCF910895813C29F460E000
:100CC00070E087E796E006C0823C31F460E070E0B7
:100CD00084E196E063DF07C0873B39F460E070E0B1
:100CE00083E19AE043DF80E0089581E008950F9367
:100CF0001F93CF938B01883079F480E0A5DB60E00F
:100D000080910E01FDDC10927201012B19F481E03B
:100D100080939A01C0E0EAC0813049F469317105DD
:100D2000C8F380939A0180910E01EADCF3CF8330FF
:100D300009F520917901222361F08091780190E0FA
:100D400062EC71E00E94E3110817190710F020937C
:100D50001C01602F80910E01D3DC80916E018823ED
:100D6000C9F290E062EC71E00E94E31180179107F4
:100D700088F64DC0813B99F481E090E035DC64DB7E
:100D8000809175018111C6CF80917601811104C0D7
:100D90000831110508F4BECF61E070E028C0813E43
:100DA000D9F3813821F480911C0190E013C0813C7B
:100DB00021F46091990170E01AC0823B79F480912E
:100DC0001A0190911B01911180917701811104C04A
:100DD00086E990E009DC05C086E903C0823E19F48B
:100DE00080E032DB97CF823C31F466E970E08BE73C
:100DF00097E0D4DE8FCF833999F3833C29F460E008
:100E000070E08DE396E0F5CF843C31F4EEDC60E0F9
:100E100070E08BE19AE0EDCF8F3C29F460E070E068
:100E20008DE094E0E6CFC0911B018A3B79F4672BFB
:100E300069F4CC2329F0D9DC10921B0112DD6ACFB2
:100E400060E070E087E09AE091DE50C0C1114DC0D3
:100E50008A3C29F4CADC81E080931B0144C0833BB7
:100E600029F460E070E08AE29DE007C0853C39F437
:100E7000BCDC60E070E081EB9EE090DE37C0873C38
:100E800091F490910E01892F82958F708F5F8370FE
:100E90008295807F9F70892B80930E0160E030DC0B
:100EA000E0DCA3DC23C0873BD1F481E080937301B5
:100EB000C8018F739927892B69F490910E01892FAE
:100EC0008F708F5F292F207F6BE00E94F411922B8F
:100ED00090930E01602F80910E0112DC07C0873EB7
:100EE00021F410927301BDDC01C0C1E08C2FCF91C1
:100EF0001F910F910895AF92BF92CF92DF92EF9220
:100F0000FF920F931F93CF93DF93182FEB01D09095
:100F10001901F0901801B0907601BB2019F0C09033
:100F2000740102C0CC24C39480911A0100911B016A
:100F3000011180917701882349F0813021F080915F
:100F40001C018F1518F0A6E9EA2E01C0EF2CA09025
:100F50007201BE01812F25DD60917201662339F097
:100F6000A1100CC0809199018093560107C0AA205E
:100F700029F060E070E087E796E039C0812F8D7F2F
:100F80008830D9F410926D011A3019F4C0911C0107
:100F9000D0E08D2D90E08C179D0738F48F2D90E0D8
:100FA000C817D90710F4C0931C01CE011DDB8FDBDD
:100FB00081E08093050100E0D7C1113CD1F2123CE1
:100FC00071F4809199018E1510F48E2D02C08091DC
:100FD0001C017DDB8091990180935601ECCF143C7C
:100FE00041F480E031DA60E070E08BE19AE0D6DD38
:100FF000E2CF8FE4810F823008F056C0BB2041F071
:10100000CE0168E170E00E940012892B31F0D3CF4D
:1010100060910F0170E0CE01F6CF209199012097E9
:1010200061F4123B11F48FEF05C02F15E0F7D216D3
:1010300008F181E0809305011DC0E0910F01F0E00F
:10104000CF0166E371E00E94E3118C179D0710F455
:101050002F1548F7CF016CE672E00E94E3118C1760
:101060009D0740F4D21630F0C0DB60E070E08BE109
:101070009AE094DDD0919901809105016C2D70E08A
:10108000082E000C990B0E94E3118D0F911DACDA14
:10109000C82F80931C01D81729F0883711F0F81257
:1010A00001C0B1DB8C2F95CF8FE1810F823020F40E
:1010B0008091050181957DCF113009F0CEC0A997AF
:1010C00011F4109305016623A1F08091560170E0A0
:1010D0006150710990E00E94E3116091710170E02C
:1010E0000E941412611101C061E060939801609345
:1010F0007A01C0919801209199018C2F90E0821B78
:10110000910960915401709155016F5F7F4F709309
:10111000550160935401009709F44DCF97FF05C026
:10112000293730F040E450E005C040E052E002C012
:1011300040E051E05695479597FD01969595879526
:101140000097C1F74617570708F035CFC21710F4BC
:101150008FEF03C02C1718F481E0820F01C08C2F91
:101160009FEF980F492F50E0440F551FBA0160556B
:101170007E4FFB01A591B491921778F420916C00F9
:1011800030916D00232B49F4AF3F93E0B90729F468
:10119000B0936D00A0936C001FC020916C00309143
:1011A0006D002A173B0738F420916C0030916D00D8
:1011B0002F5F3F4F0DC020916C0030916D00A21742
:1011C000B30750F420916C0030916D00215031092B
:1011D00030936D0020936C009A012C573F4FF9011A
:1011E00045915491E0916A00F0916B00E417F50786
:1011F00038F440916A0050916B004F5F5F4F0DC013
:10120000E0916A00F0916B004E175F0750F4409137
:101210006A0050916B004150510950936B0040930C
:101220006A00A0916C00B0916D00FB014591549152
:10123000A417B50769F440916A0050916B00F90159
:10124000259134914217530719F4FED8C0939801A1
:101250001092550110925401AECE1530A9F4809130
:1012600099018F3208F4A7CE90E08C1B9D0B282F9C
:101270008E3291052CF08739910518F026E901C0CE
:101280002EE22093980197CE1630B1F490919901F7
:1012900080917A01981708F08ECEC90FD11D90E089
:1012A0008C179D0734F0CE32D10524F4CEE2D0E085
:1012B00001C0EC018C2F0EC0173079F49091980189
:1012C00080919901891710F48F5F04C0981708F076
:1012D00072CE8150809398016ECE011144C0133CB0
:1012E00099F481E0B11080E080937601BADA8BDA6C
:1012F0008091990190E078D980931C01E8D9809180
:1013000099018093560130C0133B29F4CD2B09F08D
:1013100052CE8E2D04C0133E21F480911C01D7D9EA
:1013200023C0153C41F480E08FD860E070E081EB91
:101330009EE034DC19C0173B29F460E070E083E0E4
:101340009AE00FC01A3C39F4809199018093790199
:1013500088DA4BDA09C01A3B31F460E070E08BE0C8
:101360009AE004DC01C001E0802FDF91CF911F9152
:101370000F91FF90EF90DF90CF90BF90AF900895C6
:10138000883061F41092530180E05ED880919B0117
:10139000811137C081E08093530123C0982F907F43
:1013A000903BB9F420915301421780F0CB016DE5D9
:1013B00070E00E940012029739F42F5F20935301CE
:1013C0004217F8F088E303C082E101C080E03CD816
:1013D00018C0903E61F480915301882389F048172A
:1013E00078F060E070E087E795E0C0DB0AC08A3003
:1013F00041F460916B0180915301F901099531DA53
:101400004DDB80E0089524EB32E043E0B9CF24EBDC
:1014100032E044E0B5CF2DEB34E044E0B1CF2FE033
:1014200034E041E0ADCF23E134E042E0A9CF2EE249
:1014300034E041E0A5CF0F931F93CF93DF93D82FD4
:101440008B01873B21F480E00E94240256C0807902
:101450008039B9F420911501909116018D2F8F706C
:10146000823041F480917901811108C0822F2917BF
:1014700028F403C0822F921708F4892F0E942402B7
:101480000CC0803819F480E00E942402D83029F47E
:1014900060E080910D0134D930C0D13039F4093188
:1014A000110508F46BC0D0939A0102C0D33029F41F
:1014B000602F80910D0124D961C0D43C71F4C0919A
:1014C0007901CC2319F06C2F70E013C060911C01DE
:1014D00070E08BE797E062DB54C0D43B31F485D9F0
:1014E0001092F70161E070E004C0D53C31F466E988
:1014F00070E08BE797E052DB41C0C0911B01C11146
:101500003FC0DA3B31F460E070E087E19AE02EDB27
:1015100038C0D73C91F490910D01892F82958F703E
:101520008F5F83708295807F9F70892B80930D01E0
:1015300060E0E6D896D959D924C0D73BC9F481E0F8
:1015400080937301C8018F739927892B61F490915F
:101550000D01892F8F708F5F292F207F6BE044D77B
:10156000922B90930D01602F80910D01C9D809C075
:10157000D73E31F41092730174D903C0C0E001C0AA
:10158000C1E08C2FDF91CF911F910F91089586E8D4
:1015900084B91092C2011092C30183B1886483B9E7
:1015A0000895F5DFE1E6F0E0808182608083139AA0
:1015B00087EE83B908951092C40120B191B13091A2
:1015C00097012295269526952370892F90E0880F04
:1015D000991F880F991F820F911D830F8093970188
:1015E0008091B901882309F406C11092B901809154
:1015F000C20190919A01992319F01F981092C2018B
:1016000081113DC080911F01882349F08091BE0166
:101610009091BF019093BB018093BA0104C0809167
:10162000BA019091BB014096807E9695879561ECBA
:1016300072E0E6D680911E018750680F6093B80172
:1016400080916A01882311F0815008C06D3140F407
:1016500060E070E084E00E94920185E080936A017E
:1016600080919A018111BEC08EE884B981E0809397
:10167000C2011092C30183B1886483B9B3C08130C1
:1016800009F0B0C080911F01811143C08091BC015D
:101690009091BD01409645E0969587954A95E1F772
:1016A0006091B501AC0156954795062E000C770B5D
:1016B0009B012E503140240F351F3093B7012093EA
:1016C000B60120915901E22FF0E0EE0FFF1FE65A1C
:1016D000FE4F40815181DC01A41BB50BAD0191830C
:1016E00080832F5F2770209359019D01220F331FA4
:1016F000220F331F820F931F20911D0130E0261B04
:10170000370B225F3E4F220F331F821B930B23E0C8
:101710001CC08091C0019091C1019093BD01809344
:10172000BC01409635E0969587953A95E1F7EAE554
:10173000F1E081939193B1E0EA36FB07D1F7A6CFB0
:10174000009709F00196215029F018161906C4F7E0
:101750000197F9CF18161906E4F457FD39C0209106
:10176000580112160CF1880F991FBC0163507109C2
:1017700077FF02C06F5F7F4F759567951616170646
:1017800014F061E070E088E1861B8093580185E0E9
:1017900026C08C3F2FEF9207DCF457FF19C0209131
:1017A000580127FF05C02450281B2093580119C059
:1017B00024EE281B209358012091B8012F3188F086
:1017C0006CEF7FEF681B790B7595679586E007C016
:1017D0008091B8018E3128F060E070E087E00E94CF
:1017E0009201D5DE80911F01882329F080911F018D
:1017F000815080931F0108950F931F93CF931092F0
:101800009D018091F5019091F6019C012F5F3F4F62
:1018100088279078822B932B9093F6018093F50183
:10182000C0919B010E940602C81731F110929A01E3
:1018300080939B019091F701882359F0892F80694B
:101840009F709F3009F08F5F8093F70180E090E0F8
:101850000DC0892F8F7E95FD02C0806801C0806C0D
:101860008093F7018091F5019091F6010E94E301C8
:101870001092F6011092F5010091F5011091F60118
:1018800080919A01882379F0B80183E00E94920147
:101890000E94AC010F731127012B09F046C0109272
:1018A00057017FDE32C0C091F7018C2F807F803BD3
:1018B00019F460E070E001C0B80181E00E9492017B
:1018C000C4FF13C0C5FF02C0C8010CC00831110518
:1018D000E0F01092F6011092F501C062C093F7019A
:1018E00080E090E00E94E30110C0CC2371F0C5FDC0
:1018F0000AC00231110548F0C064C093F70180E0CE
:1019000090E00E94E3010E94E7018091570181115C
:1019100006C083B1886483B981E08093B901809166
:1019200057018F5F8F7180935701CF911F910F9156
:1019300008958091C40181113EDE80919D01811145
:101940005BCF0895EF92FF920F931F93CF93DF9396
:10195000EC0108E017E082ECE82EFF24F3942097D6
:10196000D9F080917B01811119C080919901823059
:1019700028F482E00E948C01C70104C080E00E942C
:101980008C01C8010197F1F780E00E948C01D1DF42
:101990000E94AC012197E3CF81E001C080E0DF919C
:1019A000CF911F910F91FF90EF900895CF93C82F83
:1019B000882391F089E10E94240286EA90E0C2DF48
:1019C00080E00E9424028AEF90E0BCDFC15091F7D2
:1019D0008AE992E0CF91B6CF89E10E94240288E0A3
:1019E00090E0B0DF80E00E9424028AEF90E0AADF5E
:1019F000EFCFCF93DF9364E6F7D4282F892F6AE0E7
:101A0000F3D4EC01222341F0822FD0DF8C2FCEDFE4
:101A10008D2FDF91CF91CACFC111F8CFF9CFCF93DE
:101A2000DF93D82FC3E080911C010E9424028DE730
:101A300090E088DFDD2319F08AEF90E083DF80E01B
:101A40000E9424028DE790E07DDFC15061F7DF91B5
:101A5000CF910895DF92EF92FF920F931F93CF9350
:101A6000DF93D82F8B01C0910B0181E080936D0132
:101A7000C33009F0DFC0F09072018D2F0E94D104B5
:101A8000FF2051F080917201811106C060E070E08A
:101A900087E796E083D8CEC0D83021F481E08093E8
:101AA0000301CAC0D23C19F410927201D4C0D13BD8
:101AB000C1F490910201012B49F49E3610F08FEF92
:101AC00003C0923018F481E08093030180910301F8
:101AD000890F11F481E03AC18F3608F437C18EE6E0
:101AE00035C1D13E31F4809103018195809303018A
:101AF000E9C0D23B61F481E080930301809102014F
:101B0000823008F4E7C0815080930201E3C0D130F5
:101B100009F0F1C00932110511F4D0930301D090FE
:101B20004F018D2D880FD7FC809590E067E070E025
:101B30004AD4292FE0904E018E2D880FE7FC809526
:101B4000D09101016D2F70E090E03DD4290FF0900D
:101B50004D018F2D880FF7FC8095C09100016C2FEF
:101B600070E090E030D4920F6091020170E0690F54
:101B7000711D80917201813091F480916F0190917B
:101B8000700125E0969587952A95E1F724E730E0E6
:101B9000A901481B590BCA0116D4B90131D4862FAB
:101BA0000E94240200FD06C00E940F028170D80E20
:101BB000D0924F0180914C01E80EE0924E010E94BC
:101BC0000F0265E211D4F90EF0924D010E940F024E
:101BD0008F7331F40E940F026DE006D490934C0194
:101BE000DD2339F00E940F028F7319F4D150D09386
:101BF00001010E940F02811108C00E940F026BE0D8
:101C0000F3D39093010110924E01C33038F00E943B
:101C10000F028F7119F4C150C09300010E940F028E
:101C20008F7709F07EC00E940F0266E0DDD39093AB
:101C3000000177C0D83021F481E08093040188C08E
:101C4000D13C39F460E070E087E796E00E94CE0571
:101C50007FC0D23C49F48C2F90E0019665E070E0A3
:101C6000E3D380930B014CC0D13B51F5C23090F4CB
:101C700000FD6EC0EC2FF0E0E75FFE4F8081909199
:101C80000401891B883020F08F3F99F58EEF31C019
:101C900088E02FC0C43009F05BC0909108018091AA
:101CA0000401890F823010F482E003C0893708F004
:101CB00088E780930801809108010E94240248C0AF
:101CC000D13E31F48091040181958093040118C0C4
:101CD000D23BA1F481E080930401C23070F500FD95
:101CE00037C0EC2FF0E0E75FFE4F80818F3F81F13E
:101CF0008F5F80832DC0D13C09F4A4CFD23E19F46C
:101D00000E94310425C0D53C41F460E070E081EBD5
:101D10009EE00E94CE0580E0D0CFD13011F081E06E
:101D200018C00932110519F481E0809304018091F3
:101D30009701080F009397010BC0C43049F48091BC
:101D40000801833008F4B7CF8150B3CF80930201EC
:101D500080E0DF91CF911F910F91FF90EF90DF9086
:101D600008950F931F93CF93DF93D82F8B01883063
:101D700031F480916D01813011F488E06BDE8D2F9C
:101D80008079803961F481E080936C01C0916D01AC
:101D9000C1110CC080911C010E94240224C0803813
:101DA00039F410926C0180E00E942402C0E01BC054
:101DB000D130C1F4C0916C01CC2351F080916D0100
:101DC0008130A1F7B801DF91CF911F910F9142CEE1
:101DD0000733114058F3D0939A0160E080E00E94ED
:101DE000800301C0C1E08C2FDF91CF911F910F9133
:101DF00008951F920F920FB60F9211242F933F93C5
:101E00008F939F93AF93BF93EF93FF938091C30101
:101E10008823E9F0E091C20120B131B1F0E0EE0F8A
:101E2000FF1FDF01A254BE4F2D933C93E654FE4F9B
:101E3000808191818217930708F40196281739074A
:101E400008F401979183808381E08093C40181E04D
:101E50008093C301FF91EF91BF91AF919F918F91BB
:101E60003F912F910F900FBE0F901F9018951F92CA
:101E70000F920FB60F9211248F9381E080939D01F2
:101E80008F910F900FBE0F901F9018951F920F9279
:101E90000FB60F9211248F9381E080939C018F9154
:101EA0000F900FBE0F901F901895F89485B7877FFD
:101EB00085BF88ED90E00FB6F894A8958FBD90B7D8
:101EC000977F90BF0FBE89E08CB988E780BB83EA1B
:101ED0008093720081E08093710084E08EB988BDA8
:101EE0008CB780618CBFA89580E480BF5ADB789462
:101EF00081E00E94F10160E070E08EEE95E00E94CA
:101F0000B60510927B010E94F5030E940602811122
:101F10000BC082E00E94F101F89480E890E097D233
:101F2000853A89F17894A9C0C0E08C2F0E942402E0
:101F300083E190E007DD8C2F86950E94240283E1E7
:101F400090E000DD0E940602882399F0CF5FC03444
:101F500061F765E181E00E9413040E943104C6E943
:101F60008C2F0E94240284E090E0ECDCC150C1F789
:101F7000D0CFCC2371F28C2F0E9424028DE090E010
:101F8000E1DCC150F6CF0CE711E0C1E8D0E0CE01B2
:101F90005ED2F80181938F012196CC39D105B9F732
:101FA000789480917C018093760180917D0180936B
:101FB000150180917E018093120180917F018093B1
:101FC0000F0180918001809316018091810180939F
:101FD000130180918201809310018091830180938D
:101FE0001701809184018093140180918501809371
:101FF00011018091860180931B018091870180935C
:102000007701809188018093750180918901809387
:102010001A0180918A018093790180918B018093CC
:10202000780180918C0180930B0180918D018093C8
:10203000090180918E0180930A0180918F01809324
:1020400008018091900180930C018091910180930F
:102050001D01809192018093B5018091930180933D
:102060001E018091940180930E01809195018093CF
:102070000D018091960180936E018091790181110B
:1020800080931C0161E070E087E796E00E94B6054E
:1020900043E4342E52E0452E60E4562E77247394A8
:1020A00077E0672ECC24C394D12CFCEF8F2EF3E085
:1020B0009F2EA7E7AA2EA6E0BA2E0E94AC0180911F
:1020C000A0019091A101009751F060919E01709143
:1020D0009F010E94CE051092A1011092A001809153
:1020E0009A01882309F440C080E00E942402A89548
:1020F00030BE1F980E9406028111FCCF0E94E701AA
:102100008CB780618CBF1092C40110929D01109217
:102110009C0180919A018823F9F086B78F798064B9
:1021200086BF86B7806186BF889586B78F7E86BF5B
:1021300080919C01811110929A018091C4018823A1
:1021400029F070921F017092B90135DA80919D01DA
:102150008823F9F251DBDDCF40921F018CB78F7ECF
:102160008CBF1FDAA89550BEE4DB10927B01C091B2
:10217000B301D091B40180917301811105C00E9417
:102180006A03880F0E945702F4E0CD30DF0779F42C
:10219000C0E7D0E0FE018491805308DC8CE291E03E
:1021A000D1DB2196F0E0CC37DF07A1F7C6C02DE0E8
:1021B000CA32D20779F03EE0C13BD30709F0B2C082
:1021C00080916D01813009F0F3C080916C0188230A
:1021D00009F4EEC0C0910B01C23011F120F0C430FF
:1021E00009F483C06ACFEC2FF0E0E75FFE4FD081A7
:1021F00086E90E942402C11109C0DA3220F4C40128
:102200000197F1F707C081E090E003C08D2F86951C
:1022100090E098DB80E00E9424028D2F90E0C6C001
:102220000E940F028F73E82EF12C0E940F02662D80
:10223000DBD0E60102C0CC0FDD1F9A95E2F70E94C9
:102240000F0265E0D1D0F60102C0EE0FFF1F9A9594
:10225000E2F7CE0FDF1F0E940F0290E0BE01E4D034
:10226000C80FD91FC739D10514F0C6E9D0E08C2FAB
:102270000E942402C70166DB8E0133E015950795A5
:102280003A95E1F7011101C001E010E0C7015ADB06
:10229000C01BD10BD7FF02C0C0E0D0E08C2F0E9442
:1022A00024020E940F02837039F4C7014BDBCE0178
:1022B000959587950E942402C230D1053CF70E9473
:1022C0000F026DE091D0E60102C0CC0FDD1F9A95A0
:1022D000E2F70E940F0290E0BE0192D0C80FD91F12
:1022E00080E00E942402CE0161C0C0910801CC0FA1
:1022F000C73908F0C6E9D4E08C2F0E94240285E09B
:1023000090E020DB809108010E94240281E490E0AB
:1023100019DBD15089F780ED92E014DB80E00E9458
:102320002402CBCEF6E0CD33DF0781F48091B801F3
:1023300060DB80911B01882381F0B092A101A09203
:10234000A00110929F0110929E01B7CE26E0CD35DC
:10235000D20731F48091B6014CDB88EE93E026C0C1
:1023600036E0C431D307B9F480919B018111A5CE29
:1023700080911C010E94240284E690E0E3DA80E070
:102380000E94240280910C0190E068EE73E01BD063
:10239000845691090BC0CC5DD54051F480E03FDB01
:1023A00081E03DDB80E03BDB81E792E0CBDA85CE6C
:1023B00086B78F7986BF86B7806186BF889586B7D6
:1023C0008F7E86BF7ACE0024552704C0080E591F81
:1023D000880F991F009729F076956795B8F37105D6
:1023E000B9F7802D952F0895991B79E004C0991FA6
:1023F000961708F0961B881F7A95C9F7809508955F
:10240000AA1BBB1B51E107C0AA1FBB1FA617B7071A
:1024100010F0A61BB70B881F991F5A95A9F7809536
:102420009095BC01CD01089597FB072E16F40094FA
:1024300006D077FD08D0E4DF07FC05D03EF4909588
:1024400081959F4F0895709561957F4F0895E1990B
:10245000FECF1FBA8EBBE09A99278DB30895262F21
:10246000E199FECF1FBA8EBBE09A81500DB20216E1
:1024700039F01CBA2DBB0FB6F894E29AE19A0FBE60
:062480000895F894FFCF5F
:10248600060B1801010100047829430302371801DD
:10249600070578786E030A0A780301012E370702CA
:1024A600050403150112010F0102010000000000DE
:1024B60000000100000000000000000100002101F2
:0C24C60023022503270429052C06FF062D
:00000001FF
