:10000000D7C00000F2C000000C94BF0EEEC000008C
:10001000ECC000000C94B00EE8C00000E6C0000088
:10002000E4C00000E2C00000E0C00000DEC000004C
:10003000DCC00000DAC000000C94720ED6C00000D4
:10004000D4C00000D2C00000D0C00000CEC000006C
:10005000CCC00000CAC00000C8C00000C6C000007C
:10006000C4C00000C2C00000C0C00000BEC000008C
:100070003230323131323038303131340001050420
:100080001410111500000000000000000000000026
:100090000000000000000000000000000000000060
:1000A0000000000000000000000000000000000050
:1000B0000000000000000000000000000000000040
:1000C0000000000000000102030405060708090AF9
:1000D0000B0C0D0D0F10111213151617191A1B1CEE
:1000E0001E202122242627292A2C2E2F3133353772
:1000F000393B3D3F41434547494B4E505254575A77
:100100005C5E616366686C6E717477797D7F8286F0
:10011000888C8F9295999C9FA3A6010102020303EC
:10012000040405060708090A0C0D0E0F1113141616
:10013000181A1D1F2224272A2D3033373B3E4246F2
:100140004B4F54595D63686E73797F868C939AA187
:10015000A8B0B8C0C8D1D9E2ECF5FFFFFFFFFFFFA0
:10016000FFFFFFFFFFFFFFFFFFFFFFFFFFFFFFFF9F
:10017000FFFFFFFFFFFFFFFFFFFFFFFFFFFFFFFF8F
:10018000FFFFFFFFFFFFFFFFFFFFFFFFFFFFFFFF7F
:10019000FFFFFFFFFFFFFFFFFFFFFFFFFFFFFFFF6F
:1001A000FFFFFFFFFFFFFFFFFFFFFFFFFFFFFFFF5F
:1001B00011241FBECFEFD4E0DEBFCDBF11E0A0E021
:1001C000B1E0E0E6F3E202C005900D92AC34B10775
:1001D000D9F721E0ACE4B1E001C01D92A73FB2071E
:1001E000E1F70E94CE0E0C94AE110ACFF89498ED70
:1001F0009FBD83BF78940895482F9B01E4ECF1E004
:1002000080E090E05081552331F0019633968031A3
:100210009105C1F70AC063E070E00E945011FC0133
:10022000EC53FE4F40833283218308950F931F9335
:10023000CF93DF93D091C401DD2351F10091C5012B
:100240001091C601C091A101C150C7FD0DC0EC2F96
:10025000EE0FFF0BEE55FE4F0190F081E02DB8013F
:100260008D2F09958111F0CFE4ECF1E0838180833B
:100270008481958192838183339681E0E13FF80701
:10028000A9F71092F1011092F3011092F201D2CF6E
:10029000DF91CF911F910F910895BC018091F601DC
:1002A000ABCF1092F6011092F5011092F40181E0AB
:1002B00080937A0108950F931F93CF93C82F08EA74
:1002C00017E0CC2349F082E091DFC8010197F1F7F4
:1002D00080E08CDFC150F5CFCF911F910F91089531
:1002E0008FB182FB882780F991E0892780939A015A
:1002F0000895E0910601F09107013196FB70F460DA
:10030000F0930701E0930601809196018B5A809348
:100310009601E491809196018E0F08950F931F939B
:10032000CF93DF9300D01F92CDB7DEB7209120018D
:10033000309121014091220129833A834B83FE01B0
:10034000319640E050E090E061E070E0B1919A01B8
:10035000220F331F8C0102C0159507952A95E2F7ED
:100360009801237061F02130D1F4A0B39B0101C04A
:10037000220FBA95EAF7322F30953A2318C0A0B36E
:100380009B0101C0220FBA95EAF720953A2F32233C
:1003900030BB32B3322332BB31B323230EC0A0B300
:1003A0009B0101C0220FBA95EAF73A2F322B30BBDE
:1003B00032B3322B32BB31B3232B21BB4F5F5F4FA4
:1003C0004330510519F60F900F900F90DF91CF91A8
:1003D0001F910F910895CF93DF9300D000D000D0EC
:1003E000CDB7DEB7909175012091B2013091B30184
:1003F0002658394009F492E0843019F4609376016C
:1004000021C06623F9F0823019F427E9261B622FF8
:1004100026E0E3E2F1E0DE01119601900D922A95CB
:10042000E1F7E82FF0E03197EE0FFF1F21E030E019
:100430002C0F3D1FE20FF31F0190F081E02DE90F1B
:10044000F11D608326960FB6F894DEBF0FBECDBFB8
:10045000DF91CF910895BF92CF92DF92EF92FF92FA
:100460000F931F93CF93DF93EC0140917501E091BF
:100470001B01EE2311F082E001C0842F90E0DC012B
:10048000AB5EBE4F2C9120931901DC01AE5EBE4FD6
:100490008C9180931801F0E0E15FFE4F3181622F73
:1004A00070E0442349F0313039F49B01280F311DAD
:1004B000C9019595879538C0C617D707A4F1682F4D
:1004C00070E06C177D0784F1411102C08C2F2CC0A5
:1004D000821B032F10E001501109E82EF12CC701F7
:1004E000B8010E948111609373016695E62FF0E0D8
:1004F000822FC12CD12CB12CB316B1F0C601B8019A
:100500000E946D11822F860FCE0CDF1CAE01481B9E
:10051000510957FF03C0519541955109E417F5075B
:100520001CF4B394E9CF822FDF91CF911F910F91EB
:10053000FF90EF90DF90CF90BF90089581E00895F5
:10054000611160931E010895662389F0813061F482
:100550008091B5019091B401891B681B6093B4012F
:1005600082E080931F0103C0635E60931D01809150
:100570001D01873418F086E480931D01089560936F
:100580006E0108950F931F93CF93DF9380917501B0
:1005900080937B018091150180937C0180911201F1
:1005A00080937D0180910F0180937E0180911601DF
:1005B00080937F01809113018093800180911001CD
:1005C00080938101809117018093820180911401B1
:1005D00080938301809111018093840180911B019C
:1005E00080938501809176018093860180917401CA
:1005F0008093870180911A0180938801809178010E
:10060000809389018091770180938A0180910B0109
:1006100080938B018091090180938C0180910A0164
:1006200080938D018091080180938E0180910C014F
:1006300080938F0180911D01809390018091B4017E
:100640008093910180911E018093920180910E010F
:100650008093930180910D018093940180916E01AC
:1006600080939501F8940BE711E0C1E8D0E0F80120
:1006700061918F01CE010E949C112196CC39D10548
:10068000B1F765EA80E890E00E949C117894DF91D0
:10069000CF911F910F910895882321F0813031F47B
:1006A000819805C08198919889980895819A919A26
:1006B000899A0895CF93C82F8093980180939701CA
:1006C0008091990181110BC029DE91E0C11101C017
:1006D00090E081E0C23408F480E0890FDDDFC111D1
:1006E00009C010926D0010926C0010926B00109275
:1006F0006A0017C08FEF8C0F90E0FC01E65EFE4FA2
:10070000E491F0E0F0936D00E0936C00FC01EC5795
:10071000FF4FE491F0E0F0936B00E0936A00C63085
:1007200010F482E005C0CE3010F481E001C080E01A
:10073000CF915CCD80937901BDCFCF93C0919801CB
:1007400089E18C0F873908F080E0B4DF82E0B3DD07
:100750008C2FCF91AFCFCF93C091980180E0AADFCB
:1007600083E0A9DD8C2FCF91A5CF0F931F93CF935B
:10077000E82F8091B7019FEF980F9C3120F480E023
:10078000CDDD80E07BC0CE2FC295CF70EF70909111
:100790009901911103C0C33008F0C2E0E73008F4BA
:1007A00041C0E730A9F40091510110E00F5F1F4FE5
:1007B000A0DD65E00E9461119801290F311DC9017A
:1007C00066E070E00E94811180935101FC0135C008
:1007D000E830B1F480919901882311F08FE001C0D5
:1007E00083E0682351F48091510190E0019666E026
:1007F00070E00E94811180935101E091510112C07B
:1008000090919901992381F08D31D8F090E0E92FF2
:10081000F0E0E45CFE4F2081821710F09E5FF7CF7E
:100820003197E081F0E009C0862F869563E00E9451
:100830006111E92FF0E0EE0FFF1FE358FF4FE49145
:1008400001C0E0E0C33071F48091500190E0019666
:1008500063E170E00E946D1180935001DC01A75D9F
:10086000BE4FCC91CC2329F0C13029F0EE0FC2E06D
:1008700002C0C0E0E0E08E2F51DD8C2FCF911F91A0
:100880000F910ACF813019F41092780108958230C7
:1008900019F4609377010895833019F4609374011B
:1008A0000895843011F460931A010895CF93C09194
:1008B0001B01C1114AC0883039F4109272011092A4
:1008C000700110926F0142C0813B59F48091720116
:1008D00081508330D0F583E0809372018093710161
:1008E00034C0853BB1F4CB016EE370E00E946D1122
:1008F000892B61F5809172018A3F40F58B5F80936F
:100900007201809371011092700110926F0115DFD6
:100910001DC08130D1F480916F01909170010196DA
:1009200088382EE0920728F49093700180936F012D
:100930000DC01092700110926F0180917201882396
:1009400029F081508093720101C0C1E08C2FCF91BA
:100950000895FF920F931F93CF93DF938C01EB01C8
:10096000F42E8091B2019091B301892B31F0E09186
:10097000B201F091B30189E009951093B30100939E
:10098000B201012B39F0E091B201F091B301BE0147
:100990008F2D099581E080937A01DF91CF911F918E
:1009A0000F91FF900895CF93DF93E091A101EE2383
:1009B00059F0E150E093A101F0E0EE0FFF1FEE557A
:1009C000FE4FC081D18102C0C0E0D0E0E091A10122
:1009D000EE2341F0F0E0EE0FFF1FE056FE4F808166
:1009E000918102C080E090E04AE060E070E0B1DF19
:1009F000CE01DF91CF910895883029F410926B01D8
:100A00001092520115C08130F9F490915201911168
:100A100007C06032710568F18093520142DC29C041
:100A2000913081F46B3B710528F082E08093520194
:100A300080E01EC061157105E1F06270862F880F9D
:100A40008E5E16C0B0DF15C0813811F0813E89F48A
:100A500091E090935201813E21F480916B01865F79
:100A600003C080916B018F5F80936B011ADC8BE474
:100A700021DE80E008959C019091A101983088F4D6
:100A8000E92FF0E0EE0FFF1FEE55FE4F318320837C
:100A90009F5F9093A10148E0C9015BDF8091A101B4
:100AA00008958FEF08950F931F93CF93DF93EC0179
:100AB0008B0179DFB801CE01DF91CF911F910F91AA
:100AC000DACF813C29F460E070E08CEF95E006C05D
:100AD000823C39F460E070E082EC95E0E4DF80E095
:100AE000089581E00895843011F58091B2019091CC
:100AF000B3012CE0833A920729F469E170E08BEFAF
:100B000096E013C08B5F964061F49091980192300B
:100B100040F0892F869596959695890F0BDE80E09B
:100B2000089560E070E08CEF95E0BDDFF8CF81E0E4
:100B30000895813C29F460E070E08CEF95E006C0F8
:100B4000823C31F460E070E081E695E0ACDF16C0F5
:100B5000813B49F4CB016EE370E00E946D11892B5B
:100B600069F4EBDD0BC0813E59F4CB016EE370E01C
:100B70000E946D116F5F60930C0104DD80E00895A9
:100B800081E00895CF93C0911B01C11117C0813C32
:100B900029F460E070E08CEF95E006C0823C31F40F
:100BA00060E070E082EE95E07EDF09C0873B31F4C3
:100BB00060E070E08EE899E05EDF01C0C1E08C2F5C
:100BC000CF910895813C29F460E070E08CEF95E0CE
:100BD00006C0823C31F460E070E089E995E063DFB3
:100BE00007C0873B39F460E070E082E999E043DFB9
:100BF00080E0089581E008950F931F93CF938B01B8
:100C0000883079F480E056DD60E080910E01ADDD42
:100C100010927201012B19F481E080939901C0E0D8
:100C2000E5C0813049F469317105C8F380939901B9
:100C300080910E019ADDF3CF833009F52091780180
:100C4000222361F08091770190E062EC71E00E94D4
:100C500050110817190710F020931C01602F809184
:100C60000E0183DD80916E018823C9F290E062EC71
:100C700071E00E9450118017910788F64DC0813BAA
:100C800099F481E090E0E7DB15DD8091740181113A
:100C9000C6CF80917501811104C00831110508F497
:100CA000BECF61E070E028C0813ED9F3813821F4E5
:100CB00080911C0190E013C0813C21F46091980167
:100CC00070E01AC0823B79F480911A0190911B0167
:100CD000911180917601811104C086E990E0BBDB1F
:100CE00005C086E903C0823E19F480E0E3DC97CFBB
:100CF000823C31F466E970E08BEF96E0D4DE8FCF72
:100D0000833999F3833C29F460E070E082EC95E04C
:100D1000F5CF843C31F411DD60E070E08AE999E0C0
:100D2000EDCF8F3C29F460E070E08EE992E0E6CFF1
:100D3000C0911B018A3B79F4672B69F4CC2329F01D
:100D4000FCDC10921B011EDC6ACF60E070E086E8DC
:100D500099E091DE4BC0C11148C08A3C29F4EDDC1A
:100D600081E080931B013FC0833B29F460E070E089
:100D700083EA9CE007C0853C39F4DFDC60E070E08A
:100D80008AE29EE090DE32C0873C91F490910E01A1
:100D9000892F82958F708F5F83708295807F9F707F
:100DA000892B80930E0160E0E0DCECDBC6DC1EC02A
:100DB000873BB9F4C8018F739927892B69F4909107
:100DC0000E01892F8F708F5F292F207F6BE00E948B
:100DD0006111922B90930E01602F80910E01C5DC62
:100DE00005C0873E11F4CEDB01C0C1E08C2FCF914E
:100DF0001F910F910895AF92BF92CF92DF92EF9221
:100E0000FF920F931F93CF93DF93182FEB01D09096
:100E10001901F0901801B0907501BB2019F0C09035
:100E2000730102C0CC24C39480911A0100911B016C
:100E3000011180917601882349F0813021F0809161
:100E40001C018F1518F0F6E9EF2E01C0EF2CA090D1
:100E50007201BE01812F2ADD60917201662339F093
:100E6000A1100CC0809198018093560107C0AA2060
:100E700029F060E070E08CEF95E039C0812F8D7F24
:100E80008830D9F410926D011A3019F4C0911C0108
:100E9000D0E08D2D90E08C179D0738F48F2D90E0D9
:100EA000C817D90710F4C0931C01CE01D4DA42DC74
:100EB00081E08093050100E0D6C1113CD1F2123CE3
:100EC00071F4809198018E1510F48E2D02C08091DE
:100ED0001C0130DC8091980180935601ECCF143CCA
:100EE00041F480E0E7DB60E070E08AE999E0DBDD77
:100EF000E2CF8FE4810F823008F056C0BB2041F072
:100F0000CE0168E170E00E946D11892B31F0D3CFE2
:100F100060910F0170E0CE01F6CF209198012097EB
:100F200061F4123B11F48FEF05C02F15E0F7D216D4
:100F300008F181E0809305011DC0E0910F01F0E010
:100F4000CF0166E371E00E9450118C179D0710F4E9
:100F50002F1548F7CF016CE672E00E9450118C17F4
:100F60009D0740F4D21630F0E8DB60E070E08AE9DB
:100F700099E099DDD0919801809105016C2D70E088
:100F8000082E000C990B0E9450118D0F911D63DAF1
:100F9000C82F80931C01D81729F0813411F0F81262
:100FA00001C0D9DB8C2F95CF8FE1810F823020F4E7
:100FB0008091050181957DCF113009F0CCC0A997B2
:100FC00011F4109305016623A1F08091560170E0A1
:100FD0006150710990E00E9450116091710170E0C0
:100FE0000E948111611101C061E0609397016093DB
:100FF0007901C0919701309198018C2F90E0831B6B
:10100000910960915401709155016F5F7F4F70930A
:10101000550160935401009709F44DCF97FF05C027
:101020003A3630F040E450E005C040E052E002C003
:1010300040E051E05695479597FD01969595879527
:101040000097C1F74617570708F035CFC31710F4BC
:101050008FEF03C03C1718F481E0830F01C08C2F81
:101060009FEF980FA92FB0E0AD01465E5E4FFA01E9
:101070006491931778F420916C0030916D00232BCC
:1010800049F46F3F39F42FEF30E030936D00209337
:101090006C0020C020916C0030916D0070E026172C
:1010A000370738F460916C0070916D006F5F7F4F6F
:1010B0000DC020916C0030916D006217730750F4E1
:1010C00060916C0070916D006150710970936D00BA
:1010D00060936C009D012C573F4FF9016491E091A2
:1010E0006A00F0916B0070E0E617F70738F4609142
:1010F0006A0070916B006F5F7F4F0DC0E0916A00D6
:10110000F0916B006E177F0750F460916A00709148
:101110006B006150710970936B0060936A0060917D
:101120006C0070916D00FA01449150E064177507EE
:1011300069F440916A0050916B00F901249130E00C
:101140004217530719F4B6DAC0939701109255016C
:1011500010925401B0CE1530A9F4809198018234D8
:1011600008F4A9CE90E08C1B9D0B282F81349105AB
:101170002CF08739910518F026E901C021E420936D
:10118000970199CE1630B9F4909198018091790128
:10119000981708F090CEC90FD11D90E08C179D07CD
:1011A00034F0C134D10524F4C1E4D0E001C0EC0135
:1011B000C093970180CE173079F490919701809178
:1011C0009801891710F48F5F04C0981708F073CE48
:1011D0008150809397016FCE011144C0133C99F464
:1011E00081E0B11080E080937501CCD9B4DA8091B0
:1011F000980190E030D980931C019CDA809198018D
:101200008093560130C0133B29F4CD2B09F053CE07
:101210008E2D04C0133E21F480911C018BDA23C073
:10122000153C41F480E046DA60E070E08AE29EE03E
:101230003ADC19C0173B29F460E070E082E899E0DD
:101240000FC01A3C39F480919801809378019AD9A3
:1012500074DA09C01A3B31F460E070E08AE899E082
:101260000ADC01C001E0802FDF91CF911F910F9127
:10127000FF90EF90DF90CF90BF90AF9008958830AF
:1012800061F41092530180E015DA80919A01811186
:1012900037C081E08093530123C0982F907F903B0B
:1012A000B9F420915301421780F0CB016DE570E055
:1012B0000E946D11029739F42F5F2093530142175A
:1012C000F8F088E303C082E101C080E0F3D918C0E0
:1012D000903E61F480915301882389F0481778F09B
:1012E00060E070E08CEF94E0C6DB0AC08A3041F425
:1012F00060916B0180915301F901099543D953DB4A
:1013000080E008952BEE31E043E0B9CF2BEE31E0E1
:1013100044E0B5CF22E434E044E0B1CF20EA32E04B
:1013200041E0ADCF24EA32E042E0A9CF2FEB32E03A
:1013300041E0A5CF0F931F93CF93DF93D82F8B015D
:10134000873B19F480E0B6D954C080798039B1F474
:1013500020911501909116018D2F8F70823041F4EC
:1013600080917801811108C0822F291728F403C0C9
:10137000822F921708F4892F9DD90BC0803811F461
:1013800080E098D9D83029F460E080910D01EDD942
:1013900030C0D13039F40931110508F466C0D0935A
:1013A000990102C0D33029F4602F80910D01DDD95D
:1013B0005CC0D43C71F4C0917801CC2319F06C2F3F
:1013C00070E013C060911C0170E08BEF96E06BDB66
:1013D0004FC0D43B31F4B1D91092F60161E070E016
:1013E00004C0D53C31F466E970E08BEF96E05BDB3E
:1013F0003CC0C0911B01C1113AC0DA3B31F460E03E
:1014000070E086E999E037DB33C0D73C91F49091E6
:101410000D01892F82958F708F5F83708295807FF9
:101420009F70892B80930D0160E09FD9ABD885D93F
:101430001FC0D73BB1F4C8018F739927892B61F482
:1014400090910D01892F8F708F5F292F207F6BE086
:1014500038D7922B90930D01602F80910D0185D983
:1014600007C0D73E21F48ED803C0C0E001C0C1E060
:101470008C2FDF91CF911F910F9108958DE084B94A
:101480001092C1011092C20183B1886483B908959A
:10149000F5DF139A87EE83B908951092C30120B146
:1014A00091B1309196012295269526952370892F2A
:1014B00090E0880F991F880F991F820F911D830F4D
:1014C000809396018091B801882309F40DC1109290
:1014D000B8018091C10190919901992319F01F9849
:1014E0001092C101811144C080911F01882349F0ED
:1014F0006091BD017091BE017093BA016093B90112
:1015000004C06091B9017091BA01605F7F4FE6E05D
:1015100076956795EA95E1F780E098E5DED68091CB
:101520001E0190E00397680F791F76956795609389
:10153000B70180916A01882311F0815008C06D3194
:1015400040F460E070E084E00E94FC0085E080935D
:101550006A01809199018111BEC08EE884B981E051
:101560008093C1011092C20183B1886483B9B3C072
:10157000813009F0B0C080911F01811143C080917A
:10158000BB019091BC01409645E0969587954A95A0
:10159000E1F76091B401AC0156954795062E000C19
:1015A000770B9B012E503140240F351F3093B6012D
:1015B0002093B50120915901E22FF0E0EE0FFF1FBB
:1015C000E65AFE4F40815181DC01A41BB50BAD01F1
:1015D000918380832F5F2770209359019D01220FF3
:1015E000331F220F331F820F931F20911D0130E004
:1015F000261B370B225F3E4F220F331F821B930B9C
:1016000023E01CC08091BF019091C0019093BC0168
:101610008093BB01409635E0969587953A95E1F722
:10162000EAE5F1E081939193B1E0EA36FB07D1F767
:10163000A6CF009709F00196215029F01816190637
:10164000C4F70197F9CF18161906E4F457FD39C00D
:101650002091580112160CF1880F991FBC0163509C
:10166000710977FF02C06F5F7F4F759567951616FA
:10167000170614F061E070E088E1861B8093580142
:1016800085E026C08C3F2FEF9207DCF457FF19C08E
:101690002091580127FF05C02450281B2093580192
:1016A00019C024EE281B209358012091B7012F3137
:1016B00088F06CEF7FEF681B790B7595679586E076
:1016C00007C08091B7018E3128F060E070E087E0BC
:1016D0000E94FC00D3DE80911F01882329F08091B5
:1016E0001F01815080931F0108950F931F93CF9383
:1016F00010929C018091F4019091F5019C012F5F63
:101700003F4F88279078822B932B9093F5018093FD
:10171000F401C0919A010E947001C81731F1109232
:10172000990180939A019091F601882359F0892FAD
:1017300080699F709F3009F08F5F8093F60180E091
:1017400090E00DC0892F8F7E95FD02C0806801C09A
:10175000806C8093F6018091F4019091F5010E94D4
:101760004D011092F5011092F4010091F4011091D5
:10177000F50180919901882379F0B80183E00E94F6
:10178000FC000E9416010F731127012B09F046C0BF
:10179000109257017DDE32C0C091F6018C2F807F00
:1017A000803B19F460E070E001C0B80181E00E9464
:1017B000FC00C4FF13C0C5FF02C0C8010CC0083143
:1017C0001105E0F01092F5011092F401C062C0938F
:1017D000F60180E090E00E944D0110C0CC2371F032
:1017E000C5FD0AC00231110548F0C064C093F6017E
:1017F00080E090E00E944D010E94510180915701CC
:10180000811106C083B1886483B981E08093B801F7
:10181000809157018F5F8F7180935701CF911F91F6
:101820000F9108958091C301811137DE80919C0151
:1018300081115BCF0895EF92FF920F931F93CF9387
:10184000DF93EC0108E017E082ECE82EFF24F3942C
:101850002097D9F080917A01811119C08091980167
:10186000863028F482E00E94F600C70104C080E0C0
:101870000E94F600C8010197F1F780E00E94F6008F
:10188000D1DF0E9416012197E3CF81E001C080E003
:10189000DF91CF911F910F91FF90EF900895CF931B
:1018A000C82F882391F089E10E945A0386EA90E0CC
:1018B000C2DF80E00E945A038AEF90E0BCDFC15093
:1018C00091F78AE992E0CF91B6CF89E10E945A035D
:1018D00088E090E0B0DF80E00E945A038AEF90E059
:1018E000AADFEFCFCF93DF9364E6EBD4282F892FC5
:1018F0006AE0E7D4EC01222341F0822FD0DF8C2F65
:10190000CEDF8D2FDF91CF91CACFC111F8CFF9CFA4
:10191000CF93DF93D82FC3E080911C010E945A031C
:101920008DE790E088DFDD2319F08AEF90E083DF18
:1019300080E00E945A038DE790E07DDFC15061F79F
:10194000DF91CF910895DF92EF92FF920F931F9353
:10195000CF93DF93D82F8B01C0910B0181E080934F
:101960006D01C33009F0DFC0F09072018D2F0E942D
:101970005604FF2051F080917201811106C060E091
:1019800070E08CEF95E08FD8CEC0D83021F481E0A4
:1019900080930301CAC0D23C19F410927201D4C0E2
:1019A000D13BC1F490910201012B49F49E3610F015
:1019B0008FEF03C0923018F481E08093030180918F
:1019C0000301890F11F481E03AC18F3608F437C161
:1019D0008EE635C1D13E31F480910301819580932B
:1019E0000301E9C0D23B61F481E08093030180915F
:1019F0000201823008F4E7C0815080930201E3C005
:101A0000D13009F0F1C00932110511F4D09303016E
:101A1000D0904F018D2D880FD7FC809590E067E026
:101A200070E03ED4292FE0904E018E2D880FE7FC08
:101A30008095D09101016D2F70E090E031D4290F95
:101A4000F0904D018F2D880FF7FC8095C09100011B
:101A50006C2F70E090E024D4920F6091020170E04E
:101A6000690F711D80917201813091F480916F0135
:101A70009091700125E0969587952A95E1F724E7E6
:101A800030E0A901481B590BCA010AD4B90125D479
:101A9000862F0E945A0300FD06C00E9479018170C2
:101AA000D80ED0924F0180914C01E80EE0924E0189
:101AB0000E94790165E205D4F90EF0924D010E9471
:101AC00079018F7331F40E9479016DE0FAD390931C
:101AD0004C01DD2339F00E9479018F7319F4D15044
:101AE000D09301010E947901811108C00E947901FF
:101AF0006BE0E7D39093010110924E01C33038F0B0
:101B00000E9479018F7119F4C150C09300010E94A5
:101B100079018F7709F07EC00E94790166E0D1D308
:101B20009093000177C0D83021F481E080930401C4
:101B300088C0D13C39F460E070E08CEF95E00E9401
:101B400053057FC0D23C49F48C2F90E0019665E0AC
:101B500070E0D7D380930B014CC0D13B51F5C2301C
:101B600090F400FD6EC0EC2FF0E0E75FFE4F808147
:101B700090910401891B883020F08F3F99F58EEFFA
:101B800031C088E02FC0C43009F05BC090910801DB
:101B900080910401890F823010F482E003C08937FC
:101BA00008F088E780930801809108010E945A0399
:101BB00048C0D13E31F480910401819580930401A5
:101BC00018C0D23BA1F481E080930401C23070F5CB
:101BD00000FD37C0EC2FF0E0E75FFE4F80818F3FC4
:101BE00081F18F5F80832DC0D13C09F4A4CFD23E18
:101BF00019F40E94C20225C0D53C41F460E070E0B7
:101C00008AE29EE00E94530580E0D0CFD13011F0EF
:101C100081E018C00932110519F481E080930401B4
:101C200080919601080F009396010BC0C43049F4CF
:101C300080910801833008F4B7CF8150B3CF8093EF
:101C4000020180E0DF91CF911F910F91FF90EF9003
:101C5000DF9008950F931F93CF93DF93D82F8B01BD
:101C6000883031F480916D01813011F488E06BDEB1
:101C70008D2F8079803961F481E080936C01C0916F
:101C80006D01C1110CC080911C010E945A0324C037
:101C9000803839F410926C0180E00E945A03C0E051
:101CA0001BC0D130C1F4C0916C01CC2351F08091A4
:101CB0006D018130A1F7B801DF91CF911F910F9194
:101CC00042CE0733114058F3D093990160E080E091
:101CD0000E94B50301C0C1E08C2FDF91CF911F910D
:101CE0000F9108951F920F920FB60F9211242F9308
:101CF0003F938F939F93AF93BF93EF93FF93809105
:101D0000C2018823E9F0E091C10120B131B1F0E0D6
:101D1000EE0FFF1FDF01A354BE4F2D933C93E754FA
:101D2000FE4F808191818217930708F4019628174E
:101D3000390708F401979183808381E08093C30180
:101D400081E08093C201FF91EF91BF91AF919F918C
:101D50008F913F912F910F900FBE0F901F9018956C
:101D60001F920F920FB60F9211248F9381E08093F0
:101D70009C018F910F900FBE0F901F9018951F928E
:101D80000F920FB60F9211248F9381E080939B01E5
:101D90008F910F900FBE0F901F901895F89485B7F4
:101DA000877F85BF88ED90E00FB6F894A8958FBD2A
:101DB00090B7977F90BF0FBE88E08CB98AE780BB51
:101DC00081EA8093720081E08093710084E082BB9D
:101DD00087BD8CB788608CBFA89580E480BF58DB36
:101DE000789481E00E945B0160E070E083E795E019
:101DF0000E943B0510927A010E949D030E9470018F
:101E0000811108C0F89480E890E08ED2853A89F17B
:101E10007894A9C0C0E08C2F0E945A0383E190E01F
:101E20000ADD8C2F86950E945A0383E190E003DD42
:101E30000E947001882399F0CF5FC03461F765E19B
:101E400081E00E94A4020E94C202C6E98C2F0E9477
:101E50005A0384E090E0EFDCC150C1F7D3CFCC232C
:101E600089F28C2F0E945A038DE090E0E4DCC1508F
:101E7000F6CF0BE711E0C1E8D0E0CE0155D2F80172
:101E800081938F012196CC39D105B9F7789480914F
:101E90007B018093750180917C0180931501809175
:101EA0007D018093120180917E0180930F018091CA
:101EB0007F018093160180918001809313018091AE
:101EC000810180931001809182018093170180919C
:101ED000830180931401809184018093110180918A
:101EE000850180931B01809186018093760180910A
:101EF0008701809374018091880180931A018091F9
:101F000089018093780180918A0180937701809183
:101F10008B0180930B0180918C018093090180914A
:101F20008D0180930A0180918E0180930801809138
:101F30008F0180930C018091900180931D0180910D
:101F400091018093B4018091920180931E01809150
:101F5000930180930E018091940180930D018091F3
:101F6000950180936E0180917801811180931C010D
:101F700061E070E08CEF95E00E943B0543E4342E75
:101F800052E0452E60E4562E7724739477E0672E56
:101F9000CC24C394D12CFCEF8F2EF3E09F2EACEF1A
:101FA000AA2EA5E0BA2E0E94160180919F01909161
:101FB000A001009751F060919D0170919E010E94D7
:101FC00053051092A00110929F01809199018823DE
:101FD00009F440C080E00E945A03A89530BE1F98C3
:101FE0000E9470018111FCCF0E9451018CB7886062
:101FF0008CBF1092C30110929C0110929B018091A2
:1020000099018823F9F086B78F79806486BF86B7F7
:10201000806186BF889586B78F7E86BF80919B0141
:102020008111109299018091C301882329F0709247
:102030001F017092B80131DA80919C018823F9F276
:1020400054DBDDCF40921F018CB7877F8CBF20DA35
:10205000A89550BEE7DB10927A018091B201909171
:10206000B301F2E08E399F0779F4C0E7D0E0FE01BA
:102070008491805314DC8CE291E0DDDB2196F0E06A
:10208000CC37DF07A1F7C6C02CE0833A920779F07E
:102090003EE08A32930709F0B2C080916D01813031
:1020A00009F0F3C080916C01882309F4EEC0C0915F
:1020B0000B01C23011F120F0C43009F483C073CF9A
:1020C000EC2FF0E0E75FFE4FD08186E90E945A03D3
:1020D000C11109C0DA3220F4C4010197F1F707C039
:1020E00081E090E003C08D2F869590E0A4DB80E036
:1020F0000E945A038D2F90E0C6C00E9479018F7311
:10210000E82EF12C0E947901662DDBD0E60102C099
:10211000CC0FDD1F9A95E2F70E94790165E0D1D0DE
:10212000F60102C0EE0FFF1F9A95E2F7CE0FDF1FF8
:102130000E94790190E0BE01E4D0C80FD91FC739D1
:10214000D10514F0C6E9D0E08C2F0E945A03C701D4
:1021500072DB8E0133E0159507953A95E1F7011191
:1021600001C001E010E0C70166DBC01BD10BD7FF47
:1021700002C0C0E0D0E08C2F0E945A030E94790177
:10218000837039F4C70157DBCE01959587950E947E
:102190005A03C230D1053CF70E9479016DE091D01D
:1021A000E60102C0CC0FDD1F9A95E2F70E9479018B
:1021B00090E0BE0192D0C80FD91F80E00E945A0360
:1021C000CE0161C0C0910801CC0FC73908F0C6E943
:1021D000D4E08C2F0E945A0385E090E02CDB8091A4
:1021E00008010E945A0381E490E025DBD15089F771
:1021F00080ED92E020DB80E00E945A03D4CEF5E02F
:10220000823C9F0781F48091B7016CDB80911B01B8
:10221000882381F0B092A001A0929F0110929E01AC
:1022200010929D01C0CE25E0823E920731F480914C
:10223000B50158DB88EE93E026C035E08939930775
:10224000B9F480919A018111AECE80911C010E9457
:102250005A0384E690E0EFDA80E00E945A0380910E
:102260000C0190E068EE73E01BD0845691090BC01E
:102270008156954051F480E04BDB81E049DB80E002
:1022800047DB81E792E0D7DA8ECE86B78F7986BFBB
:1022900086B7806186BF889586B78F7E86BF83CEDE
:1022A0000024552704C0080E591F880F991F009756
:1022B00029F076956795B8F37105B9F7802D952FBC
:1022C0000895991B79E004C0991F961708F0961B92
:1022D000881F7A95C9F780950895AA1BBB1B51E109
:1022E00007C0AA1FBB1FA617B70710F0A61BB70B86
:1022F000881F991F5A95A9F780959095BC01CD012B
:10230000089597FB072E16F4009406D077FD08D0A9
:10231000E4DF07FC05D03EF4909581959F4F08952A
:10232000709561957F4F0895E199FECF1FBA8EBBDE
:10233000E09A99278DB30895262FE199FECF1FBA11
:102340008EBBE09A81500DB2021639F01CBA2DBB3B
:102350000FB6F894E29AE19A0FBE0895F894FFCF71
:10236000060B18010101000441294303023718013B
:10237000070578785F010A0A78010101412D0702FB
:10238000050403150112010F010201000000000005
:102390000000010000000000000000010000210119
:0C23A00023022503270429052C06FF0654
:00000001FF
