:10000000ABC0C5C000CDC3C0C2C0C1C0C0C0BFC0AE
:10001000ADCCBDC0BCC0BBC0E7CCB9C0B8C03230ED
:1000200032313132303830313331000000000000DD
:1000300000000000000000000000000000000000C0
:1000400000000000000000000000000000000000B0
:1000500000000000000000000000000000000000A0
:100060000000000000000000000000000000000090
:10007000000000000000000000000000000001037C
:10008000040507080A0B0D0E1012131517191B1D76
:100090001F222426292B2E303336393C3F42454837
:1000A0004C4F53575B5F63676B7074797E83888DA9
:1000B00092989EA3A9AFB6BCC3CAD1D8DFE7EFF729
:1000C000FF010102020303040405050606070808F0
:1000D000090A0A0B0C0D0E0F101112131516171921
:1000E0001A1B1D1F20222426282A2C2E3133363895
:1000F0003B3E4144474A4E5155595D61656A6E73B6
:10010000787D82888D9399A0A6ADB4BBC3CAD2DB9B
:10011000E3ECF5FFFFFFFFFFFFFFFFFFFFFFFFFF28
:10012000FFFFFFFFFFFFFFFFFFFFFFFFFFFFFFFFDF
:10013000FFFFFFFFFFFFFFFFFFFFFFFFFFFFFFFFCF
:10014000FFFFFFFFFFFFFFFFFFFFFFFFFFFFFFFFBF
:10015000FFFFFFFFFFFF000011241FBECFE5D2E02D
:10016000DEBFCDBF10E0A0E6B0E0E8EAFFE102C0EC
:1001700005900D92A639B107D9F721E0A6E9B0E0C4
:1001800001C01D92AE33B207E1F74CDC0BCF38CF84
:10019000482F9B01EBE0F1E080E090E05081552397
:1001A00031F00196339680319105C1F709C063E0C3
:1001B00070E09ADEFC01E55FFE4F408332832183CD
:1001C00008950F931F93CF93DF93D0910B01DD23FD
:1001D00051F100910C0110910D01C091E800C15046
:1001E000C7FD0DC0EC2FEE0FFF0BE751FF4F019045
:1001F000F081E02DB8018D2F09958111F0CFEBE052
:10020000F1E0838180838481958192838183339619
:1002100081E0E833F807A9F71092380110923A010B
:1002200010923901D2CFDF91CF911F910F91089594
:10023000BC0180913D01ACCF10923D0110923C0178
:1002400010923B0181E08093C200089590E822E083
:1002500048EA57E030E0815070F00FB6F89496BD50
:1002600026BD0FBEFA013197F1F70FB6F89496BD8F
:1002700036BD0FBEF0CF089586B383FB882780F983
:1002800091E089278093E1000895E0916600F09164
:1002900067003196FB70F460F0936700E0936600AE
:1002A0008091DD008B5A8093DD00E4918091DD0028
:1002B0008E0F0895CF93DF9300D000D000D0CDB73C
:1002C000DEB79091BD002091F9003091FA002A5FCD
:1002D000374009F492E0843019F46093BE0021C0E5
:1002E0006623F9F0823019F427E9261B622F26E0F5
:1002F000EFE7F0E0DE01119601900D922A95E1F70B
:10030000E82FF0E03197EE0FFF1F21E030E02C0FD7
:100310003D1FE20FF31F0190F081E02DE90FF11D69
:10032000608326960FB6F894DEBF0FBECDBFDF9177
:10033000CF910895BF92CF92DF92EF92FF920F93E9
:100340001F93CF93DF93EC014091BD00E0917A00C1
:10035000EE2311F082E001C0842F90E0DC01AC5864
:10036000BF4F2C9120937800DC01AF58BF4F8C9188
:1003700080937700F0E0E259FF4F3181622F70E007
:10038000442349F0313039F49B01280F311DC90154
:100390009595879536C0C617D70794F1682F70E0FA
:1003A0006C177D0774F1411102C08C2F2AC0821B8B
:1003B000032F10E001501109E82EF12CC701B801FC
:1003C000C4DD6093BB006695E62FF0E0822FC12C60
:1003D000D12CB12CB316A9F0C601B801A2DD822F31
:1003E000860FCE0CDF1CAE01481B510957FF03C01E
:1003F000519541955109E417F5071CF4B394EACFE0
:10040000822FDF91CF911F910F91FF90EF90DF909E
:10041000CF90BF90089581E00895611160937D00B1
:100420000895662389F0813061F48091FC009091F9
:10043000FB00891B681B6093FB0082E080937E00B9
:1004400003C0635E60937C0080917C00873418F069
:1004500086E480937C0008956093B60008950F931E
:100460001F93CF93DF938091BD008093C300809151
:1004700074008093C400809171008093C5008091C6
:100480006E008093C600809175008093C7008091B4
:1004900072008093C80080916F008093C9008091A2
:1004A00076008093CA00809173008093CB00809186
:1004B00070008093CC0080917A008093CD00809171
:1004C000BE008093CE008091BC008093CF008091CD
:1004D00079008093D0008091C0008093D1008091FA
:1004E000BF008093D20080916B008093D3008091F5
:1004F00069008093D40080916A008093D500809138
:1005000068008093D60080916C008093D700809122
:100510007C008093D8008091FB008093D90080916B
:100520007D008093DA0080916D008093DB008091E4
:10053000B6008093DC00F89403EC10E0C1E0D1E059
:10054000F80161918F01CE011BDD2196CB31F1E0E5
:10055000DF07B1F765EA80E091E012DD7894DF9182
:10056000CF911F910F910895882321F0813029F4B4
:10057000BC9804C0BC98C4980895BC9AC49A0895C5
:10058000CF93C82F8093DF008093DE008091E0003E
:10059000811101C0E9DFC11103C019BC18BC0DC035
:1005A000C1508C2F90E0FC01EF53FF4FE491E9BD67
:1005B000FC01E55DFF4FE491E8BD8091DF008630EE
:1005C00010F492E005C08D3010F491E001C090E08D
:1005D00080E80FB6F89486BD96BD0FBECF91089502
:1005E0008093C100CDCFCF93C091DF0089E18C0F04
:1005F000873908F080E0C4DF82E028DE8C2FCF91BD
:10060000BFCFCF93C091DF0080E0BADF83E01EDE72
:100610008C2FCF91B5CF813019F41092C00008957E
:10062000823019F46093BF000895833019F4609309
:10063000BC000895843011F460937900089590917E
:10064000FE009D3110F480E006C08F70E82FF0E0CE
:10065000EB57FF4F808188CFCF93C0917A00C111B3
:1006600049C0883039F41092BA001092B800109244
:10067000B70041C0813B59F48091BA00815083306A
:10068000C8F583E08093BA008093B90033C0853BFE
:10069000A9F4CB016EE370E044DC892B61F5809115
:1006A000BA008A3F40F58B5F8093BA008093B9000F
:1006B0001092B8001092B70096DF1DC08130D1F4BF
:1006C0008091B7009091B800019688382EE092078B
:1006D00028F49093B8008093B7000DC01092B80032
:1006E0001092B7008091BA00882329F0815080933E
:1006F000BA0001C0C1E08C2FCF910895FF920F93F3
:100700001F93CF93DF938C01EB01F42E8091F900BE
:100710009091FA00892B31F0E091F900F091FA0004
:1007200089E009951093FA000093F900012B39F044
:10073000E091F900F091FA00BE018F2D099581E05A
:100740008093C200DF91CF911F910F91FF90089588
:10075000CF93DF93E091E800EE2359F0E150E0936E
:10076000E800F0E0EE0FFF1FE751FF4FC081D1819D
:1007700002C0C0E0D0E0E091E800EE2341F0F0E0FC
:10078000EE0FFF1FE951FF4F8081918102C080E091
:1007900090E04AE060E070E0B1DFCE01DF91CF9100
:1007A0000895883029F41092B30010929A0015C071
:1007B0008130F9F490919A00911107C0603271056F
:1007C00068F180939A0038DD29C0913081F46B3B49
:1007D000710528F082E080939A0080E01EC06115C8
:1007E0007105E1F06270862F880F8E5E16C0B0DF53
:1007F00015C0813811F0813E89F491E090939A0000
:10080000813E21F48091B300865F03C08091B300E4
:100810008F5F8093B30010DD8BE4B2DE80E008953B
:100820009C019091E800983088F4E92FF0E0EE0FF9
:10083000FF1FE751FF4F318320839F5F9093E800B4
:1008400048E0C9015BDF8091E80008958FEF0895CB
:100850000F931F93CF93DF93EC018B0179DFB801E6
:10086000CE01DF91CF911F910F91DACF813C29F416
:1008700060E070E08FEC94E006C0823C39F460E008
:1008800070E085E994E0E4DF80E0089581E0089578
:10089000843011F58091F9009091FA002AE08B3FA5
:1008A000920729F469E170E08DEA95E013C08D5A52
:1008B000954061F49091DF00923040F0892F869549
:1008C00096959695890F8CDE80E0089560E070E043
:1008D0008FEC94E0BDDFF8CF81E00895813C29F4EE
:1008E00060E070E08FEC94E006C0823C31F460E0A0
:1008F00070E086E394E0ACDF14C0813B41F4CB01AF
:100900006EE370E00EDB892B61F46DDE0AC0813E80
:1009100051F4CB016EE370E004DB6F5F60936C0019
:100920009EDD80E0089581E00895CF93C0917A0024
:10093000C11117C0813C29F460E070E08FEC94E0B5
:1009400006C0823C31F460E070E085EB94E080DF2B
:1009500009C0873B31F460E070E082E098E060DF3E
:1009600001C0C1E08C2FCF910895813C29F460E053
:1009700070E08FEC94E006C0823C31F460E070E0FF
:100980008EE694E065DF07C0873B39F460E070E0F5
:1009900086E098E045DF80E0089581E008950F93B8
:1009A0001F93CF938B01883079F480E0E9DD80914B
:1009B0006D008370D9DD1092BA00012B19F481E02B
:1009C0008093E000C0E0C4C0813051F4693171050A
:1009D000C8F38093E00080916D008370C5DDF2CF95
:1009E000833011F52091C000222359F08091BF007F
:1009F00090E062EC71E078DA0817190710F02093A4
:100A00007B0080916D008370833011F4802F17DE9E
:100A10008091B6008823B1F290E062EC71E064DA74
:100A20008017910778F64DC0813B99F481E090E002
:100A300081DCA6DD8091BC008111C4CF8091BD0016
:100A4000811104C00831110508F4BCCF61E070E0E9
:100A500028C0813ED9F3813821F480917B0090E059
:100A600013C0813C21F46091DF0070E01AC0823B2A
:100A700079F48091790090917A0091118091BE0073
:100A8000811104C086E990E055DC05C086E903C009
:100A9000823E19F480E074DD95CF823C31F466E942
:100AA00070E08DEA95E0D4DE8DCF833999F3833CF5
:100AB00029F460E070E085E994E0F5CF843C31F4FE
:100AC00092DD60E070E08EE098E0EDCF8F3C29F49D
:100AD00060E070E08BE092E0E6CFC0917A008A3B64
:100AE00079F4672B69F4CC2329F07DDD10927A002C
:100AF000B6DC68CF60E070E08AEF97E091DE28C056
:100B0000C11125C08A3C29F46EDD81E080937A0012
:100B10001CC0833B29F460E070E08BEF9AE007C0D3
:100B2000853C39F460DD60E070E082E79CE090DEB7
:100B30000FC0873C61F490916D0081E0890F837054
:100B40009C7F982B90936D000FDD89DC01C0C1E084
:100B50008C2FCF911F910F910895AF92BF92CF929A
:100B6000DF92EF92FF920F931F93CF93DF93182F93
:100B7000EB01D0907800F0907700B090BD00BB20E2
:100B800019F0C090BB0002C0CC24C39480917900BE
:100B900000917A0001118091BE00882349F08130D4
:100BA00021F080917B008F1518F0A6E9EA2E01C094
:100BB000EF2CA090BA00BE01812F4EDD6091BA00EB
:100BC000662339F0A1100CC08091DF0080939E0055
:100BD00007C0AA2029F060E070E08FEC94E039C0F3
:100BE000812F8D7F8830D9F41092B5001A3019F416
:100BF000C0917B00D0E08D2D90E08C179D0738F4DC
:100C00008F2D90E0C817D90710F4C0937B00CE0158
:100C100091DBE6DC81E08093650000E099C1113C46
:100C2000D1F2123C71F48091DF008E1510F48E2DFC
:100C300002C080917B00D4DC8091DF0080939E0015
:100C4000ECCF143C41F480E09BDC60E070E08EE08F
:100C500098E0FEDDE2CF8FE4810F823008F052C0D1
:100C6000BB2039F0CE0168E170E05BD9892B31F00F
:100C7000D4CF60916E0070E0CE01F7CF2091DF00FD
:100C8000209761F4123B11F48FEF05C02F15E0F7A8
:100C9000D216F8F081E0809365001BC0E0916E00F1
:100CA000F0E0CF0166E371E01FD98C179D0710F4C7
:100CB0002F1550F7CF016CE672E016D98C179D07FF
:100CC00040F4D21630F08FDC60E070E08EE098E007
:100CD000BFDDD091DF00809165006C2D70E0082EA3
:100CE000000C990B01D98D0F911D24DBC82F809327
:100CF0007B00D81729F0833511F0F81201C081DC90
:100D00008C2F99CF8FE1810F823020F48091650084
:100D1000819581CF113009F093C0A99711F41093F8
:100D20006500662391F080919E0070E0615071092A
:100D300090E0DAD86091B90070E007D9611101C084
:100D400061E06093DE006093C1008091DE009091CD
:100D5000DF00282F30E0291B310960919C00709141
:100D60009D006F5F7F4F70939D0060939C002115E5
:100D7000310509F452CF37FF05C0933830F040E415
:100D800050E005C040E052E002C040E051E056951E
:100D9000479537FF02C02F5F3F4F359527952115A7
:100DA0003105A9F74617570708F037CF891710F410
:100DB0008FEF03C0981710F481E0890F7FEF780F51
:100DC000272F30E0A9014F535F4FFA016491791743
:100DD00038F499B5911104C06F3F11F469BD0CC08E
:100DE00099B5961718F499B59F5F05C099B569171D
:100DF00018F499B5915099BD255D3F4FF901949133
:100E000068B5691718F498B59F5F05C068B596175F
:100E100018F498B5915098BD99B5FA01449194137E
:100E20000AC098B5F9012491921305C0C091DE0063
:100E3000A7DBC093DE0010929D0010929C00EDCEC7
:100E40001530A9F48091DF008D3308F4E6CE90E0F0
:100E50008C1B9D0B282F8C3391052CF08739910525
:100E600018F026E901C02CE32093DE00D6CE163020
:100E7000B9F49091DF008091C100981708F0CDCEB1
:100E8000C90FD11D90E08C179D0734F0CC33D105EC
:100E900024F4CCE3D0E001C0EC01C093DE00BDCE71
:100EA000173079F49091DE008091DF00891710F4FB
:100EB0008F5F04C0981708F0B0CE81508093DE0099
:100EC000ACCE011144C0133C99F481E0B11080E034
:100ED0008093BD00C4DA95DB8091DF0090E02ADAD0
:100EE00080937B007DDB8091DF0080939E0030C08B
:100EF000133B29F4CD2B09F090CE8E2D04C0133E68
:100F000021F480917B006CDB23C0153C41F480E030
:100F100037DB60E070E082E79CE09ADC19C0173BA9
:100F200029F460E070E086EF97E00FC01A3C39F4D6
:100F30008091DF008093C00092DA55DB09C01A3B34
:100F400031F460E070E08EEF97E06ADC01C001E010
:100F5000802FDF91CF911F910F91FF90EF90DF9045
:100F6000CF90BF90AF900895883061F410929B00AD
:100F700080E006DB8091E100811136C081E0809342
:100F80009B0022C0982F907F903BB1F420919B0052
:100F9000421778F0CB016DE570E0C3D7029739F4C2
:100FA0002F5F20939B004217F8F088E303C082E193
:100FB00001C080E0E5DA18C0903E61F480919B00AA
:100FC000882389F0481778F060E070E081ED93E0C5
:100FD00027DC0AC08A3041F46091B30080919B0005
:100FE000F90109953CDAB4DB80E008952AE531E0A7
:100FF00043E0BACF2AE531E044E0B6CF2BE033E05E
:1010000044E0B2CF2DE032E041E0AECF21E132E06A
:1010100042E0AACF2CE232E041E0A6CF0F931F932B
:10102000CF93DF93D82F8B0180798039B1F4209151
:101030007400909175008D2F8F70823041F48091F3
:10104000C000811108C0822F291728F403C0822F05
:10105000921708F4892F94DA1BC0803819F480E0C5
:101060008FDA08C0D83031F480916D00869586956E
:101070007BDA39C0D13061F40931110508F452C06E
:10108000D093E00080916D00869586956DDA4AC018
:10109000D33049F480916D008C708C3009F042C0DF
:1010A000802FCDDA3FC0D43C71F4C091C000CC2376
:1010B00019F06C2F70E00EC060917B0070E08DEA3B
:1010C00095E0C6DB32C0D43B49F48DDA10923D0185
:1010D00061E070E08DEA95E0BBDB24C0D53C19F4FB
:1010E00066E970E0F7CFC0917A00C1111DC0DA3B0C
:1010F00031F460E070E08AE098E092DB16C0D73C03
:1011000099F490916D00892F869586958F5F8370F5
:10111000282F220F220F9370920F90936D0024DAE4
:101120009ED903C0C0E001C0C1E08C2FDF91CF91F8
:101130001F910F9108958CE287B9109208011092C7
:10114000090186B1886486B9089510920A0124B114
:1011500095B13091DD002295269526952370892F33
:1011600090E0880F991F880F991F820F911D830FA0
:101170008093DD008091FF00882309F40BC1109259
:10118000FF00809108019091E000992319F03798B1
:1011900010920801811143C080917E00882349F09C
:1011A0006091040170910501709301016093000149
:1011B00004C06091000170910101605F7F4FA6E063
:1011C00076956795AA95E1F780E098E5AAD6809193
:1011D0007D0090E00297680F791F76956795609380
:1011E000FE008091B200882311F0815007C06D315C
:1011F00038F460E070E084E0CBD785E08093B20003
:101200008091E0008111BDC08FEA87B981E08093B1
:1012100008011092090186B1886486B9B2C0813094
:1012200009F0AFC080917E00811143C0809102011E
:101230009091030140969C0145E0369527954A958B
:10124000E1F7A091FB00A901569547950A2E000CE5
:10125000BB0BCD0183519140840F951F9093FD00EE
:101260008093FC008091A100E82FF0E0EE0FFF1FBB
:10127000EE55FF4F40815181B901641B750B3183DD
:1012800020838F5F87708093A100CB01880F991F07
:10129000880F991F40917C0050E04D5E5E4F4A1BC5
:1012A0005B0B440F551F841B950B820F931F23E08C
:1012B0001CC08091060190910701909303018093D7
:1012C0000201409635E0969587953A95E1F7E2EA76
:1012D000F0E08193919320E0E23BF207D1F7A6CFB3
:1012E000009709F00196215029F018161906C4F745
:1012F0000197F9CF18161906E4F477FD39C020914B
:10130000A00012160CF1880F991FBC0163507109DF
:1013100077FF02C06F5F7F4F7595679516161706AA
:1013200014F061E070E088E1861B8093A00085E006
:1013300026C08C3F2FEF9207DCF477FF19C0209175
:10134000A00027FF05C02450281B2093A00018C030
:1013500024EE281B2093A0002091FE002F3180F066
:101360006CEF7FEF681B790B7595679586E007C07A
:101370008091FE008E3120F060E070E087E008D7B9
:10138000DADE80917E00882329F080917E008150F2
:1013900080937E0008950F931F93CF931092E300E4
:1013A00080913B0190913C019C012F5F3F4F88272A
:1013B0009078822B932B90933C0180933B01C091BA
:1013C000E1005AD7C81729F11092E0008093E1009C
:1013D00090913D01882359F0892F80699F709F303B
:1013E00009F08F5F80933D0180E090E00DC0892F70
:1013F0008F7E95FD02C0806801C0806C80933D01A6
:1014000080913B0190913C0113D710923C011092C6
:101410003B0100913B0110913C018091E000882349
:1014200079F0B80183E0B4D6CCD60F731127012B25
:1014300009F044C010929F007EDE87EE86B92EC070
:10144000C0913D018C2F807F803B19F460E070E0FB
:1014500001C0B80181E09CD6C4FF12C0C5FF02C024
:10146000C8010CC008311105C8F010923C0110925F
:101470003B01C062C0933D0180E090E0D9D60EC030
:10148000CC2361F0C5FD09C00231110538F0C064FC
:10149000C0933D0180E090E0CBD6CED680919F00F6
:1014A000811106C086B1886486B981E08093FF000F
:1014B00080919F008F5F8F7180939F00CF911F91CC
:1014C0000F91089580910A0181113FDE8091E30020
:1014D000811161CF0895CF92DF92EF92FF920F9327
:1014E0001F93CF93DF93EC0110E800E088E0E82E33
:1014F00087E0F82E92ECC92EDD24D394209709F1D1
:101500008091C20081111FC08091DF00863040F4BD
:1015100082E00FB6F89416BD86BD0FBEC60106C0A8
:101520000FB6F89416BD06BD0FBEC7010197F1F7BF
:101530000FB6F89416BD06BD0FBEC4DF42D6219784
:10154000DDCF81E001C080E0DF91CF911F910F914D
:10155000FF90EF90DF90CF900895CF93C82F88230E
:1015600081F089E10DD886EA90E0B5DF80E008D807
:101570008AEF90E0B0DFC150A1F78AE992E0CF9105
:10158000AACF89E1FDD788E090E0A5DF80E0F8D719
:101590008AEF90E0A0DFF1CFCF93DF9364E6B5D47C
:1015A000282F892F6AE0B1D4EC01222341F0822F49
:1015B000D4DF8C2FD2DF8D2FDF91CF91CECFC11111
:1015C000F8CFF9CFCF93DF93D82FC3E080917B0082
:1015D000D7D78DE790E07FDFDD2319F08AEF90E029
:1015E0007ADF80E0CDD78DE790E075DFC15071F7ED
:1015F000DF91CF910895DF92EF92FF920F931F93A7
:10160000CF93DF93D82F8B01C0916B0081E0809343
:10161000B500C33009F0D3C0F090BA008D2F1CD8AC
:10162000FF2051F08091BA00811106C060E070E0A7
:101630008FEC94E00DD9C3C0D83021F481E08093C1
:101640006300BFC0D23C19F41092BA00C8C0D13BAD
:10165000C1F490916200012B49F49E3610F08FEF97
:1016600003C0923018F481E080936300809163009E
:10167000890F11F481E02BC18F3608F428C18EE662
:1016800026C1D13E31F4809163008195809363003F
:10169000DCC0D23B61F481E0809363008091620002
:1016A000823008F4DAC0815080936200D6C0D13015
:1016B00009F0E4C00932110511F4D0936300D09011
:1016C00099008D2D880FD7FC809590E067E070E041
:1016D0000BD4292FE09098008E2D880FE7FC809581
:1016E000D09161006D2F70E090E0FED3290FF09053
:1016F00097008F2D880FF7FC8095C09160006C2FAC
:1017000070E090E0F1D3920F6091620070E0690F99
:10171000711D8091BA00813091F48091B700909151
:10172000B80025E0969587952A95E1F724E730E003
:10173000A901481B590BCA01D7D3B901F2D3862F8F
:101740001FD700FD05C0A1D58170D80ED092990099
:1017500080919600E80EE092980097D565E2D5D387
:10176000F90EF092970091D58F7329F48ED56DE024
:10177000CCD390939600DD2331F087D58F7319F485
:10178000D150D093610081D5811107C07ED56BE027
:10179000BCD39093610010929800C33030F075D59F
:1017A0008F7119F4C150C09360006FD58F7709F025
:1017B00079C06BD566E0A9D39093600073C0D83030
:1017C00021F481E08093640084C0D13C31F460E076
:1017D00070E08FEC94E03CD87CC0D23C49F48C2F74
:1017E00090E0019665E070E0B0D380936B004BC051
:1017F000D13B49F5C23090F400FD6BC0EC2FF0E016
:10180000E759FF4F808190916400891B883020F058
:101810008F3F91F58EEF30C088E02EC0C43009F0C4
:1018200058C09091680080916400890F823010F454
:1018300082E003C0893708F088E7809368008091D0
:1018400068009ED646C0D13E31F4809164008195F7
:101850008093640018C0D23BA1F481E080936400BF
:10186000C23060F500FD35C0EC2FF0E0E759FF4FC6
:1018700080818F3F71F18F5F80832BC0D13C09F451
:10188000A6CFD23E11F4EBD524C0D53C39F460E0AC
:1018900070E082E79CE0DCD780E0D3CFD13011F05C
:1018A00081E018C00932110519F481E080936400C9
:1018B0008091DD00080F0093DD000BC0C43049F4B7
:1018C00080916800833008F4BACF8150B6CF8093FE
:1018D000620080E0DF91CF911F910F91FF90EF9018
:1018E000DF9008950F931F93CF93DF93D82F8B0131
:1018F000883031F48091B500813011F488E07BDECE
:101900008D2F8079803959F481E08093B400C091A3
:10191000B500C1110AC080917B0032D621C0803849
:1019200031F41092B40080E02BD6C0E019C0D13061
:10193000B1F4C091B400CC2351F08091B500813056
:10194000A1F7B801DF91CF911F910F9154CE0733CA
:10195000114058F3D093E00080E006D601C0C1E00A
:101960008C2FDF91CF911F910F9108951F920F92AD
:101970000FB60F9211242F933F938F939F93AF93A2
:10198000BF93EF93FF93809109018823E9F0E091E1
:10199000080124B135B1F0E0EE0FFF1FDF01AC5FAD
:1019A000BE4F2D933C93E050FF4F80819181821771
:1019B000930708F401962817390708F401979183D3
:1019C000808381E080930A0181E080930901FF9187
:1019D000EF91BF91AF919F918F913F912F910F9078
:1019E0000FBE0F901F9018951F920F920FB60F9277
:1019F00011248F9381E08093E3008F910F900FBEAD
:101A00000F901F9018951F920F920FB60F921124EE
:101A10008F9381E08093E2008F910F900FBE0F9023
:101A20001F901895F89484B7877F84BF0FB6F894F9
:101A3000A89581B5886181BD11BC0FBEB89A81E0BF
:101A400083BF81EA8ABDB99A88E088BB85BB8BB722
:101A500080628BBFA89581B5886181BD80E481BD1E
:101A60006ADB87EE86B9789481E0F0D360E070E0BD
:101A700088E494E0D5D61092C200B5D5FDD381118B
:101A800008C0F89480E091E073D2853A51F17894DF
:101A90009FC0C0E08C2F74D583E190E01CDD8C2FBB
:101AA00086956ED583E190E016DDE6D3882381F03C
:101AB000CF5FC03479F765E181E0B3D4D0D4C6E913
:101AC0008C2F5ED584E090E006DDC150C9F7D9CFF8
:101AD000CC23B9F28C2F54D58DE090E0FCDCC150C2
:101AE000F7CF03EC10E0C1E0D1E0CE0141D2F80124
:101AF00081938F012196CB31F1E0DF07B1F7789424
:101B00008091C3008093BD008091C40080937400D5
:101B10008091C500809371008091C60080936E0013
:101B20008091C700809375008091C80080937200F7
:101B30008091C90080936F008091CA0080937600E5
:101B40008091CB00809373008091CC0080937000D3
:101B50008091CD0080937A008091CE008093BE006A
:101B60008091CF008093BC008091D0008093790059
:101B70008091D1008093C0008091D2008093BF00FB
:101B80008091D30080936B008091D4008093690092
:101B90008091D50080936A008091D6008093680080
:101BA0008091D70080936C008091D80080937C0056
:101BB0008091D9008093FB008091DA0080937D00B2
:101BC0008091DB0080936D008091DC008093B600F3
:101BD0008091C000811180937B0061E070E08FEC08
:101BE00094E01ED643E4342E52E0452E67EE562E86
:101BF00070E4672E77247394CC24C394D12CFCEF2B
:101C00008F2EF3E09F2EAFECAA2EA4E0BA2ED9D2ED
:101C10008091E6009091E700009749F06091E40020
:101C20007091E50015D61092E7001092E6008091C1
:101C3000E000882309F444C080E0A2D4A89581B5CF
:101C4000886181BD31BC379817D38111FDCFF4D2A3
:101C50008BB780628BBF10920A011092E300109242
:101C6000E2008091E0008823F9F085B7877E8061EB
:101C700085BF85B7806285BF889585B78F7D85BF15
:101C80008091E20081111092E00080910A01882386
:101C900029F070927E007092FF0057DA8091E30085
:101CA0008823F9F278DBDDCF40927E008BB78F7D01
:101CB0008BBF41DA56B8A89581B5886181BD61BCFA
:101CC00001DC1092C2008091F9009091FA0022E0AC
:101CD0008B30920779F4CEE1D0E0FE0184918053FD
:101CE0003CDC8CE291E0F7DB2196F0E0CA32DF07C2
:101CF000A1F7B6C02AE08B3F920779F03CE082372B
:101D0000930709F0A2C08091B500813009F0E1C0CD
:101D10008091B400882309F4DCC0C0916B00C2300C
:101D200001F120F0C43009F476C071CFEC2FF0E05F
:101D3000E759FF4FD08186E923D4C11109C0DA32B7
:101D400020F4C4010197F1F707C081E090E003C0DF
:101D50008D2F869590E0BFDB80E012D48D2F90E030
:101D6000B6C093D28F73E82EF12C8FD267E0CDD01E
:101D7000E60102C0CC0FDD1F9A95E2F786D265E03E
:101D8000C4D0F60102C0EE0FFF1F9A95E2F7CE0F06
:101D9000DF1F7BD290E0BE01D8D0C80FD91FC73952
:101DA000D10514F0C6E9D0E08C2FEAD3C70193DB4C
:101DB0008E0133E0159507953A95E1F7011101C0C1
:101DC00001E010E0C70187DBC01BD10BD7FF02C0C9
:101DD000C0E0D0E08C2FD4D358D2837031F4C70147
:101DE0007ADBCE0195958795CBD3C230D10554F7D8
:101DF0004CD26DE08AD0E60102C0CC0FDD1F9A956F
:101E0000E2F743D290E0BE018CD0C80FD91F80E02A
:101E1000B7D3CE015CC0C0916800CC0FC73908F0C1
:101E2000C6E9D4E08C2FACD385E090E054DB809100
:101E30006800A6D381E490E04EDBD15099F780EDA5
:101E400092E049DB80E09CD3E2CEF4E085399F0745
:101E500081F48091FE00A0DB80917A00882381F0DC
:101E6000B092E700A092E6001092E5001092E40024
:101E7000CECE24E0853B920731F48091FC008CDBD0
:101E800088EE93E024C034E08E369307A9F4809165
:101E9000E1008111BCCE80917B0072D384E690E09A
:101EA0001ADB80E06DD380916C0090E068EE73E007
:101EB0001BD0845691090BC08653944051F480E0A6
:101EC00081DB81E07FDB80E07DDB81E792E003DB8B
:101ED0009ECE85B7877E85BF85B7806285BF889592
:101EE00085B78F7D85BF93CE0024552704C0080E8B
:101EF000591F880F991F009729F076956795B8F3B9
:101F00007105B9F7802D952F0895991B79E004C0CC
:101F1000991F961708F0961B881F7A95C9F7809528
:101F20000895AA1BBB1B51E107C0AA1FBB1FA61720
:101F3000B70710F0A61BB70B881F991F5A95A9F772
:101F400080959095BC01CD01089597FB072E16F45E
:101F5000009406D077FD08D0E4DF07FC05D03EF4FE
:101F6000909581959F4F0895709561957F4F089545
:101F7000E199FECF9FBB8EBBE09A99278DB3089560
:101F8000262FE199FECF9FBB8EBBE09A01970DB241
:101F9000021639F01CBA2DBB0FB6F894E29AE19AFA
:081FA0000FBE0895F894FFCF75
:101FA800060B18010101000453294303020D010720
:101FB8000578786C010A0A78010101532D0702742B
:101FC8000071006E00000102010000000000000125
:061FD80000000000000003
:00000001FF
