:1000000003C200001EC200000C9437101AC2000088
:1000100018C200000C94281014C2000012C2000084
:1000200010C200000EC200000CC200000AC2000094
:1000300008C2000006C200000C94EA0F02C20000D1
:1000400000C20000FEC10000FCC10000FAC10000B7
:10005000F8C10000F6C10000F4C10000F2C10000C8
:10006000F0C10000EEC10000ECC10000EAC10000D8
:10007000323032313132303830323731000105041C
:1000800014101115FF3FFF3FE62D6239DF23973033
:100090002F3583363536F8342533F130EB33E13004
:1000A000D431E131752EE32D352FCD2D412C342C5B
:1000B000632AD92916292A2820270126D424522444
:1000C0000B235A220B2141206B1F231E491D6B1C41
:1000D0008C1B611A8A1974186A17A6167D15971455
:1000E0008E139612AD11AC10BE0FBF0EB40DBF0C27
:1000F000C20BC00AD509D008CE07E306E805E10423
:10010000E203ED02F101FF00FF00FF00FF00FF002E
:10011000FF00FF00FF00FF00FF00FF00FF00FF00E7
:10012000FF00FF00FF00FF00FF00FF00FF00FF00D7
:10013000FF00FF00FF00FF00FF00FF00FF00FF00C7
:10014000FF00FF00FF00FF00FF00FF00FF00FF00B7
:10015000FF00FF00FF00FF00FF00FF00FF00FF00A7
:10016000FF00FF00FF00FF00FF00FF00FF00FF0097
:10017000FF00FF00FF00FF00FF00FF00FF00FF0087
:10018000FF00FF00FF00FF00FF00FF00FF00FF0077
:10019000FF00FF00FF00FF00FF00FF00FF00FF0067
:1001A000FF00FF00FF00FF00FF00FF00FF00FF0057
:1001B000000000000000000000000000000000003F
:1001C000000000000000000000000000000000002F
:1001D000000000000000000000000000000000001F
:1001E000000000000000000000000000000000000F
:1001F00000000000000000000000000000000000FF
:1002000000000000000000000000000000000000EE
:1002100000000000000000000000000000000000DE
:1002200000000000000000000000000000000000CE
:1002300000000000000000000000000000000000BE
:1002400000000000000000000000000000000000AE
:10025000000000000000000000000000000000009E
:10026000000000000000000000000000000000008E
:10027000000000000000000000000000000000007E
:10028000000000000000000000000000000000006E
:10029000000000000000000000000000000000005E
:1002A000000000000000000000000000000000004E
:1002B00000000000090014001E00290034003F0067
:1002C0004B005700630070007D008A009700A50076
:1002D000B300C200D000E000EF00FF00000001000A
:1002E00001000200020003000400050006000700F0
:1002F000080009000B000C000E0010001100130094
:10030000160018001A001D001F00220025002800FA
:100310002B002E003100350038003C003F00430028
:1003200047004A004E005200560059005D00600030
:100330006300670069006C006E007000720073005B
:10034000740074007300720070006D006A00650034
:100350005F005900510047003C00300022001300AC
:10036000140015001600170018001A001B001C00CE
:100370001E001F0020002200240025002700290065
:100380002B002D002F0031003300350038003A00DB
:100390003D003F004200450048004B004E00510028
:1003A000540058005B005F00630067006B006F0043
:1003B000730077007C00810085008A008F00950023
:1003C0009A009F00A500AB00B100B700BD00C400BB
:1003D000CB00D200D900E000E700EF00F700FF00FB
:1003E000FF00FF00FF00FF00FF00FF00FF00FF0015
:1003F000FF00FF00FF00FF00FF00FF00FF00FF0005
:10040000FF00FF00FF00000011241FBECFEFD4E06B
:10041000DEBFCDBF11E0A0E0B1E0EEE8F6E202C041
:1004200005900D92AE34B107D9F721E0AEE4B1E00A
:1004300001C01D92AB3FB207E1F70E9446100C9439
:100440004513DECDF89498ED9FBD83BF7894089551
:10045000482F9B01E8ECF1E080E090E050815523CB
:1004600031F00196339680319105C1F70AC063E0FF
:1004700070E00E94E712FC01E853FE4F4083328394
:10048000218308950F931F93CF93DF93D091C801D9
:10049000DD2351F10091C9011091CA01C091A5015C
:1004A000C150C7FD0DC0EC2FEE0FFF0BEA55FE4FFC
:1004B0000190F081E02DB8018D2F09958111F0CFC9
:1004C000E8ECF1E08381808384819581928381834C
:1004D000339681E0E53FF807A9F71092F5011092F5
:1004E000F7011092F601D2CFDF91CF911F910F91BA
:1004F0000895BC018091FA01ABCF1092FA011092DD
:10050000F9011092F80181E080937D0108950F9325
:100510001F93CF93C82F08EA17E0CC2349F082E05D
:1005200091DFC8010197F1F780E08CDFC150F5CF72
:10053000CF911F910F910895E0910601F09107016D
:100540003196FB70F460F0930701E093060180910F
:100550009A018B5A80939A01E49180919A018E0FAF
:1005600008950F931F93CF93DF9300D01F92CDB7C1
:10057000DEB720912101309122014091230129838E
:100580003A834B83FE01319640E050E090E061E019
:1005900070E0B1919A01220F331F8C0102C01595B2
:1005A00007952A95E2F79801237061F02130D1F484
:1005B000A0B39B0101C0220FBA95EAF7322F309504
:1005C0003A2318C0A0B39B0101C0220FBA95EAF7E5
:1005D00020953A2F322330BB32B3322332BB31B3B2
:1005E00023230EC0A0B39B0101C0220FBA95EAF7E6
:1005F0003A2F322B30BB32B3322B32BB31B3232BE9
:1006000021BB4F5F5F4F4330510519F60F900F909C
:100610000F90DF91CF911F910F910895CF93DF93AA
:1006200000D000D000D0CDB7DEB7909178012091F6
:10063000B6013091B701275F3A4009F492E0843067
:1006400019F46093790121C06623F9F0823019F41E
:1006500027E9261B622F26E0E4E2F1E0DE01119695
:1006600001900D922A95E1F7E82FF0E03197EE0F17
:10067000FF1F21E030E02C0F3D1FE20FF31F019020
:10068000F081E02DE90FF11D608326960FB6F894F6
:10069000DEBF0FBECDBFDF91CF910895813011F441
:1006A00060931D010895BF92CF92DF92EF92FF9267
:1006B0000F931F93CF93DF93EC0140917801E0916A
:1006C0001B01EE2311F082E001C0842F90E0DC01D9
:1006D000AB5EBE4F2C9120931901DC01AE5EBE4F84
:1006E0008C9180931801F0E0E15FFE4F3181622F21
:1006F00070E0442349F0313039F49B01280F311D5B
:10070000C9019595879538C0C617D707A4F1682FFA
:1007100070E06C177D0784F1411102C08C2F2CC052
:10072000821B032F10E001501109E82EF12CC701A4
:10073000B8010E941813609376016695E62FF0E0E9
:10074000822FC12CD12CB12CB316B1F0C601B80147
:100750000E940413822F860FCE0CDF1CAE01481BB3
:10076000510957FF03C0519541955109E417F50709
:100770001CF4B394E9CF822FDF91CF911F910F9199
:10078000FF90EF90DF90CF90BF90089581E00895A3
:10079000611160931F010895662389F0813061F42F
:1007A0008091B9019091B801891B681B6093B801D1
:1007B00082E08093200103C0635E60931E018091FC
:1007C0001E01873418F086E480931E01089560931B
:1007D000710108950F931F93CF93DF938091780158
:1007E00080937E018091150180937F018091120199
:1007F0008093800180910F01809381018091160187
:100800008093820180911301809383018091100174
:100810008093840180911701809385018091140158
:1008200080938601809111018093870180911B0143
:10083000809388018091790180938901809177016B
:1008400080938A0180911A0180938B0180917B01B2
:1008500080938C0180917A0180938D0180911D019C
:1008600080938E0180910B0180938F01809109010B
:100870008093900180910A018093910180910801F9
:100880008093920180910C018093930180911E01CD
:10089000809394018091B8018093950180911F010C
:1008A0008093960180910E018093970180910D01B4
:1008B00080939801809171018093990182E027DEF5
:1008C000F8940EE711E0C1E8D0E0F80161918F01E2
:1008D000CE010E9433132196CD39D105B1F765EAD7
:1008E00080E890E00E9433137894DF91CF911F91BC
:1008F0000F910895882321F0813031F4829805C04A
:10090000829892988A980895829A929A8A9A0895DB
:10091000CF93C82F80919C01811109C0CC2339F05D
:1009200080911D01C81718F4F3DF82E0F0DDC09359
:100930009C01C0939B0180919D0181110BC011DE30
:1009400091E0C11101C090E081E0C73408F480E07B
:10095000890FD0DFC1110AC010926D0010926C0097
:1009600010926B0010926A00689835C0689A8FEFF9
:100970008C0F90E0880F991FFC01E452FD4F2591E8
:10098000349130936D0020936C00FC01E055FE4FD4
:100990002591349130936B0020936A00FC01EC5751
:1009A000FF4F2591349180915901A901405451097B
:1009B000882339F060916E0070916F0046175707D9
:1009C000B8F33093690020936800811104C010923D
:1009D0006F0010926E00C093590180919C01843089
:1009E00010F482E005C08C3010F481E001C080E09A
:1009F000CF9128CD80937C018BCFCF93C0919C0168
:100A000082E38C0F873908F080E082DF83E07FDDAE
:100A10008C2FCF917DCFCF93C0919C0180E078DF68
:100A200083E075DD8C2FCF9173CF0F931F93CF93FE
:100A3000E82F8091BB019FEF980F9C3120F480E05C
:100A400090DD80E07BC0CE2FC295CF70EF7090918B
:100A50009D01911103C0C33008F0C2E0E73008F4F3
:100A600041C0E730A9F40091530110E00F5F1F4F20
:100A700063DD65E00E94F8129801290F311DC9015C
:100A800066E070E00E94181380935301FC0135C0AA
:100A9000E830B1F480919D01882311F08FE001C00E
:100AA00083E0682351F48091530190E0019666E061
:100AB00070E00E94181380935301E091530112C01B
:100AC00090919D01992381F08D31D8F090E0E92F2C
:100AD000F0E0E35CFE4F2081821710F09E5FF7CFBD
:100AE0003197E081F0E009C0862F869563E00E948F
:100AF000F812E92FF0E0EE0FFF1FE358FF4FE491EB
:100B000001C0E0E0C33071F48091520190E00196A1
:100B100063E170E00E94041380935201DC01A65D42
:100B2000BE4FCC91CC2329F0C13029F0EE0FC2E0AA
:100B300002C0C0E0E0E08E2F14DD8C2FCF911F911A
:100B40000F91D8CE813019F410927B010895823034
:100B500019F460937A010895833019F46093770152
:100B60000895843011F460931A010895CF93C091D1
:100B70001B01C1114AC0883039F4109275011092DE
:100B800073011092720142C0813B59F4809175014A
:100B900081508330D0F583E0809375018093740198
:100BA00034C0853BB1F4CB016EE370E00E940413C6
:100BB000892B61F5809175018A3F40F58B5F8093A9
:100BC000750180937401109273011092720115DF08
:100BD0001DC08130D1F48091720190917301019612
:100BE00088382EE0920728F4909373018093720165
:100BF0000DC01092730110927201809175018823CB
:100C000029F081508093750101C0C1E08C2FCF91F4
:100C10000895FF920F931F93CF93DF938C01EB0105
:100C2000F42E8091B6019091B701892B31F0E091BB
:100C3000B601F091B70189E009951093B7010093CF
:100C4000B601012B39F0E091B601F091B701BE0178
:100C50008F2D099581E080937D01DF91CF911F91C8
:100C60000F91FF900895CF93DF93E091A501EE23BC
:100C700059F0E150E093A501F0E0EE0FFF1FEA55B7
:100C8000FE4FC081D18102C0C0E0D0E0E091A5015B
:100C9000EE2341F0F0E0EE0FFF1FEC55FE4F808198
:100CA000918102C080E090E04AE060E070E0B1DF56
:100CB000CE01DF91CF910895883029F410926E0112
:100CC0001092540115C08130F9F4909154019111A2
:100CD00007C06032710568F1809354010EDC29C0B1
:100CE000913081F46B3B710528F082E080935401D0
:100CF00080E01EC061157105E1F06270862F880FDB
:100D00008E5E16C0B0DF15C0813811F0813E89F4C7
:100D100091E090935401813E21F480916E01865FB1
:100D200003C080916E018F5F80936E01E6DB8BE4E0
:100D3000EFDD80E008959C019091A501983088F442
:100D4000E92FF0E0EE0FFF1FEA55FE4F31832083BD
:100D50009F5F9093A50148E0C9015BDF8091A501E9
:100D600008958FEF08950F931F93CF93DF93EC01B6
:100D70008B0179DFB801CE01DF91CF911F910F91E7
:100D8000DACF813C29F460E070E08CE597E006C0A2
:100D9000823C39F460E070E082E297E0E4DF80E0DA
:100DA000089581E00895843011F58091B601909105
:100DB000B7012EE08B31920729F469E170E08EE6ED
:100DC00098E013C08E56984061F490919C01923047
:100DD00040F0892F869596959695890F0BDE80E0D9
:100DE000089560E070E08CE597E0BDDFF8CF81E02A
:100DF0000895813C29F460E070E08CE597E006C03E
:100E0000823C31F460E070E081EC96E0ACDF16C02B
:100E1000813B49F4CB016EE370E00E940413892BFF
:100E200069F4EBDD0BC0813E59F4CB016EE370E059
:100E30000E9404136F5F60930C01CCDC80E0089586
:100E400081E00895CF93C0911B01C11117C0813C6F
:100E500029F460E070E08CE597E006C0823C31F454
:100E600060E070E082E497E07EDF09C0873B31F408
:100E700060E070E083E09BE05EDF01C0C1E08C2FAA
:100E8000CF910895813C29F460E070E08CE597E013
:100E900006C0823C31F460E070E089EF96E063DFE9
:100EA00007C0873B39F460E070E087E09BE043DFF8
:100EB00080E0089581E008950F931F93CF938B01F5
:100EC000883079F480E024DD60E080910E01ADDDB2
:100ED00010927501012B19F481E080939D01C0E00F
:100EE000F8C0813049F469317105C8F380939D01E0
:100EF00080910E019ADDF3CF833009F520917B01BB
:100F0000222361F080917A0190E062EC71E00E940E
:100F1000E7120817190710F020931C01602F809129
:100F20000E0183DD809171018823C9F290E062ECAB
:100F300071E00E94E7128017910788F64DC0813B4F
:100F400099F481E090E0AFDBE3DC809177018111DF
:100F5000C6CF80917801811104C00831110508F4D1
:100F6000BECF61E070E028C0813ED9F3813821F422
:100F700080911C0190E013C0813C21F460919C01A0
:100F800070E01AC0823B79F480911A0190911B01A4
:100F9000911180917901811104C086E990E083DB91
:100FA00005C086E903C0823E19F480E0B1DC97CF2A
:100FB000823C31F466E970E08EE698E0D4DE8FCFB3
:100FC000833999F3833C29F460E070E082E297E092
:100FD000F5CF843C31F411DD60E070E08FE09BE000
:100FE000EDCF8D3B41F4F89488ED8FBD88E880BF4C
:100FF0007894A895FFCF8F3C29F460E070E086ECF0
:1010000093E0DCCFC0911B018A3B71F4672B61F444
:10101000CC2329F0F2DC10921B01DCDB60CF60E016
:1010200070E087EF9AE052C0C11152C08A3C29F4A7
:10103000E4DC81E080931B013FC0833B29F460E046
:1010400070E08BE19EE007C0853C39F4D6DC60E0BF
:1010500070E082EA9FE087DE3CC0873C91F490918B
:101060000E01892F82958F708F5F83708295807FAC
:101070009F70892B80930E0160E0D7DCABDBBDDC79
:1010800028C0873BB9F4C8018F739927892B69F46D
:1010900090910E01892F8F708F5F292F207F6BE039
:1010A0000E94F812922B90930E01602F80910E01F6
:1010B000BCDC0FC0873E11F48DDB0BC0893B41F4D3
:1010C000012B31F460E070E08FEF9AE034DE01C074
:1010D000C1E08C2FCF911F910F910895AF92BF92D5
:1010E000CF92DF92EF92FF920F931F93CF93DF93F4
:1010F000182FEB01D0901901F0901801B0907801F1
:10110000BB2019F0C090760102C0CC24C39480911A
:101110001A0100911B01011180917901882349F086
:10112000813021F080911C018F1518F0A6E9EA2E7C
:1011300001C0EF2CA0907501BE01812F17DD6091D9
:101140007501662339F0A1100CC080919C01809339
:10115000580107C0AA2029F060E070E08CE597E014
:1011600039C0812F8D7F8830D9F4109270011A30E8
:1011700019F4C0911C01D0E08D2D90E08C179D07D3
:1011800038F48F2D90E0C817D90710F4C0931C01D4
:10119000CE0189DA2FDC81E08093050100E0D4C123
:1011A000113CD1F2123C71F480919C018E1510F427
:1011B0008E2D02C080911C011DDC80919C018093CA
:1011C0005801ECCF143C41F480E0A2DB60E070E019
:1011D0008FE09BE0C8DDE2CF8FE4810F823008F022
:1011E00054C0BB2041F0CE0168E170E00E940413BE
:1011F000892B31F0D3CF60910F0170E0CE01F6CF93
:1012000020919C01209761F4123B11F48FEF05C0EF
:101210002F15E0F7D21608F181E0809305011DC07B
:10122000E0910F01F0E0CF0166E371E00E94E71268
:101230008C179D0710F42F1548F7CF016CE672E06C
:101240000E94E7128C179D0740F4D21630F0D5DBD0
:1012500060E070E08FE09BE086DDD0919C018091A2
:1012600005016C2D70E0082E000C990B0E94E7120E
:101270008D0F911D18DAC82F80931C01D81719F013
:10128000F81201C0C8DB8C2F97CF8FE1810F82301D
:1012900020F48091050181957FCF113009F0CDC0F8
:1012A000A99711F4109305016623A1F080915801CC
:1012B00070E06150710990E00E94E7126091740142
:1012C00070E00E941813611101C061E060939B01FE
:1012D00060937C01C0919B0120919C018C2F90E038
:1012E000821B910960915601709157016F5F7F4F8A
:1012F0007093570160935601009709F44FCF97FF01
:1013000005C0233830F040E450E005C040E052E032
:1013100002C040E051E05695479597FD019695959E
:1013200087950097C1F74617570708F037CFC217C0
:1013300010F48FEF03C02C1718F481E0820F01C066
:101340008C2F9FEF980F492F50E0440F551FBA0183
:1013500064527D4FFB01A591B491921770F42091D6
:101360006C0030916D00232B41F4AF3FB10529F49F
:10137000B0936D00A0936C001FC020916C00309161
:101380006D002A173B0738F420916C0030916D00F6
:101390002F5F3F4F0DC020916C0030916D00A21760
:1013A000B30750F420916C0030916D002150310949
:1013B00030936D0020936C009A0120553E4FF90147
:1013C00045915491E0916A00F0916B00E417F507A4
:1013D00038F440916A0050916B004F5F5F4F0DC031
:1013E000E0916A00F0916B004E175F0750F4409156
:1013F0006A0050916B004150510950936B0040932B
:101400006A00A0916C00B0916D00FB014591549170
:10141000A417B50769F440916A0050916B00F90177
:10142000259134914217530719F472DAC0939B0146
:101430001092570110925601B1CE1530A9F4809147
:101440009C01833408F4AACE90E08C1B9D0B282FBE
:10145000823491052CF08739910518F026E901C0F6
:1014600022E420939B019ACE1630B1F490919C0116
:1014700080917C01981708F091CEC90FD11D90E0A2
:101480008C179D0734F0C234D10524F4C2E4D0E0B7
:1014900001C0EC018C2F0EC0173079F490919B01A4
:1014A00080919C01891710F48F5F04C0981708F091
:1014B00075CE815080939B0171CE011144C0133CC5
:1014C00099F481E0B11080E08093780183D9A3DAA8
:1014D00080919C0190E0E7D880931C018BDA809189
:1014E0009C018093580130C0133B29F4CD2B09F0A7
:1014F00055CE8E2D04C0133E21F480911C017ADA62
:1015000023C0153C41F480E003DA60E070E082EA39
:101510009FE029DC19C0173B29F460E070E083EFFD
:101520009AE00FC01A3C39F480919C0180937B01B2
:1015300051D963DA09C01A3B31F460E070E08BEFF7
:101540009AE0F9DB01C001E0802FDF91CF911F917C
:101550000F91FF90EF90DF90CF90BF90AF900895E4
:10156000883061F41092550180E0D2D980919E01BB
:10157000811137C081E08093550123C0982F907F5F
:10158000903BB9F420915501421780F0CB016DE5F5
:1015900070E00E940413029739F42F5F20935501E5
:1015A0004217F8F088E303C082E101C080E0B0D9BF
:1015B00018C0903E61F480915501882389F0481746
:1015C00078F060E070E08CE596E0B5DB0AC08A3028
:1015D00041F460916E0180915501F9010995FAD8A5
:1015E00042DB80E008952EE033E043E0B9CF2EE007
:1015F00033E044E0B5CF22EA35E044E0B1CF2EE459
:1016000033E041E0ADCF28EC33E041E0A9CF2CEC52
:1016100033E042E0A5CF27EE33E041E0A1CF0F93C6
:101620001F93CF93DF93D82F8B01873B19F480E072
:101630006FD954C080798039B1F42091150190910F
:1016400016018D2F8F70823041F480917B018111C2
:1016500008C0822F291728F403C0822F921708F49C
:10166000892F56D90BC0803811F480E051D9D83079
:1016700029F460E080910D01D8D930C0D13039F41F
:101680000931110508F466C0D0939D0102C0D33022
:1016900029F4602F80910D01C8D95CC0D43C71F44D
:1016A000C0917B01CC2319F06C2F70E013C06091C6
:1016B0001C0170E08EE698E056DB4FC0D43B31F45D
:1016C0009CD91092FA0161E070E004C0D53C31F47D
:1016D00066E970E08EE698E046DB3CC0C0911B01F5
:1016E000C1113AC0DA3B31F460E070E08BE09BE07E
:1016F00022DB33C0D73C91F490910D01892F829564
:101700008F708F5F83708295807F9F70892B80930D
:101710000D0160E08AD95ED870D91FC0D73BB1F403
:10172000C8018F739927892B61F490910D01892F3E
:101730008F708F5F292F207F6BE05AD7922B909369
:101740000D01602F80910D0170D907C0D73E21F4A3
:1017500041D803C0C0E001C0C1E08C2FDF91CF9120
:101760001F910F91089586E884B91092C5011092D7
:10177000C60183B1886483B90895F5DFE1E6F0E03E
:10178000808182608083139A87EE83B908951092D6
:10179000C70120B191B130919A01229526952695E5
:1017A0002370892F90E0880F991F880F991F820F4F
:1017B000911D830F80939A018091BC01882309F4C5
:1017C00006C11092BC018091C50190919D019923A1
:1017D00019F01F981092C50181113DC08091200120
:1017E000882349F08091C1019091C2019093BE017C
:1017F0008093BD0104C08091BD019091BE014096CF
:10180000807E9695879561EC72E0FED680911F01EF
:101810008750680F6093BB0180916D01882311F0A0
:10182000815008C06D3140F460E070E084E00E94B7
:10183000280285E080936D0180919D018111BEC0D9
:101840008EE884B981E08093C5011092C60183B10E
:10185000886483B9B3C0813009F0B0C080912001A1
:10186000811143C08091BF019091C001409645E035
:10187000969587954A95E1F76091B801AC01569528
:101880004795062E000C770B9B012E503140240FFC
:10189000351F3093BA012093B90120915C01E22FEA
:1018A000F0E0EE0FFF1FE35AFE4F40815181DC0153
:1018B000A41BB50BAD01918380832F5F277020930C
:1018C0005C019D01220F331F220F331F820F931FD4
:1018D00020911E0130E0261B370B225F3E4F220F66
:1018E000331F821B930B23E01CC08091C301909196
:1018F000C4019093C0018093BF01409635E0969556
:1019000087953A95E1F7EDE5F1E081939193B1E0A8
:10191000ED36FB07D1F7A6CF009709F001962150CD
:1019200029F018161906C4F70197F9CF18161906E9
:10193000E4F457FD39C020915B0112160CF1880FB9
:10194000991FBC016350710977FF02C06F5F7F4F21
:10195000759567951616170614F061E070E088E13A
:10196000861B80935B0185E026C08C3F2FEF92079A
:10197000DCF457FF19C020915B0127FF05C02450FC
:10198000281B20935B0119C024EE281B20935B01C8
:101990002091BB012F3188F06CEF7FEF681B790B32
:1019A0007595679586E007C08091BB018E3128F060
:1019B00060E070E087E00E942802D5DE809120017F
:1019C000882329F08091200181508093200108957F
:1019D0000F931F93CF931092A0018091F8019091E3
:1019E000F9019C012F5F3F4F88279078822B932B22
:1019F0009093F9018093F80190919E012FB1822F6D
:101A00008095881F8827881F80939E01981729F149
:101A100010929D0180939E019091FA01892F27FDDC
:101A20000AC080699F709F3009F08F5F8093FA0130
:101A300080E090E00CC08F7E95FD02C0806801C000
:101A4000806C8093FA018091F8019091F9010E94D5
:101A500079021092F9011092F8010091F8011091A9
:101A6000F90180919D01882379F0B80183E00E94FB
:101A700028020E9442020F731127012B09F046C071
:101A800010925A017ADE32C0C091FA018C2F807F09
:101A9000803B19F460E070E001C0B80181E00E9471
:101AA0002802C4FF13C0C5FF02C0C8010CC0083122
:101AB0001105E0F01092F9011092F801C062C09394
:101AC000FA0180E090E00E94790210C0CC2371F00E
:101AD000C5FD0AC00231110548F0C064C093FA0187
:101AE00080E090E00E9479020E947D0280915A017C
:101AF000811106C083B1886483B981E08093BC0101
:101B000080915A018F5F8F7180935A01CF911F91FD
:101B10000F9108958091C701811139DE8091A00154
:101B2000811156CF0895EF92FF920F931F93CF9399
:101B3000DF93EC0108E017E082ECE82EFF24F39439
:101B40002097D9F080917D01811119C080919C016D
:101B5000843028F482E00E942202C70104C080E0A1
:101B60000E942202C8010197F1F780E00E94220240
:101B7000D1DF0E9442022197E3CF81E001C080E0E3
:101B8000DF91CF911F910F91FF90EF900895CF9328
:101B9000C82F882391F082E30E94880486EA90E0AF
:101BA000C2DF80E00E9488048AEF90E0BCDFC15071
:101BB00091F78AE992E0CF91B6CF82E30E94880440
:101BC00088E090E0B0DF80E00E9488048AEF90E037
:101BD000AADFEFCFCF93DF9364E60AD5282F892FB2
:101BE0006AE006D5EC01222341F0822FD0DF8C2F52
:101BF000CEDF8D2FDF91CF91CACFC111F8CFF9CFB2
:101C0000CF93DF93D82FC3E080911C010E948804FA
:101C10008DE790E088DFDD2319F08AEF90E083DF25
:101C200080E00E9488048DE790E07DDFC15061F77D
:101C3000DF91CF910895DF92EF92FF920F931F9360
:101C4000CF93DF93D82F8B01C0910B0181E080935C
:101C50007001C33009F0DFC0F09075018D2F0E9434
:101C6000B605FF2051F080917501811106C060E03A
:101C700070E08CE597E077D8CEC0D83021F481E0D1
:101C800080930301CAC0D23C19F410927501D4C0EC
:101C9000D13BC1F490910201012B49F4993610F027
:101CA0008FEF03C0923018F481E08093030180919C
:101CB0000301890F11F481E03AC18A3608F437C173
:101CC00089E635C1D13E31F480910301819580933D
:101CD0000301E9C0D23B61F481E08093030180916C
:101CE0000201823008F4E7C0815080930201E3C012
:101CF000D13009F0F1C00932110511F4D09303017C
:101D0000D09051018D2D880FD7FC809590E069E02F
:101D100070E05DD4292FE09050018E2D880FE7FCF4
:101D20008095D09101016D2F70E090E050D4290F83
:101D3000F0904F018F2D880FF7FC8095C091000126
:101D40006C2F70E090E043D4920F6091020170E03C
:101D5000690F711D80917501813091F4809172013C
:101D60009091730125E0969587952A95E1F724E7F0
:101D700030E0A901481B590BCA0129D4B90144D448
:101D8000862F0E94880400FD06C00E949C0281707C
:101D9000D80ED092510180914E01E80EE092500190
:101DA0000E949C0265E224D4F90EF0924F010E9439
:101DB0009C028F7331F40E949C026DE019D49093C1
:101DC0004E01DD2339F00E949C028F7319F4D1502B
:101DD000D09301010E949C02811108C00E949C02C4
:101DE0006DE006D49093010110925001C33038F099
:101DF0000E949C028F7119F4C150C09300010E948F
:101E00009C028F7709F07EC00E949C0267E0F0D3AD
:101E10009093000177C0D83021F481E080930401D1
:101E200088C0D13C39F460E070E08CE597E00E9416
:101E3000B3067FC0D23C49F48C2F90E0019665E058
:101E400070E0F6D380930B014CC0D13B51F5C2300A
:101E500090F400FD6EC0EC2FF0E0E75FFE4F808154
:101E600090910401891B883020F08F3F99F58EEF07
:101E700031C088E02FC0C43009F05BC090910801E8
:101E800080910401890F823010F482E003C0893709
:101E900008F088E780930801809108010E94880477
:101EA00048C0D13E31F480910401819580930401B2
:101EB00018C0D23BA1F481E080930401C23070F5D8
:101EC00000FD37C0EC2FF0E0E75FFE4F80818F3FD1
:101ED00081F18F5F80832DC0D13C09F4A4CFD23E25
:101EE00019F40E94EA0325C0D53C41F460E070E09B
:101EF00082EA9FE00E94B30680E0D0CFD13011F09B
:101F000081E018C00932110519F481E080930401C1
:101F100080919A01080F00939A010BC0C43049F4D4
:101F200080910801833008F4B7CF8150B3CF8093FC
:101F3000020180E0DF91CF911F910F91FF90EF9010
:101F4000DF9008950F931F93CF93DF93D82F8B01CA
:101F5000883031F480917001813011F488E06BDEBB
:101F60008D2F8079803961F481E080936F01C09179
:101F70007001C1110CC080911C010E94880424C012
:101F8000803839F410926F0180E00E948804C0E02C
:101F90001BC0D130C1F4C0916F01CC2351F08091AE
:101FA00070018130A1F7B801DF91CF911F910F919E
:101FB00042CE0733114058F3D0939D0160E080E09A
:101FC0000E94150501C0C1E08C2FDF91CF911F91B8
:101FD0000F9108951F920F920FB60F9211242F9315
:101FE0003F938F939F93AF93BF93EF93FF93809112
:101FF000C6018823E9F0E091C50120B131B1F0E0DC
:10200000EE0FFF1FDF01AF53BE4F2D933C93E35400
:10201000FE4F808191818217930708F4019628175B
:10202000390708F401979183808381E08093C70189
:1020300081E08093C601FF91EF91BF91AF919F9195
:102040008F913F912F910F900FBE0F901F90189579
:102050001F920F920FB60F9211248F9381E08093FD
:10206000A0018F910F900FBE0F901F9018951F9297
:102070000F920FB60F9211248F9381E080939F01EE
:102080008F910F900FBE0F901F901895F89485B701
:10209000877F85BF88ED90E00FB6F894A8958FBD37
:1020A00090B7977F90BF0FBE89E08CB98CE780BB5B
:1020B00082EA8093720081E1809371008FEF90E05B
:1020C000909369008093680080E882BB87BD8CB7DD
:1020D00088608CBFA89580E480BF4FDB789481E056
:1020E0000E94870260E070E083ED96E00E949B060C
:1020F00010927D010E94FD049FB1892F8095881F59
:102100008827881F80939E0197FF0BC082E00E9462
:102110008702F89480E890E09ED2853AB9F17894ED
:10212000B3C0C0E08C2F0E94880483E190E0FBDC08
:102130008C2F86950E94880483E190E0F4DC9FB1A7
:10214000892F8095881F8827881F80939E0197FD7F
:1021500013C0CF5FC03431F765E181E00E94CC034A
:102160000E94EA03C6E98C2F0E94880484E090E074
:10217000DADCC150C1F7CACFCC2341F28C2F0E94C8
:1021800088048DE090E0CFDCC150F6CF0EE711E07F
:10219000C1E8D0E0CE015FD2F80181938F01219692
:1021A000CD39D105B9F7789480917E01809378017B
:1021B00080917F01809315018091800180931201AD
:1021C0008091810180930F0180918201809316019B
:1021D0008091830180931301809184018093100189
:1021E000809185018093170180918601809314016D
:1021F00080918701809311018091880180931B0158
:10220000809189018093790180918A01809377017F
:1022100080918B0180931A0180918C0180937B01C6
:1022200080918D0180937A0180918E0180931D01B0
:1022300080918F0180930B0180919001809309011F
:102240008091910180930A0180919201809308010D
:102250008091930180930C018091940180931E01E1
:10226000809195018093B8018091960180931F0120
:102270008091970180930E018091980180930D01C8
:10228000809199018093710180917B0181118093EC
:102290001C0161E070E08CE597E00E949B0643E43E
:1022A000342E52E0452E60E4562E7724739477E066
:1022B000672ECC24C394D12CFCEF8F2EF3E09F2EFD
:1022C000ACE5AA2EA7E0BA2E0E9442028091A3019B
:1022D0009091A401009751F06091A1017091A20129
:1022E0000E94B3061092A4011092A30180919D0157
:1022F000882309F446C080E00E948804A89530BE77
:102300001F989FB1892F8095881F8827881F8093E9
:102310009E0197FFF6CF0E947D028CB788608CBF2C
:102320001092C7011092A00110929F0180919D010F
:102330008823F9F086B78F79806486BF86B780617D
:1023400086BF889586B78F7E86BF80919F01811159
:1023500010929D018091C701882329F0709220017D
:102360007092BC0114DA8091A0018823F9F230DB6D
:10237000DDCF409220018CB7877F8CBFFED9A89516
:1023800050BEC8DB10927D018091B6019091B701DB
:10239000F3E0863C9F0779F4C0E7D0E0FE0184912A
:1023A0008053F5DB8CE291E0BEDB2196F0E0CC3788
:1023B000DF07A1F7C6C02EE08B31920779F03FE02E
:1023C000823A930709F0B2C080917001813009F020
:1023D000F3C080916F01882309F4EEC0C0910B0116
:1023E000C23011F120F0C43009F483C06DCFEC2F5E
:1023F000F0E0E75FFE4FD08186E90E948804C111BA
:1024000009C0DA3220F4C4010197F1F707C081E076
:1024100090E003C08D2F869590E085DB80E00E94E0
:1024200088048D2F90E0C6C00E949C028F73E82E16
:10243000F12C0E949C02662DDBD0E60102C0CC0F7D
:10244000DD1F9A95E2F70E949C0265E0D1D0F6016B
:1024500002C0EE0FFF1F9A95E2F7CE0FDF1F0E941A
:102460009C0290E0BE01E4D0C80FD91FC739D10546
:1024700014F0C6E9D0E08C2F0E948804C70153DB1A
:102480008E0133E0159507953A95E1F7011101C0EA
:1024900001E010E0C70147DBC01BD10BD7FF02C032
:1024A000C0E0D0E08C2F0E9488040E949C028370C0
:1024B00039F4C70138DBCE01959587950E948804D1
:1024C000C230D1053CF70E949C026DE091D0E6013C
:1024D00002C0CC0FDD1F9A95E2F70E949C0290E0AB
:1024E000BE0192D0C80FD91F80E00E948804CE019F
:1024F00061C0C0910801CC0FC73908F0C6E9D4E02B
:102500008C2F0E94880485E090E00DDB809108010B
:102510000E94880481E490E006DBD15089F780EDC9
:1025200092E001DB80E00E948804CECEF7E08232A8
:102530009F0781F48091BB014DDB80911B018823B3
:1025400081F0B092A401A092A3011092A201109276
:10255000A101BACE27E08234920731F48091B9010B
:1025600039DB88EE93E026C036E0893F9307B9F463
:1025700080919E018111A8CE80911C010E94880447
:1025800084E690E0D0DA80E00E94880480910C011B
:1025900090E068EE73E01BD0845691090BC0815C1B
:1025A000964051F480E02CDB81E02ADB80E028DBE0
:1025B00081E792E0B8DA88CE86B78F7986BF86B792
:1025C000806186BF889586B78F7E86BF7DCE0024CA
:1025D000552704C0080E591F880F991F009729F02E
:1025E00076956795B8F37105B9F7802D952F089505
:1025F000991B79E004C0991F961708F0961B881F55
:102600007A95C9F780950895AA1BBB1B51E107C0B5
:10261000AA1FBB1FA617B70710F0A61BB70B881F72
:10262000991F5A95A9F780959095BC01CD01089501
:1026300097FB072E16F4009406D077FD08D0E4DF50
:1026400007FC05D03EF4909581959F4F08957095B5
:1026500061957F4F0895E199FECF1FBA8EBBE09A36
:1026600099278DB30895262FE199FECF1FBA8EBB0F
:10267000E09A81500DB2021639F01CBA2DBB0FB68C
:0E268000F894E29AE19A0FBE0895F894FFCF05
:10268E00070D1801010100048229430302371801C6
:10269E0007058282820A0A0A820A010146152D075F
:1026AE0002050403150112010F01020100000000D2
:1026BE0000000001000000000000000001000021E9
:0E26CE000123022503270429052C06FF060020
:00000001FF
