:100000006DC1000088C100000C943B0F84C100004A
:1000100082C100000C942C0F7EC100007CC1000046
:100020007AC1000078C1000076C1000074C10000F0
:1000300072C1000070C100000C94EE0E6CC1000093
:100040006AC1000068C1000066C1000064C1000010
:1000500062C1000060C100005EC100005CC1000020
:100060005AC1000058C1000056C1000054C1000030
:10007000323032313132303830333134000105041E
:100080001410111500000000000000000000000026
:100090000000000000000000000000000000000060
:1000A0000000000000000000000000000000000050
:1000B0000000000000000000000000000000000040
:1000C0000000000000000000000000000000000030
:1000D0000000000000000000000000000000000020
:1000E0000000000000000000000000000000000010
:1000F0000000000000000000000000000000000000
:1001000000000000000000000000000000000000EF
:1001100000000000000000000000000000000000DF
:1001200000000000000000000000000000000000CF
:1001300000000000000000000000000000000000BF
:1001400000000000000000000000000000000000AF
:10015000000000000000000000000000000000009F
:10016000000000000000000000000000000000008F
:10017000000000000000000000000000000000007F
:10018000000000000000000000000000000000006F
:10019000000000000000000000000000000000005F
:1001A0000000000000000000000000000000FF034D
:1001B0000100010001000100020002000200020033
:1001C000030003000300040004000500050006000E
:1001D000060007000800080009000A000B000C00D8
:1001E0000D000E000F001000110012001400150089
:1001F000170018001A001B001D001F00210023001B
:100200002500270029002B002D003000320035008A
:1002100038003A003D004000430046004A004D00CF
:100220005000540058005B005F00630067006C00E2
:100230007000740079007D00820087008C009100BE
:1002400096009C00A100A700AD00B200B800BF005E
:10025000C500CB00D200D900DF00E600EE00F500BB
:10026000FC0004010C0113011B0124012C013401C9
:100270003D0146014F01580161016B0174017E018E
:10028000880192019D01A701B201BD01C801D301FE
:10029000DE01EA01F60102020E021A02270233020F
:1002A00040024D025B026802760284029202A002C2
:1002B000AF02BE02CD02DC02EB02FB020A031A030C
:1002C0002B033B034C035D036E037F039103A303E6
:1002D000B503C703D903EC03FF03000011241FBEBD
:1002E000CFEFD4E0DEBFCDBF11E0A0E0B1E0E6E6A5
:1002F000F7E202C005900D92AC34B107D9F721E0C6
:10030000ACE4B1E001C01D92A73FB207E1F70E9443
:100310004A0F0C94B11374CE482F9B01E4ECF1E02A
:1003200080E090E05081552331F001963396803182
:100330009105C1F70AC063E070E00E94C711FC019B
:10034000EC53FE4F40833283218308950F931F9314
:10035000CF93DF93D091C401DD2351F10091C5010A
:100360001091C601C091A101C150C7FD0DC0EC2F75
:10037000EE0FFF0BEE55FE4F0190F081E02DB8011E
:100380008D2F09958111F0CFE4ECF1E0838180831A
:100390008481958192838183339681E0E13FF807E0
:1003A000A9F71092F1011092F3011092F201D2CF4D
:1003B000DF91CF911F910F910895BC018091F601BB
:1003C000ABCF1092F6011092F5011092F40181E08A
:1003D00080937A01089528E13FE1815020F0F901EE
:1003E0003197F1F7FACF08958FB182FB882780F912
:1003F00091E0892780939A010895E0910601F09198
:1004000007013196FB70F460F0930701E093060159
:10041000809196018B5A80939601E4918091960188
:100420008E0F08950F931F93CF93DF9300D01F92E9
:10043000CDB7DEB7209120013091210140912201FA
:1004400029833A834B83FE01319640E050E090E0EF
:1004500061E070E0B1919A01220F331F8C0102C05C
:10046000159507952A95E2F79801237061F02130E0
:10047000D1F4A0B39B0101C0220FBA95EAF7322F45
:1004800030953A2318C0A0B39B0101C0220FBA9542
:10049000EAF720953A2F322330BB32B3322332BBF6
:1004A00031B323230EC0A0B39B0101C0220FBA9524
:1004B000EAF73A2F322B30BB32B3322B32BB31B397
:1004C000232B21BB4F5F5F4F4330510519F60F902F
:1004D0000F900F90DF91CF911F910F910895CF93BF
:1004E000DF9300D000D000D0CDB7DEB7909175017A
:1004F0002091B2013091B301265F394009F492E0B6
:10050000843019F46093760121C06623F9F08230BB
:1005100019F427E9261B622F26E0E3E2F1E0DE0171
:10052000119601900D922A95E1F7E82FF0E03197AE
:10053000EE0FFF1F21E030E02C0F3D1FE20FF31FF5
:100540000190F081E02DE90FF11D608326960FB632
:10055000F894DEBF0FBECDBFDF91CF910895BF925B
:10056000CF92DF92EF92FF920F931F93CF93DF937F
:10057000EC0140917501E0911B01EE2311F082E046
:1005800001C0842F90E0DC01AB5EBE4F2C91209324
:100590001901DC01AE5EBE4F8C9180931801F0E032
:1005A000E15FFE4F3181622F70E0442349F031302A
:1005B00039F49B01280F311DC9019595879538C0E5
:1005C000C617D707A4F1682F70E06C177D0784F178
:1005D000411102C08C2F2CC0821B032F10E0015050
:1005E0001109E82EF12CC701B8010E94F81160939F
:1005F00073016695E62FF0E0822FC12CD12CB12C2F
:10060000B316B1F0C601B8010E94E411822F860F23
:10061000CE0CDF1CAE01481B510957FF03C051959A
:1006200041955109E417F5071CF4B394E9CF822FE3
:10063000DF91CF911F910F91FF90EF90DF90CF90BE
:10064000BF9008950F931F93CF93E82F8091B70128
:100650009FEF980F9C3110F480E077C0CE2FC295A9
:10066000CF70EF7090919901911103C0C33008F0E1
:10067000C2E0E73008F441C0E730A9F4009151012D
:1006800010E00F5F1F4FB9DE65E00E94D81198019E
:10069000290F311DC90166E070E00E94F8118093B6
:1006A0005101FC0135C0E830B1F4809199018823F3
:1006B00011F08FE001C083E0682351F48091510173
:1006C00090E0019666E070E00E94F811809351017D
:1006D000E091510112C090919901992381F08D31DF
:1006E000D8F090E0E92FF0E0E45CFE4F2081821723
:1006F00010F09E5FF7CF3197E081F0E009C0862FC0
:10070000869563E00E94D811E92FF0E0EE0FFF1FFD
:10071000E358FF4FE49101C0E0E0C33071F48091F1
:10072000500190E0019663E170E00E94E411809333
:100730005001DC01A75DBE4FCC91CC2321F0C1302C
:1007400019F0EE0F01C0E0E08E2FCF911F910F91B5
:1007500069CE81E00895611160931E0108956623BA
:1007600089F0813061F48091B5019091B401891BC9
:10077000681B6093B40182E080931F0103C0635E35
:1007800060931D0180911D01873418F086E48093E9
:100790001D01089560936E0108950F931F93CF93E9
:1007A000DF938091750180937B0180911501809387
:1007B0007C018091120180937D0180910F018093D3
:1007C0007E018091160180937F01809113018093B7
:1007D00080018091100180938101809117018093A5
:1007E0008201809114018093830180911101809393
:1007F000840180911B018093850180917601809313
:100800008601809174018093870180911A01809301
:10081000880180917801809389018091770180938C
:100820008A0180910B0180938B0180910901809353
:100830008C0180910A0180938D0180910801809341
:100840008E0180910C0180938F0180911D01809316
:1008500090018091B4018093910180911E01809359
:10086000920180910E018093930180910D018093FC
:10087000940180916E018093950182E0ACDDF89443
:100880000BE711E0C1E8D0E0F80161918F01CE01E2
:100890000E949F132196CC39D105B1F765EA80E813
:1008A00090E00E949F137894DF91CF911F910F9158
:1008B0000895CF93C82F80939801809397018091DA
:1008C0009901811101C0AEDDC1110AC010926B0007
:1008D00010926A0010926D0010926C008F981CC0EC
:1008E000C150C53910F48F9A01C08F988C2F90E0B9
:1008F000880F991FFC01E055FE4F259134913093EC
:100900006B0020936A00FC01EC57FF4F8591949196
:1009100090936D0080936C00CF910895809379013E
:10092000C8CFCF93C091980189E18C0F873908F027
:1009300080E0BFDF82E04FDD8C2FCF91BACFCF9325
:10094000C091980180E0B5DF83E045DD8C2FCF9129
:10095000B0CF813019F4109278010895823019F4E3
:10096000609377010895833019F4609374010895BA
:10097000843011F460931A010895CF93C0911B0144
:10098000C1114AC0883039F410927201109270017E
:1009900010926F0142C0813B59F4809172018150E5
:1009A0008330D0F583E0809372018093710134C06D
:1009B000853BB1F4CB016EE370E00E94E411892B1A
:1009C00061F5809172018A3F40F58B5F80937201DF
:1009D000809371011092700110926F01A2DF1DC00F
:1009E0008130D1F480916F01909170010196883827
:1009F0002EE0920728F49093700180936F010DC050
:100A00001092700110926F0180917201882329F079
:100A100081508093720101C0C1E08C2FCF91089565
:100A2000FF920F931F93CF93DF938C01EB01F42E72
:100A30008091B2019091B301892B31F0E091B20124
:100A4000F091B30189E009951093B3010093B201CD
:100A5000012B39F0E091B201F091B301BE018F2D6D
:100A6000099581E080937A01DF91CF911F910F91D9
:100A7000FF900895CF93DF93E091A101EE2359F009
:100A8000E150E093A101F0E0EE0FFF1FEE55FE4FA5
:100A9000C081D18102C0C0E0D0E0E091A101EE238D
:100AA00041F0F0E0EE0FFF1FE056FE4F8081918194
:100AB00002C080E090E04AE060E070E0B1DFCE018B
:100AC000DF91CF910895883029F410926B01109234
:100AD000520115C08130F9F490915201911107C073
:100AE0006032710568F1809352016BDC29C091304E
:100AF00081F46B3B710528F082E08093520180E025
:100B00001EC061157105E1F06270862F880F8E5E40
:100B100016C0B0DF15C0813811F0813E89F491E034
:100B200090935201813E21F480916B01865F03C056
:100B300080916B018F5F80936B0143DC8BE4B9DEA6
:100B400080E008959C019091A101983088F4E92FEC
:100B5000F0E0EE0FFF1FEE55FE4F318320839F5FC5
:100B60009093A10148E0C9015BDF8091A101089544
:100B70008FEF08950F931F93CF93DF93EC018B01B9
:100B800079DFB801CE01DF91CF911F910F91DACFBC
:100B9000813C29F460E070E083E696E006C0823C88
:100BA00039F460E070E089E296E0E4DF80E00895E7
:100BB00081E00895843011F58091B2019091B301E4
:100BC0002DE08F31920729F469E170E08CE697E01F
:100BD00013C08C56974061F490919801923040F088
:100BE000892F869596959695890F98DE80E00895D1
:100BF00060E070E083E696E0BDDFF8CF81E0089525
:100C0000813C29F460E070E083E696E006C0823C17
:100C100031F460E070E088EC95E0ACDF16C0813B19
:100C200049F4CB016EE370E00E94E411892B69F472
:100C300078DE0BC0813E59F4CB016EE370E00E9478
:100C4000E4116F5F60930C01A8DD80E0089581E0FE
:100C50000895CF93C0911B01C11117C0813C29F4A5
:100C600060E070E083E696E006C0823C31F460E02C
:100C700070E089E496E07EDF09C0873B31F460E0F4
:100C800070E08EEF99E05EDF01C0C1E08C2FCF9164
:100C90000895813C29F460E070E083E696E006C0A8
:100CA000823C31F460E070E080E096E063DF07C0F2
:100CB000873B39F460E070E082E09AE043DF80E057
:100CC000089581E008950F931F93CF938B0188308F
:100CD00079F480E0EEDD60E080910E01B3DC1092EB
:100CE0007201012B19F481E080939901C0E0EFC0FB
:100CF000813049F469317105C8F38093990180917D
:100D00000E01A0DCF3CF833009F520917801222376
:100D100061F08091770190E062EC71E00E94C71170
:100D20000817190710F020931C01602F80910E0105
:100D300089DC80916E018823C9F290E062EC71E059
:100D40000E94C7118017910788F64DC0813B99F426
:100D500081E090E004DCADDD809174018111C6CFAB
:100D600080917501811104C00831110508F4BECFCE
:100D700061E070E028C0813ED9F3813821F4809190
:100D80001C0190E013C0813C21F46091980170E057
:100D90001AC0823B79F480911A0190911B01911144
:100DA00080917601811104C086E990E0D8DB05C00E
:100DB00086E903C0823E19F480E07BDD97CF823C58
:100DC00031F466E970E08CE697E0D4DE8FCF8339AA
:100DD00099F3833C29F460E070E089E296E0F5CF76
:100DE000843C31F49EDD60E070E08AE09AE0EDCF73
:100DF0008D3B41F4F89488ED8FBD88E880BF7894EE
:100E0000A895FFCF8F3C29F460E070E089EA93E079
:100E1000DCCFC0911B018A3B79F4672B69F4CC23AA
:100E200029F07FDD10921B01B8DC60CF60E070E03C
:100E300086EF99E087DE4BC0C11148C08A3C29F497
:100E400070DD81E080931B013FC0833B29F460E0AB
:100E500070E08FE19DE007C0853C39F462DD60E021
:100E600070E086EA9EE086DE32C0873C91F4909185
:100E70000E01892F82958F708F5F83708295807F9E
:100E80009F70892B80930E0160E0DCDB86DC49DDFE
:100E90001EC0873BB9F4C8018F739927892B69F469
:100EA00090910E01892F8F708F5F292F207F6BE02B
:100EB0000E94D811922B90930E01602F80910E0109
:100EC000C1DB05C0873E11F468DC01C0C1E08C2F96
:100ED000CF911F910F910895AF92BF92CF92DF9261
:100EE000EF92FF920F931F93CF93DF93182FEB0195
:100EF000D0901901F0901801B0907501BB2019F045
:100F0000C090730102C0CC24C39480911A01009157
:100F10001B01011180917601882349F0813021F075
:100F200080911C018F1518F0A6E9EA2E01C0EF2C64
:100F3000A0907201BE01812F20DD609172016623B5
:100F400039F0A1100CC0809198018093560107C020
:100F5000AA2029F060E070E083E696E039C0812F96
:100F60008D7F8830D9F410926D011A3019F4C09138
:100F70001C01D0E08D2D90E08C179D0738F48F2D4B
:100F800090E0C817D90710F4C0931C01CE01E7DA2E
:100F9000C5DC81E08093050100E0D5C1113CD1F2B0
:100FA000123C71F4809198018E1510F48E2D02C0C0
:100FB00080911C01B3DC8091980180935601ECCFA5
:100FC000143C41F480E075DC60E070E08AE09AE077
:100FD000D1DDE2CF8FE4810F823008F054C0BB2016
:100FE00041F0CE0168E170E00E94E411892B31F0FC
:100FF000D3CF60910F0170E0CE01F6CF2091980120
:10100000209761F4123B11F48FEF05C02F15E0F724
:10101000D21608F181E0809305011DC0E0910F0117
:10102000F0E0CF0166E371E00E94C7118C179D07C5
:1010300010F42F1548F7CF016CE672E00E94C7113B
:101040008C179D0740F4D21630F06BDC60E070E046
:101050008AE09AE08FDDD0919801809105016C2D96
:1010600070E0082E000C990B0E94C7118D0F911D86
:1010700076DAC82F80931C01D81719F0F81201C036
:101080005EDC8C2F97CF8FE1810F823020F480912E
:10109000050181957FCF113009F0CEC0A99711F4D9
:1010A000109305016623A1F08091560170E0615014
:1010B000710990E00E94C7116091710170E00E9477
:1010C000F811611101C061E06093970160937901AB
:1010D000C0919701209198018C2F90E0821B91097B
:1010E00060915401709155016F5F7F4F709355016E
:1010F00060935401009709F44FCF97FF05C02D3836
:1011000030F040E450E005C040E052E002C040E072
:1011100051E05695479597FD0196959587950097CF
:10112000C1F74617570708F037CFC21710F48FEFF3
:1011300003C02C1718F481E0820F01C08C2F9FEFA1
:10114000980F492F50E0440F551FBA0160557E4F4C
:10115000FB01A591B491921778F420916A00309127
:101160006B00232B49F4AF3F93E0B90729F4B09308
:101170006B00A0936A001FC020916A0030916B0041
:101180002A173B0738F420916A0030916B002F5FDB
:101190003F4F0DC020916A0030916B00A217B3073A
:1011A00050F420916A0030916B0021503109309346
:1011B0006B0020936A009A012C573F4FF90145912B
:1011C0005491E0916C00F0916D00E417F50738F44C
:1011D00040916C0050916D004F5F5F4F0DC0E091EA
:1011E0006C00F0916D004E175F0750F440916C0059
:1011F00050916D004150510950936D0040936C0027
:10120000A0916A00B0916B00FB0145915491A41725
:10121000B50769F440916C0050916D00F90125917A
:1012200034914217530719F444DBC093970110928D
:10123000550110925401B0CE1530A9F48091980157
:10124000863908F4A9CE90E08C1B9D0B282F853998
:1012500091052CF08739910518F026E901C025E9A0
:101260002093970199CE1630B1F490919801809116
:101270007901981708F090CEC90FD11D90E08C1716
:101280009D0734F0C539D10524F4C5E9D0E001C08B
:10129000EC018C2F0EC0173079F49091970180915A
:1012A0009801891710F48F5F04C0981708F074CE66
:1012B00081508093970170CE011144C0133C99F482
:1012C00081E0B11080E08093750167DA38DB8091AE
:1012D000980190E044D980931C0120DB8091980113
:1012E0008093560130C0133B29F4CD2B09F054CE26
:1012F0008E2D04C0133E21F480911C010FDB23C00E
:10130000153C41F480E0D5DA60E070E086EA9EE0CA
:1013100031DC19C0173B29F460E070E082EF99E0FE
:101320000FC01A3C39F4809198018093780135DA26
:10133000F8DA09C01A3B31F460E070E08AEF99E016
:1013400001DC01C001E0802FDF91CF911F910F914F
:10135000FF90EF90DF90CF90BF90AF9008958830CE
:1013600061F41092530180E0A4DA80919A01811116
:1013700037C081E08093530123C0982F907F903B2A
:10138000B9F420915301421780F0CB016DE570E074
:101390000E94E411029739F42F5F20935301421702
:1013A000F8F088E303C082E101C080E082DA18C06F
:1013B000903E61F480915301882389F0481778F0BA
:1013C00060E070E083E695E0BDDB0AC08A3041F45E
:1013D00060916B0180915301F9010995DED94ADBD7
:1013E00080E008952FE632E043E0B9CF2FE632E007
:1013F00044E0B5CF29EA34E044E0B1CF2BEA33E052
:1014000041E0ADCF2FEA33E042E0A9CF2AEC33E050
:1014100041E0A5CF0F931F93CF93DF93D82F8B017C
:10142000873B19F480E045DA54C080798039B1F403
:1014300020911501909116018D2F8F70823041F40B
:1014400080917801811108C0822F291728F403C0E8
:10145000822F921708F4892F2CDA0BC0803811F4F0
:1014600080E027DAD83029F460E080910D01EAD8D5
:1014700030C0D13039F40931110508F466C0D09379
:10148000990102C0D33029F4602F80910D01DAD880
:101490005CC0D43C71F4C0917801CC2319F06C2F5E
:1014A00070E013C060911C0170E08CE697E062DB95
:1014B0004FC0D43B31F435DA1092F60161E070E0B0
:1014C00004C0D53C31F466E970E08CE697E052DB6D
:1014D0003CC0C0911B01C1113AC0DA3B31F460E05D
:1014E00070E086E09AE02EDB33C0D73C91F4909117
:1014F0000D01892F82958F708F5F83708295807F19
:101500009F70892B80930D0160E09CD846D909DA41
:101510001FC0D73BB1F4C8018F739927892B61F4A1
:1015200090910D01892F8F708F5F292F207F6BE0A5
:101530003FD7922B90930D01602F80910D0182D89F
:1015400007C0D73E21F429D903C0C0E001C0C1E0E3
:101550008C2FDF91CF911F910F91089585E084B971
:101560001092C1011092C20183B1886483B90895B9
:10157000F5DFE1E6F0E0808181608083139A86EEFA
:1015800083B90895CF92DF92EF92FF921F93CF938A
:10159000DF931092C30120B191B130919601229551
:1015A000269526952370892F90E0880F991F880F24
:1015B000991F820F911D830F809396018091B8012E
:1015C000882309F41DC11092B8018091C101909146
:1015D0009901992319F01F981092C10181113DC002
:1015E00080911F01882349F08091BD019091BE0137
:1015F0009093BA018093B90104C08091B901909190
:10160000BA014096807E969587956EE872E0DCD6AA
:1016100080911E018750680F6093B70180916A0125
:10162000882311F0815008C06D3140F460E070E013
:1016300084E00E948C0185E080936A018091990189
:101640008111D5C08BE084B981E08093C1011092F3
:10165000C20183B1886483B9CAC0813009F0C7C0B0
:1016600080911F0181115AC08091BB019091BC01F2
:101670004096EC0145E0D695C7954A95E1F7109163
:10168000B401BE01769567956D5C710980E090E0CC
:10169000C0D728E431EE42E850E422D720E030E021
:1016A000A901BAD66B017C01612F012E000C770BCA
:1016B000880B990BB0D79B01AC01C701B601ACD622
:1016C00077D77093B6016093B50180915901E82FE7
:1016D000F0E0EE0FFF1FE65AFE4F20813181AE0190
:1016E000421B530BD183C0838F5F87708093590156
:1016F000CA01880F991F880F991F20911D0130E0A2
:101700002D5E3E4F211B310917FD3395220F331FEC
:10171000821B930B8C0F9D1F23E01CC08091BF0187
:101720009091C0019093BC018093BB01409635E03D
:10173000969587953A95E1F7EAE5F1E081939193E3
:1017400021E0EA36F207D1F78FCF009709F0019632
:10175000215029F018161906C4F70197F9CF181669
:101760001906E4F457FD39C02091580112160CF106
:10177000880F991FBC016350710977FF02C06F5F2A
:101780007F4F759567951616170614F061E070E0A7
:1017900088E1861B8093580185E026C08C3F2FEF9F
:1017A0009207DCF457FF19C02091580127FF05C0AC
:1017B0002450281B2093580119C024EE281B209385
:1017C00058012091B7012F3188F06CEF7FEF681B33
:1017D000790B7595679586E007C08091B7018E31CA
:1017E00028F060E070E087E00E948C01B7DE809115
:1017F0001F01882329F080911F01815080931F01D0
:10180000DF91CF911F91FF90EF90DF90CF900895DF
:101810000F931F93CF9310929C018091F4019091AC
:10182000F5019C012F5F3F4F88279078822B932BE7
:101830009093F5018093F401C0919A010E94F40104
:10184000C81731F11092990180939A019091F60195
:10185000882359F0892F80699F709F3009F08F5F2E
:101860008093F60180E090E00DC0892F8F7E95FD7A
:1018700002C0806801C0806C8093F6018091F40101
:101880009091F5010E94DD011092F5011092F40192
:101890000091F4011091F50180919901882379F06C
:1018A000B80183E00E948C010E94A6010F731127EA
:1018B000012B09F046C0109257015ADE32C0C09188
:1018C000F6018C2F807F803B19F460E070E001C04E
:1018D000B80181E00E948C01C4FF13C0C5FF02C0A3
:1018E000C8010CC008311105E0F01092F50110920A
:1018F000F401C062C093F60180E090E00E94DD0137
:1019000010C0CC2371F0C5FD0AC00231110548F0AA
:10191000C064C093F60180E090E00E94DD010E9467
:10192000E10180915701811106C083B1886483B9B8
:1019300081E08093B801809157018F5F8F71809310
:101940005701CF911F910F9108958091C30181118B
:1019500019DE80919C0181115BCF08950F931F9335
:10196000CF93DF93EC0108E017E0209761F08091BE
:101970007A012197811109C0C8010197F1F7E5DFCC
:101980000E94A601F2CF81E001C080E0DF91CF91FB
:101990001F910F910895CF93C82F882391F089E16B
:1019A0000E94590486EA90E0D9DF80E00E94590441
:1019B0008AEF90E0D3DFC15091F78AE992E0CF91AE
:1019C000CDCF89E10E94590488E090E0C7DF80E034
:1019D0000E9459048AEF90E0C1DFEFCFCF93DF93ED
:1019E00064E6E6D4282F892F6AE0E2D4EC012223B2
:1019F00041F0822FD0DF8C2FCEDF8D2FDF91CF9162
:101A0000CACFC111F8CFF9CFCF93DF93D82FC3E05E
:101A100080911C010E9459048DE790E09FDFDD2337
:101A200019F08AEF90E09ADF80E00E9459048DE778
:101A300090E094DFC15061F7DF91CF910895DF927C
:101A4000EF92FF920F931F93CF93DF93D82F8B01C9
:101A5000C0910B0181E080936D01C33009F0DFC0BC
:101A6000F09072018D2F0E94BD04FF2051F08091F3
:101A70007201811106C060E070E083E696E07AD8DA
:101A8000CEC0D83021F481E080930301CAC0D23C9B
:101A900019F410927201D4C0D13BC1F490910201AB
:101AA000012B49F49E3610F08FEF03C0923018F4EA
:101AB00081E08093030180910301890F11F481E09B
:101AC0003AC18F3608F437C18EE635C1D13E31F4C4
:101AD00080910301819580930301E9C0D23B61F4B9
:101AE00081E08093030180910201823008F4E7C015
:101AF000815080930201E3C0D13009F0F1C0093276
:101B0000110511F4D0930301D0904F018D2D880F52
:101B1000D7FC809590E067E070E039D4292FE09001
:101B20004E018E2D880FE7FC8095D09101016D2F1D
:101B300070E090E02CD4290FF0904D018F2D880F8C
:101B4000F7FC8095C09100016C2F70E090E01FD4ED
:101B5000920F6091020170E0690F711D8091720116
:101B6000813091F480916F019091700125E09695FC
:101B700087952A95E1F724E730E0A901481B590B26
:101B8000CA0105D4B90120D4862F0E94590400FD52
:101B900006C00E94FD018170D80ED0924F01809145
:101BA0004C01E80EE0924E010E94FD0165E200D476
:101BB000F90EF0924D010E94FD018F7331F40E94E5
:101BC000FD016DE0F5D390934C01DD2339F00E94C7
:101BD000FD018F7319F4D150D09301010E94FD01D2
:101BE000811108C00E94FD016BE0E2D390930101D6
:101BF00010924E01C33038F00E94FD018F7119F42C
:101C0000C150C09300010E94FD018F7709F07EC092
:101C10000E94FD0166E0CCD39093000177C0D830DC
:101C200021F481E08093040188C0D13C39F460E064
:101C300070E083E696E00E94BA057FC0D23C49F48A
:101C40008C2F90E0019665E070E0D2D380930B0179
:101C50004CC0D13B51F5C23090F400FD6EC0EC2F6A
:101C6000F0E0E75FFE4F808190910401891B88308E
:101C700020F08F3F99F58EEF31C088E02FC0C4303F
:101C800009F05BC09091080180910401890F8230B6
:101C900010F482E003C0893708F088E780930801D8
:101CA000809108010E94590448C0D13E31F48091CE
:101CB000040181958093040118C0D23BA1F481E016
:101CC00080930401C23070F500FD37C0EC2FF0E0C6
:101CD000E75FFE4F80818F3F81F18F5F80832DC052
:101CE000D13C09F4A4CFD23E19F40E94CD0325C003
:101CF000D53C41F460E070E086EA9EE00E94BA05BF
:101D000080E0D0CFD13011F081E018C00932110548
:101D100019F481E08093040180919601080F0093EB
:101D200096010BC0C43049F480910801833008F457
:101D3000B7CF8150B3CF8093020180E0DF91CF9184
:101D40001F910F91FF90EF90DF9008950F931F93D5
:101D5000CF93DF93D82F8B01883031F480916D01C0
:101D6000813011F488E06BDE8D2F8079803961F449
:101D700081E080936C01C0916D01C1110CC0809114
:101D80001C010E94590424C0803839F410926C015F
:101D900080E00E945904C0E01BC0D130C1F4C09162
:101DA0006C01CC2351F080916D018130A1F7B80115
:101DB000DF91CF911F910F9142CE0733114058F31D
:101DC000D093990160E080E00E94220301C0C1E04D
:101DD0008C2FDF91CF911F910F9108951F920F9239
:101DE0000FB60F9211242F933F938F939F93AF932E
:101DF000BF93EF93FF938091C2018823E9F0E091B4
:101E0000C10120B131B1F0E0EE0FFF1FDF01A3549B
:101E1000BE4F2D933C93E754FE4F808191818217F2
:101E2000930708F401962817390708F4019791835E
:101E3000808381E08093C30181E08093C201FF91A0
:101E4000EF91BF91AF919F918F913F912F910F9003
:101E50000FBE0F901F9018951F920F920FB60F9202
:101E600011248F9381E080939C018F910F900FBE7E
:101E70000F901F9018951F920F920FB60F9211247A
:101E80008F9381E080939B018F910F900FBE0F90F5
:101E90001F901895F89485B7877F85BF88ED90E0EF
:101EA0000FB6F894A8958FBD90B7977F90BF0FBEDF
:101EB00088E08CB988EF80BB83EA8093720081E070
:101EC0008093710084E082BB87BD8CB788608CBF33
:101ED000A89580E480BF4CDB789481E00E94EB0100
:101EE00060E070E08AED95E00E94A20510927A0110
:101EF0000E9491040E94F40181110BC082E00E94B3
:101F0000EB01F89480E890E012D4853A89F1789456
:101F1000A9C0C0E08C2F0E94590483E190E01EDD2F
:101F20008C2F86950E94590483E190E017DD0E9472
:101F3000F401882399F0CF5FC03461F765E181E057
:101F40000E94AF030E94CD03C6E98C2F0E94590462
:101F500084E090E003DDC150C1F7D0CFCC2371F213
:101F60008C2F0E9459048DE090E0F8DCC150F6CF30
:101F70000BE711E0C1E8D0E0CE01D9D3F80181939D
:101F80008F012196CC39D105B9F7789480917B01E6
:101F90008093750180917C018093150180917D0172
:101FA0008093120180917E0180930F0180917F01C7
:101FB00080931601809180018093130180918101AB
:101FC0008093100180918201809317018091830199
:101FD0008093140180918401809311018091850187
:101FE00080931B0180918601809376018091870107
:101FF000809374018091880180931A0180918901F6
:102000008093780180918A018093770180918B0180
:1020100080930B0180918C018093090180918D0147
:1020200080930A0180918E018093080180918F0135
:1020300080930C018091900180931D01809191010A
:102040008093B4018091920180931E01809193014D
:1020500080930E018091940180930D0180919501F0
:1020600080936E0180917801811180931C0161E061
:1020700070E083E696E00E94A20543E4442E52E01D
:10208000552E60E4862E9924939477E0772ECC2405
:10209000C394D12CF5E06F2EA3E6AA2EA6E0BA2EAB
:1020A0000E94A60180919F019091A001009751F09C
:1020B00060919D0170919E010E94BA051092A0014D
:1020C00010929F0180919901882309F440C080E01B
:1020D0000E945904A89540BE1F980E94F4018111E6
:1020E000FCCF0E94E1018CB788608CBF1092C301C5
:1020F00010929C0110929B01809199018823F9F024
:1021000086B78F79806486BF86B7806186BF8895E1
:1021100086B78F7E86BF80919B01811110929901B5
:102120008091C301882329F090921F019092B801F9
:1021300029DA80919C018823F9F26ADBDDCF509285
:102140001F018CB7877F8CBF13DAA89580BEFDDB9B
:1021500010927A018091B2019091B301F3E0893A33
:102160009F0779F4C0E7D0E0FE018491805313DC2F
:102170008CE291E0F3DB2196F0E0CC37DF07A1F7AA
:10218000C0C02DE08F31920779F03EE0863A930788
:1021900009F0ACC080916D01813009F0EDC08091F3
:1021A0006C01882309F4E8C0C0910B01C230E1F052
:1021B00020F0C43009F47DC073CFEC2FF0E0E75F6E
:1021C000FE4FD08186E90E945904C11103C084E00A
:1021D00090E003C08D2F869590E0C0DB80E00E94E8
:1021E00059048D2F90E0C6C00E94FD018F73E82E28
:1021F000F12C0E94FD01672DDBD0E60102C0CC0F5F
:10220000DD1F9A95E2F70E94FD01662DD1D0F601FF
:1022100002C0EE0FFF1F9A95E2F7CE0FDF1F0E945C
:10222000FD0190E0BE01E4D0C80FD91FC739D10528
:1022300014F0C6E9D0E08C2F0E945904C7018EDB50
:102240008E0133E0159507953A95E1F7011101C02C
:1022500001E010E0C70182DBC01BD10BD7FF02C039
:10226000C0E0D0E08C2F0E9459040E94FD018370D1
:1022700039F4C70173DBCE01959587950E94590407
:10228000C230D1053CF70E94FD016DE091D0E6011E
:1022900002C0CC0FDD1F9A95E2F70E94FD0190E08D
:1022A000BE0192D0C80FD91F80E00E945904CE0110
:1022B00061C0C0910801CC0FC73908F0C6E9D4E06D
:1022C0008C2F0E94590485E090E048DB8091080142
:1022D0000E94590481E490E041DBD15089F780ED00
:1022E00092E03CDB80E00E945904DACEF6E08932CD
:1022F0009F0781F48091B70171DB80911B018823D6
:1023000081F0B092A001A0929F0110929E011092C4
:102310009D01C6CE26E08934920731F48091B50143
:102320005DDB88EE93E026C036E080309307B9F499
:1023300080919A018111B4CE80911C010E945904B0
:1023400084E690E00BDB80E00E94590480910C0150
:1023500090E068EE73E01BD0845691090BC0885C56
:10236000954051F480E050DB81E04EDB80E04CDBB7
:1023700081E792E0F3DA94CE86B78F7986BF86B78D
:10238000806186BF889586B78F7E86BF89CE002400
:10239000552704C0080E591F880F991F009729F070
:1023A00076956795B8F37105B9F7802D952F089547
:1023B000991B79E004C0991F961708F0961B881F97
:1023C0007A95C9F780950895AA1BBB1B51E107C0F8
:1023D000AA1FBB1FA617B70710F0A61BB70B881FB5
:1023E000991F5A95A9F780959095BC01CD01089544
:1023F00097FB072E16F4009406D077FD08D0E4DF93
:1024000007FC05D03EF4909581959F4F08957095F7
:1024100061957F4F08955058BB27AA270ED04DC114
:102420003ED130F043D120F031F49F3F11F41EF43F
:1024300033C10EF4E095E7FB29C1E92F4FD180F3BA
:10244000BA17620773078407950718F071F49EF5B1
:1024500067C10EF4E0950B2EBA2FA02D0B01B90128
:1024600090010C01CA01A0011124FF27591B99F00A
:10247000593F50F4503E68F11A16F040A22F232F16
:10248000342F4427585FF3CF469537952795A79566
:10249000F0405395C9F77EF41F16BA0B620B730B0D
:1024A000840BBAF09150A1F0FF0FBB1F661F771F7E
:1024B000881FC2F70EC0BA0F621F731F841F48F433
:1024C000879577956795B795F7959E3F08F0B3CFB9
:1024D0009395880F08F09927EE0F979587950895A3
:1024E0000CD0EBC0E3D040F0DAD030F021F45F3F05
:1024F00019F0CCC0511115C1CFC0F0D098F3992379
:10250000C9F35523B1F3951B550BBB27AA276217B7
:102510007307840738F09F5F5F4F220F331F441FFC
:10252000AA1FA9F333D00E2E3AF0E0E830D0915034
:102530005040E695001CCAF729D0FE2F27D0660F21
:10254000771F881FBB1F261737074807AB07B0E860
:1025500009F0BB0B802DBF01FF2793585F4F2AF076
:102560009E3F510568F092C0DCC05F3FECF3983E9F
:10257000DCF3869577956795B795F7959F5FC9F7D3
:10258000880F911D9695879597F90895E1E0660F5C
:10259000771F881FBB1F621773078407BA0720F0D5
:1025A000621B730B840BBA0BEE1F88F7E09508953E
:1025B00004D06894B111B5C0089598D088F09F57A1
:1025C00090F0B92F9927B751A0F0D1F0660F771F7F
:1025D000881F991F1AF0BA95C9F712C0B13081F05F
:1025E0009FD0B1E008959CC0672F782F8827B85FEF
:1025F00039F0B93FCCF3869577956795B395D9F7C0
:102600003EF490958095709561957F4F8F4F9F4FC9
:102610000895E89409C097FB3EF4909580957095D5
:1026200061957F4F8F4F9F4F9923A9F0F92F96E91E
:10263000BB279395F695879577956795B795F11193
:10264000F8CFFAF4BB0F11F460FF1BC06F5F7F4F30
:102650008F4F9F4F16C0882311F096E911C0772342
:1026600021F09EE8872F762F05C0662371F096E84B
:10267000862F70E060E02AF09A95660F771F881F1A
:10268000DAF7880F9695879597F9089597F99F67D8
:1026900080E870E060E008959FEF80EC08950024EA
:1026A0000A941616170618060906089500240A94B7
:1026B00012161306140605060895092E0394000C3D
:1026C00011F4882352F0BB0F40F4BF2B11F460FFCC
:1026D00004C06F5F7F4F8F4F9F4F089557FD9058F5
:1026E000440F551F59F05F3F71F04795880F97FBD6
:1026F000991F61F09F3F79F0879508951216130690
:102700001406551FF2CF4695F1DF08C016161706BE
:102710001806991FF1CF86957105610508940895F3
:10272000E894BB2766277727CB0197F90895E199AD
:10273000FECF1FBA8EBBE09A99278DB30895262F3E
:10274000E199FECF1FBA8EBBE09A81500DB20216FE
:1027500039F01CBA2DBB0FB6F894E29AE19A0FBE7D
:062760000895F894FFCF7C
:10276600060B1801010100049529430302371901DC
:10277600070595955A010A14950102013832070298
:10278600050403150112010F0102010000000000FB
:10279600000001000000000000000001000021010F
:0C27A60023022503270429052C06FF064A
:00000001FF
