:100000006DC1000088C100000C947C1084C1000008
:1000100082C100000C946D107EC100007CC1000004
:100020007AC1000078C1000076C1000074C10000F0
:1000300072C1000070C100000C942F106CC1000050
:100040006AC1000068C1000066C1000064C1000010
:1000500062C1000060C100005EC100005CC1000020
:100060005AC1000058C1000056C1000054C1000030
:100070003230323131323038303236350001050419
:1000800014101115FF3F6935F2294B3C842EBB1F1C
:10009000EB31A439D02F8734BD36832EE72F3F3084
:1000A000E52F102F7E32B030C42EF62FB82D0D2E36
:1000B000AC2B7E2B052B552A7C298328742781277E
:1000C0004126F625A0242024C22222227021B1201C
:1000D000E81F191F451E6F1D991CC31BEF1A1E1A1E
:1000E00050198618C017BF1607161B153A1465134A
:1000F0009B12DA11FA102610600F820EB30DD30C8A
:10010000020C250B580A8109A308D607F0061C0625
:10011000470571049C03CA02FF01FF01FF01FF01B3
:10012000FF01FF01FF01FF01FF01FF01FF01FF01CF
:10013000FF01FF01FF01FF01FF01FF01FF01FF01BF
:10014000FF01FF01FF01FF01FF01FF01FF01FF01AF
:10015000FF01FF01FF01FF01FF01FF01FF01FF019F
:10016000FF01FF01FF01FF01FF01FF01FF01FF018F
:10017000FF01FF01FF01FF01FF01FF01FF01FF017F
:10018000FF01FF01FF01FF01FF01FF01FF01FF016F
:10019000FF01FF01FF01FF01FF01FF01FF01FF015F
:1001A000FF01FF01FF01FF01FF01FF01FF01FF014F
:1001B000010001000100020002000200030004002F
:1001C00004000500060006000700080009000A00F8
:1001D0000C000D000E00100011001300140016009A
:1001E00018001A001C001E00200023002500280013
:1001F0002A002D002F003200350038003B003E0061
:100200004100440047004A004D0050005300560092
:1002100059005B005E0060006200640066006800D8
:1002200069006A006B006B006B006A006900670080
:10023000650062005E005A0054004E0047003F0017
:1002400036002C00210023002500260028002A006B
:100250002C002E00300032003500370039003C0001
:100260003F004100440047004A004D005000530049
:1002700057005A005E00620066006A006E0072005D
:1002800076007B008000840089008E009400990035
:100290009F00A400AA00B000B700BD00C400CA00BF
:1002A000D100D800E000E700EF00F700FF000701F1
:1002B0001001190122012B0135013E0148015301B2
:1002C0005D01680173017E018A019601A201AE0100
:1002D000BB01C801D501E301F101FF0111241FBEDB
:1002E000CFEFD4E0DEBFCDBF11E0A0E0B1E0E0EBA6
:1002F000F7E202C005900D92A035B107D9F722E0D0
:10030000A0E5B1E001C01D92A730B207E1F70E945D
:100310008B100C94D61374CEF89498ED9FBD83BFC8
:1003200078940895482F9B01E2EDF1E080E090E0A1
:100330005081552331F00196339680319105C1F7F4
:100340000AC063E070E00E943D13FC01EE52FE4FD4
:1003500040833283218308950F931F93CF93DF93BC
:10036000D091D201DD2351F10091D3011091D4013C
:10037000C091AF01C150C7FD0DC0EC2FEE0FFF0BB8
:10038000E055FE4F0190F081E02DB8018D2F0995C9
:100390008111F0CFE2EDF1E083818083848195814A
:1003A00092838183339681E0EF3FF807A9F710929B
:1003B000FF011092010210920002D2CFDF91CF9183
:1003C0001F910F910895BC0180910402ABCF109250
:1003D0000402109203021092020281E080938401D1
:1003E00008950F931F93CF93C82F08EA17E0CC23EB
:1003F00049F082E091DFC8010197F1F780E08CDFDE
:10040000C150F5CFCF911F910F910895E091070151
:10041000F09108013196FB70F460F0930801E093CD
:1004200007018091A4018B5A8093A401E4918091EB
:10043000A4018E0F08950F931F93CF93DF9300D0E5
:100440001F92CDB7DEB72091230130912401409156
:10045000250129833A834B83FE01319640E050E029
:1004600090E061E070E0B1919A01220F331F8C019E
:1004700002C0159507952A95E2F79801237061F05F
:100480002130D1F4A0B39B0101C0220FBA95EAF745
:10049000322F30953A2318C0A0B39B0101C0220F20
:1004A000BA95EAF720953A2F322330BB32B3322384
:1004B00032BB31B323230EC0A0B39B0101C0220F76
:1004C000BA95EAF73A2F322B30BB32B3322B32BB1C
:1004D00031B3232B21BB4F5F5F4F4330510519F6DA
:1004E0000F900F900F90DF91CF911F910F91089572
:1004F000CF93DF9300D000D000D0CDB7DEB790917E
:100500007F012091C0013091C1012F50394009F481
:1005100092E0843019F46093800121C06623F9F0E1
:10052000823019F427E9261B622F26E0E6E2F1E08B
:10053000DE01119601900D922A95E1F7E82FF0E087
:100540003197EE0FFF1F21E030E02C0F3D1FE20F2F
:10055000F31F0190F081E02DE90FF11D60832696D5
:100560000FB6F894DEBF0FBECDBFDF91CF910895D7
:10057000BF92CF92DF92EF92FF920F931F93CF9390
:10058000DF93EC0140917F01E0911C01EE2311F01B
:1005900082E001C0842F90E0DC01AA5EBE4F2C9166
:1005A00020931A01DC01AD5EBE4F8C91809319013E
:1005B000F0E0E05FFE4F3181622F70E0442349F0AC
:1005C000313039F49B01280F311DC901959587956C
:1005D00038C0C617D707A4F1682F70E06C177D07E5
:1005E00084F1411102C08C2F2CC0821B032F10E01C
:1005F00001501109E82EF12CC701B8010E948713A0
:1006000060937D016695E62FF0E0822FC12CD12CFE
:10061000B12CB316B1F0C601B8010E947313822F3A
:10062000860FCE0CDF1CAE01481B510957FF03C0DB
:10063000519541955109E417F5071CF4B394E9CF9E
:10064000822FDF91CF911F910F91FF90EF90DF905C
:10065000CF90BF90089581E00895611160932101CA
:100660000895662389F0813061F48091C3019091EF
:10067000C201891B681B6093C20182E08093220142
:1006800003C0635E6093200180912001873418F0DD
:1006900086E48093200108956093780108950F9374
:1006A0001F93CF93DF9380917F0180938501809189
:1006B00016018093860180911301809387018091B8
:1006C00010018093880180911701809389018091A6
:1006D000140180938A018091110180938B01809194
:1006E000180180938C018091150180938D01809178
:1006F000120180938E0180911C0180938F01809163
:1007000080018093900180917E018093910180917E
:100710001B018093920180918201809393018091CB
:10072000810180939401809174018093950180915F
:100730001F018093960180917501809397018091AC
:100740001E018093980180910C0180939901809102
:100750000A0180939A0180910B0180939B01809103
:10076000090180939C0180910D0180939D018091EE
:10077000200180939E018091C20180939F0180910E
:1007800021018093A00180910F018093A1018091AC
:100790000E018093A201809178018093A30182E0F1
:1007A00020DEF89405E811E0C1E8D0E0F80161919D
:1007B0008F01CE010E94C4132196C03AD105B1F732
:1007C00065EA80E890E00E94C4137894DF91CF91AD
:1007D0001F910F910895882321F0813031F4829880
:1007E00005C0829892988A980895829A929A8A9AD5
:1007F0000895EF92FF921F93CF93DF93182F80916C
:10080000A601811109C0112339F080911E0118172A
:1008100018F4EFDF82E0E5DD1093A6011093A50147
:100820008091A70181110BC006DE91E0111101C07A
:1008300090E081E0173408F480E0890FCCDF1111DB
:100840000FC0109206021092050210926D001092D5
:100850006C0010926B0010926A00889889982BC0E7
:100860008FEF810F90E0880F991FFC01E055FE4F3C
:10087000259134913093060220930502FC01EC5738
:10088000FF4F2591349180915E01A9014054510997
:10089000882339F060916E0070916F0046175707FA
:1008A000B8F33093690020936800811104C010925E
:1008B0006F0010926E00C0910502D0910602E09088
:1008C0006800F09069008091A601815090911F010D
:1008D00091110BC090E06FEF70E00E943D1366E94C
:1008E00070E00E947313262F1AC09F3F61F490E0BE
:1008F0006FEF70E00E943D1366E970E00E94731391
:10090000262F20950CC0892F90E064E670E00E94AD
:100910003D1363E670E00E9487132FEF260FBE01A0
:1009200080E090E030E040E050E00E944E136158DB
:100930007F4F8F4F9F4F2FEF30E040E050E00E94FD
:100940009A13C901C21BD30BE216F30630F42E1919
:100950003F09C20FD31FC70109C0EC16FD0630F4D2
:100960002E193F09CE01820F931FE701D0936D002E
:10097000C0936C0090936B0080936A00CD2B11F0B4
:10098000889A01C08898892B11F0899A01C08998AA
:1009900010935E018091A601823010F482E005C0C0
:1009A0008A3010F481E001C080E0DF91CF911F9187
:1009B000FF90EF90B1CCCF93C091A60186E48C0F4D
:1009C000873908F080E015DF83E00BDD8C2FCF91B5
:1009D00010CFCF93C091A60180E00BDF83E001DD53
:1009E0008C2FCF9106CF0F931F93CF93DF93E82FD8
:1009F0008091C5019FEF980F9C3120F480E01BDDB2
:100A000080E090C0CE2FC295CF70DE2FDF70909126
:100A1000A701911103C0C33008F0C2E0D730A8F499
:100A20000091580110E00F5F1F4FF0DC65E00E945D
:100A300067139801290F311DC90166E070E00E941B
:100A4000871380935801ED2F41C0D730A9F400914E
:100A5000580110E00F5F1F4FD9DC65E00E9467135B
:100A60009801290F311DC90166E070E00E948713CB
:100A700080935801FC0135C0D830B1F48091A701B2
:100A8000882311F08FE001C083E0682351F4809146
:100A9000580190E0019666E070E00E948713809311
:100AA0005801E091580112C09091A701992381F05B
:100AB0008D31D8F090E0E92FF0E0E15CFE4F20812D
:100AC000821710F09E5FF7CF3197E081F0E009C008
:100AD000862F869563E00E946713E92FF0E0EE0F02
:100AE000FF1FE358FF4FE49101C0E0E0C33071F411
:100AF0008091570190E0019663E170E00E947313CA
:100B000080935701DC01A45DBE4FCC91CC2329F02A
:100B1000C13029F0EE0FC2E002C0C0E0E0E08E2F4D
:100B20008ADC8C2FDF91CF911F910F9154CE8130B1
:100B300019F4109282010895823019F460938101B2
:100B40000895833019F460937E010895843011F480
:100B500060931B010895813069F4611101C080E048
:100B600080937501611102C08FE701C081E080931D
:100B70001F010895823011F460931E010895CF93F0
:100B8000C0911C01C1114AC0883039F410927C0117
:100B900010927A011092790142C0813B59F4809100
:100BA0007C0181508330D0F583E080937C01809379
:100BB0007B0134C0853BB1F4CB016EE370E00E9451
:100BC0007313892B61F580917C018A3F40F58B5F1F
:100BD00080937C0180937B0110927A0110927901BD
:100BE000EADE1DC08130D1F48091790190917A01C3
:100BF000019688382EE0920728F490937A0180932A
:100C000079010DC010927A011092790180917C01D6
:100C1000882329F0815080937C0101C0C1E08C2F92
:100C2000CF910895CF93833B09F055C08091750112
:100C3000882381F0672B09F065C080911F018E3FEA
:100C400019F081E080931F0180911F0180958093AE
:100C50001F013DC0672B29F481E08093560110925B
:100C6000550180915601882309F44DC090910501EA
:100C700080911F01191624F48E3F48F48F5F05C040
:100C8000992329F0823018F0815080931F01C09180
:100C9000550190911F01C03449F481E480935501BE
:100CA00081E0892780931F0194DE0DC0809154015B
:100CB000891309C0C11102C08CDE02C0CF3F19F0F8
:100CC000CF5FC093550180911F01809354018091A3
:100CD000A6018FDD15C0833EA9F4109256018091C4
:100CE000050181958093050180911F01823010F4E8
:100CF00081E003C08E3F18F08FEF80930501CFDCB9
:100D000080E001C081E0CF910895FF920F931F937F
:100D1000CF93DF938C01EB01F42E8091C001909171
:100D2000C101892B31F0E091C001F091C10189E04E
:100D300009951093C1010093C001012B39F0E09196
:100D4000C001F091C101BE018F2D099581E0809312
:100D50008401DF91CF911F910F91FF900895CF9360
:100D6000DF93E091AF01EE2359F0E150E093AF0142
:100D7000F0E0EE0FFF1FE055FE4FC081D18102C0B1
:100D8000C0E0D0E0E091AF01EE2341F0F0E0EE0FE3
:100D9000FF1FE255FE4F8081918102C080E090E00C
:100DA0004AE060E070E0B1DFCE01DF91CF910895BD
:100DB000883029F4109273011092590115C08130C6
:100DC000F9F490915901911107C06032710568F1F1
:100DD00080935901FCDA29C0913081F46B3B710595
:100DE00028F082E08093590180E01EC061157105F2
:100DF000E1F06270862F880F8E5E16C0B0DF15C0DE
:100E0000813811F0813E89F491E090935901813E3F
:100E100021F480917301865F03C0809173018F5F1D
:100E200080937301D4DA8BE4E4DC80E008959C01C4
:100E30009091AF01983088F4E92FF0E0EE0FFF1F9A
:100E4000E055FE4F318320839F5F9093AF0148E0D0
:100E5000C9015BDF8091AF0108958FEF08950F9373
:100E60001F93CF93DF93EC018B0179DFB801CE01A3
:100E7000DF91CF911F910F91DACF813C29F460E08F
:100E800070E082EB97E006C0823C39F460E070E0ED
:100E900088E797E0E4DF80E0089581E00895813CF1
:100EA00029F460E070E082EB97E006C0823C31F408
:100EB00060E070E08DE397E0D2DF16C0813B49F43B
:100EC000CB016EE370E00E947313892B69F473DD2C
:100ED0000BC0813E59F4CB016EE370E00E947313A6
:100EE0006F5F60930D01DBDB80E0089581E0089582
:100EF000CF93C0911C01C11117C0813C29F460E05F
:100F000070E082EB97E006C0823C31F460E070E074
:100F100088E997E0A4DF09C0873B31F460E070E026
:100F20008BE199E084DF01C0C1E08C2FCF9108955F
:100F3000813C29F460E070E082EB97E006C0823CDF
:100F400031F460E070E08FE497E089DF07C0873B11
:100F500039F460E070E08FE199E069DF80E00895A6
:100F600081E008950F931F93CF938B01883079F41C
:100F700080E03FDC60E080910F0135DD10927C0164
:100F8000012B19F481E08093A701C0E0FCC08130FF
:100F900049F469317105C8F38093A70180910F016D
:100FA00022DDF3CF833029F520918201222381F0C5
:100FB0008091810190E062EC71E00E943D1308177E
:100FC000190730F020931D018091740180931F0157
:100FD000602F80910F0107DD809178018823A9F2AD
:100FE00090E062EC71E00E943D138017910768F673
:100FF0004DC0813B99F481E090E0BADAFADB809150
:101000007E018111C2CF80917F01811104C008311E
:10101000110508F4BACF61E070E028C0813ED9F331
:10102000813821F480911D0190E013C0813C21F4AE
:101030006091A60170E01AC0823B79F480911B0197
:1010400090911C01911180918001811104C086E969
:1010500090E08EDA05C086E903C0823E19F480E094
:10106000C8DB93CF823C31F466E970E089E29EE010
:10107000F6DE8BCF833999F3833C29F460E070E08E
:1010800088E797E0F5CF843C31F495DC60E070E0D0
:1010900087E299E0EDCF8D3B41F4F89488ED8FBD68
:1010A00088E880BF7894A895FFCF8F3C29F460E052
:1010B00070E08BE293E0DCCFC0911C018A3B71F4BD
:1010C000672B61F4CC2329F076DC10921C01E7DA5F
:1010D0005CCF60E070E08FE099E052C0C11152C077
:1010E0008A3C29F468DC81E080931C013FC0833B8B
:1010F00029F460E070E08DE59CE007C0853C39F4A0
:101100005ADC60E070E081EE9DE0A9DE3CC0873CE7
:1011100091F490910F01892F82958F708F5F83706A
:101120008295807F9F70892B80930F0160E05BDC4C
:10113000B6DA41DC28C0873BB9F4C8018F73992720
:10114000892B69F490910F01892F8F708F5F292F60
:10115000207F6BE00E946713922B90930F01602F0A
:1011600080910F0140DC0FC0873E11F498DA0BC06C
:10117000893B41F4012B31F460E070E087E199E0B4
:1011800056DE01C0C1E08C2FCF911F910F910895C1
:10119000883061F410925A0180E02BDB8091A80125
:1011A000811137C081E080935A0123C0982F907F2E
:1011B000903BB9F420915A01421780F0CB016DE5C4
:1011C00070E00E947313029739F42F5F20935A0145
:1011D0004217F8F088E303C082E101C080E009DB38
:1011E00018C0903E61F480915A01882389F0481715
:1011F00078F060E070E088ED96E019DE0AC08A3091
:1012000041F46091730180915A01F901099547DA1F
:10121000A6DD80E0089528E732E043E0B9CF28E773
:1012200032E044E0B5CF27E935E044E0B1CF2BEA26
:1012300035E042E0ADCF2DE233E041E0A9CF21E33C
:1012400033E042E0A5CF2CE433E041E0A1CF0F939F
:101250001F93CF93DF93D82F8B01873B19F480E046
:10126000C8DA54C080798039B1F420911601909188
:1012700017018D2F8F70823041F48091820181118E
:1012800008C0822F291728F403C0822F921708F470
:10129000892FAFDA0BC0803811F480E0AADAD83099
:1012A00029F460E080910E019EDB30C0D13039F42A
:1012B0000931110508F467C0D093A70102C0D330EB
:1012C00029F4602F80910E018EDB5DC0D43C71F457
:1012D000C0918201CC2319F06C2F70E013C0609193
:1012E0001D0170E089E29EE0BADD50C0D43B31F4CC
:1012F00062DB1092040261E070E004C0D53C31F47E
:1013000066E970E089E29EE0AADD3DC0C0911C0163
:10131000C1113BC0DA3B31F460E070E083E299E058
:1013200086DD34C0D73C91F490910E01892F8295CF
:101330008F708F5F83708295807F9F70892B8093E1
:101340000E0160E050DBABD936DB20C0D73BB9F4EF
:10135000C8018F739927892B69F490910E01892F09
:101360008F708F5F292F207F6BE00E946713922B75
:1013700090930E01602F80910E0135DB07C0D73EA0
:1013800021F48DD903C0C0E001C0C1E08C2FDF91F2
:10139000CF911F910F91089586E884B91092CF01E3
:1013A0001092D00183B1886483B90895F5DFE1E636
:1013B000F0E0808182608083139A87EE83B908957C
:1013C0001092D10120B191B13091A40122952695BE
:1013D00026952370892F90E0880F991F880F991FF9
:1013E000820F911D830F8093A4018091C6018823F1
:1013F00009F407C11092C6018091CF019091A70115
:10140000992319F01F981092CF0181113EC080914D
:101410002201882349F08091CB019091CC019093D7
:10142000C8018093C70104C08091C7019091C80191
:101430004096807E9695879561EC72E00E947313CA
:10144000809121018750680F6093C50180917201DE
:10145000882311F0815008C06D3140F460E070E0E5
:1014600084E00E94920185E0809372018091A7013F
:101470008111BEC08EE884B981E08093CF011092C3
:10148000D00183B1886483B9B3C0813009F0B0C0A2
:1014900080912201811143C08091C9019091CA01BC
:1014A000409645E0969587954A95E1F76091C2018F
:1014B000AC0156954795062E000C770B9B012A50E0
:1014C0003140240F351F3093C4012093C301209174
:1014D0006101E22FF0E0EE0FFF1FEE59FE4F408159
:1014E0005181DC01A41BB50BAD01918380832F5F7B
:1014F0002770209361019D01220F331F220F331F9C
:10150000820F931F2091200130E0261B370B265FAE
:101510003E4F220F331F821B930B23E01CC0809190
:10152000CD019091CE019093CA018093C90140965C
:1015300035E0969587953A95E1F7E2E6F1E08193FB
:101540009193B1E0E237FB07D1F7A6CF009709F0FE
:101550000196215029F018161906C4F70197F9CF02
:1015600018161906E4F457FD39C0209160011216CF
:101570000CF1880F991FBC016350710977FF02C0FD
:101580006F5F7F4F759567951616170614F061E02B
:1015900070E088E1861B8093600185E026C08C3F67
:1015A0002FEF9207DCF457FF19C02091600127FF4D
:1015B00005C02450281B2093600119C024EE281B6D
:1015C000209360012091C5012F3188F06CEF7FEFEF
:1015D000681B790B7595679586E007C08091C501FA
:1015E0008E3128F060E070E087E00E949201D4DE46
:1015F00080912201882329F08091220181508093DB
:1016000022010895843021F58091C0019091C1019B
:101610002CE08D35920729F469E170E089E29EE0C3
:1016200015C089529E4071F49091A601923050F0FD
:10163000892F869596959695890F80938301D9D8A1
:1016400080E0089560E070E082EB97E008DCF8CF7E
:1016500081E008950F931F93CF931092AA01809178
:101660000202909103029C012F5F3F4F88279078E0
:10167000822B932B90930302809302029091A801F6
:101680002FB1822F8095881F8827881F8093A801FB
:10169000981729F11092A7018093A8019091040254
:1016A000892F27FD0AC080699F709F3009F08F5FE6
:1016B0008093040280E090E00CC08F7E95FD02C014
:1016C000806801C0806C8093040280910202909136
:1016D00003020E94E30110920302109202020091A1
:1016E0000202109103028091A701882379F0B801CA
:1016F00083E00E9492010E94AC010F731127012B1D
:1017000009F046C010925F0151DE32C0C091040260
:101710008C2F807F803B19F460E070E001C0B8013D
:1017200081E00E949201C4FF13C0C5FF02C0C8013E
:101730000CC008311105E0F0109203021092020271
:10174000C062C093040280E090E00E94E30110C0F8
:10175000CC2371F0C5FD0AC00231110548F0C06408
:10176000C093040280E090E00E94E3010E94E70140
:1017700080915F01811106C083B1886483B981E0E3
:101780008093C60180915F018F5F8F7180935F01AD
:10179000CF911F910F9108958091D101811110DE99
:1017A0008091AA01811156CF0895EF92FF920F9375
:1017B0001F93CF93DF93EC0108E017E082ECE82E53
:1017C000FF24F3942097D9F080918401811119C0EE
:1017D0008091A601823028F482E00E948C01C7012A
:1017E00004C080E00E948C01C8010197F1F780E0FD
:1017F0000E948C01D1DF0E94AC012197E3CF81E0F0
:1018000001C080E0DF91CF911F910F91FF90EF9089
:101810000895CF93C82F882391F086E40E94F9039E
:1018200086EA90E0C2DF80E00E94F9038AEF90E050
:10183000BCDFC15091F78AE992E0CF91B6CF86E440
:101840000E94F90388E090E0B0DF80E00E94F90395
:101850008AEF90E0AADFEFCFCF93DF9364E637D72C
:10186000282F892F6AE033D7EC01222341F0822F01
:10187000D0DF8C2FCEDF8D2FDF91CF91CACFC1115A
:10188000F8CFF9CFCF93DF93D82FC3E080911D011C
:101890000E94F9038DE790E088DFDD2319F08AEFDD
:1018A00090E083DF80E00E94F9038DE790E07DDF28
:1018B000C15061F7DF91CF910895DF92EF92FF92CF
:1018C0000F931F93CF93DF93D82F8B01C0910C01FF
:1018D00081E080937701C33009F0DEC0F0907C0195
:1018E0008D2F4DD9FF2051F080917C01811106C0D0
:1018F00060E070E082EB97E0B2DACEC0D83021F43D
:1019000081E080930301CAC0D23C19F410927C019B
:10191000D3C0D13BC1F490910201012B49F49F3512
:1019200010F08FEF03C0923018F481E08093030130
:1019300080910301890F11F481E038C1803608F4E9
:1019400035C18FE533C1D13E31F4809103018195DA
:1019500080930301E8C0D23B61F481E080930301EE
:1019600080910201823008F4E6C081508093020128
:10197000E2C0D13009F0F0C00932110511F4D09362
:101980000301D09053018D2D880FD7FC809590E0F6
:101990006CE070E072D6292FE09052018E2D880FF6
:1019A000E7FC8095D09101016D2F70E090E065D645
:1019B000290FF09051018F2D880FF7FC8095C09171
:1019C00000016C2F70E090E058D6920F60910201F8
:1019D00070E0690F711D80917C01813091F48091DC
:1019E000790190917A0125E0969587952A95E1F7FE
:1019F00024E730E0A901481B590BCA013ED6B901C2
:101A000072D6862F0E94F90300FD06C00E940602CE
:101A10008170D80ED092530180915001E80EE0926F
:101A200052010E94060265E252D6F90EF09251016F
:101A30000E9406028F7331F40E9406026DE047D6C1
:101A400090935001DD2339F00E9406028F7319F440
:101A5000D150D09301010E940602811108C00E945A
:101A6000060262E134D69093010110925201C33014
:101A700038F00E9406028F7119F4C150C093000122
:101A80000E9406028F7709F07CC00E9406026AE07D
:101A90001ED69093000175C0D83021F481E0809368
:101AA000040186C0D13C31F460E070E082EB97E045
:101AB000D6D97EC0D23C49F48C2F90E0019665E0E7
:101AC00070E025D680930C014CC0D13B51F5C2305B
:101AD00090F400FD6DC0EC2FF0E0E65FFE4F8081DA
:101AE00090910401891B883020F08F3F99F58EEF8B
:101AF00031C088E02FC0C43009F05AC0909109016C
:101B000080910401890F823010F482E003C089378C
:101B100008F088E780930901809109010E94F90388
:101B200047C0D13E31F48091040181958093040136
:101B300018C0D23BA1F481E080930401C23068F563
:101B400000FD36C0EC2FF0E0E65FFE4F80818F3F56
:101B500079F18F5F80832CC0D13C09F4A5CFD23EB0
:101B600019F40E944F0324C0D53C39F460E070E0C2
:101B700081EE9DE074D980E0D1CFD13011F081E0C9
:101B800018C00932110519F481E080930401809195
:101B9000A401080F0093A4010BC0C43049F4809144
:101BA0000901833008F4B8CF8150B4CF809302018B
:101BB00080E0DF91CF911F910F91FF90EF90DF9028
:101BC00008950F931F93CF93DF93D82F8B01883005
:101BD00031F480917701813011F488E06EDE8D2F31
:101BE0008079803961F481E080937601C09177013A
:101BF000C1110CC080911D010E94F90324C08038DE
:101C000039F41092760180E00E94F903C0E01BC015
:101C1000D130C1F4C0917601CC2351F0809177018D
:101C20008130A1F7B801DF91CF911F910F9145CE7F
:101C30000733114058F3D093A70160E080E00E9481
:101C4000F30401C0C1E08C2FDF91CF911F910F9160
:101C50000895AF92BF92CF92DF92EF92FF920F93CF
:101C60001F93CF93DF93182FEB01D0901A01F090C0
:101C70001901B0907F01BB2019F0C0907D0102C016
:101C8000CC24C39480911B0100911C01011180910F
:101C90008001882349F0813021F080911D018F154A
:101CA00018F0A6E9EA2E01C0EF2CA0907C01BE013D
:101CB000812F0E94BF0560917C01662339F0A1103D
:101CC0000CC08091A60180935D0107C0AA2029F075
:101CD00060E070E082EB97E043C0812F8D7F883019
:101CE000F9F4109277011A3019F4C0911D01D0E077
:101CF0008D2D90E08C179D0738F48F2D90E0C8173C
:101D0000D90710F4C0931D01CE010E94B802809340
:101D100083010E94F90381E08093060100E093C1F2
:101D2000113CB1F2123C99F48091A6018E1520F479
:101D3000E09283018E2D04C080911D018093830168
:101D40000E94F9038091A60180935D01E7CF143CC6
:101D500049F480E00E94F90360E070E087E299E0D6
:101D60007ED8DCCF8FE4810F823008F055C0BB20D5
:101D700039F0CE0168E170E0B6D4892B31F0CECFD6
:101D80006091100170E0CE01F7CF2091A60120975D
:101D900061F4123B11F48FEF05C02F15E0F7D21656
:101DA00000F181E0809306011CC0E0911001F0E099
:101DB000CF0166E371E061D48C179D0710F42F15F5
:101DC00050F7CF016CE672E058D48C179D0748F4A9
:101DD000D21638F00E94DB0460E070E087E299E000
:101DE0003ED8D091A601809106016C2D70E0082E9E
:101DF000000C990B42D48D0F911D0E94B802C82F80
:101E000080931D01D81721F0F81202C00E94E90446
:101E1000C09383018C2F94CF8FE1810F823020F407
:101E200080910601819578CF113009F083C0A99780
:101E300011F410930601662391F080915D0170E02A
:101E40006150710990E019D460917B0170E05FD41A
:101E5000611101C061E06093A50160938301C091AD
:101E6000A5018091A6012C2F30E0281B310960913B
:101E70005B0170915C016F5F7F4F70935C016093B9
:101E80005B012115310509F449CF37FF05C08D38B5
:101E900030F040E450E005C040E052E002C040E0D5
:101EA00051E05695479537FF02C02F5F3F4F35955C
:101EB000279521153105A9F74617570708F02ECFAA
:101EC000C81710F4815005C08C1710F48F5F01C043
:101ED0008C2FEFEFE80FF0E0EE0FFF1F9F01205572
:101EE0003E4FF901659174914091050250910602AF
:101EF0004617570718F44F5F5F4F05C06417750703
:101F000030F4415051095093060240930502F90103
:101F100045915491209105023091060242175307D2
:101F200021F40E94F903C093A50110925C01109264
:101F30005B01F4CE1530A9F48091A6018C3408F42D
:101F4000EDCE90E08C1B9D0B282F8B3491052CF04F
:101F50008739910518F026E901C02BE42093A501EB
:101F6000DDCE1630B1F49091A601809183019817CF
:101F700008F0D4CEC90FD11D90E08C179D0734F026
:101F8000CB34D10524F4CBE4D0E001C0EC018C2F9C
:101F90000EC0173079F49091A5018091A6018917A0
:101FA00010F48F5F04C0981708F0B8CE815080936A
:101FB000A501B4CE011146C0133CC9F481E0B110B3
:101FC00080E080937F010E944F030E94E90480918A
:101FD000A60190E00E94B80280931D0180938301C6
:101FE0000E94F9038091A60180935D012CC0153CED
:101FF00051F480E00E94F90360E070E081EE9DE022
:102000000E942F0720C0173B29F460E070E08BE0AE
:1020100099E015C01A3C69F48091A6018093820171
:1020200080911F01809374010E944F030E94DB0482
:102030000AC01A3B39F460E070E083E199E00E9445
:10204000170701C001E0802FDF91CF911F910F9101
:10205000FF90EF90DF90CF90BF90AF9008951F92C8
:102060000F920FB60F9211242F933F938F939F934C
:10207000AF93BF93EF93FF938091D0018823E9F052
:10208000E091CF0120B131B1F0E0EE0FFF1FDF0191
:10209000A553BE4F2D933C93E953FE4F8081918110
:1020A0008217930708F401962817390708F4019757
:1020B0009183808381E08093D10181E08093D0017E
:1020C000FF91EF91BF91AF919F918F913F912F9190
:1020D0000F900FBE0F901F9018951F920F920FB682
:1020E0000F9211248F9381E08093AA018F910F901A
:1020F0000FBE0F901F9018951F920F920FB60F9260
:1021000011248F9381E08093A9018F910F900FBECE
:102110000F901F901895F89485B7877F85BF88ED3D
:1021200090E00FB6F894A8958FBD90B7977F90BFB9
:102130000FBE81E088B998E09CB99FE790BB92EA16
:102140009093720091E19093710091E89BBB8ABBE0
:102150008FEF91E0909369008093680080E882BBE4
:1021600087BD8CB788608CBFA89580E480BF1ED9DE
:10217000789481E00E94F10160E070E082E09BE0F1
:102180000E941707109284010E94DB049FB1892FDF
:102190008095881F8827881F8093A80197FF0BC010
:1021A00082E00E94F101F89480E890E0E5D2853A5F
:1021B000B9F17894BFC0C0E08C2F0E94F90383E18D
:1021C00090E0F3DA8C2F86950E94F90383E190E08A
:1021D000ECDA9FB1892F8095881F8827881F80930C
:1021E000A80197FD13C0CF5FC03431F765E181E0EE
:1021F0000E9431030E944F03C6E98C2F0E94F9030D
:1022000084E090E0D2DAC150C1F7CACFCC2341F2CA
:102210008C2F0E94F9038DE090E0C7DAC150F6CF11
:1022200005E811E0C1E8D0E0CE01A6D2F801819323
:102230008F012196C03AD105B9F778948091850134
:1022400080937F01809186018093160180918701A0
:1022500080931301809188018093100180918901FE
:102260008093170180918A018093140180918B01E2
:102270008093110180918C018093180180918D01D0
:102280008093150180918E018093120180918F01BE
:1022900080931C0180919001809380018091910135
:1022A00080937E018091920180931B018091930124
:1022B00080938201809194018093810180919501A6
:1022C000809374018091960180931F018091970102
:1022D000809375018091980180931E0180919901EE
:1022E00080930C0180919A0180930A0180919B0157
:1022F00080930B0180919C018093090180919D0145
:1023000080930D0180919E018093200180919F0117
:102310008093C2018091A001809321018091A1014D
:1023200080930F018091A20180930E018091A301FF
:102330008093780180918201811180931D0160E07A
:1023400070E082E196E00E94170761E070E082EBA6
:1023500097E00E94170743E4442E52E0552E60E4B4
:10236000862E9924939477E0772ECC24C394D12C95
:10237000F5E06F2EA2EBAA2EA7E0BA2E0E94AC01C8
:102380008091AD019091AE01009751F06091AB0149
:102390007091AC010E942F071092AE011092AD0116
:1023A0008091A701882309F448C080E00E94F903C6
:1023B000A89540BE1F989FB1892F8095881F8827B8
:1023C000881F8093A80197FFF6CF0E94E7018CB782
:1023D00088608CBF1092D1011092AA011092A901BD
:1023E0008091A701882301F186B78F79806486BF29
:1023F00086B7806186BF889586B78F7E86BF8091BD
:10240000A90181111092A7018091D101882331F097
:10241000909222019092C6010E94E0098091AA0147
:102420008823F1F217D9DCCF509222018CB7877F35
:102430008CBF0E94D609A89580BEAED910928401A7
:102440008091C0019091C101F3E08B329F0779F434
:10245000C0E7D0E0FE0184918053DBD98CE291E0AB
:10246000A4D92196F0E0CC37DF07A1F7C0C02CE05B
:102470008D35920779F03DE0813E930709F0ACC0BD
:1024800080917701813009F0EDC080917601882339
:1024900009F4E8C0C0910C01C230E1F020F0C43072
:1024A00009F47DC06BCFEC2FF0E0E65FFE4FD081EA
:1024B00086E90E94F903C11103C082E090E003C0E5
:1024C0008D2F869590E071D980E00E94F9038D2FC1
:1024D00090E0C6C00E9406028F73E82EF12C0E9485
:1024E0000602672DF4D0E60102C0CC0FDD1F9A95DD
:1024F000E2F70E940602662DEAD0F60102C0EE0F56
:10250000FF1F9A95E2F7CE0FDF1F0E94060290E0B0
:10251000BE01FDD0C80FD91FC739D10514F0C6E9D7
:10252000D0E08C2F0E94F903C7013FD98E0133E020
:10253000159507953A95E1F7011101C001E010E00A
:10254000C70133D9C01BD10BD7FF02C0C0E0D0E018
:102550008C2F0E94F9030E940602837039F4C70190
:1025600024D9CE01959587950E94F903C230D105F3
:102570003CF70E9406026DE0AAD0E60102C0CC0F33
:10258000DD1F9A95E2F70E94060290E0BE01ABD0F3
:10259000C80FD91F80E00E94F903CE0161C0C0912D
:1025A0000901CC0FC73908F0C6E9D4E08C2F0E948E
:1025B000F90385E090E0F9D8809109010E94F903C0
:1025C00081E490E0F2D8D15089F780ED92E0EDD827
:1025D00080E00E94F903D2CEF7E088379F0781F4AC
:1025E0008091C50139D980911C01882381F0B09276
:1025F000AE01A092AD011092AC011092AB01BECE23
:1026000027E08839920731F48091C30125D988EEFB
:1026100093E026C037E08F349307B9F48091A80186
:102620008111ACCE80911D010E94F90384E690E0F7
:10263000BCD880E00E94F90380910D0190E068EE23
:1026400073E01BD0845691090BC08D53974051F411
:1026500080E018D981E016D980E014D981E792E0B2
:10266000A4D88CCE86B78F7986BF86B7806186BFA7
:10267000889586B78F7E86BF81CE0024552704C0FB
:10268000080E591F880F991F009729F076956795B6
:10269000B8F37105B9F7802D952F0895EE27FF2720
:1026A000AA27BB2708C0A20FB31FE41FF51F220FE4
:1026B000331F441F551F969587957795679598F317
:1026C0007040A9F7009799F7BD01CF010895991BB4
:1026D00079E004C0991F961708F0961B881F7A9519
:1026E000C9F780950895AA1BBB1B51E107C0AA1F1B
:1026F000BB1FA617B70710F0A61BB70B881F991FA3
:102700005A95A9F780959095BC01CD01089597FB46
:10271000072E16F4009406D077FD08D0E4DF07FCFE
:1027200005D03EF4909581959F4F089570956195E1
:102730007F4F0895A1E21A2EAA1BBB1BFD010DC0FD
:10274000AA1FBB1FEE1FFF1FA217B307E407F50761
:1027500020F0A21BB30BE40BF50B661F771F881F3D
:10276000991F1A9469F760957095809590959B01D3
:10277000AC01BD01CF010895E199FECF1FBA8EBB18
:10278000E09A99278DB30895262FE199FECF1FBABD
:102790008EBBE09A81500DB2021639F01CBA2DBBE7
:1027A0000FB6F894E29AE19A0FBE0895F894FFCF1D
:1027B0000A12180101010100049629430302371887
:1027C0000107058282820A0A0A820A0101461580EF
:1027D0002D07020504031601130110010201000078
:1027E00000000000000100000000000000000100E7
:1027F00000210123022503270429052C06FF0600DA
:00000001FF
