:10000000ABC0C5C078CCC3C0C2C0C1C0C0C0BFC037
:1000100025CCBDC0BCC0BBC05FCCB9C0B8C03230FD
:1000200032313132303830313131000000000000DF
:1000300000000000000000000000000000000000C0
:1000400000000000000000000000000000000000B0
:1000500000000000000000000000000000000000A0
:100060000000000000000000000000000001030488
:10007000050708090B0C0E0F1113141618191B1D78
:100080001F21232527292B2D30323437393B3E4081
:100090004346484B4E5154575A5D606366696D70D4
:1000A00073777A7E8185898D9094989CA0A5A9AD5F
:1000B000B1B6BABFC3C8CDD1D6DBE0E5EAEFF4FAFA
:1000C000FF010102020303040405060708090A0CE4
:1000D0000D0E0F11131416181A1D1F2224272A2D76
:1000E0003033373B3E42464B4F54595D63686E7325
:1000F000797F868C939AA1A8B0B8C0C8D1D9E2EC18
:10010000F5FFFFFFFFFFFFFFFFFFFFFFFFFFFFFF09
:10011000FFFFFFFFFFFFFFFFFFFFFFFFFFFFFFFFEF
:10012000FFFFFFFFFFFFFFFFFFFFFFFFFFFFFFFFDF
:10013000FFFFFFFFFFFFFFFFFFFFFFFFFFFFFFFFCF
:10014000FFFFFFFFFFFFFFFFFFFFFFFFFFFFFFFFBF
:10015000FFFFFFFFFFFF000011241FBECFE5D2E02D
:10016000DEBFCDBF10E0A0E6B0E0E0E9FEE102C0F6
:1001700005900D92A438B107D9F721E0A4E8B0E0CA
:1001800001C01D92AB32B207E1F7C4DB7FCE38CF9E
:10019000482F9B01E8EFF0E080E090E0508155238C
:1001A00031F00196339680319105C1F709C063E0C3
:1001B00070E00EDEFC01E850FF4F40833283218364
:1001C00008950F931F93CF93DF93D091F800DD2311
:1001D00051F10091F9001091FA00C091D500C15081
:1001E000C7FD0DC0EC2FEE0FFF0BEA52FF4F019041
:1001F000F081E02DB8018D2F09958111F0CFE8EF46
:10020000F0E083818083848195819283818333961A
:1002100081E0E532F807A9F7109225011092270135
:1002200010922601D2CFDF91CF911F910F910895A7
:10023000BC0180912A01ACCF10922A0110922901B1
:100240001092280181E08093B000089590E822E0A8
:1002500048EA57E030E0815070F00FB6F89496BD50
:1002600026BD0FBEFA013197F1F70FB6F89496BD8F
:1002700036BD0FBEF0CF089586B383FB882780F983
:1002800091E089278093CE000895E0916600F09177
:1002900067003196FB70F460F0936700E0936600AE
:1002A0008091CA008B5A8093CA00E4918091CA0061
:1002B0008E0F08958093CC008093CB00811103C0F2
:1002C00019BC18BC0CC0815090E0FC01EF53FF4FEB
:1002D000E491E9BDFC01E55DFF4F849188BD80910B
:1002E000CC00863010F492E005C08E3010F491E01E
:1002F00001C090E080E80FB6F89486BD96BD0FBEB1
:100300000895CF93DF9300D000D000D0CDB7DEB7F3
:100310009091AB002091E6003091E70020513840E9
:1003200009F492E0843019F46093AC0021C0662394
:10033000F9F0823019F427E9261B622F26E0EEE758
:10034000F0E0DE01119601900D922A95E1F7E82F79
:10035000F0E03197EE0FFF1F21E030E02C0F3D1F42
:10036000E20FF31F0190F081E02DE90FF11D608392
:1003700026960FB6F894DEBF0FBECDBFDF91CF91AA
:100380000895BF92CF92DF92EF92FF920F931F9347
:10039000CF93DF93EC014091AB00E0917900EE2325
:1003A00011F082E001C0842F90E0DC01AD58BF4F16
:1003B0002C9120937700DC01A059BF4F8C91809342
:1003C0007600F0E0E359FF4F3181622F70E0442363
:1003D00049F0313039F49B01280F311DC901959541
:1003E000879536C0C617D70794F1682F70E06C1751
:1003F0007D0774F1411102C08C2F2AC0821B032F8C
:1004000010E001501109E82EF12CC701B80111DDEF
:100410006093A9006695E62FF0E0822FC12CD12CC5
:10042000B12CB316A9F0C601B801EFDC822F860FFC
:10043000CE0CDF1CAE01481B510957FF03C051957C
:1004400041955109E417F5071CF4B394EACF822FC4
:10045000DF91CF911F910F91FF90EF90DF90CF90A0
:10046000BF9008958093AF0025CFCF93C091CC006B
:1004700089E18C0F873908F080E01CDF82E0E6DE3E
:100480008C2FCF9117CFCF93C091CC0080E012DF9B
:1004900083E0DCDE8C2FCF910DCF81E008956111D8
:1004A00060937C000895662389F0813061F4809127
:1004B000E9009091E800891B681B6093E80082E0E6
:1004C00080937D0003C0635E60937B0080917B001E
:1004D000873418F086E480937B0008956093A4002D
:1004E00008950F931F93CF93DF938091AB00809378
:1004F000B100809173008093B2008091700080936E
:10050000B30080916D008093B4008091740080935B
:10051000B500809171008093B60080916E00809349
:10052000B700809175008093B8008091720080932D
:10053000B90080916F008093BA0080917900809318
:10054000BB008091AC008093BC008091AA00809396
:10055000BD00809178008093BE008091AE008093B2
:10056000BF008091AD008093C00080916B008093AC
:10057000C100809169008093C20080916A008093DD
:10058000C300809168008093C40080916C008093C8
:10059000C50080917B008093C6008091E800809325
:1005A000C70080917C008093C8008091A400809354
:1005B000C900F89401EB10E0C1E0D1E0F8016191CD
:1005C0008F01CE0151DC2196CA31F1E0DF07B1F78E
:1005D00065EA80E091E048DC7894DF91CF911F914B
:1005E0000F910895813019F41092AE000895823071
:1005F00019F46093AD000895833019F46093AA0054
:100600000895843011F4609378000895CF93C091D9
:100610007900C11149C0883039F41092A8001092B5
:10062000A6001092A50041C0813B59F48091A8001A
:1006300081508330C8F583E08093A8008093A700A1
:1006400033C0853BA9F4CB016EE370E0DEDB892B80
:1006500061F58091A8008A3F40F58B5F8093A800E8
:100660008093A7001092A6001092A500FEDE1DC088
:100670008130D1F48091A5009091A6000196883830
:100680002EE0920728F49093A6008093A5000DC059
:100690001092A6001092A5008091A800882329F04E
:1006A00081508093A80001C0C1E08C2FCF910895A4
:1006B000FF920F931F93CF93DF938C01EB01F42EE6
:1006C0008091E6009091E700892B31F0E091E600FF
:1006D000F091E70089E009951093E7000093E600A8
:1006E000012B39F0E091E600F091E700BE018F2D7B
:1006F000099581E08093B000DF91CF911F910F9118
:10070000FF900895CF93DF93E091D500EE2359F049
:10071000E150E093D500F0E0EE0FFF1FEA52FF4FEB
:10072000C081D18102C0C0E0D0E0E091D500EE23CD
:1007300041F0F0E0EE0FFF1FEC52FF4F80819181FE
:1007400002C080E090E04AE060E070E0B1DFCE01FE
:10075000DF91CF910895883029F41092A100109272
:10076000880015C08130F9F490918800911107C07C
:100770006032710568F1809388005EDD29C0913098
:1007800081F46B3B710528F082E08093880080E063
:100790001EC061157105E1F06270862F880F8E5EB4
:1007A00016C0B0DF15C0813811F0813E89F491E0A8
:1007B00090938800813E21F48091A100865F03C060
:1007C0008091A1008F5F8093A10036DD8BE472DD04
:1007D00080E008959C019091D500983088F4E92F2D
:1007E000F0E0EE0FFF1FEA52FF4F318320839F5F3F
:1007F0009093D50048E0C9015BDF8091D500089552
:100800008FEF08950F931F93CF93DF93EC018B012C
:1008100079DFB801CE01DF91CF911F910F91DACF2F
:10082000813C29F460E070E084E095E006C0823C01
:1008300039F460E070E08FE694E0E4DF80E0089552
:1008400081E00895843011F58091E6009091E700F1
:100850002AE08537920729F469E170E083EC95E09E
:1008600013C0835C954061F49091CC00923040F0CD
:10087000892F869596959695890FF4DD80E00895E9
:1008800060E070E084E095E0BDDFF8CF81E008959E
:10089000813C29F460E070E084E095E006C0823C91
:1008A00031F460E070E080E194E0ACDF14C0813BA3
:1008B00041F4CB016EE370E0A8DA892B61F4D5DD59
:1008C0000AC0813E51F4CB016EE370E09EDA6F5FA7
:1008D00060936C0006DE80E0089581E00895CF9378
:1008E000C0917900C11117C0813C29F460E070E02B
:1008F00084E095E006C0823C31F460E070E08FE86F
:1009000094E080DF09C0873B31F460E070E088E16B
:1009100098E060DF01C0C1E08C2FCF910895813C49
:1009200029F460E070E084E095E006C0823C31F498
:1009300060E070E088E494E065DF07C0873B39F44D
:1009400060E070E08CE198E045DF80E0089581E0B0
:100950000895CF93DF93D82F80798039A9F420911F
:100960007300909174008D2F8F70823041F48091CC
:10097000AE0081110CC0822F291748F403C0822FCA
:10098000921728F4892F03C0803819F480E092DC94
:1009900008C0D13031F46931710578F1D093CD00C0
:1009A0002CC0D43C71F4C091AE00CC2319F06C2F54
:1009B00070E013C060917A0070E083EC95E022DF74
:1009C0001FC0D43B31F451DD10922A0161E070E088
:1009D00004C0D53C31F466E970E083EC95E012DFA9
:1009E0000CC0C0917900C1110AC0DA3B41F460E04B
:1009F00070E080E298E0EEDE03C0C0E001C0C1E03C
:100A00008C2FDF91CF9108950F931F93CF938B017C
:100A1000883059F480E04EDC1092A800012B19F4C4
:100A200081E08093CD00C0E0A9C0813021F469311C
:100A30007105C8F3F6CF8330D9F42091AE0022239C
:100A400059F08091AD0090E062EC71E0C1D90817D7
:100A5000190710F020937A008091A400882319F3DD
:100A600090E062EC71E0B4D980179107E0F64CC0D9
:100A7000813B91F481E090E084DC1CDC8091AA0051
:100A80008111D1CF8091AB00811103C008311105D4
:100A900050F261E070E028C0813ED9F3813821F442
:100AA00080917A0090E013C0813C21F46091CC00E9
:100AB00070E01AC0823B79F48091780090917900BF
:100AC00091118091AC00811104C086E990E059DC5D
:100AD00005C086E903C0823E19F480E0EBDBA3CFBA
:100AE000823C29F466E970E083EC95E008C0833924
:100AF000A1F3833C31F460E070E08FE694E082DEA5
:100B000092CF843C31F4B1DC60E070E089EA94E09B
:100B1000F6CF8F3C29F460E070E08DE492E0EFCFF7
:100B2000C09179008A3B79F4672B69F4CC2329F0D2
:100B30009CDC10927900D5DC76CF60E070E080E13B
:100B400098E048DE1BC0C11118C08A3C31F48DDC2E
:100B500081E080937900C5DC11C0833B29F460E01B
:100B600070E085E79AE007C0853C39F47EDC60E000
:100B700070E08CEE9BE046DE01C0C1E08C2FCF918F
:100B80001F910F910895AF92BF92CF92DF92EF9293
:100B9000FF920F931F93CF93DF93182FEB01D09009
:100BA0007700F0907600B090AB00BB2019F0C090B9
:100BB000A90002C0CC24C3948091780000917900F0
:100BC00001118091AC00882349F0813021F080919F
:100BD0007A008F1518F0A6E9EA2E01C0EF2CA0903C
:100BE000A800BE01812F12DD6091A800662339F0B4
:100BF000A1100CC08091CC0080938C0007C0AA206B
:100C000029F060E070E084E095E039C0812F8D7FAD
:100C10008830D9F41092A3001A3019F4C0917A00E8
:100C2000D0E08D2D90E08C179D0738F48F2D90E04B
:100C3000C817D90710F4C0937A00CE01A2DB12DCEA
:100C400081E08093650000E099C1113CD1F2123C33
:100C500071F48091CC008E1510F48E2D02C080911D
:100C60007A0000DC8091CC0080938C00ECCF143CA7
:100C700041F480E01FDB60E070E089EA94E0C2DDCF
:100C8000E2CF8FE4810F823008F052C0BB2039F0F0
:100C9000CE0168E170E0B9D8892B31F0D4CF6091F2
:100CA0006D0070E0CE01F7CF2091CC00209761F469
:100CB000123B11F48FEF05C02F15E0F7D216F8F0B4
:100CC00081E0809365001BC0E0916D00F0E0CF01F2
:100CD00066E371E07DD88C179D0710F42F1550F74F
:100CE000CF016CE672E074D88C179D0740F4D216E1
:100CF00030F0BBDB60E070E089EA94E083DDD09106
:100D0000CC00809165006C2D70E0082E000C990BD2
:100D10005FD88D0F911D35DBC82F80937A00D817CF
:100D200029F0813411F0F81201C0ADDB8C2F99CF7E
:100D30008FE1810F823020F480916500819581CF11
:100D4000113009F093C0A99711F410936500662340
:100D500091F080918C0070E06150710990E038D87A
:100D60006091A70070E065D8611101C061E06093F7
:100D7000CB006093AF008091CB009091CC00282FE6
:100D800030E0291B310960918A0070918B006F5F00
:100D90007F4F70938B0060938A002115310509F411
:100DA00052CF37FF05C09A3630F040E450E005C01E
:100DB00040E052E002C040E051E05695479537FFD1
:100DC00002C02F5F3F4F3595279521153105A9F7B3
:100DD0004617570708F037CF891710F48FEF03C075
:100DE000981710F481E0890F7FEF780F272F30E0FC
:100DF000A9014F535F4FFA016491791738F499B5FF
:100E0000911104C06F3F11F469BD0CC099B59617DC
:100E100018F499B59F5F05C099B5691718F499B58D
:100E2000915099BD255D3F4FF901949168B56917BF
:100E300018F498B59F5F05C068B5961718F498B573
:100E4000915098BD99B5FA01449194130AC098B590
:100E5000F9012491921305C0C091CB002BDAC09305
:100E6000CB0010928B0010928A00EDCE1530A9F4C1
:100E70008091CC00823408F4E6CE90E08C1B9D0B70
:100E8000282F813491052CF08739910518F026E937
:100E900001C021E42093CB00D6CE1630B9F4909156
:100EA000CC008091AF00981708F0CDCEC90FD11DAE
:100EB00090E08C179D0734F0C134D10524F4C1E4CF
:100EC000D0E001C0EC01C093CB00BDCE173079F467
:100ED0009091CB008091CC00891710F48F5F04C0F3
:100EE000981708F0B0CE81508093CB00ACCE0111A2
:100EF00044C0133C99F481E0B11080E08093AB00D2
:100F0000F0DAC1DA8091CC0090E03BDA80937A008D
:100F1000A9DA8091CC0080938C0030C0133B29F477
:100F2000CD2B09F090CE8E2D04C0133E21F480917C
:100F30007A0098DA23C0153C41F480E0BBD960E028
:100F400070E08CEE9BE05EDC19C0173B29F460E09A
:100F500070E08CE098E00FC01A3C39F48091CC002E
:100F60008093AE00BEDA81DA09C01A3B31F460E04A
:100F700070E084E198E02EDC01C001E0802FDF9179
:100F8000CF911F910F91FF90EF90DF90CF90BF9086
:100F9000AF900895883061F41092890080E08AD97A
:100FA0008091CE00811136C081E08093890022C0FB
:100FB000982F907F903BB1F420918900421778F0F0
:100FC000CB016DE570E021D7029739F42F5F2093B4
:100FD00089004217F8F088E303C082E101C080E095
:100FE00069D918C0903E61F480918900882389F006
:100FF000481778F060E070E08BEA93E0EBDB0AC022
:101000008A3041F46091A10080918900F90109952D
:1010100068DA78DB80E0089521E831E043E0BACF78
:1010200021E831E044E0B6CF22EF32E044E0B2CF35
:101030002FE432E041E0AECF23E532E042E0AACF38
:101040002EE632E041E0A6CF8CE287B91092F5009F
:101050001092F60086B1886486B908951092F70060
:1010600024B195B13091CA0022952695269523701A
:10107000892F90E0880F991F880F991F820F911D6B
:10108000830F8093CA008091EC00882309F404C187
:101090001092EC008091F500811143C080917D0099
:1010A000882349F06091F1007091F2007093EE0096
:1010B0006093ED0004C06091ED007091EE00605F00
:1010C0007F4FA6E076956795AA95E1F780E098E5D1
:1010D0009CD680917C0090E00297680F791F7695EE
:1010E00067956093EB008091A000882311F08150F8
:1010F00007C06D3138F460E070E084E049D885E0E5
:101100008093A0008091CD008111BDC08FEA87B986
:1011100081E08093F5001092F60086B1886486B96C
:10112000B2C0813009F0AFC080917D00811143C011
:101130008091EF009091F00040969C0145E036953B
:1011400027954A95E1F7A091E800A90156954795A2
:101150000A2E000CBB0BCD0183519140840F951FCB
:101160009093EA008093E90080918F00E82FF0E0EF
:10117000EE0FFF1FE057FF4F40815181B901641B03
:10118000750B318320838F5F877080938F00CB0135
:10119000880F991F880F991F40917B0050E04D5E8A
:1011A0005E4F4A1B5B0B440F551F841B950B820F30
:1011B000931F23E01CC08091F3009091F400909362
:1011C000F0008093EF00409635E0969587953A952C
:1011D000E1F7E0E9F0E08193919320E0E03AF20753
:1011E000D1F7A6CF009709F00196215029F01816E3
:1011F0001906C4F70197F9CF18161906E4F477FD1C
:1012000039C020918E0012160CF1880F991FBC0175
:101210006350710977FF02C06F5F7F4F75956795C7
:101220001616170614F061E070E088E1861B8093C3
:101230008E0085E026C08C3F2FEF9207DCF477FF0D
:1012400019C020918E0027FF05C02450281B209331
:101250008E0018C024EE281B20938E002091EB00F6
:101260002F3180F06CEF7FEF681B790B75956795D8
:1012700086E007C08091EB008E3120F060E070E0E6
:1012800087E086D7E1DE80917D00882329F0809178
:101290007D00815080937D0008950F931F93CF931D
:1012A0001092D00080912801909129019C012F5F1C
:1012B0003F4F88279078822B932B9093290180931E
:1012C0002801C091CE00D8D7C81729F11092CD00BF
:1012D0008093CE0090912A01882359F0892F80694C
:1012E0009F709F3009F08F5F80932A0180E090E02B
:1012F0000DC0892F8F7E95FD02C0806801C0806C73
:1013000080932A01809128019091290191D7109210
:101310002901109228010091280110912901809142
:10132000CD00882339F0B80183E032D7CF911F91E7
:101330000F9147C7C0912A018C2F807F803B19F401
:1013400060E070E001C0B80181E022D7C4FF12C0A4
:10135000C5FF02C0C8010CC008311105C8F01092C9
:10136000290110922801C062C0932A0180E090E018
:101370005FD70EC0CC2361F0C5FD09C00231110555
:1013800038F0C064C0932A0180E090E051D754D770
:1013900080918D00811106C086B1886486B981E094
:1013A0008093EC0080918D008F5F8F7180938D0012
:1013B000CF911F910F9108958091F70081114EDE1A
:1013C0008091D000811169CF0895CF92DF92EF9282
:1013D000FF920F931F93CF93DF93EC0110E800E08F
:1013E00088E0E82E87E0F82E92ECC92EDD24D39415
:1013F000209709F18091B00081111FC08091CC002D
:10140000863040F482E00FB6F89416BD86BD0FBE5C
:10141000C60106C00FB6F89416BD06BD0FBEC701C3
:101420000197F1F70FB6F89416BD06BD0FBEC4DFE5
:10143000C8D62197DDCF81E001C080E0DF91CF9158
:101440001F910F91FF90EF90DF90CF900895CF9371
:10145000C82F882381F089E12DD786EA90E0B5DF97
:1014600080E028D78AEF90E0B0DFC150A1F78AE989
:1014700092E0CF91AACF89E11DD788E090E0A5DF67
:1014800080E018D78AEF90E0A0DFF1CFCF93DF9311
:1014900064E6AFD4282F892F6AE0ABD4EC01222375
:1014A00041F0822FD4DF8C2FD2DF8D2FDF91CF91AF
:1014B000CECFC111F8CFF9CFCF93DF93D82FC3E0B0
:1014C00080917A00F7D68DE790E07FDFDD2319F079
:1014D0008AEF90E07ADF80E0EDD68DE790E075DF6F
:1014E000C15071F7DF91CF910895DF92EF92FF9293
:1014F0000F931F93CF93DF93D82F8B01C0916B0075
:1015000081E08093A300C33009F0D3C0F090A8001D
:101510008D2F7CD8FF2051F08091A800811106C04A
:1015200060E070E084E095E06DD9C3C0D83021F46C
:1015300081E080936300BFC0D23C19F41092A800F0
:10154000C8C0D13BC1F490916200012B49F49E3692
:1015500010F08FEF03C0923018F481E080936300A5
:1015600080916300890F11F481E02BC18F3608F45C
:1015700028C18EE626C1D13E31F480916300819569
:1015800080936300DCC0D23B61F481E08093630010
:1015900080916200823008F4DAC08150809362004A
:1015A000D6C0D13009F0E4C00932110511F4D0934E
:1015B0006300D09087008D2D880FD7FC809590E038
:1015C00067E070E005D4292FE09086008E2D880F0B
:1015D000E7FC8095D09161006D2F70E090E0F8D32A
:1015E000290FF09085008F2D880FF7FC8095C09112
:1015F00060006C2F70E090E0EBD3920F609162007E
:1016000070E0690F711D8091A800813091F4809184
:10161000A5009091A60025E0969587952A95E1F77B
:1016200024E730E0A901481B590BCA01D1D3B90105
:10163000ECD3862F3FD600FD05C027D68170D80E8B
:10164000D092870080918400E80EE09286001DD63B
:1016500065E2CFD3F90EF092850017D68F7329F487
:1016600014D66DE0C6D390938400DD2331F00DD6FF
:101670008F7319F4D150D093610007D6811107C040
:1016800004D66BE0B6D39093610010928600C3300D
:1016900030F0FBD58F7119F4C150C0936000F5D5BF
:1016A0008F7709F079C0F1D566E0A3D390936000FD
:1016B00073C0D83021F481E08093640084C0D13CB1
:1016C00031F460E070E084E095E09CD87CC0D23CCE
:1016D00049F48C2F90E0019665E070E0AAD38093E6
:1016E0006B004BC0D13B49F5C23090F400FD6BC09C
:1016F000EC2FF0E0E759FF4F808190916400891B47
:10170000883020F08F3F91F58EEF30C088E02EC0FA
:10171000C43009F058C09091680080916400890F2E
:10172000823010F482E003C0893708F088E78093A4
:10173000680080916800BED546C0D13E31F48091EA
:10174000640081958093640018C0D23BA1F481E0CD
:1017500080936400C23060F500FD35C0EC2FF0E0EE
:10176000E759FF4F80818F3F71F18F5F80832BC0DE
:10177000D13C09F4A6CFD23E11F4B3D624C0D53C57
:1017800039F460E070E08CEE9BE03CD880E0D3CF91
:10179000D13011F081E018C00932110519F481E04F
:1017A000809364008091CA00080F0093CA000BC0A8
:1017B000C43049F480916800833008F4BACF815076
:1017C000B6CF8093620080E0DF91CF911F910F919F
:1017D000FF90EF90DF9008950F931F93CF93DF93C7
:1017E000D82F8B01883031F48091A300813011F41F
:1017F00088E07BDE8D2F8079803959F481E08093F9
:10180000A200C091A300C1110AC080917A0052D5F4
:101810001FC0803831F41092A20080E04BD5C0E0A8
:1018200017C0D130A1F4C091A200CC2351F0809117
:10183000A3008130A1F7B801DF91CF911F910F91E3
:1018400054CE0733114058F3D093CD0001C0C1E00E
:101850008C2FDF91CF911F910F9108951F920F92BE
:101860000FB60F9211242F933F938F939F93AF93B3
:10187000BF93EF93FF938091F6008823E9F0E09106
:10188000F50024B135B1F0E0EE0FFF1FDF01AF50DE
:10189000BF4F2D933C93E351FF4F8081918182177D
:1018A000930708F401962817390708F401979183E4
:1018B000808381E08093F70081E08093F600FF91C0
:1018C000EF91BF91AF919F918F913F912F910F9089
:1018D0000FBE0F901F9018951F920F920FB60F9288
:1018E00011248F9381E08093D0008F910F900FBED1
:1018F0000F901F9018951F920F920FB60F92112400
:101900008F9381E08093CF008F910F900FBE0F9047
:101910001F901895F89484B7877F84BF0FB6F8940A
:10192000A89581B5886181BD11BC0FBEB89A81E0D0
:1019300083BF81EA8ABDB99A88E088BB85BB8BB733
:1019400080628BBFA89581B5886181BD80E481BD2F
:101950007BDB87EE86B9789481E078D460E070E034
:1019600082E294E037D71092B0007FD585D4811100
:1019700008C0F89480E091E06FD2853A51F17894F4
:101980009BC0C0E08C2F96D483E190E01EDD8C2FAD
:10199000869590D483E190E018DD6ED4882381F0A1
:1019A000CF5FC03479F765E181E07DD59AD5C6E98E
:1019B0008C2F80D484E090E008DDC150C9F7D9CFE6
:1019C000CC23B9F28C2F76D48DE090E0FEDCC150B0
:1019D000F7CF01EB10E0C1E0D1E0CE013DD2F8013C
:1019E00081938F012196CA31F1E0DF07B1F7789436
:1019F0008091B1008093AB008091B200809373001E
:101A00008091B300809370008091B40080936D004A
:101A10008091B500809374008091B600809371002E
:101A20008091B70080936E008091B800809375001C
:101A30008091B900809372008091BA0080936F000A
:101A40008091BB00809379008091BC008093AC00B2
:101A50008091BD008093AA008091BE0080937800A1
:101A60008091BF008093AE008091C0008093AD0054
:101A70008091C10080936B008091C20080936900C7
:101A80008091C30080936A008091C40080936800B5
:101A90008091C50080936C008091C60080937B008C
:101AA0008091C7008093E8008091C80080937C00FB
:101AB0008091C9008093A4008091AE008111809331
:101AC0007A0061E070E084E095E084D643E4342E4F
:101AD00052E0452E67EE562E70E4672E77247394FD
:101AE000CC24C394D12CFCEF8F2EF3E09F2EA4E0E6
:101AF000AA2EA5E0BA2E65D38091D3009091D40090
:101B0000009749F06091D1007091D2007BD610927D
:101B1000D4001092D3008091CD00882309F444C0F2
:101B200080E0C8D3A89581B5886181BD31BC379864
:101B3000A3D38111FDCF80D38BB780628BBF10926E
:101B4000F7001092D0001092CF008091CD00882332
:101B5000F9F085B7877E806185BF85B7806285BFD4
:101B6000889585B78F7D85BF8091CF0081111092B8
:101B7000CD008091F700882329F070927D0070924B
:101B8000EC006CDA8091D0008823F9F286DBDDCF9F
:101B900040927D008BB78F7D8BBF56DA56B8A895E3
:101BA00081B5886181BD61BC07DC1092B000809175
:101BB000E6009091E70022E08D34920779F4CEE1BF
:101BC000D0E0FE018491805342DC8CE291E0FDDBA9
:101BD0002196F0E0CA32DF07A1F7B6C02AE08537C8
:101BE000920779F03BE08C3E930709F0A2C0809108
:101BF000A300813009F0E1C08091A200882309F49C
:101C0000DCC0C0916B00C23001F120F0C43009F497
:101C100076C071CFEC2FF0E0E759FF4FD08186E915
:101C200049D3C11109C0DA3220F4C4010197F1F798
:101C300007C081E090E003C08D2F869590E0C5DB62
:101C400080E038D38D2F90E0B6C01FD38F73E82E7D
:101C5000F12C1BD367E0CDD0E60102C0CC0FDD1F15
:101C60009A95E2F712D365E0C4D0F60102C0EE0FF8
:101C7000FF1F9A95E2F7CE0FDF1F07D390E0BE015A
:101C8000D8D0C80FD91FC739D10514F0C6E9D0E0A4
:101C90008C2F10D3C70199DB8E0133E01595079582
:101CA0003A95E1F7011101C001E010E0C7018DDBB9
:101CB000C01BD10BD7FF02C0C0E0D0E08C2FFAD2FE
:101CC000E4D2837031F4C70180DBCE01959587950E
:101CD000F1D2C230D10554F7D8D26DE08AD0E601F6
:101CE00002C0CC0FDD1F9A95E2F7CFD290E0BE0183
:101CF0008CD0C80FD91F80E0DDD2CE015CC0C0916E
:101D00006800CC0FC73908F0C6E9D4E08C2FD2D2D6
:101D100085E090E05ADB80916800CCD281E490E0CD
:101D200054DBD15099F780ED92E04FDB80E0C2D2D6
:101D3000E2CEF4E08F369F0781F48091EB00A6DBC2
:101D400080917900882381F0B092D400A092D300D2
:101D50001092D2001092D100CECE24E08F3892079C
:101D600031F48091E90092DB88EE93E024C034E006
:101D700088349307A9F48091CE008111BCCE809164
:101D80007A0098D284E690E020DB80E093D28091C4
:101D90006C0090E068EE73E01BD0845691090BC094
:101DA0008051944051F480E087DB81E085DB80E066
:101DB00083DB81E792E009DB9ECE85B7877E85BF16
:101DC00085B7806285BF889585B78F7D85BF93CEA7
:101DD0000024552704C0080E591F880F991F00972B
:101DE00029F076956795B8F37105B9F7802D952F91
:101DF0000895991B79E004C0991F961708F0961B67
:101E0000881F7A95C9F780950895AA1BBB1B51E1DD
:101E100007C0AA1FBB1FA617B70710F0A61BB70B5A
:101E2000881F991F5A95A9F780959095BC01CD01FF
:101E3000089597FB072E16F4009406D077FD08D07E
:101E4000E4DF07FC05D03EF4909581959F4F0895FF
:101E5000709561957F4F0895E199FECF9FBB8EBB32
:101E6000E09A99278DB30895262FE199FECF9FBB65
:101E70008EBBE09A01970DB2021639F01CBA2DBB49
:101E80000FB6F894E29AE19A0FBE0895F894FFCF46
:101E9000060B180101010004412943030201070553
:101EA00078785F010A0A78010101412D0702730069
:041EB00070006D0051
:00000001FF
