:10000000D7C00000F2C000000C94280EEEC0000023
:10001000ECC000000C94190EE8C00000E6C000001F
:10002000E4C00000E2C00000E0C00000DEC000004C
:10003000DCC00000DAC000000C94DB0DD6C000006C
:10004000D4C00000D2C00000D0C00000CEC000006C
:10005000CCC00000CAC00000C8C00000C6C000007C
:10006000C4C00000C2C00000C0C00000BEC000008C
:10007000323032313132303830323533000105041C
:100080001410111500000000010001000200020020
:100090000300030004000500050006000700080037
:1000A00009000A000B000C000D000E000F001000EC
:1000B0001100130014001600170019001A001C008C
:1000C0001E001F0021002300250027002A002C000D
:1000D0002E0030003300350038003B003D0040006A
:1000E0004300460049004C005000530056005A009F
:1000F0005E006100650069006D00710075007A00A6
:100100007E00820087008C00900095009A009F007E
:10011000A500AA00AF00B500BB00C100C600CC001E
:10012000D300D900DF00E600EC00F300FA00010183
:1001300008010F0117011E0126012E0136013E01A3
:1001400046014E0157015F01680171017A01830187
:100150008D019601A001AA01B401BE01C801D2011E
:10016000DD01E801F301FE010902140220022B0265
:10017000370243024F025C026802750282028F025C
:100180009C02AA02B702C502D302E102EF02FE02FC
:100190000C031B032A03390349035803680378033C
:1001A00088039903A903BA03CB03DC03ED03FF0320
:1001B00011241FBECFEFD4E0DEBFCDBF11E0A0E021
:1001C000B1E0E0E6F2E202C005900D92AC34B10776
:1001D000D9F721E0ACE4B1E001C01D92A83FB2071D
:1001E000E1F70E94370E0C942E110ACF482F9B0185
:1001F000E5ECF1E080E090E05081552331F001968C
:10020000339680319105C1F70AC063E070E00E9427
:10021000D010FC01EB53FE4F4083328321830895BD
:100220000F931F93CF93DF93D091C501DD2351F13D
:100230000091C6011091C701C091A201C150C7FD34
:100240000DC0EC2FEE0FFF0BED55FE4F0190F0812E
:10025000E02DB8018D2F09958111F0CFE5ECF1E08B
:10026000838180838481958192838183339681E029
:10027000E23FF807A9F71092F2011092F4011092F0
:10028000F301D2CFDF91CF911F910F910895BC015F
:100290008091F701ABCF1092F7011092F601109206
:1002A000F50181E080937B01089528E13FE18150D1
:1002B00020F0F9013197F1F7FACF0895E0910601A6
:1002C000F09107013196FB70F460F0930701E09321
:1002D0000601809197018B5A80939701E491809158
:1002E00097018E0F08950F931F93CF93DF9300D044
:1002F0001F92CDB7DEB720912001309121014091AE
:10030000220129833A834B83FE01319640E050E07D
:1003100090E061E070E0B1919A01220F331F8C01EF
:1003200002C0159507952A95E2F79801237061F0B0
:100330002130D1F4A0B39B0101C0220FBA95EAF796
:10034000322F30953A2318C0A0B39B0101C0220F71
:10035000BA95EAF720953A2F322330BB32B33223D5
:1003600032BB31B323230EC0A0B39B0101C0220FC7
:10037000BA95EAF73A2F322B30BB32B3322B32BB6D
:1003800031B3232B21BB4F5F5F4F4330510519F62B
:100390000F900F900F90DF91CF911F910F910895C3
:1003A000CF93DF9300D000D000D0CDB7DEB79091CF
:1003B00076012091B3013091B4012F5F384009F4E8
:1003C00092E0843019F46093770121C06623F9F03C
:1003D000823019F427E9261B622F26E0E3E2F1E0E0
:1003E000DE01119601900D922A95E1F7E82FF0E0D9
:1003F0003197EE0FFF1F21E030E02C0F3D1FE20F81
:10040000F31F0190F081E02DE90FF11D6083269626
:100410000FB6F894DEBF0FBECDBFDF91CF91089528
:10042000BF92CF92DF92EF92FF920F931F93CF93E1
:10043000DF93EC0140917601E0911B01EE2311F076
:1004400082E001C0842F90E0DC01AB5EBE4F2C91B6
:1004500020931901DC01AE5EBE4F8C918093180190
:10046000F0E0E15FFE4F3181622F70E0442349F0FC
:10047000313039F49B01280F311DC90195958795BD
:1004800038C0C617D707A4F1682F70E06C177D0736
:1004900084F1411102C08C2F2CC0821B032F10E06D
:1004A00001501109E82EF12CC701B8010E94011179
:1004B000609374016695E62FF0E0822FC12CD12C59
:1004C000B12CB316B1F0C601B8010E94ED10822F15
:1004D000860FCE0CDF1CAE01481B510957FF03C02D
:1004E000519541955109E417F5071CF4B394E9CFF0
:1004F000822FDF91CF911F910F91FF90EF90DF90AE
:10050000CF90BF9008959091B80180E09D3180F028
:10051000E82FF0E0E45CFE4F2081921710F08E5F30
:10052000F7CF3197E081F0E0E358FF4F84910895D1
:1005300008950F931F93CF93E82F8091B8018150B6
:100540008C3110F480E066C0CE2FC295CF70EF7072
:1005500080919A01811103C0C33008F0C2E0E730F6
:1005600078F1862FE730A9F40091510110E00F5F78
:100570001F4FA4DE65E00E94E1109801290F311D94
:10058000C90166E070E00E94011180935101FC01F5
:1005900026C090919A01E830A9F4992311F06FE0F8
:1005A00001C063E0862351F48091510190E00196EF
:1005B00066E070E00E94011180935101E0915101C9
:1005C000F0E00DC0992319F09EDFE82F0BC086954F
:1005D00063E00E94E110E92FF0E0EE0FFF1FE35807
:1005E000FF4FE491C33071F48091500190E0019687
:1005F00063E170E00E94ED1080935001DC01A75D83
:10060000BE4FCC91CC2321F0C13019F0EE0F01C0C8
:10061000E0E08E2FCF911F910F9165CE81E008957C
:10062000611160931E010895662389F0813061F4A1
:100630008091B6019091B501891B681B6093B5014B
:1006400082E080931F0103C0635E60931D0180916F
:100650001D01873418F086E480931D01089560938E
:100660006E0108950F931F93CF93DF9380917601CE
:1006700080937C018091150180937D01809112010E
:1006800080937E0180910F0180937F0180911601FC
:1006900080938001809113018093810180911001EA
:1006A00080938201809117018093830180911401CE
:1006B00080938401809111018093850180911B01B9
:1006C00080938601809177018093870180917501E5
:1006D0008093880180911A0180938901809179012A
:1006E00080938A018091780180938B0180910B0126
:1006F00080938C018091090180938D0180910A0182
:1007000080938E018091080180938F0180910C016C
:100710008093900180911D01809391018091B5019A
:100720008093920180911E018093930180910E012C
:100730008093940180910D018093950180916E01C9
:100740008093960182E0B1DDF8940CE711E0C1E8F6
:10075000D0E0F80161918F01CE010E941C11219619
:10076000CC39D105B1F765EA80E890E00E941C1110
:100770007894DF91CF911F910F9108958093990103
:1007800080939801811107C010926D0010926C0047
:10079000689848980895689A489A8150E82FF0E040
:1007A000EE0FFF1FEC57FF4F8591949190936D00D2
:1007B00080936C00089580937A01E0CFCF93C0912D
:1007C000990189E18C0F873908F080E0D7DF82E05A
:1007D0006CDD8C2FCF91D2CFCF93C091990180E067
:1007E000CDDF83E062DD8C2FCF91C8CF813019F44B
:1007F000109279010895823019F460937801089578
:10080000833019F4609375010895843011F4609376
:100810001A010895CF93C0911B01C1114AC08830BD
:1008200039F4109272011092700110926F0142C05F
:10083000813B59F48091720181508330D0F583E07F
:10084000809372018093710134C0853BB1F4CB0178
:100850006EE370E00E94ED10892B61F580917201CA
:100860008A3F40F58B5F80937201809371011092F3
:10087000700110926F01A2DF1DC08130D1F4809110
:100880006F0190917001019688382EE0920728F44C
:100890009093700180936F010DC0109270011092BF
:1008A0006F0180917201882329F081508093720139
:1008B00001C0C1E08C2FCF910895FF920F931F9339
:1008C000CF93DF938C01EB01F42E8091B3019091D3
:1008D000B401892B31F0E091B301F091B40189E0CA
:1008E00009951093B4010093B301012B39F0E09105
:1008F000B301F091B401BE018F2D099581E0809381
:100900007B01DF91CF911F910F91FF900895CF93BD
:10091000DF93E091A201EE2359F0E150E093A201B0
:10092000F0E0EE0FFF1FED55FE4FC081D18102C0F8
:10093000C0E0D0E0E091A201EE2341F0F0E0EE0F44
:10094000FF1FEF55FE4F8081918102C080E090E053
:100950004AE060E070E0B1DFCE01DF91CF91089511
:10096000883029F410926B011092520115C0813029
:10097000F9F490915201911107C06032710568F14C
:100980008093520188DC29C0913081F46B3B710562
:1009900028F082E08093520180E01EC0611571054D
:1009A000E1F06270862F880F8E5E16C0B0DF15C032
:1009B000813811F0813E89F491E090935201813E9B
:1009C00021F480916B01865F03C080916B018F5F82
:1009D00080936B0160DC8BE4D1DE80E008959C01A4
:1009E0009091A201983088F4E92FF0E0EE0FFF1FFC
:1009F000ED55FE4F318320839F5F9093A20148E025
:100A0000C9015BDF8091A20108958FEF08950F93D4
:100A10001F93CF93DF93EC018B0179DFB801CE01F7
:100A2000DF91CF911F910F91DACF813C29F460E0E3
:100A300070E080EB95E006C0823C39F460E070E045
:100A400086E795E0E4DF80E0089581E00895843052
:100A500011F58091B3019091B4012CE08D30920793
:100A600029F469E170E084EB96E013C0845B964062
:100A700061F490919901923040F0892F8695969576
:100A80009695890F98DE80E0089560E070E080EB35
:100A900095E0BDDFF8CF81E00895813C29F460E066
:100AA00070E080EB95E006C0823C31F460E070E0DD
:100AB00085E195E0ACDF16C0813B49F4CB016EE3E4
:100AC00070E00E94ED10892B69F478DE0BC0813E46
:100AD00059F4CB016EE370E00E94ED106F5F6093FC
:100AE0000C01C0DD80E0089581E00895CF93C091AE
:100AF0001B01C11117C0813C29F460E070E080EB5C
:100B000095E006C0823C31F460E070E086E995E053
:100B10007EDF09C0873B31F460E070E087E099E058
:100B20005EDF01C0C1E08C2FCF910895813C29F494
:100B300060E070E080EB95E006C0823C31F460E05C
:100B400070E08DE495E063DF07C0873B39F460E037
:100B500070E08BE099E043DF80E0089581E0089544
:100B60000F931F93CF938B01883079F480E006DEDA
:100B700060E080910E01DDDC10927201012B19F40E
:100B800081E080939A01C0E0EAC0813049F4693184
:100B90007105C8F380939A0180910E01CADCF3CFEE
:100BA000833009F520917901222361F08091780149
:100BB00090E062EC71E00E94D0100817190710F065
:100BC00020931C01602F80910E01B3DC80916E0197
:100BD0008823C9F290E062EC71E00E94D010801787
:100BE000910788F64DC0813B99F481E090E018DCD4
:100BF000C5DD809175018111C6CF8091760181118B
:100C000004C00831110508F4BECF61E070E028C0CF
:100C1000813ED9F3813821F480911C0190E013C00A
:100C2000813C21F46091990170E01AC0823B79F413
:100C300080911A0190911B0191118091770181118E
:100C400004C086E990E0ECDB05C086E903C0823E83
:100C500019F480E093DD97CF823C31F466E970E0CF
:100C600084EB96E0D4DE8FCF833999F3833C29F46B
:100C700060E070E086E795E0F5CF843C31F49EDDDE
:100C800060E070E083E199E0EDCF8F3C29F460E013
:100C900070E08EE093E0E6CFC0911B018A3B79F4CF
:100CA000672B69F4CC2329F089DD10921B01DADC73
:100CB0006ACF60E070E08FEF98E091DE50C0C11124
:100CC0004DC08A3C29F47ADD81E080931B0144C049
:100CD000833B29F460E070E08DE09CE007C0853C38
:100CE00039F46CDD60E070E083E99DE090DE37C0B0
:100CF000873C91F490910E01892F82958F708F5FC0
:100D000083708295807F9F70892B80930E0160E0B5
:100D100010DCA8DC53DD23C0873BD1F481E0809355
:100D20007301C8018F739927892B69F490910E0183
:100D3000892F8F708F5F292F207F6BE00E94E11039
:100D4000922B90930E01602F80910E01F2DB07C071
:100D5000873E21F41092730185DC01C0C1E08C2F25
:100D6000CF911F910F910895AF92BF92CF92DF92D2
:100D7000EF92FF920F931F93CF93DF93182FEB0106
:100D8000D0901901E0901801B0907601BB2019F0C5
:100D9000C090740102C0CC24C39480911A010091C8
:100DA0001B01011180917701882349F0813021F0E6
:100DB00080911C018E1518F0A6E9FA2E01C0FE2CB8
:100DC000A0907201BE01812F25DD60917201662322
:100DD00039F0A1100CC0809199018093560107C091
:100DE000AA2029F060E070E080EB95E038C0812F08
:100DF0008D7F8830D1F410926D011A3019F4C091B2
:100E00001C01D0E08D2D90E08C179D0730F4F12C63
:100E1000CE15DF0510F4C0931C01CE0101DBCBDC45
:100E200081E08093050100E097C1113CD9F2123CAA
:100E300071F4809199018F1510F48F2D02C080916B
:100E40001C01B9DC8091990180935601ECCF143CD0
:100E500041F480E093DC60E070E083E199E0D7DD6D
:100E6000E2CF8FE4810F823008F054C0BB2041F004
:100E7000CE0168E170E00E94ED10892B31F0D3CFF4
:100E800060910F0170E0CE01F6CF2091990120977B
:100E900061F4123B11F48FEF05C02E15E0F7D21666
:100EA00008F181E0809305011DC0E0910F01F0E0A1
:100EB000CF0166E371E00E94D0108C179D0710F4FB
:100EC0002E1548F7CF016CE672E00E94D0108C1707
:100ED0009D0740F4D21630F071DC60E070E083E1F1
:100EE00099E095DDD0919901809105016C2D70E01C
:100EF000082E000C990B0E94D0108D0F911D90DAD6
:100F0000C82F80931C01D81719F0E81201C064DCC7
:100F10008C2F97CF8FE1810F823020F480910501D3
:100F200081957FCF113009F090C0A99711F41093EB
:100F300005016623A1F08091560170E061507109AE
:100F400090E00E94D0106091710170E00E94011148
:100F5000611101C061E06093980160937A01C091D2
:100F60009801809199012C2F30E0281B3109609164
:100F70005401709155016F5F7F4F709355016093DD
:100F800054012115310509F44ECF37FF05C08338D0
:100F900030F040E450E005C040E052E002C040E0E4
:100FA00051E05695479537FF02C02F5F3F4F35956B
:100FB000279521153105A9F74617570708F033CFB4
:100FC000C81710F4815005C08C1710F48F5F01C052
:100FD0008C2FEFEFE80FF0E0EE0FFF1F9F012C5773
:100FE0003F4FF9014591549160916C0070916D00F3
:100FF0006417750738F440916C0050916D004F5F95
:101000005F4F0DC060916C0070916D0046175707DF
:1010100050F440916C0050916D0041505109509333
:101020006D0040936C0040916C0050916D00F9018F
:10103000259134914217530719F4A0DBC09398010E
:101040001092550110925401EECE1530A9F4809102
:101050009901833308F4E7CE90E08C1B9D0B282F79
:10106000823391052CF08739910518F026E901C0EB
:1010700022E320939801D7CE1630B1F490919901D4
:1010800080917A01981708F0CECEC90FD11D90E05B
:101090008C179D0734F0C233D10524F4C2E3D0E0AD
:1010A00001C0EC018C2F0EC0173079F4909198019B
:1010B00080919901891710F48F5F04C0981708F088
:1010C000B2CE815080939801AECE011144C0133C42
:1010D00099F481E0B11080E080937601C3DA7CDB83
:1010E0008091990190E09CD980931C0164DB8091F0
:1010F00099018093560130C0133B29F4CD2B09F0A0
:1011000092CE8F2D04C0133E21F480911C0153DB3D
:1011100023C0153C41F480E031DB60E070E083E9FE
:101120009DE075DC19C0173B29F460E070E08BEF9F
:1011300098E00FC01A3C39F48091990180937901AD
:1011400091DA3CDB09C01A3B31F460E070E083E0E7
:1011500099E045DC01C001E0802FDF91CF911F9124
:101160000F91FF90EF90DF90CF90BF90AF900895D8
:10117000883061F41092530180E000DB80919B0184
:10118000811137C081E08093530123C0982F907F55
:10119000903BB9F420915301421780F0CB016DE5EB
:1011A00070E00E94ED10029739F42F5F20935301F5
:1011B0004217F8F088E303C082E101C080E0DEDA84
:1011C00018C0903E61F480915301882389F048173C
:1011D00078F060E070E080EB94E001DC0AC08A30D7
:1011E00041F460916B0180915301F90109953ADA5C
:1011F0008EDB80E0089520ED31E043E0B9CF20EDB3
:1012000031E044E0B5CF26EF33E044E0B1CF20E158
:1012100033E041E0ADCF24E133E042E0A9CF2FE25B
:1012200033E041E0A5CF0F931F93CF93DF93D82FE7
:101230008B01873B19F480E0A1DA54C080798039B2
:10124000B1F420911501909116018D2F8F7082308D
:1012500041F480917901811108C0822F291728F467
:1012600003C0822F921708F4892F88DA0BC08038C8
:1012700011F480E083DAD83029F460E080910D0128
:1012800058D930C0D13039F40931110508F46BC098
:10129000D0939A0102C0D33029F4602F80910D01C0
:1012A00048D961C0D43C71F4C0917901CC2319F0C4
:1012B0006C2F70E013C060911C0170E084EB96E02D
:1012C000A6DB54C0D43B31F479DA1092F70161E027
:1012D00070E004C0D53C31F466E970E084EB96E040
:1012E00096DB41C0C0911B01C1113FC0DA3B31F414
:1012F00060E070E08FE099E072DB38C0D73C91F499
:1013000090910D01892F82958F708F5F83708295E8
:10131000807F9F70892B80930D0160E00AD9A2D94C
:101320004DDA24C0D73BC9F481E080937301C80132
:101330008F739927892B61F490910D01892F8F70FC
:101340008F5F292F207F6BE03CD7922B90930D016C
:10135000602F80910D01EDD809C0D73E31F4109275
:10136000730180D903C0C0E001C0C1E08C2FDF91C0
:10137000CF911F910F91089586E884B91092C20110
:101380001092C30183B1886483B90895F5DFE1E663
:10139000F0E0808182608083139A87EE83B908959C
:1013A0001092C40120B191B13091970122952695F8
:1013B00026952370892F90E0880F991F880F991F19
:1013C000820F911D830F809397018091B90188232B
:1013D00009F406C11092B9018091C20190919A015D
:1013E000992319F01F981092C20181113DC080917C
:1013F0001F01882349F08091BE019091BF01909315
:10140000BB018093BA0104C08091BA019091BB01E5
:101410004096807E9695879561EC72E0DED680914D
:101420001E018750680F6093B80180916A0188237C
:1014300011F0815008C06D3140F460E070E084E04C
:101440000E94F60085E080936A0180919A018111E3
:10145000BEC08EE884B981E08093C2011092C301BE
:1014600083B1886483B9B3C0813009F0B0C0809182
:101470001F01811143C08091BC019091BD01409634
:1014800045E0969587954A95E1F76091B501AC01E5
:1014900056954795062E000C770B9B012E50314038
:1014A000240F351F3093B7012093B60120915901C5
:1014B000E22FF0E0EE0FFF1FE65AFE4F4081518110
:1014C000DC01A41BB50BAD01918380832F5F2770D6
:1014D000209359019D01220F331F220F331F820FCA
:1014E000931F20911D0130E0261B370B225F3E4FDA
:1014F000220F331F821B930B23E01CC08091C0017D
:101500009091C1019093BD018093BC01409635E05C
:10151000969587953A95E1F7EAE5F1E08193919305
:10152000B1E0EA36FB07D1F7A6CF009709F00196A4
:10153000215029F018161906C4F70197F9CF18168B
:101540001906E4F457FD39C02091580112160CF128
:10155000880F991FBC016350710977FDBC01759517
:101560006795759567951616170614F061E070E09B
:1015700080E2861B8093580185E026C08C3F2FEFC8
:101580009207DCF457FF19C02091580127FF05C0CE
:101590002450281B2093580119C02CED281B2093A0
:1015A00058012091B8012F3188F06CEF7FEF681B54
:1015B000790B7595679586E007C08091B8018E31EB
:1015C00028F060E070E087E00E94F600D5DE8091B0
:1015D0001F01882329F080911F01815080931F01F2
:1015E00008950F931F93CF9310929D018091F50161
:1015F0009091F6019C012F5F3F4F88279078822BB6
:10160000932B9093F6018093F50190919B012FB15C
:10161000822F8095881F8827881F80939B019817A9
:1016200029F110929A0180939B019091F701892FE3
:1016300027FD0AC080699F709F3009F08F5F8093FB
:10164000F70180E090E00CC08F7E95FD02C08068BD
:1016500001C0806C8093F7018091F5019091F601B3
:101660000E9447011092F6011092F5010091F501D8
:101670001091F60180919A01882379F0B80183E0F6
:101680000E94F6000E9410010F731127012B09F030
:1016900046C0109257017ADE32C0C091F7018C2FFC
:1016A000807F803B19F460E070E001C0B80181E008
:1016B0000E94F600C4FF13C0C5FF02C0C8010CC0E1
:1016C00008311105E0F01092F6011092F501C062A8
:1016D000C093F70180E090E00E94470110C0CC2346
:1016E00071F0C5FD0AC00231110548F0C064C09315
:1016F000F70180E090E00E9447010E944B01809139
:101700005701811106C083B1886483B981E0809359
:10171000B901809157018F5F8F7180935701CF91ED
:101720001F910F9108958091C401811139DE80913C
:101730009D01811156CF08950F931F93CF93DF938F
:10174000EC0108E017E0209761F080917B01219780
:10175000811109C0C8010197F1F7E5DF0E9410016E
:10176000F2CF81E001C080E0DF91CF911F910F9116
:101770000895CF93C82F882391F089E10E94BE037A
:1017800086EA90E0D9DF80E00E94BE038AEF90E015
:10179000D3DFC15091F78AE992E0CF91CDCF89E1B3
:1017A0000E94BE0388E090E0C7DF80E00E94BE0395
:1017B0008AEF90E0C1DFEFCFCF93DF9364E601D5EE
:1017C000282F892F6AE0FDD4EC01222341F0822FDB
:1017D000D0DF8C2FCEDF8D2FDF91CF91CACFC111FB
:1017E000F8CFF9CFCF93DF93D82FC3E080911C01BE
:1017F0000E94BE038DE790E09FDFDD2319F08AEFA2
:1018000090E09ADF80E00E94BE038DE790E094DFD5
:10181000C15061F7DF91CF910895DF92EF92FF926F
:101820000F931F93CF93DF93D82F8B01C0910B01A0
:1018300081E080936D01C33009F0DEC0F090720149
:101840008D2F0E940A04FF2051F0809172018111B6
:1018500006C060E070E080EB95E0D9D8CDC0D8300C
:1018600021F481E080930301C9C0D23C19F41092A5
:101870007201D3C0D13BC1F490910201012B49F414
:10188000973610F08FEF03C0923018F481E0809308
:10189000030180910301890F11F481E039C1883679
:1018A00008F436C187E634C1D13E31F4809103019A
:1018B000819580930301E8C0D23B61F481E080937D
:1018C000030180910201823008F4E6C081508093C8
:1018D0000201E2C0D13009F0F0C00932110511F463
:1018E000D0930301D0904F018D2D880FD7FC8095A8
:1018F00090E069E070E054D4292FE0904E018E2DE5
:10190000880FE7FC8095D09101016D2F70E090E089
:1019100047D4290FF0904D018F2D880FF7FC80954B
:10192000C09100016C2F70E090E03AD4920F60916A
:10193000020170E0690F711D80917201813091F494
:1019400080916F019091700125E0969587952A9579
:10195000E1F724E730E0A901481B590BCA0120D464
:10196000B9013BD4862F0E94BE0300FD06C00E9431
:101970005E018170D80ED0924F0180914C01E80E2B
:10198000E0924E010E945E0165E21BD4F90EF092D6
:101990004D010E945E018F7331F40E945E016DE083
:1019A00010D490934C01DD2339F00E945E018F73B7
:1019B00019F4D150D09301010E945E01811108C039
:1019C0000E945E016EE0FDD39093010110924E01E2
:1019D000C33038F00E945E018F7119F4C150C0937A
:1019E00000010E945E018F7709F07DC00E945E01B8
:1019F00087708093000177C0D83021F481E0809314
:101A0000040188C0D13C39F460E070E080EB95E0DF
:101A10000E9407057FC0D23C49F48C2F90E00196CC
:101A200065E070E0EED380930B014CC0D13B51F5E3
:101A3000C23090F400FD6EC0EC2FF0E0E75FFE4F87
:101A4000808190910401891B883020F08F3F99F5A7
:101A50008EEF31C088E02FC0C43009F05BC0909198
:101A6000080180910401890F823010F482E003C0E4
:101A7000893708F088E780930801809108010E9467
:101A8000BE0348C0D13E31F480910401819580931A
:101A9000040118C0D23BA1F481E080930401C2305C
:101AA00070F500FD37C0EC2FF0E0E75FFE4F80815E
:101AB0008F3F81F18F5F80832DC0D13C09F4A4CF8B
:101AC000D23E19F40E94320325C0D53C41F460E0B7
:101AD00070E083E99DE00E94070580E0D0CFD1301F
:101AE00011F081E018C00932110519F481E08093EA
:101AF000040180919701080F009397010BC0C43037
:101B000049F480910801833008F4B7CF8150B3CFF6
:101B10008093020180E0DF91CF911F910F91FF90A0
:101B2000EF90DF9008950F931F93CF93DF93D82FFB
:101B30008B01883031F480916D01813011F488E09F
:101B40006CDE8D2F8079803961F481E080936C01A7
:101B5000C0916D01C1110CC080911C010E94BE0397
:101B600024C0803839F410926C0180E00E94BE03DA
:101B7000C0E01BC0D130C1F4C0916C01CC2351F046
:101B800080916D018130A1F7B801DF91CF911F9154
:101B90000F9143CE0733114058F3D0939A0160E080
:101BA00080E00E94990201C0C1E08C2FDF91CF91AB
:101BB0001F910F9108951F920F920FB60F9211244B
:101BC0002F933F938F939F93AF93BF93EF93FF9385
:101BD0008091C3018823E9F0E091C20120B131B1C5
:101BE000F0E0EE0FFF1FDF01A254BE4F2D933C9398
:101BF000E654FE4F808191818217930708F4019685
:101C00002817390708F401979183808381E0809336
:101C1000C40181E08093C301FF91EF91BF91AF9127
:101C20009F918F913F912F910F900FBE0F901F901A
:101C300018951F920F920FB60F9211248F9381E087
:101C400080939D018F910F900FBE0F901F9018955C
:101C50001F920F920FB60F9211248F9381E0809301
:101C60009C018F910F900FBE0F901F901895F894C4
:101C700085B7877F85BF88ED90E00FB6F894A8956B
:101C80008FBD90B7977F90BF0FBE81E088B999E074
:101C90009CB998E390BB93E8909372008093710095
:101CA00080E882BB87BD8CB788608CBFA89580E434
:101CB00080BF6CDB789481E00E94550160E070E0A9
:101CC00087E295E00E94EF0410927B010E94DE0300
:101CD0009FB1892F8095881F8827881F80939B013B
:101CE00097FF0BC082E00E945501F89480E890E0D5
:101CF0009BD2853AB9F17894AFC0C0E08C2F0E9496
:101D0000BE0383E190E018DD8C2F86950E94BE0310
:101D100083E190E011DD9FB1892F8095881F88278E
:101D2000881F80939B0197FD13C0CF5FC03431F7AC
:101D300065E181E00E9414030E943203C6E98C2F02
:101D40000E94BE0384E090E0F7DCC150C1F7CACF27
:101D5000CC2341F28C2F0E94BE038DE090E0ECDC9E
:101D6000C150F6CF0CE711E0C1E8D0E0CE015CD263
:101D7000F80181938F012196CC39D105B9F7789478
:101D800080917C018093760180917D018093150183
:101D900080917E018093120180917F0180930F01D9
:101DA00080918001809316018091810180931301BD
:101DB00080918201809310018091830180931701AB
:101DC0008091840180931401809185018093110199
:101DD0008091860180931B01809187018093770118
:101DE00080918801809375018091890180931A0107
:101DF00080918A018093790180918B018093780191
:101E000080918C0180930B0180918D018093090159
:101E100080918E0180930A0180918F018093080147
:101E20008091900180930C018091910180931D011C
:101E3000809192018093B5018091930180931E015E
:101E40008091940180930E018091950180930D0102
:101E50008091960180936E01809179018111809328
:101E60001C0161E070E080EB95E00E94EF0443E428
:101E7000442E52E0552E60E4862E9924939477E008
:101E8000772ECC24C394D12CF5E06F2EA0EBAA2E94
:101E9000A5E0BA2E0E9410018091A0019091A101AD
:101EA000009751F060919E0170919F010E9407057B
:101EB0001092A1011092A00180919A01882309F447
:101EC00046C080E00E94BE03A89540BE1F989FB107
:101ED000892F8095881F8827881F80939B0197FFF3
:101EE000F6CF0E944B018CB788608CBF1092C40162
:101EF00010929D0110929C0180919A018823F9F023
:101F000086B78F79806486BF86B7806186BF8895E3
:101F100086B78F7E86BF80919C01811110929A01B5
:101F20008091C401882329F090921F019092B901F9
:101F300037DA80919D018823F9F253DBDDCF50928F
:101F40001F018CB7877F8CBF21DAA89580BEEBDBA1
:101F500010927B01C091B301D091B40180917301C3
:101F6000811105C00E948302880F0E947301F3E073
:101F7000CE30DF0779F4C0E7D0E0FE0184918053D2
:101F8000F8DB8CE291E0D8DB2196F0E0CC37DF077C
:101F9000A1F7C0C02CE0CD30D20779F03DE0C339C5
:101FA000D30709F0ACC080916D01813009F0EDC01C
:101FB00080916C01882309F4E8C0C0910B01C23004
:101FC000E1F020F0C43009F47DC064CFEC2FF0E0E4
:101FD000E75FFE4FD08186E90E94BE03C11103C0B6
:101FE00084E090E003C08D2F869590E0A5DB80E033
:101FF0000E94BE038D2F90E0C6C00E945E018F73C9
:10200000E82EF12C0E945E01672DDBD0E60102C0B4
:10201000CC0FDD1F9A95E2F70E945E01662DD1D0AC
:10202000F60102C0EE0FFF1F9A95E2F7CE0FDF1FF9
:102030000E945E0190E0BE01E4D0C80FD91FC739ED
:10204000D10514F0C6E9D0E08C2F0E94BE03C70171
:1020500073DB8E0133E0159507953A95E1F7011191
:1020600001C001E010E0C70167DBC01BD10BD7FF47
:1020700002C0C0E0D0E08C2F0E94BE030E945E012F
:10208000837039F4C70158DBCE01959587950E947E
:10209000BE03C230D1053CF70E945E016DE091D0D5
:1020A000E60102C0CC0FDD1F9A95E2F70E945E01A7
:1020B00090E0BE0192D0C80FD91F80E00E94BE03FD
:1020C000CE0161C0C0910801CC0FC73908F0C6E944
:1020D000D4E08C2F0E94BE0385E090E02DDB809140
:1020E00008010E94BE0381E490E026DBD15089F70D
:1020F00080ED92E021DB80E00E94BE03CBCEF5E0D4
:10210000C637DF0781F48091B80156DB80911B014F
:10211000882381F0B092A101A092A00110929F01AA
:1021200010929E01B7CE25E0C639D20731F48091D6
:10213000B60142DB88EE93E026C035E0CD34D3070C
:10214000B9F480919B018111A5CE80911C010E9460
:10215000BE0384E690E0F0DA80E00E94BE03809146
:102160000C0190E068EE73E01BD0845691090BC01F
:10217000C551D54051F480E035DB81E033DB80E0B0
:1021800031DB81E792E0D8DA85CE86B78F7986BFDA
:1021900086B7806186BF889586B78F7E86BF7ACEE8
:1021A0000024552704C0080E591F880F991F009757
:1021B00029F076956795B8F37105B9F7802D952FBD
:1021C0000895991B79E004C0991F961708F0961B93
:1021D000881F7A95C9F780950895AA1BBB1B51E10A
:1021E00007C0AA1FBB1FA617B70710F0A61BB70B87
:1021F000881F991F5A95A9F780959095BC01CD012C
:10220000089597FB072E16F4009406D077FD08D0AA
:10221000E4DF07FC05D03EF4909581959F4F08952B
:10222000709561957F4F0895E199FECF1FBA8EBBDF
:10223000E09A99278DB30895262FE199FECF1FBA12
:102240008EBBE09A81500DB2021639F01CBA2DBB3C
:102250000FB6F894E29AE19A0FBE0895F894FFCF72
:10226000080E180101010004322943030237180146
:102270000705828278010A0A82010101322D0702D4
:10228000050403150112010F010201000000000006
:10229000000001000000000000000001000021011A
:0C22A00023022503270429052C06FF0655
:00000001FF
