:1000000003C200001EC200000C9448111AC2000076
:1000100018C200000C94391114C2000012C2000072
:1000200010C200000EC200000CC200000AC2000094
:1000300008C2000006C200000C94FB1002C20000BF
:1000400000C20000FEC10000FCC10000FAC10000B7
:10005000F8C10000F6C10000F4C10000F2C10000C8
:10006000F0C10000EEC10000ECC10000EAC10000D8
:10007000323032313132303830313336000105041C
:1000800014101115FF3FB2333526023679257A3424
:10009000F526F52E643289335E336332DC30F72E79
:1000A0007A31CE2E952F9E2C812CEF2B0A2BEB290B
:1000B0004A2AC2287D28C72627265D257424742352
:1000C0006622F521CB20A01FF81ECA1D0F1DE71BBD
:1000D000241B091AF9183B183A17441659154314EA
:1000E0003E13491263116310750F740E870D8D0C4A
:1000F000A70B9E0AAC09B708C207CE06DD05DD04D2
:10010000E503F402FF01FF01FF01FF01FF01FF0111
:10011000FF01FF01FF01FF01FF01FF01FF01FF01DF
:10012000FF01FF01FF01FF01FF01FF01FF01FF01CF
:10013000FF01FF01FF01FF01FF01FF01FF01FF01BF
:10014000FF01FF01FF01FF01FF01FF01FF01FF01AF
:10015000FF01FF01FF01FF01FF01FF01FF01FF019F
:10016000FF01FF01FF01FF01FF01FF01FF01FF018F
:10017000FF01FF01FF01FF01FF01FF01FF01FF017F
:10018000FF01FF01FF01FF01FF01FF01FF01FF016F
:10019000FF01FF01FF01FF01FF01FF01FF01FF015F
:1001A000FF01FF01FF01FF01FF01FF01FF01FF014F
:1001B000000000000000000000000000000000003F
:1001C000000000000000000000000000000000002F
:1001D000000000000000000000000000000000001F
:1001E000000000000000000000000000000000000F
:1001F00000000000000000000000000000000000FF
:1002000000000000000000000000000000000000EE
:1002100000000000000000000000000000000000DE
:1002200000000000000000000000000000000000CE
:1002300000000000000000000000000000000000BE
:1002400000000000000000000000000000000000AE
:10025000000000000000000000000000000000009E
:10026000000000000000000000000000000000008E
:10027000000000000000000000000000000000007E
:10028000000000000000000000000000000000006E
:10029000000000000000000000000000000000005E
:1002A000000000000000000000000000000000004E
:1002B000000000000000000000000000000000003E
:1002C000000000000000000005000E001B002D00D3
:1002D000440060008100A600D000FF000200020080
:1002E00002000300030004000400050006000700EC
:1002F000080009000A000B000D000E00100011009C
:1003000013001500170019001C001E002100230017
:10031000260029002C002F003200360039003C0056
:100320004000430047004A004E005100540058006E
:100330005B005E00610063006500670069006A00A1
:100340006B006B006B006A006900660063005F0071
:100350005A0054004D0044003A002F0022002400AF
:10036000260028002A002C002F003100340036001F
:1003700039003C003F004200450049004C0050005D
:10038000530057005B006000640068006D0072005D
:1003900077007C00820087008D0093009900A00008
:1003A000A600AD00B400BB00C300CB00D300DB004F
:1003B000E400EC00F500FF00080112011D01270117
:1003C00032013D014901540161016D017A0187014A
:1003D0009501A301B101C001CF01DF01EF01FF01D0
:1003E000120226023A024F0264027A029102A80225
:1003F000C102DA02F3020E032903450361037F03FE
:100400009D03BD03DD03FE0311241FBECFEFD4E027
:10041000DEBFCDBF11E0A0E0B1E0E8E5F9E202C047
:1004200005900D92A035B107D9F722E0A0E5B1E023
:1004300001C01D92A730B207E1F70E9457110C943A
:10044000AA14DECDF89498ED9FBD83BF78940895EB
:10045000482F9B01E2EDF1E080E090E050815523D0
:1004600031F00196339680319105C1F70AC063E0FF
:1004700070E00E941114FC01EE52FE4F4083328363
:10048000218308950F931F93CF93DF93D091D201CF
:10049000DD2351F10091D3011091D401C091AF013E
:1004A000C150C7FD0DC0EC2FEE0FFF0BE055FE4F06
:1004B0000190F081E02DB8018D2F09958111F0CFC9
:1004C000E2EDF1E083818083848195819283818351
:1004D000339681E0EF3FF807A9F71092FF011092E1
:1004E000010210920002D2CFDF91CF911F910F91A4
:1004F0000895BC0180910402ABCF109204021092C7
:1005000003021092020281E08093840108950F9308
:100510001F93CF93C82F08EA17E0CC2349F082E05D
:1005200091DFC8010197F1F780E08CDFC150F5CF72
:10053000CF911F910F910895E0910701F09108016B
:100540003196FB70F460F0930801E093070180910D
:10055000A4018B5A8093A401E4918091A4018E0F91
:1005600008950F931F93CF93DF9300D01F92CDB7C1
:10057000DEB7209123013091240140912501298388
:100580003A834B83FE01319640E050E090E061E019
:1005900070E0B1919A01220F331F8C0102C01595B2
:1005A00007952A95E2F79801237061F02130D1F484
:1005B000A0B39B0101C0220FBA95EAF7322F309504
:1005C0003A2318C0A0B39B0101C0220FBA95EAF7E5
:1005D00020953A2F322330BB32B3322332BB31B3B2
:1005E00023230EC0A0B39B0101C0220FBA95EAF7E6
:1005F0003A2F322B30BB32B3322B32BB31B3232BE9
:1006000021BB4F5F5F4F4330510519F60F900F909C
:100610000F90DF91CF911F910F910895CF93DF93AA
:1006200000D000D000D0CDB7DEB790917F012091EF
:10063000C0013091C1012C5A394009F492E0843054
:1006400019F46093800121C06623F9F0823019F417
:1006500027E9261B622F26E0E6E2F1E0DE01119693
:1006600001900D922A95E1F7E82FF0E03197EE0F17
:10067000FF1F21E030E02C0F3D1FE20FF31F019020
:10068000F081E02DE90FF11D608326960FB6F894F6
:10069000DEBF0FBECDBFDF91CF910895BF92CF9245
:1006A000DF92EF92FF920F931F93CF93DF93EC01B2
:1006B00040917F01E0911C01EE2311F082E001C026
:1006C000842F90E0DC01AA5EBE4F2C9120931A018A
:1006D000DC01AD5EBE4F8C9180931901F0E0E05FCC
:1006E000FE4F3181622F70E0442349F0313039F4FC
:1006F0009B01280F311DC9019595879538C0C617F4
:10070000D707A4F1682F70E06C177D0784F14111C1
:1007100002C08C2F2CC0821B032F10E00150110946
:10072000E82EF12CC701B8010E945B1460937D0193
:100730006695E62FF0E0822FC12CD12CB12CB31698
:10074000B1F0C601B8010E944714822F860FCE0C6B
:10075000DF1CAE01481B510957FF03C0519541955D
:100760005109E417F5071CF4B394E9CF822FDF9108
:10077000CF911F910F91FF90EF90DF90CF90BF909E
:10078000089581E008956111609321010895662321
:1007900089F0813061F48091C3019091C201891B7D
:1007A000681B6093C20182E08093220103C0635EF4
:1007B0006093200180912001873418F086E48093B3
:1007C000200108956093780108950F931F93CF93AC
:1007D000DF9380917F018093850180911601809342
:1007E000860180911301809387018091100180938D
:1007F0008801809117018093890180911401809371
:100800008A018091110180938B018091180180935E
:100810008C018091150180938D018091120180934C
:100820008E0180911C0180938F01809180018093C3
:10083000900180917E018093910180911B018093B2
:100840009201809182018093930180918101809334
:100850009401809174018093950180911F01809390
:100860009601809175018093970180911E0180937C
:10087000980180910C018093990180910A018093E5
:100880009A0180910B0180939B01809109018093D3
:100890009C0180910D0180939D01809120018093A6
:1008A0009E018091C20180939F01809121018093DC
:1008B000A00180910F018093A10180910E0180938E
:1008C000A201809178018093A30182E020DEF89458
:1008D00005E811E0C1E8D0E0F80161918F01CE0197
:1008E0000E9498142196C03AD105B1F765EA80E8D4
:1008F00090E00E9498147894DF91CF911F910F910E
:100900000895882321F0813031F4829805C08298BF
:1009100092988A980895829A929A8A9A0895EF9264
:10092000FF921F93CF93DF93182F8091A60181111F
:1009300009C0112339F080911E01181718F4EFDF58
:1009400082E0E5DD1093A6011093A5018091A70137
:1009500081110BC006DE91E0111101C090E081E031
:10096000173408F480E0890FCCDF111110C0109209
:1009700006021092050218BA10926D0010926C00D7
:1009800010926B0010926A008898899831C08FEF9E
:10099000810F90E0880F991FFC01E452FD4F2591D3
:1009A00034913093060220930502FC01E055FE4F7E
:1009B0002591349128BBFC01EC57FF4F25913491D0
:1009C00080915E01A90140545109882339F060915A
:1009D0006E0070916F0046175707B8F330936900A7
:1009E00020936800811104C010926F0010926E0075
:1009F000C0910502D0910602E0906800F090690075
:100A00008091A601815090911F0191110BC090E03F
:100A10006FEF70E00E94111466E970E00E944714C5
:100A2000262F1AC09F3F61F490E06FEF70E00E94A4
:100A3000111466E970E00E944714262F20950CC01F
:100A4000892F90E064E670E00E94111463E670E084
:100A50000E945B142FEF260FBE0180E090E030E093
:100A600040E050E00E94221461587F4F8F4F9F4F0B
:100A70002FEF30E040E050E00E946E14C901C21B2D
:100A8000D30BE216F30630F42E193F09C20FD31F21
:100A9000C70109C0EC16FD0630F42E193F09CE013E
:100AA000820F931FE701D0936D00C0936C00909369
:100AB0006B0080936A00CD2B11F0889A01C0889852
:100AC000892B11F0899A01C0899810935E01809159
:100AD000A601823010F482E005C08A3010F481E073
:100AE00001C080E0DF91CF911F91FF90EF90AACCE1
:100AF000CF93C091A60186E48C0F873908F080E07F
:100B00000EDF83E004DD8C2FCF9109CFCF93C0910E
:100B1000A60180E004DF83E0FADC8C2FCF91FFCECA
:100B20000F931F93CF93DF93E82F8091C5019FEF21
:100B3000980F9C3120F480E014DD80E090C0CE2F2F
:100B4000C295CF70DE2FDF709091A701911103C085
:100B5000C33008F0C2E0D730A8F40091580110E08B
:100B60000F5F1F4FE9DC65E00E943B149801290FDD
:100B7000311DC90166E070E00E945B14809358014A
:100B8000ED2F41C0D730A9F40091580110E00F5F5C
:100B90001F4FD2DC65E00E943B149801290F311DE4
:100BA000C90166E070E00E945B1480935801FC016B
:100BB00035C0D830B1F48091A701882311F08FE0BF
:100BC00001C083E0682351F48091580190E00196C0
:100BD00066E070E00E945B1480935801E091580138
:100BE00012C09091A701992381F08D31D8F090E047
:100BF000E92FF0E0E15CFE4F2081821710F09E5F4C
:100C0000F7CF3197E081F0E009C0862F869563E049
:100C10000E943B14E92FF0E0EE0FFF1FE358FF4F57
:100C2000E49101C0E0E0C33071F48091570190E09D
:100C3000019663E170E00E94471480935701DC0144
:100C4000A45DBE4FCC91CC2329F0C13029F0EE0F2A
:100C5000C2E002C0C0E0E0E08E2F83DC8C2FDF9189
:100C6000CF911F910F914DCE813019F410928201D6
:100C70000895823019F4609381010895833019F446
:100C800060937E010895843011F460931B010895F0
:100C9000813069F4611101C080E0809375016111B8
:100CA00002C08FE701C081E080931F010895823068
:100CB00011F460931E010895CF93C0911C01C111DE
:100CC0004AC0883039F410927C0110927A01109257
:100CD000790142C0813B59F480917C01815083307D
:100CE000D0F583E080937C0180937B0134C0853B09
:100CF000B1F4CB016EE370E00E944714892B61F5DB
:100D000080917C018A3F40F58B5F80937C018093CA
:100D10007B0110927A0110927901EADE1DC08130C8
:100D2000D1F48091790190917A01019688382EE072
:100D3000920728F490937A01809379010DC0109264
:100D40007A011092790180917C01882329F08150E9
:100D500080937C0101C0C1E08C2FCF910895CF9387
:100D6000833B09F055C080917501882381F0672B82
:100D700009F065C080911F018E3F19F081E08093DA
:100D80001F0180911F01809580931F013DC0672B3B
:100D900029F481E08093560110925501809156010B
:100DA000882309F44DC09091050180911F01191607
:100DB00024F48E3F48F48F5F05C0992329F08230D8
:100DC00018F0815080931F01C091550190911F012F
:100DD000C03449F481E48093550181E089278093F0
:100DE0001F0194DE0DC080915401891309C0C11107
:100DF00002C08CDE02C0CF3F19F0CF5FC093550117
:100E000080911F01809354018091A60188DD15C057
:100E1000833EA9F41092560180910501819580933B
:100E2000050180911F01823010F481E003C08E3FE4
:100E300018F08FEF80930501C8DC80E001C081E0ED
:100E4000CF910895FF920F931F93CF93DF938C015F
:100E5000EB01F42E8091C0019091C101892B31F0FA
:100E6000E091C001F091C10189E009951093C101A1
:100E70000093C001012B39F0E091C001F091C10154
:100E8000BE018F2D099581E080938401DF91CF9180
:100E90001F910F91FF900895CF93DF93E091AF01E1
:100EA000EE2359F0E150E093AF01F0E0EE0FFF1FA9
:100EB000E055FE4FC081D18102C0C0E0D0E0E0919A
:100EC000AF01EE2341F0F0E0EE0FFF1FE255FE4FC1
:100ED0008081918102C080E090E04AE060E070E0B3
:100EE000B1DFCE01DF91CF910895883029F41092BF
:100EF00073011092590115C08130F9F49091590194
:100F0000911107C06032710568F180935901F5DADB
:100F100029C0913081F46B3B710528F082E0809309
:100F2000590180E01EC061157105E1F06270862FE5
:100F3000880F8E5E16C0B0DF15C0813811F0813E7B
:100F400089F491E090935901813E21F480917301DD
:100F5000865F03C0809173018F5F80937301CDDA48
:100F60008BE4DDDC80E008959C019091AF01983026
:100F700088F4E92FF0E0EE0FFF1FE055FE4F3183BC
:100F800020839F5F9093AF0148E0C9015BDF8091B0
:100F9000AF0108958FEF08950F931F93CF93DF93C1
:100FA000EC018B0179DFB801CE01DF91CF911F9168
:100FB0000F91DACF813C29F460E070E08FE498E093
:100FC00006C0823C39F460E070E085E198E0E4DF3F
:100FD00080E0089581E00895813C29F460E070E0AC
:100FE0008FE498E006C0823C31F460E070E08AED66
:100FF00097E0D2DF16C0813B49F4CB016EE370E08D
:101000000E944714892B69F473DD0BC0813E59F4AB
:10101000CB016EE370E00E9447146F5F60930D0197
:10102000D4DB80E0089581E00895CF93C0911C0146
:10103000C11117C0813C29F460E070E08FE498E0B2
:1010400006C0823C31F460E070E085E398E0A4DF04
:1010500009C0873B31F460E070E088EB99E084DF01
:1010600001C0C1E08C2FCF910895813C29F460E04C
:1010700070E08FE498E006C0823C31F460E070E0FC
:101080008CEE97E089DF07C0873B39F460E070E0C1
:101090008CEB99E069DF80E0089581E008950F937B
:1010A0001F93CF938B01883079F480E038DC60E0C7
:1010B00080910F0135DD10927C01012B19F481E044
:1010C0008093A701C0E0FCC0813049F4693171050B
:1010D000C8F38093A70180910F0122DDF3CF833005
:1010E00029F520918201222381F08091810190E0F5
:1010F00062EC71E00E9411140817190730F0209378
:101100001D018091740180931F01602F80910F0158
:1011100007DD809178018823A9F290E062EC71E00C
:101120000E9411148017910768F64DC0813B99F415
:1011300081E090E0B3DAF3DB80917E018111C2CFD0
:1011400080917F01811104C00831110508F4BACFE4
:1011500061E070E028C0813ED9F3813821F48091AC
:101160001D0190E013C0813C21F46091A60170E064
:101170001AC0823B79F480911B0190911C0191115E
:1011800080918001811104C086E990E087DA05C072
:1011900086E903C0823E19F480E0C1DB93CF823C34
:1011A00031F466E970E085EC9EE0F6DE8BCF8339A2
:1011B00099F3833C29F460E070E085E198E0F5CF95
:1011C000843C31F495DC60E070E084EC99E0EDCF94
:1011D0008D3B41F4F89488ED8FBD88E880BF78940A
:1011E000A895FFCF8F3C29F460E070E081EC93E09C
:1011F000DCCFC0911C018A3B71F4672B61F4CC23D6
:1012000029F076DC10921C01E0DA5CCF60E070E03F
:101210008CEA99E052C0C11152C08A3C29F468DCC2
:1012200081E080931C013FC0833B29F460E070E0C3
:101230008AEF9CE007C0853C39F45ADC60E070E03E
:101240008DE79EE0A9DE3CC0873C91F490910F01B0
:10125000892F82958F708F5F83708295807F9F70BA
:10126000892B80930F0160E05BDCAFDA41DC28C0A2
:10127000873BB9F4C8018F739927892B69F4909142
:101280000F01892F8F708F5F292F207F6BE00E94C5
:101290003B14922B90930F01602F80910F0140DC43
:1012A0000FC0873E11F491DA0BC0893B41F4012B4A
:1012B00031F460E070E084EB99E056DE01C0C1E0FB
:1012C0008C2FCF911F910F910895883061F4109267
:1012D0005A0180E024DB8091A801811137C081E0B0
:1012E00080935A0123C0982F907F903BB9F42091AE
:1012F0005A01421780F0CB016DE570E00E9447145F
:10130000029739F42F5F20935A014217F8F088E3CF
:1013100003C082E101C080E002DB18C0903E61F4AE
:1013200080915A01882389F0481778F060E070E0D6
:1013300085E797E019DE0AC08A3041F460917301B5
:1013400080915A01F901099540DAA6DD80E00895FF
:101350002EE033E043E0B9CF2EE033E044E0B5CFF8
:1013600024E336E044E0B1CF28E436E042E0ADCFFC
:1013700023EC33E041E0A9CF27EC33E042E0A5CFF6
:1013800022EE33E041E0A1CF0F931F93CF93DF9381
:10139000D82F8B01873B19F480E0C1DA54C08079E3
:1013A0008039B1F420911601909117018D2F8F7023
:1013B000823041F480918201811108C0822F291767
:1013C00028F403C0822F921708F4892FA8DA0BC0E3
:1013D000803811F480E0A3DAD83029F460E08091FD
:1013E0000E019EDB30C0D13039F40931110508F40B
:1013F00067C0D093A70102C0D33029F4602F809139
:101400000E018EDB5DC0D43C71F4C0918201CC230F
:1014100019F06C2F70E013C060911D0170E085EC35
:101420009EE0BADD50C0D43B31F462DB109204027E
:1014300061E070E004C0D53C31F466E970E085EC11
:101440009EE0AADD3DC0C0911C01C1113BC0DA3B4A
:1014500031F460E070E080EC99E086DD34C0D73C88
:1014600091F490910E01892F82958F708F5F837018
:101470008295807F9F70892B80930E0160E050DB06
:10148000A4D936DB20C0D73BB9F4C8018F739927A4
:10149000892B69F490910E01892F8F708F5F292F0E
:1014A000207F6BE00E943B14922B90930E01602FE3
:1014B00080910E0135DB07C0D73E21F486D903C0E9
:1014C000C0E001C0C1E08C2FDF91CF911F910F913F
:1014D000089586E884B91092CF011092D00183B1AB
:1014E000886483B90895F5DFE1E6F0E080818260E9
:1014F0008083139A87EE83B908951092D10120B1A9
:1015000091B13091A4012295269526952370892FBB
:1015100090E0880F991F880F991F820F911D830FEC
:101520008093A4018091C601882309F407C1109219
:10153000C6018091CF019091A701992319F01F98BE
:101540001092CF0181113EC080912201882349F081
:101550008091CB019091CC019093C8018093C701F9
:1015600004C08091C7019091C8014096807E9695F5
:10157000879561EC72E00E944714809121018750A9
:10158000680F6093C50180917201882311F081502A
:1015900008C06D3140F460E070E084E00E942802F1
:1015A00085E0809372018091A7018111BEC08EE811
:1015B00084B981E08093CF011092D00183B1886417
:1015C00083B9B3C0813009F0B0C08091220181118C
:1015D00043C08091C9019091CA01409645E096951B
:1015E00087954A95E1F76091C201AC015695479500
:1015F000062E000C770B9B012E503140240F351F17
:101600003093C4012093C30120916101E22FF0E0E7
:10161000EE0FFF1FEE59FE4F40815181DC01A41BEC
:10162000B50BAD01918380832F5F277020936101FB
:101630009D01220F331F220F331F820F931F209112
:10164000200130E0261B370B225F3E4F220F331F55
:10165000821B930B23E01CC08091CD019091CE01A1
:101660009093CA018093C901409635E0969587957D
:101670003A95E1F7E2E6F1E081939193B1E0E23748
:10168000FB07D1F7A6CF009709F00196215029F06A
:1016900018161906C4F70197F9CF18161906E4F4BD
:1016A00057FD39C02091600112160CF1880F991F67
:1016B000BC016350710977FF02C06F5F7F4F759562
:1016C00067951616170614F061E070E088E1861B36
:1016D0008093600185E026C08C3F2FEF9207DCF4F9
:1016E00057FF19C02091600127FF05C02450281B17
:1016F0002093600119C024EE281B209360012091E3
:10170000C5012F3188F06CEF7FEF681B790B759561
:10171000679586E007C08091C5018E3128F060E0B2
:1017200070E087E00E942802D4DE809122018823A5
:1017300029F0809122018150809322010895843004
:1017400021F58091C0019091C1012CE08A3F920760
:1017500029F469E170E085EC9EE015C0855C9E404F
:1017600071F49091A601923050F0892F869596954C
:101770009695890F80938301D2D880E0089560E028
:1017800070E08FE498E008DCF8CF81E008950F93D3
:101790001F93CF931092AA018091020290910302AD
:1017A0009C012F5F3F4F88279078822B932B90933B
:1017B0000302809302029091A8012FB1822F80959D
:1017C000881F8827881F8093A801981729F11092F5
:1017D000A7018093A80190910402892F27FD0AC0D8
:1017E00080699F709F3009F08F5F8093040280E0D2
:1017F00090E00CC08F7E95FD02C0806801C0806CB7
:101800008093040280910202909103020E94790267
:101810001092030210920202009102021091030240
:101820008091A701882379F0B80183E00E94280203
:101830000E9442020F731127012B09F046C010923B
:101840005F0151DE32C0C09104028C2F807F803B4B
:1018500019F460E070E001C0B80181E00E94280244
:10186000C4FF13C0C5FF02C0C8010CC00831110578
:10187000E0F01092030210920202C062C0930402D0
:1018800080E090E00E94790210C0CC2371F0C5FD89
:101890000AC00231110548F0C064C093040280E020
:1018A00090E00E9479020E947D0280915F01811187
:1018B00006C083B1886483B981E08093C6018091BA
:1018C0005F018F5F8F7180935F01CF911F910F91A7
:1018D00008958091D101811110DE8091AA018111BA
:1018E00056CF0895EF92FF920F931F93CF93DF93FC
:1018F000EC0108E017E082ECE82EFF24F394209737
:10190000D9F080918401811119C08091A6018230A3
:1019100028F482E00E942202C70104C080E00E94F5
:101920002202C8010197F1F780E00E942202D1DF74
:101930000E9442022197E3CF81E001C080E0DF9165
:10194000CF911F910F91FF90EF900895CF93C82FE3
:10195000882391F086E40E948F0486EA90E0C2DF3B
:1019600080E00E948F048AEF90E0BCDFC15091F7C5
:101970008AE992E0CF91B6CF86E40E948F0488E096
:1019800090E0B0DF80E00E948F048AEF90E0AADF51
:10199000EFCFCF93DF9364E66ED7282F892F6AE0CD
:1019A0006AD7EC01222341F0822FD0DF8C2FCEDFCB
:1019B0008D2FDF91CF91CACFC111F8CFF9CFCF933F
:1019C000DF93D82FC3E080911D010E948F048DE723
:1019D00090E088DFDD2319F08AEF90E083DF80E07C
:1019E0000E948F048DE790E07DDFC15061F7DF91A9
:1019F000CF910895DF92EF92FF920F931F93CF93B1
:101A0000DF93D82F8B01C0910C0181E08093770187
:101A1000C33009F0DDC0F0907C018D2F4DD9FF203F
:101A200051F080917C01811106C060E070E08FE48C
:101A300098E0B2DACDC0D83021F481E08093030180
:101A4000C9C0D23C19F410927C01D2C0D13BC1F480
:101A500090910201012B49F4963610F08FEF03C0EC
:101A6000923018F481E08093030180910301890F83
:101A700011F481E037C1873608F434C186E632C1FB
:101A8000D13E31F480910301819580930301E7C039
:101A9000D23B61F481E080930301809102018230A6
:101AA00008F4E5C0815080930201E1C0D13009F013
:101AB000EFC00932110511F4D0930301D090530106
:101AC0008D2D880FD7FC809590E069E070E0A9D655
:101AD000292FE09052018E2D880FE7FC8095D09140
:101AE00001016D2F70E090E09CD6290FF09051011C
:101AF0008F2D880FF7FC8095C09100016C2F70E04E
:101B000090E08FD6920F6091020170E0690F711D15
:101B100080917C01813091F48091790190917A01DA
:101B200025E0969587952A95E1F724E730E0A9010D
:101B3000481B590BCA0175D6B901A9D6862F0E9438
:101B40008F0400FD06C00E949C028170D80ED092C6
:101B5000530180915001E80EE09252010E949C02D4
:101B600065E289D6F90EF09251010E949C028F73B2
:101B700031F40E949C026DE07ED690935001DD23EB
:101B800039F00E949C028F7319F4D150D093010157
:101B90000E949C02811108C00E949C026EE06BD6DC
:101BA0009093010110925201C33038F00E949C02C0
:101BB0008F7119F4C150C09300010E949C028F776D
:101BC00009F07BC00E949C0287708093000175C061
:101BD000D83021F481E08093040186C0D13C31F4F7
:101BE00060E070E08FE498E0D7D97EC0D23C49F441
:101BF0008C2F90E0019665E070E05DD680930C013B
:101C00004CC0D13B51F5C23090F400FD6DC0EC2FBB
:101C1000F0E0E65FFE4F808190910401891B8830DF
:101C200020F08F3F99F58EEF31C088E02FC0C4308F
:101C300009F05AC09091090180910401890F823006
:101C400010F482E003C0893708F088E78093090127
:101C5000809109010E948F0447C0D13E31F48091E8
:101C6000040181958093040118C0D23BA1F481E066
:101C700080930401C23068F500FD36C0EC2FF0E01F
:101C8000E65FFE4F80818F3F79F18F5F80832CC0AC
:101C9000D13C09F4A5CFD23E19F40E94E50324C03B
:101CA000D53C39F460E070E08DE79EE075D980E0C6
:101CB000D1CFD13011F081E018C00932110519F4EB
:101CC00081E0809304018091A401080F0093A40196
:101CD0000BC0C43049F480910901833008F4B8CFB7
:101CE0008150B4CF8093020180E0DF91CF911F91AA
:101CF0000F91FF90EF90DF9008950F931F93CF9374
:101D0000DF93D82F8B01883031F4809177018130B7
:101D100011F488E06FDE8D2F8079803961F481E0E5
:101D200080937601C0917701C1110CC080911D0193
:101D30000E948F0424C0803839F41092760180E02C
:101D40000E948F04C0E01BC0D130C1F4C091760165
:101D5000CC2351F0809177018130A1F7B801DF9158
:101D6000CF911F910F9146CE0733114058F3D09376
:101D7000A70160E080E00E94900501C0C1E08C2FC7
:101D8000DF91CF911F910F910895AF92BF92CF92A3
:101D9000DF92EF92FF920F931F93CF93DF93182F51
:101DA000EB01D0901A01F0901901B0907F01BB2097
:101DB00019F0C0907D0102C0CC24C39480911B0116
:101DC00000911C01011180918001882349F081302C
:101DD00021F080911D018F1518F0A6E9EA2E01C0AF
:101DE000EF2CA0907C01BE01812F0E945C066091C7
:101DF0007C01662339F0A1100CC08091A60180936C
:101E00005D0107C0AA2029F060E070E08FE498E04F
:101E100043C0812F8D7F8830F9F4109277011A30FA
:101E200019F4C0911D01D0E08D2D90E08C179D0715
:101E300038F48F2D90E0C817D90710F4C0931D0116
:101E4000CE010E944E03809383010E948F0481E0A3
:101E50008093060100E0C3C1113CB1F2123C99F439
:101E60008091A6018E1520F4E09283018E2D04C08E
:101E700080911D01809383010E948F048091A601AF
:101E800080935D01E7CF143C49F480E00E948F0409
:101E900060E070E084EC99E07FD8DCCF8FE4810FC4
:101EA000823008F055C0BB2039F0CE0168E170E007
:101EB000EED4892B31F0CECF6091100170E0CE01CD
:101EC000F7CF2091A601209761F4123B11F48FEF18
:101ED00005C02F15E0F7D21600F181E080930601CE
:101EE0001CC0E0911001F0E0CF0166E371E099D4ED
:101EF0008C179D0710F42F1550F7CF016CE672E098
:101F000090D48C179D0748F4D21638F00E947805BB
:101F100060E070E084EC99E03FD8D091A601809118
:101F200006016C2D70E0082E000C990B7AD48D0FF1
:101F3000911D0E944E03C82F80931D01D81721F0D8
:101F4000F81202C00E948605C09383018C2F94CFA3
:101F50008FE1810F823020F480910601819578CF46
:101F6000113009F0B3C0A99711F41093060166234C
:101F700091F080915D0170E06150710990E051D461
:101F800060917B0170E097D4611101C061E06093C2
:101F9000A501609383018091A5019091A601282F4E
:101FA00030E0291B310960915B0170915C016F5F2A
:101FB0007F4F70935C0160935B012115310509F43B
:101FC00049CF37FF05C0933830F040E450E005C0FA
:101FD00040E052E002C040E051E05695479537FF9F
:101FE00002C02F5F3F4F3595279521153105A9F781
:101FF0004617570708F02ECF891710F48FEF03C04C
:10200000981710F481E0890FCFEFC80F2C2F30E024
:10201000A901440F551FBA0164527D4FFB01A591E0
:10202000B4912091050230910602C91760F4211580
:10203000310549F4AF3F91E0B90729F4B0930602A6
:10204000A09305020FC02A173B0718F42F5F3F4FDC
:1020500005C0A217B30730F42150310930930602AE
:10206000209305029A0120553E4FF901A591B491A4
:1020700048B350E04A175B0718F498B39F5F07C056
:1020800048B350E0A417B50718F498B3915098BB23
:10209000FB0165917491409105025091060264170D
:1020A000750779F498B3F90145915491292F30E0DF
:1020B0002417350731F4C091A5010E948F04C09305
:1020C000A50110925C0110925B01C4CE1530A9F4F9
:1020D0008091A601823408F4BDCE90E08C1B9D0B4C
:1020E000282F813491052CF08739910518F026E9C5
:1020F00001C021E42093A501ADCE1630B1F490913A
:10210000A60180918301981708F0A4CEC90FD11DB4
:1021100090E08C179D0734F0C134D10524F4C1E45C
:10212000D0E001C0EC018C2F0EC0173079F49091F3
:10213000A5018091A601891710F48F5F04C098173C
:1021400008F088CE81508093A50184CE011146C04D
:10215000133CC9F481E0B11080E080937F010E94BC
:10216000E5030E9486058091A60190E00E944E033F
:1021700080931D01809383010E948F048091A601AA
:1021800080935D012CC0153C51F480E00E948F04C7
:1021900060E070E08DE79EE00E94CC0720C0173B16
:1021A00029F460E070E088EA99E015C01A3C69F40F
:1021B0008091A6018093820180911F018093740118
:1021C0000E94E5030E9478050AC01A3B39F460E0DA
:1021D00070E080EB99E00E94B40701C001E0802F1D
:1021E000DF91CF911F910F91FF90EF90DF90CF90F3
:1021F000BF90AF9008951F920F920FB60F921124C7
:102200002F933F938F939F93AF93BF93EF93FF933E
:102210008091D0018823E9F0E091CF0120B131B164
:10222000F0E0EE0FFF1FDF01A553BE4F2D933C934F
:10223000E953FE4F808191818217930708F401963C
:102240002817390708F401979183808381E08093F0
:10225000D10181E08093D001FF91EF91BF91AF91C7
:102260009F918F913F912F910F900FBE0F901F90D4
:1022700018951F920F920FB60F9211248F9381E041
:102280008093AA018F910F900FBE0F901F90189509
:102290001F920F920FB60F9211248F9381E08093BB
:1022A000A9018F910F900FBE0F901F901895F89471
:1022B00085B7877F85BF88ED90E00FB6F894A89525
:1022C0008FBD90B7977F90BF0FBE81E088B998E02F
:1022D0009CB99FE790BB92EA9093720091E1909332
:1022E000710091E89BBB8ABB8FEF91E090936900EE
:1022F0008093680080E882BB87BD8CB788608CBF04
:10230000A89580E480BFEFD8789481E00E9487028E
:1023100060E070E08FE99BE00E94B40710928401B6
:102320000E9478059FB1892F8095881F8827881F74
:102330008093A80197FF0BC082E00E948702F89467
:1023400080E890E0EDD2853AB9F17894BFC0C0E062
:102350008C2F0E948F0483E190E0C4DA8C2F869545
:102360000E948F0483E190E0BDDA9FB1892F8095B0
:10237000881F8827881F8093A80197FD13C0CF5F0F
:10238000C03431F765E181E00E94C7030E94E50394
:10239000C6E98C2F0E948F0484E090E0A3DAC1503C
:1023A000C1F7CACFCC2341F28C2F0E948F048DE05D
:1023B00090E098DAC150F6CF05E811E0C1E8D0E02E
:1023C000CE01AED2F80181938F012196C03AD1059A
:1023D000B9F778948091850180937F01809186017F
:1023E0008093160180918701809313018091880169
:1023F00080931001809189018093170180918A0157
:102400008093140180918B018093110180918C0144
:102410008093180180918D018093150180918E0128
:102420008093120180918F0180931C018091900113
:10243000809380018091910180937E01809192012F
:1024400080931B018091930180938201809194017C
:102450008093810180919501809374018091960110
:1024600080931F018091970180937501809198015D
:1024700080931E018091990180930C0180919A01B3
:1024800080930A0180919B0180930B0180919C01B4
:102490008093090180919D0180930D0180919E019F
:1024A0008093200180919F018093C2018091A001BF
:1024B000809321018091A10180930F018091A2015D
:1024C00080930E018091A301809378018091820115
:1024D000811180931D0160E070E08FEA96E00E9418
:1024E000B40761E070E08FE498E00E94B40743E431
:1024F000342E52E0452E60E4562E7724739477E014
:10250000672ECC24C394D12CFCEF8F2EF3E09F2EAA
:10251000AFE4AA2EA8E0BA2E0E9442028091AD013B
:102520009091AE01009751F06091AB017091AC01B8
:102530000E94CC071092AE011092AD018091A701CC
:10254000882309F448C080E00E948F04A89530BE1B
:102550001F989FB1892F8095881F8827881F809397
:10256000A80197FFF6CF0E947D028CB788608CBFD0
:102570001092D1011092AA011092A9018091A70195
:10258000882301F186B78F79806486BF86B7806122
:1025900086BF889586B78F7E86BF8091A9018111FD
:1025A0001092A7018091D101882331F0709222010D
:1025B0007092C6010E947D0A8091AA018823F1F2DF
:1025C000E6D8DCCF409222018CB7877F8CBF0E9477
:1025D000730AA89550BE7DD9109284018091C001E4
:1025E0009091C101F3E0813C9F0779F4C0E7D0E00E
:1025F000FE0184918053AAD98CE291E073D921968F
:10260000F0E0CC37DF07A1F7C6C02CE08A3F920785
:1026100079F03EE08D37930709F0B2C080917701E1
:10262000813009F0F3C080917601882309F4EEC06F
:10263000C0910C01C23011F120F0C43009F483C004
:102640006BCFEC2FF0E0E65FFE4FD08186E90E9471
:102650008F04C11109C0DA3220F4C4010197F1F7E7
:1026600007C081E090E003C08D2F869590E03AD9B5
:1026700080E00E948F048D2F90E0C6C00E949C02D3
:102680008F73E82EF12C0E949C02662DF4D0E60197
:1026900002C0CC0FDD1F9A95E2F70E949C0265E014
:1026A000EAD0F60102C0EE0FFF1F9A95E2F7CE0FB7
:1026B000DF1F0E949C0290E0BE01FDD0C80FD91F11
:1026C000C739D10514F0C6E9D0E08C2F0E948F04E1
:1026D000C70108D98E0133E0159507953A95E1F7C2
:1026E000011101C001E010E0C701FCD8C01BD10BF3
:1026F000D7FF02C0C0E0D0E08C2F0E948F040E9460
:102700009C02837039F4C701EDD8CE019595879569
:102710000E948F04C230D1053CF70E949C026DE0FC
:10272000AAD0E60102C0CC0FDD1F9A95E2F70E9405
:102730009C0290E0BE01ABD0C80FD91F80E00E9480
:102740008F04CE0161C0C0910901CC0FC73908F0D8
:10275000C6E9D4E08C2F0E948F0485E090E0C2D8B7
:10276000809109010E948F0481E490E0BBD8D15090
:1027700089F780ED92E0B6D880E00E948F04CCCE3D
:10278000F8E085319F0781F48091C50102D98091DD
:102790001C01882381F0B092AE01A092AD0110928D
:1027A000AC011092AB01B8CE28E08533920731F42A
:1027B0008091C301EED888EE93E026C037E08C3ECE
:1027C0009307B9F48091A8018111A6CE80911D01D3
:1027D0000E948F0484E690E085D880E00E948F04F8
:1027E00080910D0190E068EE73E01BD08456910952
:1027F0000BC08A5D974051F480E0E1D881E0DFD8DA
:1028000080E0DDD881E792E06DD886CE86B78F79FB
:1028100086BF86B7806186BF889586B78F7E86BF64
:102820007BCE0024552704C0080E591F880F991F1E
:10283000009729F076956795B8F37105B9F7802D63
:10284000952F0895EE27FF27AA27BB2708C0A20FC0
:10285000B31FE41FF51F220F331F441F551F96950A
:1028600087957795679598F37040A9F7009799F742
:10287000BD01CF010895991B79E004C0991F9617F7
:1028800008F0961B881F7A95C9F780950895AA1BB2
:10289000BB1B51E107C0AA1FBB1FA617B70710F04B
:1028A000A61BB70B881F991F5A95A9F7809590957D
:1028B000BC01CD01089597FB072E16F4009406D0B5
:1028C00077FD08D0E4DF07FC05D03EF490958195B4
:1028D0009F4F0895709561957F4F0895A1E21A2E3C
:1028E000AA1BBB1BFD010DC0AA1FBB1FEE1FFF1FB4
:1028F000A217B307E407F50720F0A21BB30BE40B04
:10290000F50B661F771F881F991F1A9469F760954A
:102910007095809590959B01AC01BD01CF01089504
:10292000E199FECF1FBA8EBBE09A99278DB3089527
:10293000262FE199FECF1FBA8EBBE09A81500DB2CF
:10294000021639F01CBA2DBB0FB6F894E29AE19A40
:082950000FBE0895F894FFCFBB
:10295800080E1801010101000482294303023718F7
:102968000107058282820A0A0A820A010146158045
:102978002D070205040316011301100102010000CE
:10298800000000000001000000000000000001003D
:1029980000210123022503270429052C06FF060030
:00000001FF
